{
  "_format": "hh-sol-artifact-1",
  "contractName": "ChainlinkTestHelper",
  "sourceName": "src/v0.8/tests/ChainlinkTestHelper.sol",
  "abi": [
    {
      "anonymous": false,
      "inputs": [
        {
          "indexed": false,
          "internalType": "bytes",
          "name": "payload",
          "type": "bytes"
        }
      ],
      "name": "RequestData",
      "type": "event"
    },
    {
      "inputs": [
        {
          "internalType": "string",
          "name": "_key",
          "type": "string"
        },
        {
          "internalType": "string",
          "name": "_value",
          "type": "string"
        }
      ],
      "name": "add",
      "outputs": [],
      "stateMutability": "nonpayable",
      "type": "function"
    },
    {
      "inputs": [
        {
          "internalType": "string",
          "name": "_key",
          "type": "string"
        },
        {
          "internalType": "bytes",
          "name": "_value",
          "type": "bytes"
        }
      ],
      "name": "addBytes",
      "outputs": [],
      "stateMutability": "nonpayable",
      "type": "function"
    },
    {
      "inputs": [
        {
          "internalType": "string",
          "name": "_key",
          "type": "string"
        },
        {
          "internalType": "int256",
          "name": "_value",
          "type": "int256"
        }
      ],
      "name": "addInt",
      "outputs": [],
      "stateMutability": "nonpayable",
      "type": "function"
    },
    {
      "inputs": [
        {
          "internalType": "string",
          "name": "_key",
          "type": "string"
        },
        {
          "internalType": "string[]",
          "name": "_values",
          "type": "string[]"
        }
      ],
      "name": "addStringArray",
      "outputs": [],
      "stateMutability": "nonpayable",
      "type": "function"
    },
    {
      "inputs": [
        {
          "internalType": "string",
          "name": "_key",
          "type": "string"
        },
        {
          "internalType": "uint256",
          "name": "_value",
          "type": "uint256"
        }
      ],
      "name": "addUint",
      "outputs": [],
      "stateMutability": "nonpayable",
      "type": "function"
    },
    {
      "inputs": [],
      "name": "closeEvent",
      "outputs": [],
      "stateMutability": "nonpayable",
      "type": "function"
    },
    {
      "inputs": [
        {
          "internalType": "bytes",
          "name": "data",
          "type": "bytes"
        }
      ],
      "name": "setBuffer",
      "outputs": [],
      "stateMutability": "nonpayable",
      "type": "function"
    }
  ],
  "bytecode": "0x608060405234801561001057600080fd5b506117cd806100206000396000f3fe608060405234801561001057600080fd5b506004361061007d5760003560e01c80635e31692e1161005b5780635e31692e146100b2578063c85ddbc0146100c5578063cc39406f146100d8578063ebdf86ca146100eb57600080fd5b806303dc5326146100825780630e734a581461008c5780632255beb01461009f575b600080fd5b61008a6100fe565b005b61008a61009a3660046112f7565b610139565b61008a6100ad366004611293565b610324565b61008a6100c03660046112f7565b61045d565b61008a6100d33660046111a9565b610596565b61008a6100e6366004611174565b6106cf565b61008a6100f9366004611293565b6108b8565b6040517f84485ae823e5c366e9581c146349e23f73b2f459d9eee1b9f15f36aac3b3145a9061012f9060039061133c565b60405180910390a1565b6040805160a08101825260008054825260015473ffffffffffffffffffffffffffffffffffffffff8116602084015274010000000000000000000000000000000000000000900460e01b7fffffffff000000000000000000000000000000000000000000000000000000001682840152600254606083015282518084019093526003805491938492608085019290829082906101d490611671565b80601f016020809104026020016040519081016040528092919081815260200182805461020090611671565b801561024d5780601f106102225761010080835404028352916020019161024d565b820191906000526020600020905b81548152906001019060200180831161023057829003601f168201915b50505091835250506001919091015460209091015290525090506102728184846109f1565b8051600090815560208083015160018054604086015160e01c74010000000000000000000000000000000000000000027fffffffffffffffff00000000000000000000000000000000000000000000000090911673ffffffffffffffffffffffffffffffffffffffff90931692909217919091179055606083015160025560808301518051805185949360039261030f928492919091019061104d565b50602082015181600101555050905050505050565b6040805160a08101825260008054825260015473ffffffffffffffffffffffffffffffffffffffff8116602084015274010000000000000000000000000000000000000000900460e01b7fffffffff000000000000000000000000000000000000000000000000000000001682840152600254606083015282518084019093526003805491938492608085019290829082906103bf90611671565b80601f01602080910402602001604051908101604052809291908181526020018280546103eb90611671565b80156104385780601f1061040d57610100808354040283529160200191610438565b820191906000526020600020905b81548152906001019060200180831161041b57829003601f168201915b5050509183525050600191909101546020909101529052509050610272818484610a14565b6040805160a08101825260008054825260015473ffffffffffffffffffffffffffffffffffffffff8116602084015274010000000000000000000000000000000000000000900460e01b7fffffffff000000000000000000000000000000000000000000000000000000001682840152600254606083015282518084019093526003805491938492608085019290829082906104f890611671565b80601f016020809104026020016040519081016040528092919081815260200182805461052490611671565b80156105715780601f1061054657610100808354040283529160200191610571565b820191906000526020600020905b81548152906001019060200180831161055457829003601f168201915b5050509183525050600191909101546020909101529052509050610272818484610a32565b6040805160a08101825260008054825260015473ffffffffffffffffffffffffffffffffffffffff8116602084015274010000000000000000000000000000000000000000900460e01b7fffffffff0000000000000000000000000000000000000000000000000000000016828401526002546060830152825180840190935260038054919384926080850192908290829061063190611671565b80601f016020809104026020016040519081016040528092919081815260200182805461065d90611671565b80156106aa5780601f1061067f576101008083540402835291602001916106aa565b820191906000526020600020905b81548152906001019060200180831161068d57829003601f168201915b5050509183525050600191909101546020909101529052509050610272818484610a50565b6040805160a08101825260008054825260015473ffffffffffffffffffffffffffffffffffffffff8116602084015274010000000000000000000000000000000000000000900460e01b7fffffffff0000000000000000000000000000000000000000000000000000000016828401526002546060830152825180840190935260038054919384926080850192908290829061076a90611671565b80601f016020809104026020016040519081016040528092919081815260200182805461079690611671565b80156107e35780601f106107b8576101008083540402835291602001916107e3565b820191906000526020600020905b8154815290600101906020018083116107c657829003601f168201915b50505091835250506001919091015460209091015290525090506108078183610ac8565b8051600090815560208083015160018054604086015160e01c74010000000000000000000000000000000000000000027fffffffffffffffff00000000000000000000000000000000000000000000000090911673ffffffffffffffffffffffffffffffffffffffff9093169290921791909117905560608301516002556080830151805180518594936003926108a4928492919091019061104d565b506020820151816001015550509050505050565b6040805160a08101825260008054825260015473ffffffffffffffffffffffffffffffffffffffff8116602084015274010000000000000000000000000000000000000000900460e01b7fffffffff0000000000000000000000000000000000000000000000000000000016828401526002546060830152825180840190935260038054919384926080850192908290829061095390611671565b80601f016020809104026020016040519081016040528092919081815260200182805461097f90611671565b80156109cc5780601f106109a1576101008083540402835291602001916109cc565b820191906000526020600020905b8154815290600101906020018083116109af57829003601f168201915b5050509183525050600191909101546020909101529052509050610272818484610ae6565b6080830151610a009083610b00565b6080830151610a0f9082610b17565b505050565b6080830151610a239083610b00565b6080830151610a0f9082610b27565b6080830151610a419083610b00565b6080830151610a0f9082610b34565b6080830151610a5f9083610b00565b610a6c8360800151610bc9565b60005b8151811015610aba57610aa8828281518110610a8d57610a8d611762565b60200260200101518560800151610b0090919063ffffffff16565b80610ab2816116bf565b915050610a6f565b50610a0f8360800151610bd7565b610ad782608001518251610be2565b50610a0f826080015182610c4d565b6080830151610af59083610b00565b6080830151610a0f90825b610b0d8260038351610c7b565b610a0f8282610c4d565b610b2382600083610c7b565b5050565b610b0d8260028351610c7b565b7fffffffffffffffffffffffffffffffffffffffffffffffff0000000000000000811215610b6657610b238282610d4f565b67ffffffffffffffff811315610b8057610b238282610daf565b60008112610b9457610b2382600083610c7b565b610b23826001610bc4847fffffffffffffffffffffffffffffffffffffffffffffffffffffffffffffffff6115e6565b610c7b565b610bd4816004610dd2565b50565b610bd4816007610dd2565b604080518082019091526060815260006020820152610c026020836116f8565b15610c2a57610c126020836116f8565b610c1d90602061165a565b610c27908361146a565b91505b506020808301829052604080518085526000815283019091019052815b92915050565b604080518082019091526060815260006020820152610c7483846000015151848551610de7565b9392505050565b60178111610c9c57610c968360e0600585901b168317610eef565b50505050565b60ff8111610cc657610cb9836018611fe0600586901b1617610eef565b50610c9683826001610f14565b61ffff8111610cf157610ce4836019611fe0600586901b1617610eef565b50610c9683826002610f14565b63ffffffff8111610d1e57610d1183601a611fe0600586901b1617610eef565b50610c9683826004610f14565b67ffffffffffffffff8111610a0f57610d4283601b611fe0600586901b1617610eef565b50610c9683826008610f14565b610d5a8260c3610eef565b50610b2382610d89837fffffffffffffffffffffffffffffffffffffffffffffffffffffffffffffffff6115e6565b604051602001610d9b91815260200190565b604051602081830303815290604052610b27565b610dba8260c2610eef565b50610b238282604051602001610d9b91815260200190565b610a0f82601f611fe0600585901b1617610eef565b6040805180820190915260608152600060208201528251821115610e0a57600080fd5b6020850151610e19838661146a565b1115610e4c57610e4c85610e3c87602001518786610e37919061146a565b610f42565b610e479060026115a9565b610f59565b600080865180518760208301019350808887011115610e6b5787860182525b505050602084015b60208410610eab5780518252610e8a60208361146a565b9150610e9760208261146a565b9050610ea460208561165a565b9350610e73565b5181517fffffffffffffffffffffffffffffffffffffffffffffffffffffffffffffffff60208690036101000a019081169019919091161790525083949350505050565b604080518082019091526060815260006020820152610c748384600001515184610f70565b604080518082019091526060815260006020820152610f3a848560000151518585610fcc565b949350505050565b600081831115610f53575081610c47565b50919050565b8151610f658383610be2565b50610c968382610c4d565b60408051808201909152606081526000602082015283602001518310610fa557610fa58485602001516002610e4791906115a9565b835180516020858301018481535080851415610fc2576001810182525b5093949350505050565b6040805180820190915260608152600060208201526020850151610ff0858461146a565b11156110045761100485610e3c868561146a565b60006001611014846101006114e3565b61101e919061165a565b90508551838682010185831982511617815250805184870111156110425783860181525b509495945050505050565b82805461105990611671565b90600052602060002090601f01602090048101928261107b57600085556110c1565b82601f1061109457805160ff19168380011785556110c1565b828001600101855582156110c1579182015b828111156110c15782518255916020019190600101906110a6565b506110cd9291506110d1565b5090565b5b808211156110cd57600081556001016110d2565b600082601f8301126110f757600080fd5b813567ffffffffffffffff81111561111157611111611791565b61114260207fffffffffffffffffffffffffffffffffffffffffffffffffffffffffffffffe0601f8401160161141b565b81815284602083860101111561115757600080fd5b816020850160208301376000918101602001919091529392505050565b60006020828403121561118657600080fd5b813567ffffffffffffffff81111561119d57600080fd5b610f3a848285016110e6565b600080604083850312156111bc57600080fd5b823567ffffffffffffffff808211156111d457600080fd5b6111e0868387016110e6565b93506020915081850135818111156111f757600080fd5b8501601f8101871361120857600080fd5b80358281111561121a5761121a611791565b8060051b61122985820161141b565b8281528581019084870183860188018c101561124457600080fd5b60009350835b8581101561128157813588811115611260578586fd5b61126e8e8b838b01016110e6565b855250928801929088019060010161124a565b50989b909a5098505050505050505050565b600080604083850312156112a657600080fd5b823567ffffffffffffffff808211156112be57600080fd5b6112ca868387016110e6565b935060208501359150808211156112e057600080fd5b506112ed858286016110e6565b9150509250929050565b6000806040838503121561130a57600080fd5b823567ffffffffffffffff81111561132157600080fd5b61132d858286016110e6565b95602094909401359450505050565b600060208083526000845481600182811c91508083168061135e57607f831692505b858310811415611395577f4e487b710000000000000000000000000000000000000000000000000000000085526022600452602485fd5b8786018381526020018180156113b257600181146113e15761140c565b7fffffffffffffffffffffffffffffffffffffffffffffffffffffffffffffff0086168252878201965061140c565b60008b81526020902060005b86811015611406578154848201529085019089016113ed565b83019750505b50949998505050505050505050565b604051601f82017fffffffffffffffffffffffffffffffffffffffffffffffffffffffffffffffe016810167ffffffffffffffff8111828210171561146257611462611791565b604052919050565b6000821982111561147d5761147d611733565b500190565b600181815b808511156114db57817fffffffffffffffffffffffffffffffffffffffffffffffffffffffffffffffff048211156114c1576114c1611733565b808516156114ce57918102915b93841c9390800290611487565b509250929050565b6000610c7483836000826114f957506001610c47565b8161150657506000610c47565b816001811461151c576002811461152657611542565b6001915050610c47565b60ff84111561153757611537611733565b50506001821b610c47565b5060208310610133831016604e8410600b8410161715611565575081810a610c47565b61156f8383611482565b807fffffffffffffffffffffffffffffffffffffffffffffffffffffffffffffffff048211156115a1576115a1611733565b029392505050565b6000817fffffffffffffffffffffffffffffffffffffffffffffffffffffffffffffffff04831182151516156115e1576115e1611733565b500290565b6000808312837f80000000000000000000000000000000000000000000000000000000000000000183128115161561162057611620611733565b837f7fffffffffffffffffffffffffffffffffffffffffffffffffffffffffffffff01831381161561165457611654611733565b50500390565b60008282101561166c5761166c611733565b500390565b600181811c9082168061168557607f821691505b60208210811415610f53577f4e487b7100000000000000000000000000000000000000000000000000000000600052602260045260246000fd5b60007fffffffffffffffffffffffffffffffffffffffffffffffffffffffffffffffff8214156116f1576116f1611733565b5060010190565b60008261172e577f4e487b7100000000000000000000000000000000000000000000000000000000600052601260045260246000fd5b500690565b7f4e487b7100000000000000000000000000000000000000000000000000000000600052601160045260246000fd5b7f4e487b7100000000000000000000000000000000000000000000000000000000600052603260045260246000fd5b7f4e487b7100000000000000000000000000000000000000000000000000000000600052604160045260246000fdfea164736f6c6343000806000a",
  "linkReferences": {},
  "deployedLinkReferences": {}
}