{
  "_format": "hh-sol-artifact-1",
  "contractName": "Operator",
  "sourceName": "src/v0.7/Operator.sol",
  "abi": [
    {
      "inputs": [
        {
          "internalType": "address",
          "name": "link",
          "type": "address"
        },
        {
          "internalType": "address",
          "name": "owner",
          "type": "address"
        }
      ],
      "stateMutability": "nonpayable",
      "type": "constructor"
    },
    {
      "anonymous": false,
      "inputs": [
        {
          "indexed": false,
          "internalType": "address[]",
          "name": "senders",
          "type": "address[]"
        },
        {
          "indexed": false,
          "internalType": "address",
          "name": "changedBy",
          "type": "address"
        }
      ],
      "name": "AuthorizedSendersChanged",
      "type": "event"
    },
    {
      "anonymous": false,
      "inputs": [
        {
          "indexed": true,
          "internalType": "bytes32",
          "name": "requestId",
          "type": "bytes32"
        }
      ],
      "name": "CancelOracleRequest",
      "type": "event"
    },
    {
      "anonymous": false,
      "inputs": [
        {
          "indexed": true,
          "internalType": "bytes32",
          "name": "specId",
          "type": "bytes32"
        },
        {
          "indexed": false,
          "internalType": "address",
          "name": "requester",
          "type": "address"
        },
        {
          "indexed": false,
          "internalType": "bytes32",
          "name": "requestId",
          "type": "bytes32"
        },
        {
          "indexed": false,
          "internalType": "uint256",
          "name": "payment",
          "type": "uint256"
        },
        {
          "indexed": false,
          "internalType": "address",
          "name": "callbackAddr",
          "type": "address"
        },
        {
          "indexed": false,
          "internalType": "bytes4",
          "name": "callbackFunctionId",
          "type": "bytes4"
        },
        {
          "indexed": false,
          "internalType": "uint256",
          "name": "cancelExpiration",
          "type": "uint256"
        },
        {
          "indexed": false,
          "internalType": "uint256",
          "name": "dataVersion",
          "type": "uint256"
        },
        {
          "indexed": false,
          "internalType": "bytes",
          "name": "data",
          "type": "bytes"
        }
      ],
      "name": "OracleRequest",
      "type": "event"
    },
    {
      "anonymous": false,
      "inputs": [
        {
          "indexed": true,
          "internalType": "bytes32",
          "name": "requestId",
          "type": "bytes32"
        }
      ],
      "name": "OracleResponse",
      "type": "event"
    },
    {
      "anonymous": false,
      "inputs": [
        {
          "indexed": true,
          "internalType": "address",
          "name": "accpetedContract",
          "type": "address"
        }
      ],
      "name": "OwnableContractAccepted",
      "type": "event"
    },
    {
      "anonymous": false,
      "inputs": [
        {
          "indexed": true,
          "internalType": "address",
          "name": "from",
          "type": "address"
        },
        {
          "indexed": true,
          "internalType": "address",
          "name": "to",
          "type": "address"
        }
      ],
      "name": "OwnershipTransferRequested",
      "type": "event"
    },
    {
      "anonymous": false,
      "inputs": [
        {
          "indexed": true,
          "internalType": "address",
          "name": "from",
          "type": "address"
        },
        {
          "indexed": true,
          "internalType": "address",
          "name": "to",
          "type": "address"
        }
      ],
      "name": "OwnershipTransferred",
      "type": "event"
    },
    {
      "anonymous": false,
      "inputs": [
        {
          "indexed": false,
          "internalType": "address[]",
          "name": "targets",
          "type": "address[]"
        },
        {
          "indexed": false,
          "internalType": "address[]",
          "name": "senders",
          "type": "address[]"
        },
        {
          "indexed": false,
          "internalType": "address",
          "name": "changedBy",
          "type": "address"
        }
      ],
      "name": "TargetsUpdatedAuthorizedSenders",
      "type": "event"
    },
    {
      "inputs": [
        {
          "internalType": "address[]",
          "name": "targets",
          "type": "address[]"
        },
        {
          "internalType": "address[]",
          "name": "senders",
          "type": "address[]"
        }
      ],
      "name": "acceptAuthorizedReceivers",
      "outputs": [],
      "stateMutability": "nonpayable",
      "type": "function"
    },
    {
      "inputs": [
        {
          "internalType": "address[]",
          "name": "ownable",
          "type": "address[]"
        }
      ],
      "name": "acceptOwnableContracts",
      "outputs": [],
      "stateMutability": "nonpayable",
      "type": "function"
    },
    {
      "inputs": [],
      "name": "acceptOwnership",
      "outputs": [],
      "stateMutability": "nonpayable",
      "type": "function"
    },
    {
      "inputs": [
        {
          "internalType": "bytes32",
          "name": "requestId",
          "type": "bytes32"
        },
        {
          "internalType": "uint256",
          "name": "payment",
          "type": "uint256"
        },
        {
          "internalType": "bytes4",
          "name": "callbackFunc",
          "type": "bytes4"
        },
        {
          "internalType": "uint256",
          "name": "expiration",
          "type": "uint256"
        }
      ],
      "name": "cancelOracleRequest",
      "outputs": [],
      "stateMutability": "nonpayable",
      "type": "function"
    },
    {
      "inputs": [
        {
          "internalType": "address payable[]",
          "name": "receivers",
          "type": "address[]"
        },
        {
          "internalType": "uint256[]",
          "name": "amounts",
          "type": "uint256[]"
        }
      ],
      "name": "distributeFunds",
      "outputs": [],
      "stateMutability": "payable",
      "type": "function"
    },
    {
      "inputs": [
        {
          "internalType": "bytes32",
          "name": "requestId",
          "type": "bytes32"
        },
        {
          "internalType": "uint256",
          "name": "payment",
          "type": "uint256"
        },
        {
          "internalType": "address",
          "name": "callbackAddress",
          "type": "address"
        },
        {
          "internalType": "bytes4",
          "name": "callbackFunctionId",
          "type": "bytes4"
        },
        {
          "internalType": "uint256",
          "name": "expiration",
          "type": "uint256"
        },
        {
          "internalType": "bytes32",
          "name": "data",
          "type": "bytes32"
        }
      ],
      "name": "fulfillOracleRequest",
      "outputs": [
        {
          "internalType": "bool",
          "name": "",
          "type": "bool"
        }
      ],
      "stateMutability": "nonpayable",
      "type": "function"
    },
    {
      "inputs": [
        {
          "internalType": "bytes32",
          "name": "requestId",
          "type": "bytes32"
        },
        {
          "internalType": "uint256",
          "name": "payment",
          "type": "uint256"
        },
        {
          "internalType": "address",
          "name": "callbackAddress",
          "type": "address"
        },
        {
          "internalType": "bytes4",
          "name": "callbackFunctionId",
          "type": "bytes4"
        },
        {
          "internalType": "uint256",
          "name": "expiration",
          "type": "uint256"
        },
        {
          "internalType": "bytes",
          "name": "data",
          "type": "bytes"
        }
      ],
      "name": "fulfillOracleRequest2",
      "outputs": [
        {
          "internalType": "bool",
          "name": "",
          "type": "bool"
        }
      ],
      "stateMutability": "nonpayable",
      "type": "function"
    },
    {
      "inputs": [],
      "name": "getAuthorizedSenders",
      "outputs": [
        {
          "internalType": "address[]",
          "name": "",
          "type": "address[]"
        }
      ],
      "stateMutability": "view",
      "type": "function"
    },
    {
      "inputs": [],
      "name": "getChainlinkToken",
      "outputs": [
        {
          "internalType": "address",
          "name": "",
          "type": "address"
        }
      ],
      "stateMutability": "view",
      "type": "function"
    },
    {
      "inputs": [],
      "name": "getExpiryTime",
      "outputs": [
        {
          "internalType": "uint256",
          "name": "",
          "type": "uint256"
        }
      ],
      "stateMutability": "view",
      "type": "function"
    },
    {
      "inputs": [
        {
          "internalType": "address",
          "name": "sender",
          "type": "address"
        }
      ],
      "name": "isAuthorizedSender",
      "outputs": [
        {
          "internalType": "bool",
          "name": "",
          "type": "bool"
        }
      ],
      "stateMutability": "view",
      "type": "function"
    },
    {
      "inputs": [
        {
          "internalType": "address",
          "name": "sender",
          "type": "address"
        },
        {
          "internalType": "uint256",
          "name": "amount",
          "type": "uint256"
        },
        {
          "internalType": "bytes",
          "name": "data",
          "type": "bytes"
        }
      ],
      "name": "onTokenTransfer",
      "outputs": [],
      "stateMutability": "nonpayable",
      "type": "function"
    },
    {
      "inputs": [
        {
          "internalType": "address",
          "name": "sender",
          "type": "address"
        },
        {
          "internalType": "uint256",
          "name": "payment",
          "type": "uint256"
        },
        {
          "internalType": "bytes32",
          "name": "specId",
          "type": "bytes32"
        },
        {
          "internalType": "address",
          "name": "callbackAddress",
          "type": "address"
        },
        {
          "internalType": "bytes4",
          "name": "callbackFunctionId",
          "type": "bytes4"
        },
        {
          "internalType": "uint256",
          "name": "nonce",
          "type": "uint256"
        },
        {
          "internalType": "uint256",
          "name": "dataVersion",
          "type": "uint256"
        },
        {
          "internalType": "bytes",
          "name": "data",
          "type": "bytes"
        }
      ],
      "name": "oracleRequest",
      "outputs": [],
      "stateMutability": "nonpayable",
      "type": "function"
    },
    {
      "inputs": [],
      "name": "owner",
      "outputs": [
        {
          "internalType": "address",
          "name": "",
          "type": "address"
        }
      ],
      "stateMutability": "view",
      "type": "function"
    },
    {
      "inputs": [
        {
          "internalType": "address",
          "name": "to",
          "type": "address"
        },
        {
          "internalType": "bytes",
          "name": "data",
          "type": "bytes"
        }
      ],
      "name": "ownerForward",
      "outputs": [],
      "stateMutability": "nonpayable",
      "type": "function"
    },
    {
      "inputs": [
        {
          "internalType": "address",
          "name": "to",
          "type": "address"
        },
        {
          "internalType": "uint256",
          "name": "value",
          "type": "uint256"
        },
        {
          "internalType": "bytes",
          "name": "data",
          "type": "bytes"
        }
      ],
      "name": "ownerTransferAndCall",
      "outputs": [
        {
          "internalType": "bool",
          "name": "success",
          "type": "bool"
        }
      ],
      "stateMutability": "nonpayable",
      "type": "function"
    },
    {
      "inputs": [
        {
          "internalType": "address",
          "name": "sender",
          "type": "address"
        },
        {
          "internalType": "uint256",
          "name": "payment",
          "type": "uint256"
        },
        {
          "internalType": "bytes32",
          "name": "specId",
          "type": "bytes32"
        },
        {
          "internalType": "address",
          "name": "callbackAddress",
          "type": "address"
        },
        {
          "internalType": "bytes4",
          "name": "callbackFunctionId",
          "type": "bytes4"
        },
        {
          "internalType": "uint256",
          "name": "nonce",
          "type": "uint256"
        },
        {
          "internalType": "uint256",
          "name": "dataVersion",
          "type": "uint256"
        },
        {
          "internalType": "bytes",
          "name": "data",
          "type": "bytes"
        }
      ],
      "name": "requestOracleData",
      "outputs": [],
      "stateMutability": "nonpayable",
      "type": "function"
    },
    {
      "inputs": [
        {
          "internalType": "address[]",
          "name": "senders",
          "type": "address[]"
        }
      ],
      "name": "setAuthorizedSenders",
      "outputs": [],
      "stateMutability": "nonpayable",
      "type": "function"
    },
    {
      "inputs": [
        {
          "internalType": "address[]",
          "name": "targets",
          "type": "address[]"
        },
        {
          "internalType": "address[]",
          "name": "senders",
          "type": "address[]"
        }
      ],
      "name": "setAuthorizedSendersOn",
      "outputs": [],
      "stateMutability": "nonpayable",
      "type": "function"
    },
    {
      "inputs": [
        {
          "internalType": "address[]",
          "name": "ownable",
          "type": "address[]"
        },
        {
          "internalType": "address",
          "name": "newOwner",
          "type": "address"
        }
      ],
      "name": "transferOwnableContracts",
      "outputs": [],
      "stateMutability": "nonpayable",
      "type": "function"
    },
    {
      "inputs": [
        {
          "internalType": "address",
          "name": "to",
          "type": "address"
        }
      ],
      "name": "transferOwnership",
      "outputs": [],
      "stateMutability": "nonpayable",
      "type": "function"
    },
    {
      "inputs": [
        {
          "internalType": "address",
          "name": "recipient",
          "type": "address"
        },
        {
          "internalType": "uint256",
          "name": "amount",
          "type": "uint256"
        }
      ],
      "name": "withdraw",
      "outputs": [],
      "stateMutability": "nonpayable",
      "type": "function"
    },
    {
      "inputs": [],
      "name": "withdrawable",
      "outputs": [
        {
          "internalType": "uint256",
          "name": "",
          "type": "uint256"
        }
      ],
      "stateMutability": "view",
      "type": "function"
    }
  ],
  "bytecode": "0x60a060405260016005553480156200001657600080fd5b506040516200362e3803806200362e833981810160405260408110156200003c57600080fd5b508051602090910151808060006001600160a01b038216620000a5576040805162461bcd60e51b815260206004820152601860248201527f43616e6e6f7420736574206f776e657220746f207a65726f0000000000000000604482015290519081900360640190fd5b600280546001600160a01b0319166001600160a01b0384811691909117909155811615620000d857620000d881620000f2565b5050505060601b6001600160601b031916608052620001a3565b6001600160a01b03811633141562000151576040805162461bcd60e51b815260206004820152601760248201527f43616e6e6f74207472616e7366657220746f2073656c66000000000000000000604482015290519081900360640190fd5b600380546001600160a01b0319166001600160a01b03838116918217909255600254604051919216907fed8889f560326eb138920d842192f0eb3dd22b4f139c87a2c57538e05bae127890600090a350565b60805160601c61344f620001df60003980610e6652806110925280611ab95280611e41528061204a52806126475280612c53525061344f6000f3fe6080604052600436106101805760003560e01c80636bd59ec0116100d6578063a4c0ed361161007f578063f3fef3a311610059578063f3fef3a314610b88578063fa00763a14610bce578063fc4a03ed14610c0e57610180565b8063a4c0ed36146109f6578063ee56997b14610acb578063f2fde38b14610b4857610180565b806379ba5097116100b057806379ba50971461092d5780638da5cb5b14610942578063902fc3701461095757610180565b80636bd59ec01461072a5780636de879d6146107ec5780636ee4d553146108cf57610180565b80633ec5bc1411610138578063501883011161011257806350188301146105725780635ffa6288146105875780636ae0bc761461065657610180565b80633ec5bc141461036857806340429946146103fb5780634ab0d190146104de57610180565b8063165d35e111610169578063165d35e11461029e5780632408afaa146102dc57806325cb5bc01461034157610180565b806301994b9914610185578063033f49f714610204575b600080fd5b34801561019157600080fd5b50610202600480360360208110156101a857600080fd5b8101906020810181356401000000008111156101c357600080fd5b8201836020820111156101d557600080fd5b803590602001918460208302840111640100000000831117156101f757600080fd5b509092509050610cdd565b005b34801561021057600080fd5b506102026004803603604081101561022757600080fd5b73ffffffffffffffffffffffffffffffffffffffff823516919081019060408101602082013564010000000081111561025f57600080fd5b82018360208201111561027157600080fd5b8035906020019184600183028401116401000000008311171561029357600080fd5b509092509050610e5b565b3480156102aa57600080fd5b506102b3611090565b6040805173ffffffffffffffffffffffffffffffffffffffff9092168252519081900360200190f35b3480156102e857600080fd5b506102f16110b4565b60408051602080825283518183015283519192839290830191858101910280838360005b8381101561032d578181015183820152602001610315565b505050509050019250505060405180910390f35b34801561034d57600080fd5b50610356611123565b60408051918252519081900360200190f35b34801561037457600080fd5b506102026004803603604081101561038b57600080fd5b8101906020810181356401000000008111156103a657600080fd5b8201836020820111156103b857600080fd5b803590602001918460208302840111640100000000831117156103da57600080fd5b91935091503573ffffffffffffffffffffffffffffffffffffffff16611129565b34801561040757600080fd5b50610202600480360361010081101561041f57600080fd5b73ffffffffffffffffffffffffffffffffffffffff8235811692602081013592604082013592606083013516917fffffffff000000000000000000000000000000000000000000000000000000006080820135169160a08201359160c081013591810190610100810160e082013564010000000081111561049f57600080fd5b8201836020820111156104b157600080fd5b803590602001918460018302840111640100000000831117156104d357600080fd5b5090925090506111f7565b3480156104ea57600080fd5b5061055e600480360360c081101561050157600080fd5b5080359060208101359073ffffffffffffffffffffffffffffffffffffffff604082013516907fffffffff000000000000000000000000000000000000000000000000000000006060820135169060808101359060a00135611213565b604080519115158252519081900360200190f35b34801561057e57600080fd5b506103566114b4565b34801561059357600080fd5b50610202600480360360408110156105aa57600080fd5b8101906020810181356401000000008111156105c557600080fd5b8201836020820111156105d757600080fd5b803590602001918460208302840111640100000000831117156105f957600080fd5b91939092909160208101903564010000000081111561061757600080fd5b82018360208201111561062957600080fd5b8035906020019184602083028401116401000000008311171561064b57600080fd5b5090925090506114c3565b34801561066257600080fd5b5061055e600480360360c081101561067957600080fd5b81359160208101359173ffffffffffffffffffffffffffffffffffffffff604083013516917fffffffff00000000000000000000000000000000000000000000000000000000606082013516916080820135919081019060c0810160a08201356401000000008111156106eb57600080fd5b8201836020820111156106fd57600080fd5b8035906020019184600183028401116401000000008311171561071f57600080fd5b50909250905061154c565b6102026004803603604081101561074057600080fd5b81019060208101813564010000000081111561075b57600080fd5b82018360208201111561076d57600080fd5b8035906020019184602083028401116401000000008311171561078f57600080fd5b9193909290916020810190356401000000008111156107ad57600080fd5b8201836020820111156107bf57600080fd5b803590602001918460208302840111640100000000831117156107e157600080fd5b50909250905061187e565b3480156107f857600080fd5b50610202600480360361010081101561081057600080fd5b73ffffffffffffffffffffffffffffffffffffffff8235811692602081013592604082013592606083013516917fffffffff000000000000000000000000000000000000000000000000000000006080820135169160a08201359160c081013591810190610100810160e082013564010000000081111561089057600080fd5b8201836020820111156108a257600080fd5b803590602001918460018302840111640100000000831117156108c457600080fd5b509092509050611a15565b3480156108db57600080fd5b50610202600480360360808110156108f257600080fd5b508035906020810135907fffffffff000000000000000000000000000000000000000000000000000000006040820135169060600135611c97565b34801561093957600080fd5b50610202611ebb565b34801561094e57600080fd5b506102b3611fc1565b34801561096357600080fd5b5061055e6004803603606081101561097a57600080fd5b73ffffffffffffffffffffffffffffffffffffffff823516916020810135918101906060810160408201356401000000008111156109b757600080fd5b8201836020820111156109c957600080fd5b803590602001918460018302840111640100000000831117156109eb57600080fd5b509092509050611fdd565b348015610a0257600080fd5b5061020260048036036060811015610a1957600080fd5b73ffffffffffffffffffffffffffffffffffffffff82351691602081013591810190606081016040820135640100000000811115610a5657600080fd5b820183602082011115610a6857600080fd5b80359060200191846001830284011164010000000083111715610a8a57600080fd5b91908080601f016020809104026020016040519081016040528093929190818152602001838380828437600092019190915250929550612143945050505050565b348015610ad757600080fd5b5061020260048036036020811015610aee57600080fd5b810190602081018135640100000000811115610b0957600080fd5b820183602082011115610b1b57600080fd5b80359060200191846020830284011164010000000083111715610b3d57600080fd5b509092509050612345565b348015610b5457600080fd5b5061020260048036036020811015610b6b57600080fd5b503573ffffffffffffffffffffffffffffffffffffffff166125c8565b348015610b9457600080fd5b5061020260048036036040811015610bab57600080fd5b5073ffffffffffffffffffffffffffffffffffffffff81351690602001356125dc565b348015610bda57600080fd5b5061055e60048036036020811015610bf157600080fd5b503573ffffffffffffffffffffffffffffffffffffffff16612708565b348015610c1a57600080fd5b5061020260048036036040811015610c3157600080fd5b810190602081018135640100000000811115610c4c57600080fd5b820183602082011115610c5e57600080fd5b80359060200191846020830284011164010000000083111715610c8057600080fd5b919390929091602081019035640100000000811115610c9e57600080fd5b820183602082011115610cb057600080fd5b80359060200191846020830284011164010000000083111715610cd257600080fd5b509092509050612733565b610ce561296c565b610d5057604080517f08c379a000000000000000000000000000000000000000000000000000000000815260206004820152601d60248201527f43616e6e6f742073657420617574686f72697a65642073656e64657273000000604482015290519081900360640190fd5b60005b81811015610e5657828282818110610d6757fe5b9050602002013573ffffffffffffffffffffffffffffffffffffffff1673ffffffffffffffffffffffffffffffffffffffff166379ba50976040518163ffffffff1660e01b8152600401600060405180830381600087803b158015610dcb57600080fd5b505af1158015610ddf573d6000803e3d6000fd5b50505050828282818110610def57fe5b9050602002013573ffffffffffffffffffffffffffffffffffffffff1673ffffffffffffffffffffffffffffffffffffffff167f615a0c1cb00a60d4acd77ec67acf2f17f223ef0932d591052fabc33643fe7e8260405160405180910390a2600101610d53565b505050565b610e636129a2565b827f000000000000000000000000000000000000000000000000000000000000000073ffffffffffffffffffffffffffffffffffffffff168173ffffffffffffffffffffffffffffffffffffffff161415610f1f57604080517f08c379a000000000000000000000000000000000000000000000000000000000815260206004820152601360248201527f43616e6e6f742063616c6c20746f204c494e4b00000000000000000000000000604482015290519081900360640190fd5b610f3e8473ffffffffffffffffffffffffffffffffffffffff16612a2a565b610fa957604080517f08c379a000000000000000000000000000000000000000000000000000000000815260206004820152601a60248201527f4d75737420666f727761726420746f206120636f6e7472616374000000000000604482015290519081900360640190fd5b60008473ffffffffffffffffffffffffffffffffffffffff168484604051808383808284376040519201945060009350909150508083038183865af19150503d8060008114611014576040519150601f19603f3d011682016040523d82523d6000602084013e611019565b606091505b505090508061108957604080517f08c379a000000000000000000000000000000000000000000000000000000000815260206004820152601560248201527f466f727761726465642063616c6c206661696c65640000000000000000000000604482015290519081900360640190fd5b5050505050565b7f000000000000000000000000000000000000000000000000000000000000000090565b6060600180548060200260200160405190810160405280929190818152602001828054801561111957602002820191906000526020600020905b815473ffffffffffffffffffffffffffffffffffffffff1681526001909101906020018083116110ee575b5050505050905090565b61012c81565b6111316129a2565b60005b828110156111f15783838281811061114857fe5b9050602002013573ffffffffffffffffffffffffffffffffffffffff1673ffffffffffffffffffffffffffffffffffffffff1663f2fde38b836040518263ffffffff1660e01b8152600401808273ffffffffffffffffffffffffffffffffffffffff168152602001915050600060405180830381600087803b1580156111cd57600080fd5b505af11580156111e1573d6000803e3d6000fd5b5050600190920191506111349050565b50505050565b611208898989898989898989611a15565b505050505050505050565b600061121d612a30565b600087815260046020526040902054879060081b7fffffffffffffffffffffffffffffffffffffffffffffffffffffffffffffff00166112be57604080517f08c379a000000000000000000000000000000000000000000000000000000000815260206004820152601b60248201527f4d757374206861766520612076616c6964207265717565737449640000000000604482015290519081900360640190fd5b6112cd88888888886001612aa4565b60405188907f9e9bc7616d42c2835d05ae617e508454e63b30b934be8aa932ebc125e0e58a6490600090a262061a805a101561136a57604080517f08c379a000000000000000000000000000000000000000000000000000000000815260206004820181905260248201527f4d7573742070726f7669646520636f6e73756d657220656e6f75676820676173604482015290519081900360640190fd5b60408051602481018a9052604480820186905282518083039091018152606490910182526020810180517bffffffffffffffffffffffffffffffffffffffffffffffffffffffff167fffffffff0000000000000000000000000000000000000000000000000000000089161781529151815160009373ffffffffffffffffffffffffffffffffffffffff8b169392918291908083835b6020831061143d57805182527fffffffffffffffffffffffffffffffffffffffffffffffffffffffffffffffe09092019160209182019101611400565b6001836020036101000a0380198251168184511680821785525050505050509050019150506000604051808303816000865af19150503d806000811461149f576040519150601f19603f3d011682016040523d82523d6000602084013e6114a4565b606091505b50909a9950505050505050505050565b60006114be612c32565b905090565b6114cb61296c565b61153657604080517f08c379a000000000000000000000000000000000000000000000000000000000815260206004820152601d60248201527f43616e6e6f742073657420617574686f72697a65642073656e64657273000000604482015290519081900360640190fd5b6115408484610cdd565b6111f184848484612733565b6000611556612a30565b600088815260046020526040902054889060081b7fffffffffffffffffffffffffffffffffffffffffffffffffffffffffffffff00166115f757604080517f08c379a000000000000000000000000000000000000000000000000000000000815260206004820152601b60248201527f4d757374206861766520612076616c6964207265717565737449640000000000604482015290519081900360640190fd5b8884848080601f01602080910402602001604051908101604052809392919081815260200183838082843760009201919091525050505060208101518281146116a157604080517f08c379a000000000000000000000000000000000000000000000000000000000815260206004820152601c60248201527f466972737420776f7264206d7573742062652072657175657374496400000000604482015290519081900360640190fd5b6116b08c8c8c8c8c6002612aa4565b6040518c907f9e9bc7616d42c2835d05ae617e508454e63b30b934be8aa932ebc125e0e58a6490600090a262061a805a101561174d57604080517f08c379a000000000000000000000000000000000000000000000000000000000815260206004820181905260248201527f4d7573742070726f7669646520636f6e73756d657220656e6f75676820676173604482015290519081900360640190fd5b60008a73ffffffffffffffffffffffffffffffffffffffff168a898960405160200180847bffffffffffffffffffffffffffffffffffffffffffffffffffffffff191681526004018383808284378083019250505093505050506040516020818303038152906040526040518082805190602001908083835b6020831061180357805182527fffffffffffffffffffffffffffffffffffffffffffffffffffffffffffffffe090920191602091820191016117c6565b6001836020036101000a0380198251168184511680821785525050505050509050019150506000604051808303816000865af19150503d8060008114611865576040519150601f19603f3d011682016040523d82523d6000602084013e61186a565b606091505b50909e9d5050505050505050505050505050565b821580159061188c57508281145b6118f757604080517f08c379a000000000000000000000000000000000000000000000000000000000815260206004820152601760248201527f496e76616c6964206172726179206c656e677468287329000000000000000000604482015290519081900360640190fd5b3460005b848110156119a757600084848381811061191157fe5b90506020020135905061192d8184612d1090919063ffffffff16565b925086868381811061193b57fe5b9050602002013573ffffffffffffffffffffffffffffffffffffffff1673ffffffffffffffffffffffffffffffffffffffff166108fc829081150290604051600060405180830381858888f1935050505015801561199d573d6000803e3d6000fd5b50506001016118fb565b50801561108957604080517f08c379a000000000000000000000000000000000000000000000000000000000815260206004820152601160248201527f546f6f206d756368204554482073656e74000000000000000000000000000000604482015290519081900360640190fd5b611a1d611090565b73ffffffffffffffffffffffffffffffffffffffff163373ffffffffffffffffffffffffffffffffffffffff1614611ab657604080517f08c379a000000000000000000000000000000000000000000000000000000000815260206004820152601360248201527f4d75737420757365204c494e4b20746f6b656e00000000000000000000000000604482015290519081900360640190fd5b857f000000000000000000000000000000000000000000000000000000000000000073ffffffffffffffffffffffffffffffffffffffff168173ffffffffffffffffffffffffffffffffffffffff161415611b7257604080517f08c379a000000000000000000000000000000000000000000000000000000000815260206004820152601360248201527f43616e6e6f742063616c6c20746f204c494e4b00000000000000000000000000604482015290519081900360640190fd5b600080611b838c8c8b8b8b8b612d87565b91509150897fd8d7ecc4800d25fa53ce0372f13a416d98907a7ef3d8d3bdd79cf4fe75529c658d848e8d8d878d8d8d604051808a73ffffffffffffffffffffffffffffffffffffffff1681526020018981526020018881526020018773ffffffffffffffffffffffffffffffffffffffff168152602001867bffffffffffffffffffffffffffffffffffffffffffffffffffffffff19168152602001858152602001848152602001806020018281038252848482818152602001925080828437600083820152604051601f9091017fffffffffffffffffffffffffffffffffffffffffffffffffffffffffffffffe0169092018290039c50909a5050505050505050505050a2505050505050505050505050565b6000611ca584338585612f70565b60008681526004602052604090205490915060081b7fffffffffffffffffffffffffffffffffffffffffffffffffffffffffffffff0090811690821614611d4d57604080517f08c379a000000000000000000000000000000000000000000000000000000000815260206004820152601e60248201527f506172616d7320646f206e6f74206d6174636820726571756573742049440000604482015290519081900360640190fd5b42821115611dbc57604080517f08c379a000000000000000000000000000000000000000000000000000000000815260206004820152601660248201527f52657175657374206973206e6f74206578706972656400000000000000000000604482015290519081900360640190fd5b6000858152600460205260408082208290555186917fa7842b9ec549398102c0d91b1b9919b2f20558aefdadf57528a95c6cd3292e9391a2604080517fa9059cbb00000000000000000000000000000000000000000000000000000000815233600482015260248101869052905173ffffffffffffffffffffffffffffffffffffffff7f0000000000000000000000000000000000000000000000000000000000000000169163a9059cbb9160448083019260209291908290030181600087803b158015611e8957600080fd5b505af1158015611e9d573d6000803e3d6000fd5b505050506040513d6020811015611eb357600080fd5b505161108957fe5b60035473ffffffffffffffffffffffffffffffffffffffff163314611f4157604080517f08c379a000000000000000000000000000000000000000000000000000000000815260206004820152601660248201527f4d7573742062652070726f706f736564206f776e657200000000000000000000604482015290519081900360640190fd5b600280547fffffffffffffffffffffffff00000000000000000000000000000000000000008082163390811790935560038054909116905560405173ffffffffffffffffffffffffffffffffffffffff909116919082907f8be0079c531659141344cd1fd0a4f28419497f9722a3daafe3b4186f6b6457e090600090a350565b60025473ffffffffffffffffffffffffffffffffffffffff1690565b6000611fe76129a2565b8380611ff1612c32565b1015612048576040517f08c379a000000000000000000000000000000000000000000000000000000000815260040180806020018281038252603581526020018061340e6035913960400191505060405180910390fd5b7f000000000000000000000000000000000000000000000000000000000000000073ffffffffffffffffffffffffffffffffffffffff16634000aea0878787876040518563ffffffff1660e01b8152600401808573ffffffffffffffffffffffffffffffffffffffff168152602001848152602001806020018281038252848482818152602001925080828437600081840152601f19601f82011690508083019250505095505050505050602060405180830381600087803b15801561210d57600080fd5b505af1158015612121573d6000803e3d6000fd5b505050506040513d602081101561213757600080fd5b50519695505050505050565b61214b611090565b73ffffffffffffffffffffffffffffffffffffffff163373ffffffffffffffffffffffffffffffffffffffff16146121e457604080517f08c379a000000000000000000000000000000000000000000000000000000000815260206004820152601360248201527f4d75737420757365204c494e4b20746f6b656e00000000000000000000000000604482015290519081900360640190fd5b602081015181906121f58183612ff5565b84602484015283604484015260003073ffffffffffffffffffffffffffffffffffffffff16846040518082805190602001908083835b6020831061226857805182527fffffffffffffffffffffffffffffffffffffffffffffffffffffffffffffffe0909201916020918201910161222b565b6001836020036101000a038019825116818451168082178552505050505050905001915050600060405180830381855af49150503d80600081146122c8576040519150601f19603f3d011682016040523d82523d6000602084013e6122cd565b606091505b505090508061233d57604080517f08c379a000000000000000000000000000000000000000000000000000000000815260206004820152601860248201527f556e61626c6520746f2063726561746520726571756573740000000000000000604482015290519081900360640190fd5b505050505050565b61234d61296c565b6123b857604080517f08c379a000000000000000000000000000000000000000000000000000000000815260206004820152601d60248201527f43616e6e6f742073657420617574686f72697a65642073656e64657273000000604482015290519081900360640190fd5b8061240e576040517f08c379a00000000000000000000000000000000000000000000000000000000081526004018080602001828103825260268152602001806133e86026913960400191505060405180910390fd5b60015460005b818110156124955760008060006001848154811061242e57fe5b60009182526020808320919091015473ffffffffffffffffffffffffffffffffffffffff168352820192909252604001902080547fffffffffffffffffffffffffffffffffffffffffffffffffffffffffffffff0016911515919091179055600101612414565b5060005b828110156125165760016000808686858181106124b257fe5b6020908102929092013573ffffffffffffffffffffffffffffffffffffffff1683525081019190915260400160002080547fffffffffffffffffffffffffffffffffffffffffffffffffffffffffffffff0016911515919091179055600101612499565b5061252360018484613353565b507ff263cfb3e4298332e776194610cf9fdc09ccb3ada8b9aa39764d882e11fbf0a083833360405180806020018373ffffffffffffffffffffffffffffffffffffffff1681526020018281038252858582818152602001925060200280828437600083820152604051601f9091017fffffffffffffffffffffffffffffffffffffffffffffffffffffffffffffffe016909201829003965090945050505050a1505050565b6125d06129a2565b6125d981613166565b50565b6125e46129a2565b80806125ee612c32565b1015612645576040517f08c379a000000000000000000000000000000000000000000000000000000000815260040180806020018281038252603581526020018061340e6035913960400191505060405180910390fd5b7f000000000000000000000000000000000000000000000000000000000000000073ffffffffffffffffffffffffffffffffffffffff1663a9059cbb84846040518363ffffffff1660e01b8152600401808373ffffffffffffffffffffffffffffffffffffffff16815260200182815260200192505050602060405180830381600087803b1580156126d657600080fd5b505af11580156126ea573d6000803e3d6000fd5b505050506040513d602081101561270057600080fd5b5051610e5657fe5b73ffffffffffffffffffffffffffffffffffffffff1660009081526020819052604090205460ff1690565b61273b61296c565b6127a657604080517f08c379a000000000000000000000000000000000000000000000000000000000815260206004820152601d60248201527f43616e6e6f742073657420617574686f72697a65642073656e64657273000000604482015290519081900360640190fd5b7f1bb185903e2cb2f1b303523128b60e314dea81df4f8d9b7351cadd344f6e772784848484336040518080602001806020018473ffffffffffffffffffffffffffffffffffffffff1681526020018381038352888882818152602001925060200280828437600083820152601f017fffffffffffffffffffffffffffffffffffffffffffffffffffffffffffffffe0169091018481038352868152602090810191508790870280828437600083820152604051601f9091017fffffffffffffffffffffffffffffffffffffffffffffffffffffffffffffffe016909201829003995090975050505050505050a160005b83811015611089578484828181106128aa57fe5b9050602002013573ffffffffffffffffffffffffffffffffffffffff1673ffffffffffffffffffffffffffffffffffffffff1663ee56997b84846040518363ffffffff1660e01b815260040180806020018281038252848482818152602001925060200280828437600081840152601f19601f8201169050808301925050509350505050600060405180830381600087803b15801561294857600080fd5b505af115801561295c573d6000803e3d6000fd5b5050600190920191506128969050565b600061297733612708565b806114be575033612986611fc1565b73ffffffffffffffffffffffffffffffffffffffff1614905090565b60025473ffffffffffffffffffffffffffffffffffffffff163314612a2857604080517f08c379a000000000000000000000000000000000000000000000000000000000815260206004820152601660248201527f4f6e6c792063616c6c61626c65206279206f776e657200000000000000000000604482015290519081900360640190fd5b565b3b151590565b612a3933612708565b612a2857604080517f08c379a000000000000000000000000000000000000000000000000000000000815260206004820152601560248201527f4e6f7420617574686f72697a65642073656e6465720000000000000000000000604482015290519081900360640190fd5b6000612ab286868686612f70565b60008881526004602052604090205490915060081b7fffffffffffffffffffffffffffffffffffffffffffffffffffffffffffffff0090811690821614612b5a57604080517f08c379a000000000000000000000000000000000000000000000000000000000815260206004820152601e60248201527f506172616d7320646f206e6f74206d6174636820726571756573742049440000604482015290519081900360640190fd5b612b6382613262565b60008881526004602052604090205460ff9182167f01000000000000000000000000000000000000000000000000000000000000009091049091161115612c0b57604080517f08c379a000000000000000000000000000000000000000000000000000000000815260206004820152601860248201527f446174612076657273696f6e73206d757374206d617463680000000000000000604482015290519081900360640190fd5b600554612c189087612d10565b600555505050600093845250506004602052506040812055565b600080612c4b6001600554612d1090919063ffffffff16565b9050612d0a817f000000000000000000000000000000000000000000000000000000000000000073ffffffffffffffffffffffffffffffffffffffff166370a08231306040518263ffffffff1660e01b8152600401808273ffffffffffffffffffffffffffffffffffffffff16815260200191505060206040518083038186803b158015612cd857600080fd5b505afa158015612cec573d6000803e3d6000fd5b505050506040513d6020811015612d0257600080fd5b505190612d10565b91505090565b600082821115612d8157604080517f08c379a000000000000000000000000000000000000000000000000000000000815260206004820152601e60248201527f536166654d6174683a207375627472616374696f6e206f766572666c6f770000604482015290519081900360640190fd5b50900390565b60408051606088901b7fffffffffffffffffffffffffffffffffffffffff0000000000000000000000001660208083019190915260348083018690528351808403909101815260549092018352815191810191909120600081815260049092529181205460081b7fffffffffffffffffffffffffffffffffffffffffffffffffffffffffffffff001615612e7c57604080517f08c379a000000000000000000000000000000000000000000000000000000000815260206004820152601460248201527f4d75737420757365206120756e69717565204944000000000000000000000000604482015290519081900360640190fd5b612e884261012c6132d8565b90506000612e9888888885612f70565b905060405180604001604052808260ff19168152602001612eb886613262565b60ff90811690915260008581526004602090815260409091208351815494909201519092167f01000000000000000000000000000000000000000000000000000000000000000260089190911c7fff00000000000000000000000000000000000000000000000000000000000000909316929092177effffffffffffffffffffffffffffffffffffffffffffffffffffffffffffff16919091179055600554612f6190896132d8565b60055550965096945050505050565b6040805160208082019690965260609490941b7fffffffffffffffffffffffffffffffffffffffff00000000000000000000000016848201527fffffffff000000000000000000000000000000000000000000000000000000009290921660548401526058808401919091528151808403909101815260789092019052805191012090565b80516044111561306657604080517f08c379a000000000000000000000000000000000000000000000000000000000815260206004820152601660248201527f496e76616c69642072657175657374206c656e67746800000000000000000000604482015290519081900360640190fd5b7fffffffff0000000000000000000000000000000000000000000000000000000082167f6de879d60000000000000000000000000000000000000000000000000000000014806130f757507fffffffff0000000000000000000000000000000000000000000000000000000082167f4042994600000000000000000000000000000000000000000000000000000000145b61316257604080517f08c379a000000000000000000000000000000000000000000000000000000000815260206004820152601e60248201527f4d757374207573652077686974656c69737465642066756e6374696f6e730000604482015290519081900360640190fd5b5050565b73ffffffffffffffffffffffffffffffffffffffff81163314156131eb57604080517f08c379a000000000000000000000000000000000000000000000000000000000815260206004820152601760248201527f43616e6e6f74207472616e7366657220746f2073656c66000000000000000000604482015290519081900360640190fd5b600380547fffffffffffffffffffffffff00000000000000000000000000000000000000001673ffffffffffffffffffffffffffffffffffffffff838116918217909255600254604051919216907fed8889f560326eb138920d842192f0eb3dd22b4f139c87a2c57538e05bae127890600090a350565b600061010082106132d457604080517f08c379a000000000000000000000000000000000000000000000000000000000815260206004820152601660248201527f6e756d62657220746f6f2062696720746f206361737400000000000000000000604482015290519081900360640190fd5b5090565b60008282018381101561334c57604080517f08c379a000000000000000000000000000000000000000000000000000000000815260206004820152601b60248201527f536166654d6174683a206164646974696f6e206f766572666c6f770000000000604482015290519081900360640190fd5b9392505050565b8280548282559060005260206000209081019282156133cb579160200282015b828111156133cb5781547fffffffffffffffffffffffff00000000000000000000000000000000000000001673ffffffffffffffffffffffffffffffffffffffff843516178255602090920191600190910190613373565b506132d49291505b808211156132d457600081556001016133d356fe4d7573742068617665206174206c65617374203120617574686f72697a65642073656e646572416d6f756e74207265717565737465642069732067726561746572207468616e20776974686472617761626c652062616c616e6365a164736f6c6343000706000a",
  "linkReferences": {},
  "deployedLinkReferences": {}
}