{
	"data": {
		"bytecode": {
			"linkReferences": {},
			"object": "60a0604052600160045534801561001557600080fd5b5060405161283e38038061283e8339818101604052604081101561003857600080fd5b81019080805190602001909291908051906020019092919050505080806000806101000a81548173ffffffffffffffffffffffffffffffffffffffff021916908373ffffffffffffffffffffffffffffffffffffffff160217905550508173ffffffffffffffffffffffffffffffffffffffff1660808173ffffffffffffffffffffffffffffffffffffffff1660601b81525050505060805160601c61273f6100ff6000398061077d528061084c52806112fb52806114765280611fa7525061273f6000f3fe608060405234801561001057600080fd5b50600436106100f55760003560e01c80636fadcf7211610097578063f2fde38b11610066578063f2fde38b1461063d578063f3dfc2a914610681578063f3fef3a3146106d1578063fa00763a1461071f576100f5565b80636fadcf721461048157806379ba50971461051a5780638da5cb5b14610524578063a4c0ed3614610558576100f5565b80634b602282116100d35780634b602282146102e457806350188301146103025780636ae0bc76146103205780636ee4d55314610416576100f5565b8063165d35e1146100fa578063404299461461012e5780634ab0d19014610239575b600080fd5b610102610779565b604051808273ffffffffffffffffffffffffffffffffffffffff16815260200191505060405180910390f35b610237600480360361010081101561014557600080fd5b81019080803573ffffffffffffffffffffffffffffffffffffffff1690602001909291908035906020019092919080359060200190929190803573ffffffffffffffffffffffffffffffffffffffff16906020019092919080357bffffffffffffffffffffffffffffffffffffffffffffffffffffffff191690602001909291908035906020019092919080359060200190929190803590602001906401000000008111156101f357600080fd5b82018360208201111561020557600080fd5b8035906020019184600183028401116401000000008311171561022757600080fd5b90919293919293905050506107a1565b005b6102cc600480360360c081101561024f57600080fd5b810190808035906020019092919080359060200190929190803573ffffffffffffffffffffffffffffffffffffffff16906020019092919080357bffffffffffffffffffffffffffffffffffffffffffffffffffffffff191690602001909291908035906020019092919080359060200190929190505050610a16565b60405180821515815260200191505060405180910390f35b6102ec610d4e565b6040518082815260200191505060405180910390f35b61030a610d54565b6040518082815260200191505060405180910390f35b6103fe600480360360c081101561033657600080fd5b810190808035906020019092919080359060200190929190803573ffffffffffffffffffffffffffffffffffffffff16906020019092919080357bffffffffffffffffffffffffffffffffffffffffffffffffffffffff1916906020019092919080359060200190929190803590602001906401000000008111156103ba57600080fd5b8201836020820111156103cc57600080fd5b803590602001918460018302840111640100000000831117156103ee57600080fd5b9091929391929390505050610d71565b60405180821515815260200191505060405180910390f35b61047f6004803603608081101561042c57600080fd5b81019080803590602001909291908035906020019092919080357bffffffffffffffffffffffffffffffffffffffffffffffffffffffff191690602001909291908035906020019092919050505061114a565b005b6105186004803603604081101561049757600080fd5b81019080803573ffffffffffffffffffffffffffffffffffffffff169060200190929190803590602001906401000000008111156104d457600080fd5b8201836020820111156104e657600080fd5b8035906020019184600183028401116401000000008311171561050857600080fd5b90919293919293905050506113d2565b005b610522611608565b005b61052c6117d0565b604051808273ffffffffffffffffffffffffffffffffffffffff16815260200191505060405180910390f35b61063b6004803603606081101561056e57600080fd5b81019080803573ffffffffffffffffffffffffffffffffffffffff16906020019092919080359060200190929190803590602001906401000000008111156105b557600080fd5b8201836020820111156105c757600080fd5b803590602001918460018302840111640100000000831117156105e957600080fd5b91908080601f016020809104026020016040519081016040528093929190818152602001838380828437600081840152601f19601f8201169050808301925050505050505091929192905050506117f4565b005b61067f6004803603602081101561065357600080fd5b81019080803573ffffffffffffffffffffffffffffffffffffffff169060200190929190505050611b1d565b005b6106cf6004803603604081101561069757600080fd5b81019080803573ffffffffffffffffffffffffffffffffffffffff169060200190929190803515159060200190929190505050611d3e565b005b61071d600480360360408110156106e757600080fd5b81019080803573ffffffffffffffffffffffffffffffffffffffff16906020019092919080359060200190929190505050611e5a565b005b6107616004803603602081101561073557600080fd5b81019080803573ffffffffffffffffffffffffffffffffffffffff16906020019092919050505061207c565b60405180821515815260200191505060405180910390f35b60007f0000000000000000000000000000000000000000000000000000000000000000905090565b6107a9610779565b73ffffffffffffffffffffffffffffffffffffffff163373ffffffffffffffffffffffffffffffffffffffff1614610849576040517f08c379a00000000000000000000000000000000000000000000000000000000081526004018080602001828103825260138152602001807f4d75737420757365204c494e4b20746f6b656e0000000000000000000000000081525060200191505060405180910390fd5b857f000000000000000000000000000000000000000000000000000000000000000073ffffffffffffffffffffffffffffffffffffffff168173ffffffffffffffffffffffffffffffffffffffff16141561090c576040517f08c379a00000000000000000000000000000000000000000000000000000000081526004018080602001828103825260178152602001807f43616e6e6f742063616c6c6261636b20746f204c494e4b00000000000000000081525060200191505060405180910390fd5b60008061091d8c8c8b8b8b8b6120d2565b91509150897fd8d7ecc4800d25fa53ce0372f13a416d98907a7ef3d8d3bdd79cf4fe75529c658d848e8d8d878d8d8d604051808a73ffffffffffffffffffffffffffffffffffffffff1681526020018981526020018881526020018773ffffffffffffffffffffffffffffffffffffffff168152602001867bffffffffffffffffffffffffffffffffffffffffffffffffffffffff19168152602001858152602001848152602001806020018281038252848482818152602001925080828437600081840152601f19601f8201169050808301925050509a505050505050505050505060405180910390a2505050505050505050505050565b6000600360003373ffffffffffffffffffffffffffffffffffffffff1673ffffffffffffffffffffffffffffffffffffffff16815260200190815260200160002060009054906101000a900460ff16610aba576040517f08c379a000000000000000000000000000000000000000000000000000000000815260040180806020018281038252602a8152602001806126e0602a913960400191505060405180910390fd5b86600060081b6002600083815260200190815260200160002060000160009054906101000a900460081b60ff19161415610b5c576040517f08c379a000000000000000000000000000000000000000000000000000000000815260040180806020018281038252601b8152602001807f4d757374206861766520612076616c696420726571756573744964000000000081525060200191505060405180910390fd5b610b6b8888888888600161228c565b877f9e9bc7616d42c2835d05ae617e508454e63b30b934be8aa932ebc125e0e58a6460405160405180910390a262061a805a1015610c11576040517f08c379a00000000000000000000000000000000000000000000000000000000081526004018080602001828103825260208152602001807f4d7573742070726f7669646520636f6e73756d657220656e6f7567682067617381525060200191505060405180910390fd5b60008673ffffffffffffffffffffffffffffffffffffffff16868a866040516024018083815260200182815260200192505050604051602081830303815290604052907bffffffffffffffffffffffffffffffffffffffffffffffffffffffff19166020820180517bffffffffffffffffffffffffffffffffffffffffffffffffffffffff83818316178352505050506040518082805190602001908083835b60208310610cd45780518252602082019150602081019050602083039250610cb1565b6001836020036101000a0380198251168184511680821785525050505050509050019150506000604051808303816000865af19150503d8060008114610d36576040519150601f19603f3d011682016040523d82523d6000602084013e610d3b565b606091505b5050905080925050509695505050505050565b61012c81565b6000610d6c600160045461246390919063ffffffff16565b905090565b6000600360003373ffffffffffffffffffffffffffffffffffffffff1673ffffffffffffffffffffffffffffffffffffffff16815260200190815260200160002060009054906101000a900460ff16610e15576040517f08c379a000000000000000000000000000000000000000000000000000000000815260040180806020018281038252602a8152602001806126e0602a913960400191505060405180910390fd5b87600060081b6002600083815260200190815260200160002060000160009054906101000a900460081b60ff19161415610eb7576040517f08c379a000000000000000000000000000000000000000000000000000000000815260040180806020018281038252601b8152602001807f4d757374206861766520612076616c696420726571756573744964000000000081525060200191505060405180910390fd5b8884848080601f016020809104026020016040519081016040528093929190818152602001838380828437600081840152601f19601f82011690508083019250505050505050600060208201519050808314610f7b576040517f08c379a000000000000000000000000000000000000000000000000000000000815260040180806020018281038252601c8152602001807f466972737420776f7264206d757374206265207265717565737449640000000081525060200191505060405180910390fd5b610f8a8c8c8c8c8c600261228c565b8b7f9e9bc7616d42c2835d05ae617e508454e63b30b934be8aa932ebc125e0e58a6460405160405180910390a262061a805a1015611030576040517f08c379a00000000000000000000000000000000000000000000000000000000081526004018080602001828103825260208152602001807f4d7573742070726f7669646520636f6e73756d657220656e6f7567682067617381525060200191505060405180910390fd5b60008a73ffffffffffffffffffffffffffffffffffffffff168a898960405160200180847bffffffffffffffffffffffffffffffffffffffffffffffffffffffff191681526004018383808284378083019250505093505050506040516020818303038152906040526040518082805190602001908083835b602083106110cc57805182526020820191506020810190506020830392506110a9565b6001836020036101000a0380198251168184511680821785525050505050509050019150506000604051808303816000865af19150503d806000811461112e576040519150601f19603f3d011682016040523d82523d6000602084013e611133565b606091505b505090508095505050505050979650505050505050565b6000611158843385856124ec565b90508060ff19166002600087815260200190815260200160002060000160009054906101000a900460081b60ff1916146111fa576040517f08c379a000000000000000000000000000000000000000000000000000000000815260040180806020018281038252601e8152602001807f506172616d7320646f206e6f74206d617463682072657175657374204944000081525060200191505060405180910390fd5b42821115611270576040517f08c379a00000000000000000000000000000000000000000000000000000000081526004018080602001828103825260168152602001807f52657175657374206973206e6f7420657870697265640000000000000000000081525060200191505060405180910390fd5b60026000868152602001908152602001600020600080820160006101000a8154907effffffffffffffffffffffffffffffffffffffffffffffffffffffffffffff021916905560008201601f6101000a81549060ff02191690555050847fa7842b9ec549398102c0d91b1b9919b2f20558aefdadf57528a95c6cd3292e9360405160405180910390a27f000000000000000000000000000000000000000000000000000000000000000073ffffffffffffffffffffffffffffffffffffffff1663a9059cbb33866040518363ffffffff1660e01b8152600401808373ffffffffffffffffffffffffffffffffffffffff16815260200182815260200192505050602060405180830381600087803b15801561138a57600080fd5b505af115801561139e573d6000803e3d6000fd5b505050506040513d60208110156113b457600080fd5b81019080805190602001909291905050506113cb57fe5b5050505050565b600360003373ffffffffffffffffffffffffffffffffffffffff1673ffffffffffffffffffffffffffffffffffffffff16815260200190815260200160002060009054906101000a900460ff16611474576040517f08c379a000000000000000000000000000000000000000000000000000000000815260040180806020018281038252602a8152602001806126e0602a913960400191505060405180910390fd5b7f000000000000000000000000000000000000000000000000000000000000000073ffffffffffffffffffffffffffffffffffffffff168373ffffffffffffffffffffffffffffffffffffffff161415611519576040517f08c379a00000000000000000000000000000000000000000000000000000000081526004018080602001828103825260328152602001806126796032913960400191505060405180910390fd5b60008373ffffffffffffffffffffffffffffffffffffffff1683836040518083838082843780830192505050925050506000604051808303816000865af19150503d8060008114611586576040519150601f19603f3d011682016040523d82523d6000602084013e61158b565b606091505b5050905080611602576040517f08c379a00000000000000000000000000000000000000000000000000000000081526004018080602001828103825260168152602001807f466f727761726465642063616c6c206661696c65642e0000000000000000000081525060200191505060405180910390fd5b50505050565b600160009054906101000a900473ffffffffffffffffffffffffffffffffffffffff1673ffffffffffffffffffffffffffffffffffffffff163373ffffffffffffffffffffffffffffffffffffffff16146116cb576040517f08c379a00000000000000000000000000000000000000000000000000000000081526004018080602001828103825260168152602001807f4d7573742062652070726f706f736564206f776e65720000000000000000000081525060200191505060405180910390fd5b60008060009054906101000a900473ffffffffffffffffffffffffffffffffffffffff169050336000806101000a81548173ffffffffffffffffffffffffffffffffffffffff021916908373ffffffffffffffffffffffffffffffffffffffff1602179055506000600160006101000a81548173ffffffffffffffffffffffffffffffffffffffff021916908373ffffffffffffffffffffffffffffffffffffffff1602179055503373ffffffffffffffffffffffffffffffffffffffff168173ffffffffffffffffffffffffffffffffffffffff167f8be0079c531659141344cd1fd0a4f28419497f9722a3daafe3b4186f6b6457e060405160405180910390a350565b60008054906101000a900473ffffffffffffffffffffffffffffffffffffffff1681565b6117fc610779565b73ffffffffffffffffffffffffffffffffffffffff163373ffffffffffffffffffffffffffffffffffffffff161461189c576040517f08c379a00000000000000000000000000000000000000000000000000000000081526004018080602001828103825260138152602001807f4d75737420757365204c494e4b20746f6b656e0000000000000000000000000081525060200191505060405180910390fd5b8060026020026004018151101561191b576040517f08c379a00000000000000000000000000000000000000000000000000000000081526004018080602001828103825260168152602001807f496e76616c69642072657175657374206c656e6774680000000000000000000081525060200191505060405180910390fd5b81600060208201519050634042994660e01b7bffffffffffffffffffffffffffffffffffffffffffffffffffffffff1916817bffffffffffffffffffffffffffffffffffffffffffffffffffffffff1916146119df576040517f08c379a000000000000000000000000000000000000000000000000000000000815260040180806020018281038252601e8152602001807f4d757374207573652077686974656c69737465642066756e6374696f6e73000081525060200191505060405180910390fd5b85602485015284604485015260003073ffffffffffffffffffffffffffffffffffffffff16856040518082805190602001908083835b60208310611a385780518252602082019150602081019050602083039250611a15565b6001836020036101000a038019825116818451168082178552505050505050905001915050600060405180830381855af49150503d8060008114611a98576040519150601f19603f3d011682016040523d82523d6000602084013e611a9d565b606091505b5050905080611b14576040517f08c379a00000000000000000000000000000000000000000000000000000000081526004018080602001828103825260188152602001807f556e61626c6520746f206372656174652072657175657374000000000000000081525060200191505060405180910390fd5b50505050505050565b60008054906101000a900473ffffffffffffffffffffffffffffffffffffffff1673ffffffffffffffffffffffffffffffffffffffff163373ffffffffffffffffffffffffffffffffffffffff1614611bde576040517f08c379a00000000000000000000000000000000000000000000000000000000081526004018080602001828103825260168152602001807f4f6e6c792063616c6c61626c65206279206f776e65720000000000000000000081525060200191505060405180910390fd5b3373ffffffffffffffffffffffffffffffffffffffff168173ffffffffffffffffffffffffffffffffffffffff161415611c80576040517f08c379a00000000000000000000000000000000000000000000000000000000081526004018080602001828103825260178152602001807f43616e6e6f74207472616e7366657220746f2073656c6600000000000000000081525060200191505060405180910390fd5b80600160006101000a81548173ffffffffffffffffffffffffffffffffffffffff021916908373ffffffffffffffffffffffffffffffffffffffff1602179055508073ffffffffffffffffffffffffffffffffffffffff1660008054906101000a900473ffffffffffffffffffffffffffffffffffffffff1673ffffffffffffffffffffffffffffffffffffffff167fed8889f560326eb138920d842192f0eb3dd22b4f139c87a2c57538e05bae127860405160405180910390a350565b60008054906101000a900473ffffffffffffffffffffffffffffffffffffffff1673ffffffffffffffffffffffffffffffffffffffff163373ffffffffffffffffffffffffffffffffffffffff1614611dff576040517f08c379a00000000000000000000000000000000000000000000000000000000081526004018080602001828103825260168152602001807f4f6e6c792063616c6c61626c65206279206f776e65720000000000000000000081525060200191505060405180910390fd5b80600360008473ffffffffffffffffffffffffffffffffffffffff1673ffffffffffffffffffffffffffffffffffffffff16815260200190815260200160002060006101000a81548160ff0219169083151502179055505050565b60008054906101000a900473ffffffffffffffffffffffffffffffffffffffff1673ffffffffffffffffffffffffffffffffffffffff163373ffffffffffffffffffffffffffffffffffffffff1614611f1b576040517f08c379a00000000000000000000000000000000000000000000000000000000081526004018080602001828103825260168152602001807f4f6e6c792063616c6c61626c65206279206f776e65720000000000000000000081525060200191505060405180910390fd5b80611f3060018261256f90919063ffffffff16565b6004541015611f8a576040517f08c379a00000000000000000000000000000000000000000000000000000000081526004018080602001828103825260358152602001806126ab6035913960400191505060405180910390fd5b611f9f8260045461246390919063ffffffff16565b6004819055507f000000000000000000000000000000000000000000000000000000000000000073ffffffffffffffffffffffffffffffffffffffff1663a9059cbb84846040518363ffffffff1660e01b8152600401808373ffffffffffffffffffffffffffffffffffffffff16815260200182815260200192505050602060405180830381600087803b15801561203657600080fd5b505af115801561204a573d6000803e3d6000fd5b505050506040513d602081101561206057600080fd5b810190808051906020019092919050505061207757fe5b505050565b6000600360008373ffffffffffffffffffffffffffffffffffffffff1673ffffffffffffffffffffffffffffffffffffffff16815260200190815260200160002060009054906101000a900460ff169050919050565b6000808784604051602001808373ffffffffffffffffffffffffffffffffffffffff1660601b815260140182815260200192505050604051602081830303815290604052805190602001209150600060081b6002600084815260200190815260200160002060000160009054906101000a900460081b60ff1916146121bf576040517f08c379a00000000000000000000000000000000000000000000000000000000081526004018080602001828103825260148152602001807f4d75737420757365206120756e6971756520494400000000000000000000000081525060200191505060405180910390fd5b6121d461012c4261256f90919063ffffffff16565b905060006121e4888888856124ec565b905060405180604001604052808260ff19168152602001612204866125f7565b60ff168152506002600085815260200190815260200160002060008201518160000160006101000a8154817effffffffffffffffffffffffffffffffffffffffffffffffffffffffffffff021916908360081c0217905550602082015181600001601f6101000a81548160ff021916908360ff16021790555090505050965096945050505050565b600061229a868686866124ec565b90508060ff19166002600089815260200190815260200160002060000160009054906101000a900460081b60ff19161461233c576040517f08c379a000000000000000000000000000000000000000000000000000000000815260040180806020018281038252601e8152602001807f506172616d7320646f206e6f74206d617463682072657175657374204944000081525060200191505060405180910390fd5b612345826125f7565b60ff1660026000898152602001908152602001600020600001601f9054906101000a900460ff1660ff1611156123e3576040517f08c379a00000000000000000000000000000000000000000000000000000000081526004018080602001828103825260188152602001807f446174612076657273696f6e73206d757374206d61746368000000000000000081525060200191505060405180910390fd5b6123f88660045461256f90919063ffffffff16565b60048190555060026000888152602001908152602001600020600080820160006101000a8154907effffffffffffffffffffffffffffffffffffffffffffffffffffffffffffff021916905560008201601f6101000a81549060ff0219169055505050505050505050565b6000828211156124db576040517f08c379a000000000000000000000000000000000000000000000000000000000815260040180806020018281038252601e8152602001807f536166654d6174683a207375627472616374696f6e206f766572666c6f77000081525060200191505060405180910390fd5b600082840390508091505092915050565b600084848484604051602001808581526020018473ffffffffffffffffffffffffffffffffffffffff1660601b8152601401837bffffffffffffffffffffffffffffffffffffffffffffffffffffffff19168152600401828152602001945050505050604051602081830303815290604052805190602001209050949350505050565b6000808284019050838110156125ed576040517f08c379a000000000000000000000000000000000000000000000000000000000815260040180806020018281038252601b8152602001807f536166654d6174683a206164646974696f6e206f766572666c6f77000000000081525060200191505060405180910390fd5b8091505092915050565b60006101008210612670576040517f08c379a00000000000000000000000000000000000000000000000000000000081526004018080602001828103825260168152602001807f6e756d62657220746f6f2062696720746f20636173740000000000000000000081525060200191505060405180910390fd5b81905091905056fe43616e6e6f74207573652023666f727761726420746f2073656e64206d6573736167657320746f204c696e6b20746f6b656e416d6f756e74207265717565737465642069732067726561746572207468616e20776974686472617761626c652062616c616e63654e6f7420616e20617574686f72697a6564206e6f646520746f2066756c66696c6c207265717565737473a26469706673582212201ee0a53524752811cb080c8ea9d6bab7f7ef04f3d6411b337cfedbcd1fcdc34464736f6c63430007000033",
			"opcodes": "PUSH1 0xA0 PUSH1 0x40 MSTORE PUSH1 0x1 PUSH1 0x4 SSTORE CALLVALUE DUP1 ISZERO PUSH2 0x15 JUMPI PUSH1 0x0 DUP1 REVERT JUMPDEST POP PUSH1 0x40 MLOAD PUSH2 0x283E CODESIZE SUB DUP1 PUSH2 0x283E DUP4 CODECOPY DUP2 DUP2 ADD PUSH1 0x40 MSTORE PUSH1 0x40 DUP2 LT ISZERO PUSH2 0x38 JUMPI PUSH1 0x0 DUP1 REVERT JUMPDEST DUP2 ADD SWAP1 DUP1 DUP1 MLOAD SWAP1 PUSH1 0x20 ADD SWAP1 SWAP3 SWAP2 SWAP1 DUP1 MLOAD SWAP1 PUSH1 0x20 ADD SWAP1 SWAP3 SWAP2 SWAP1 POP POP POP DUP1 DUP1 PUSH1 0x0 DUP1 PUSH2 0x100 EXP DUP2 SLOAD DUP2 PUSH20 0xFFFFFFFFFFFFFFFFFFFFFFFFFFFFFFFFFFFFFFFF MUL NOT AND SWAP1 DUP4 PUSH20 0xFFFFFFFFFFFFFFFFFFFFFFFFFFFFFFFFFFFFFFFF AND MUL OR SWAP1 SSTORE POP POP DUP2 PUSH20 0xFFFFFFFFFFFFFFFFFFFFFFFFFFFFFFFFFFFFFFFF AND PUSH1 0x80 DUP2 PUSH20 0xFFFFFFFFFFFFFFFFFFFFFFFFFFFFFFFFFFFFFFFF AND PUSH1 0x60 SHL DUP2 MSTORE POP POP POP POP PUSH1 0x80 MLOAD PUSH1 0x60 SHR PUSH2 0x273F PUSH2 0xFF PUSH1 0x0 CODECOPY DUP1 PUSH2 0x77D MSTORE DUP1 PUSH2 0x84C MSTORE DUP1 PUSH2 0x12FB MSTORE DUP1 PUSH2 0x1476 MSTORE DUP1 PUSH2 0x1FA7 MSTORE POP PUSH2 0x273F PUSH1 0x0 RETURN INVALID PUSH1 0x80 PUSH1 0x40 MSTORE CALLVALUE DUP1 ISZERO PUSH2 0x10 JUMPI PUSH1 0x0 DUP1 REVERT JUMPDEST POP PUSH1 0x4 CALLDATASIZE LT PUSH2 0xF5 JUMPI PUSH1 0x0 CALLDATALOAD PUSH1 0xE0 SHR DUP1 PUSH4 0x6FADCF72 GT PUSH2 0x97 JUMPI DUP1 PUSH4 0xF2FDE38B GT PUSH2 0x66 JUMPI DUP1 PUSH4 0xF2FDE38B EQ PUSH2 0x63D JUMPI DUP1 PUSH4 0xF3DFC2A9 EQ PUSH2 0x681 JUMPI DUP1 PUSH4 0xF3FEF3A3 EQ PUSH2 0x6D1 JUMPI DUP1 PUSH4 0xFA00763A EQ PUSH2 0x71F JUMPI PUSH2 0xF5 JUMP JUMPDEST DUP1 PUSH4 0x6FADCF72 EQ PUSH2 0x481 JUMPI DUP1 PUSH4 0x79BA5097 EQ PUSH2 0x51A JUMPI DUP1 PUSH4 0x8DA5CB5B EQ PUSH2 0x524 JUMPI DUP1 PUSH4 0xA4C0ED36 EQ PUSH2 0x558 JUMPI PUSH2 0xF5 JUMP JUMPDEST DUP1 PUSH4 0x4B602282 GT PUSH2 0xD3 JUMPI DUP1 PUSH4 0x4B602282 EQ PUSH2 0x2E4 JUMPI DUP1 PUSH4 0x50188301 EQ PUSH2 0x302 JUMPI DUP1 PUSH4 0x6AE0BC76 EQ PUSH2 0x320 JUMPI DUP1 PUSH4 0x6EE4D553 EQ PUSH2 0x416 JUMPI PUSH2 0xF5 JUMP JUMPDEST DUP1 PUSH4 0x165D35E1 EQ PUSH2 0xFA JUMPI DUP1 PUSH4 0x40429946 EQ PUSH2 0x12E JUMPI DUP1 PUSH4 0x4AB0D190 EQ PUSH2 0x239 JUMPI JUMPDEST PUSH1 0x0 DUP1 REVERT JUMPDEST PUSH2 0x102 PUSH2 0x779 JUMP JUMPDEST PUSH1 0x40 MLOAD DUP1 DUP3 PUSH20 0xFFFFFFFFFFFFFFFFFFFFFFFFFFFFFFFFFFFFFFFF AND DUP2 MSTORE PUSH1 0x20 ADD SWAP2 POP POP PUSH1 0x40 MLOAD DUP1 SWAP2 SUB SWAP1 RETURN JUMPDEST PUSH2 0x237 PUSH1 0x4 DUP1 CALLDATASIZE SUB PUSH2 0x100 DUP2 LT ISZERO PUSH2 0x145 JUMPI PUSH1 0x0 DUP1 REVERT JUMPDEST DUP2 ADD SWAP1 DUP1 DUP1 CALLDATALOAD PUSH20 0xFFFFFFFFFFFFFFFFFFFFFFFFFFFFFFFFFFFFFFFF AND SWAP1 PUSH1 0x20 ADD SWAP1 SWAP3 SWAP2 SWAP1 DUP1 CALLDATALOAD SWAP1 PUSH1 0x20 ADD SWAP1 SWAP3 SWAP2 SWAP1 DUP1 CALLDATALOAD SWAP1 PUSH1 0x20 ADD SWAP1 SWAP3 SWAP2 SWAP1 DUP1 CALLDATALOAD PUSH20 0xFFFFFFFFFFFFFFFFFFFFFFFFFFFFFFFFFFFFFFFF AND SWAP1 PUSH1 0x20 ADD SWAP1 SWAP3 SWAP2 SWAP1 DUP1 CALLDATALOAD PUSH28 0xFFFFFFFFFFFFFFFFFFFFFFFFFFFFFFFFFFFFFFFFFFFFFFFFFFFFFFFF NOT AND SWAP1 PUSH1 0x20 ADD SWAP1 SWAP3 SWAP2 SWAP1 DUP1 CALLDATALOAD SWAP1 PUSH1 0x20 ADD SWAP1 SWAP3 SWAP2 SWAP1 DUP1 CALLDATALOAD SWAP1 PUSH1 0x20 ADD SWAP1 SWAP3 SWAP2 SWAP1 DUP1 CALLDATALOAD SWAP1 PUSH1 0x20 ADD SWAP1 PUSH5 0x100000000 DUP2 GT ISZERO PUSH2 0x1F3 JUMPI PUSH1 0x0 DUP1 REVERT JUMPDEST DUP3 ADD DUP4 PUSH1 0x20 DUP3 ADD GT ISZERO PUSH2 0x205 JUMPI PUSH1 0x0 DUP1 REVERT JUMPDEST DUP1 CALLDATALOAD SWAP1 PUSH1 0x20 ADD SWAP2 DUP5 PUSH1 0x1 DUP4 MUL DUP5 ADD GT PUSH5 0x100000000 DUP4 GT OR ISZERO PUSH2 0x227 JUMPI PUSH1 0x0 DUP1 REVERT JUMPDEST SWAP1 SWAP2 SWAP3 SWAP4 SWAP2 SWAP3 SWAP4 SWAP1 POP POP POP PUSH2 0x7A1 JUMP JUMPDEST STOP JUMPDEST PUSH2 0x2CC PUSH1 0x4 DUP1 CALLDATASIZE SUB PUSH1 0xC0 DUP2 LT ISZERO PUSH2 0x24F JUMPI PUSH1 0x0 DUP1 REVERT JUMPDEST DUP2 ADD SWAP1 DUP1 DUP1 CALLDATALOAD SWAP1 PUSH1 0x20 ADD SWAP1 SWAP3 SWAP2 SWAP1 DUP1 CALLDATALOAD SWAP1 PUSH1 0x20 ADD SWAP1 SWAP3 SWAP2 SWAP1 DUP1 CALLDATALOAD PUSH20 0xFFFFFFFFFFFFFFFFFFFFFFFFFFFFFFFFFFFFFFFF AND SWAP1 PUSH1 0x20 ADD SWAP1 SWAP3 SWAP2 SWAP1 DUP1 CALLDATALOAD PUSH28 0xFFFFFFFFFFFFFFFFFFFFFFFFFFFFFFFFFFFFFFFFFFFFFFFFFFFFFFFF NOT AND SWAP1 PUSH1 0x20 ADD SWAP1 SWAP3 SWAP2 SWAP1 DUP1 CALLDATALOAD SWAP1 PUSH1 0x20 ADD SWAP1 SWAP3 SWAP2 SWAP1 DUP1 CALLDATALOAD SWAP1 PUSH1 0x20 ADD SWAP1 SWAP3 SWAP2 SWAP1 POP POP POP PUSH2 0xA16 JUMP JUMPDEST PUSH1 0x40 MLOAD DUP1 DUP3 ISZERO ISZERO DUP2 MSTORE PUSH1 0x20 ADD SWAP2 POP POP PUSH1 0x40 MLOAD DUP1 SWAP2 SUB SWAP1 RETURN JUMPDEST PUSH2 0x2EC PUSH2 0xD4E JUMP JUMPDEST PUSH1 0x40 MLOAD DUP1 DUP3 DUP2 MSTORE PUSH1 0x20 ADD SWAP2 POP POP PUSH1 0x40 MLOAD DUP1 SWAP2 SUB SWAP1 RETURN JUMPDEST PUSH2 0x30A PUSH2 0xD54 JUMP JUMPDEST PUSH1 0x40 MLOAD DUP1 DUP3 DUP2 MSTORE PUSH1 0x20 ADD SWAP2 POP POP PUSH1 0x40 MLOAD DUP1 SWAP2 SUB SWAP1 RETURN JUMPDEST PUSH2 0x3FE PUSH1 0x4 DUP1 CALLDATASIZE SUB PUSH1 0xC0 DUP2 LT ISZERO PUSH2 0x336 JUMPI PUSH1 0x0 DUP1 REVERT JUMPDEST DUP2 ADD SWAP1 DUP1 DUP1 CALLDATALOAD SWAP1 PUSH1 0x20 ADD SWAP1 SWAP3 SWAP2 SWAP1 DUP1 CALLDATALOAD SWAP1 PUSH1 0x20 ADD SWAP1 SWAP3 SWAP2 SWAP1 DUP1 CALLDATALOAD PUSH20 0xFFFFFFFFFFFFFFFFFFFFFFFFFFFFFFFFFFFFFFFF AND SWAP1 PUSH1 0x20 ADD SWAP1 SWAP3 SWAP2 SWAP1 DUP1 CALLDATALOAD PUSH28 0xFFFFFFFFFFFFFFFFFFFFFFFFFFFFFFFFFFFFFFFFFFFFFFFFFFFFFFFF NOT AND SWAP1 PUSH1 0x20 ADD SWAP1 SWAP3 SWAP2 SWAP1 DUP1 CALLDATALOAD SWAP1 PUSH1 0x20 ADD SWAP1 SWAP3 SWAP2 SWAP1 DUP1 CALLDATALOAD SWAP1 PUSH1 0x20 ADD SWAP1 PUSH5 0x100000000 DUP2 GT ISZERO PUSH2 0x3BA JUMPI PUSH1 0x0 DUP1 REVERT JUMPDEST DUP3 ADD DUP4 PUSH1 0x20 DUP3 ADD GT ISZERO PUSH2 0x3CC JUMPI PUSH1 0x0 DUP1 REVERT JUMPDEST DUP1 CALLDATALOAD SWAP1 PUSH1 0x20 ADD SWAP2 DUP5 PUSH1 0x1 DUP4 MUL DUP5 ADD GT PUSH5 0x100000000 DUP4 GT OR ISZERO PUSH2 0x3EE JUMPI PUSH1 0x0 DUP1 REVERT JUMPDEST SWAP1 SWAP2 SWAP3 SWAP4 SWAP2 SWAP3 SWAP4 SWAP1 POP POP POP PUSH2 0xD71 JUMP JUMPDEST PUSH1 0x40 MLOAD DUP1 DUP3 ISZERO ISZERO DUP2 MSTORE PUSH1 0x20 ADD SWAP2 POP POP PUSH1 0x40 MLOAD DUP1 SWAP2 SUB SWAP1 RETURN JUMPDEST PUSH2 0x47F PUSH1 0x4 DUP1 CALLDATASIZE SUB PUSH1 0x80 DUP2 LT ISZERO PUSH2 0x42C JUMPI PUSH1 0x0 DUP1 REVERT JUMPDEST DUP2 ADD SWAP1 DUP1 DUP1 CALLDATALOAD SWAP1 PUSH1 0x20 ADD SWAP1 SWAP3 SWAP2 SWAP1 DUP1 CALLDATALOAD SWAP1 PUSH1 0x20 ADD SWAP1 SWAP3 SWAP2 SWAP1 DUP1 CALLDATALOAD PUSH28 0xFFFFFFFFFFFFFFFFFFFFFFFFFFFFFFFFFFFFFFFFFFFFFFFFFFFFFFFF NOT AND SWAP1 PUSH1 0x20 ADD SWAP1 SWAP3 SWAP2 SWAP1 DUP1 CALLDATALOAD SWAP1 PUSH1 0x20 ADD SWAP1 SWAP3 SWAP2 SWAP1 POP POP POP PUSH2 0x114A JUMP JUMPDEST STOP JUMPDEST PUSH2 0x518 PUSH1 0x4 DUP1 CALLDATASIZE SUB PUSH1 0x40 DUP2 LT ISZERO PUSH2 0x497 JUMPI PUSH1 0x0 DUP1 REVERT JUMPDEST DUP2 ADD SWAP1 DUP1 DUP1 CALLDATALOAD PUSH20 0xFFFFFFFFFFFFFFFFFFFFFFFFFFFFFFFFFFFFFFFF AND SWAP1 PUSH1 0x20 ADD SWAP1 SWAP3 SWAP2 SWAP1 DUP1 CALLDATALOAD SWAP1 PUSH1 0x20 ADD SWAP1 PUSH5 0x100000000 DUP2 GT ISZERO PUSH2 0x4D4 JUMPI PUSH1 0x0 DUP1 REVERT JUMPDEST DUP3 ADD DUP4 PUSH1 0x20 DUP3 ADD GT ISZERO PUSH2 0x4E6 JUMPI PUSH1 0x0 DUP1 REVERT JUMPDEST DUP1 CALLDATALOAD SWAP1 PUSH1 0x20 ADD SWAP2 DUP5 PUSH1 0x1 DUP4 MUL DUP5 ADD GT PUSH5 0x100000000 DUP4 GT OR ISZERO PUSH2 0x508 JUMPI PUSH1 0x0 DUP1 REVERT JUMPDEST SWAP1 SWAP2 SWAP3 SWAP4 SWAP2 SWAP3 SWAP4 SWAP1 POP POP POP PUSH2 0x13D2 JUMP JUMPDEST STOP JUMPDEST PUSH2 0x522 PUSH2 0x1608 JUMP JUMPDEST STOP JUMPDEST PUSH2 0x52C PUSH2 0x17D0 JUMP JUMPDEST PUSH1 0x40 MLOAD DUP1 DUP3 PUSH20 0xFFFFFFFFFFFFFFFFFFFFFFFFFFFFFFFFFFFFFFFF AND DUP2 MSTORE PUSH1 0x20 ADD SWAP2 POP POP PUSH1 0x40 MLOAD DUP1 SWAP2 SUB SWAP1 RETURN JUMPDEST PUSH2 0x63B PUSH1 0x4 DUP1 CALLDATASIZE SUB PUSH1 0x60 DUP2 LT ISZERO PUSH2 0x56E JUMPI PUSH1 0x0 DUP1 REVERT JUMPDEST DUP2 ADD SWAP1 DUP1 DUP1 CALLDATALOAD PUSH20 0xFFFFFFFFFFFFFFFFFFFFFFFFFFFFFFFFFFFFFFFF AND SWAP1 PUSH1 0x20 ADD SWAP1 SWAP3 SWAP2 SWAP1 DUP1 CALLDATALOAD SWAP1 PUSH1 0x20 ADD SWAP1 SWAP3 SWAP2 SWAP1 DUP1 CALLDATALOAD SWAP1 PUSH1 0x20 ADD SWAP1 PUSH5 0x100000000 DUP2 GT ISZERO PUSH2 0x5B5 JUMPI PUSH1 0x0 DUP1 REVERT JUMPDEST DUP3 ADD DUP4 PUSH1 0x20 DUP3 ADD GT ISZERO PUSH2 0x5C7 JUMPI PUSH1 0x0 DUP1 REVERT JUMPDEST DUP1 CALLDATALOAD SWAP1 PUSH1 0x20 ADD SWAP2 DUP5 PUSH1 0x1 DUP4 MUL DUP5 ADD GT PUSH5 0x100000000 DUP4 GT OR ISZERO PUSH2 0x5E9 JUMPI PUSH1 0x0 DUP1 REVERT JUMPDEST SWAP2 SWAP1 DUP1 DUP1 PUSH1 0x1F ADD PUSH1 0x20 DUP1 SWAP2 DIV MUL PUSH1 0x20 ADD PUSH1 0x40 MLOAD SWAP1 DUP2 ADD PUSH1 0x40 MSTORE DUP1 SWAP4 SWAP3 SWAP2 SWAP1 DUP2 DUP2 MSTORE PUSH1 0x20 ADD DUP4 DUP4 DUP1 DUP3 DUP5 CALLDATACOPY PUSH1 0x0 DUP2 DUP5 ADD MSTORE PUSH1 0x1F NOT PUSH1 0x1F DUP3 ADD AND SWAP1 POP DUP1 DUP4 ADD SWAP3 POP POP POP POP POP POP POP SWAP2 SWAP3 SWAP2 SWAP3 SWAP1 POP POP POP PUSH2 0x17F4 JUMP JUMPDEST STOP JUMPDEST PUSH2 0x67F PUSH1 0x4 DUP1 CALLDATASIZE SUB PUSH1 0x20 DUP2 LT ISZERO PUSH2 0x653 JUMPI PUSH1 0x0 DUP1 REVERT JUMPDEST DUP2 ADD SWAP1 DUP1 DUP1 CALLDATALOAD PUSH20 0xFFFFFFFFFFFFFFFFFFFFFFFFFFFFFFFFFFFFFFFF AND SWAP1 PUSH1 0x20 ADD SWAP1 SWAP3 SWAP2 SWAP1 POP POP POP PUSH2 0x1B1D JUMP JUMPDEST STOP JUMPDEST PUSH2 0x6CF PUSH1 0x4 DUP1 CALLDATASIZE SUB PUSH1 0x40 DUP2 LT ISZERO PUSH2 0x697 JUMPI PUSH1 0x0 DUP1 REVERT JUMPDEST DUP2 ADD SWAP1 DUP1 DUP1 CALLDATALOAD PUSH20 0xFFFFFFFFFFFFFFFFFFFFFFFFFFFFFFFFFFFFFFFF AND SWAP1 PUSH1 0x20 ADD SWAP1 SWAP3 SWAP2 SWAP1 DUP1 CALLDATALOAD ISZERO ISZERO SWAP1 PUSH1 0x20 ADD SWAP1 SWAP3 SWAP2 SWAP1 POP POP POP PUSH2 0x1D3E JUMP JUMPDEST STOP JUMPDEST PUSH2 0x71D PUSH1 0x4 DUP1 CALLDATASIZE SUB PUSH1 0x40 DUP2 LT ISZERO PUSH2 0x6E7 JUMPI PUSH1 0x0 DUP1 REVERT JUMPDEST DUP2 ADD SWAP1 DUP1 DUP1 CALLDATALOAD PUSH20 0xFFFFFFFFFFFFFFFFFFFFFFFFFFFFFFFFFFFFFFFF AND SWAP1 PUSH1 0x20 ADD SWAP1 SWAP3 SWAP2 SWAP1 DUP1 CALLDATALOAD SWAP1 PUSH1 0x20 ADD SWAP1 SWAP3 SWAP2 SWAP1 POP POP POP PUSH2 0x1E5A JUMP JUMPDEST STOP JUMPDEST PUSH2 0x761 PUSH1 0x4 DUP1 CALLDATASIZE SUB PUSH1 0x20 DUP2 LT ISZERO PUSH2 0x735 JUMPI PUSH1 0x0 DUP1 REVERT JUMPDEST DUP2 ADD SWAP1 DUP1 DUP1 CALLDATALOAD PUSH20 0xFFFFFFFFFFFFFFFFFFFFFFFFFFFFFFFFFFFFFFFF AND SWAP1 PUSH1 0x20 ADD SWAP1 SWAP3 SWAP2 SWAP1 POP POP POP PUSH2 0x207C JUMP JUMPDEST PUSH1 0x40 MLOAD DUP1 DUP3 ISZERO ISZERO DUP2 MSTORE PUSH1 0x20 ADD SWAP2 POP POP PUSH1 0x40 MLOAD DUP1 SWAP2 SUB SWAP1 RETURN JUMPDEST PUSH1 0x0 PUSH32 0x0 SWAP1 POP SWAP1 JUMP JUMPDEST PUSH2 0x7A9 PUSH2 0x779 JUMP JUMPDEST PUSH20 0xFFFFFFFFFFFFFFFFFFFFFFFFFFFFFFFFFFFFFFFF AND CALLER PUSH20 0xFFFFFFFFFFFFFFFFFFFFFFFFFFFFFFFFFFFFFFFF AND EQ PUSH2 0x849 JUMPI PUSH1 0x40 MLOAD PUSH32 0x8C379A000000000000000000000000000000000000000000000000000000000 DUP2 MSTORE PUSH1 0x4 ADD DUP1 DUP1 PUSH1 0x20 ADD DUP3 DUP2 SUB DUP3 MSTORE PUSH1 0x13 DUP2 MSTORE PUSH1 0x20 ADD DUP1 PUSH32 0x4D75737420757365204C494E4B20746F6B656E00000000000000000000000000 DUP2 MSTORE POP PUSH1 0x20 ADD SWAP2 POP POP PUSH1 0x40 MLOAD DUP1 SWAP2 SUB SWAP1 REVERT JUMPDEST DUP6 PUSH32 0x0 PUSH20 0xFFFFFFFFFFFFFFFFFFFFFFFFFFFFFFFFFFFFFFFF AND DUP2 PUSH20 0xFFFFFFFFFFFFFFFFFFFFFFFFFFFFFFFFFFFFFFFF AND EQ ISZERO PUSH2 0x90C JUMPI PUSH1 0x40 MLOAD PUSH32 0x8C379A000000000000000000000000000000000000000000000000000000000 DUP2 MSTORE PUSH1 0x4 ADD DUP1 DUP1 PUSH1 0x20 ADD DUP3 DUP2 SUB DUP3 MSTORE PUSH1 0x17 DUP2 MSTORE PUSH1 0x20 ADD DUP1 PUSH32 0x43616E6E6F742063616C6C6261636B20746F204C494E4B000000000000000000 DUP2 MSTORE POP PUSH1 0x20 ADD SWAP2 POP POP PUSH1 0x40 MLOAD DUP1 SWAP2 SUB SWAP1 REVERT JUMPDEST PUSH1 0x0 DUP1 PUSH2 0x91D DUP13 DUP13 DUP12 DUP12 DUP12 DUP12 PUSH2 0x20D2 JUMP JUMPDEST SWAP2 POP SWAP2 POP DUP10 PUSH32 0xD8D7ECC4800D25FA53CE0372F13A416D98907A7EF3D8D3BDD79CF4FE75529C65 DUP14 DUP5 DUP15 DUP14 DUP14 DUP8 DUP14 DUP14 DUP14 PUSH1 0x40 MLOAD DUP1 DUP11 PUSH20 0xFFFFFFFFFFFFFFFFFFFFFFFFFFFFFFFFFFFFFFFF AND DUP2 MSTORE PUSH1 0x20 ADD DUP10 DUP2 MSTORE PUSH1 0x20 ADD DUP9 DUP2 MSTORE PUSH1 0x20 ADD DUP8 PUSH20 0xFFFFFFFFFFFFFFFFFFFFFFFFFFFFFFFFFFFFFFFF AND DUP2 MSTORE PUSH1 0x20 ADD DUP7 PUSH28 0xFFFFFFFFFFFFFFFFFFFFFFFFFFFFFFFFFFFFFFFFFFFFFFFFFFFFFFFF NOT AND DUP2 MSTORE PUSH1 0x20 ADD DUP6 DUP2 MSTORE PUSH1 0x20 ADD DUP5 DUP2 MSTORE PUSH1 0x20 ADD DUP1 PUSH1 0x20 ADD DUP3 DUP2 SUB DUP3 MSTORE DUP5 DUP5 DUP3 DUP2 DUP2 MSTORE PUSH1 0x20 ADD SWAP3 POP DUP1 DUP3 DUP5 CALLDATACOPY PUSH1 0x0 DUP2 DUP5 ADD MSTORE PUSH1 0x1F NOT PUSH1 0x1F DUP3 ADD AND SWAP1 POP DUP1 DUP4 ADD SWAP3 POP POP POP SWAP11 POP POP POP POP POP POP POP POP POP POP POP PUSH1 0x40 MLOAD DUP1 SWAP2 SUB SWAP1 LOG2 POP POP POP POP POP POP POP POP POP POP POP POP JUMP JUMPDEST PUSH1 0x0 PUSH1 0x3 PUSH1 0x0 CALLER PUSH20 0xFFFFFFFFFFFFFFFFFFFFFFFFFFFFFFFFFFFFFFFF AND PUSH20 0xFFFFFFFFFFFFFFFFFFFFFFFFFFFFFFFFFFFFFFFF AND DUP2 MSTORE PUSH1 0x20 ADD SWAP1 DUP2 MSTORE PUSH1 0x20 ADD PUSH1 0x0 KECCAK256 PUSH1 0x0 SWAP1 SLOAD SWAP1 PUSH2 0x100 EXP SWAP1 DIV PUSH1 0xFF AND PUSH2 0xABA JUMPI PUSH1 0x40 MLOAD PUSH32 0x8C379A000000000000000000000000000000000000000000000000000000000 DUP2 MSTORE PUSH1 0x4 ADD DUP1 DUP1 PUSH1 0x20 ADD DUP3 DUP2 SUB DUP3 MSTORE PUSH1 0x2A DUP2 MSTORE PUSH1 0x20 ADD DUP1 PUSH2 0x26E0 PUSH1 0x2A SWAP2 CODECOPY PUSH1 0x40 ADD SWAP2 POP POP PUSH1 0x40 MLOAD DUP1 SWAP2 SUB SWAP1 REVERT JUMPDEST DUP7 PUSH1 0x0 PUSH1 0x8 SHL PUSH1 0x2 PUSH1 0x0 DUP4 DUP2 MSTORE PUSH1 0x20 ADD SWAP1 DUP2 MSTORE PUSH1 0x20 ADD PUSH1 0x0 KECCAK256 PUSH1 0x0 ADD PUSH1 0x0 SWAP1 SLOAD SWAP1 PUSH2 0x100 EXP SWAP1 DIV PUSH1 0x8 SHL PUSH1 0xFF NOT AND EQ ISZERO PUSH2 0xB5C JUMPI PUSH1 0x40 MLOAD PUSH32 0x8C379A000000000000000000000000000000000000000000000000000000000 DUP2 MSTORE PUSH1 0x4 ADD DUP1 DUP1 PUSH1 0x20 ADD DUP3 DUP2 SUB DUP3 MSTORE PUSH1 0x1B DUP2 MSTORE PUSH1 0x20 ADD DUP1 PUSH32 0x4D757374206861766520612076616C6964207265717565737449640000000000 DUP2 MSTORE POP PUSH1 0x20 ADD SWAP2 POP POP PUSH1 0x40 MLOAD DUP1 SWAP2 SUB SWAP1 REVERT JUMPDEST PUSH2 0xB6B DUP9 DUP9 DUP9 DUP9 DUP9 PUSH1 0x1 PUSH2 0x228C JUMP JUMPDEST DUP8 PUSH32 0x9E9BC7616D42C2835D05AE617E508454E63B30B934BE8AA932EBC125E0E58A64 PUSH1 0x40 MLOAD PUSH1 0x40 MLOAD DUP1 SWAP2 SUB SWAP1 LOG2 PUSH3 0x61A80 GAS LT ISZERO PUSH2 0xC11 JUMPI PUSH1 0x40 MLOAD PUSH32 0x8C379A000000000000000000000000000000000000000000000000000000000 DUP2 MSTORE PUSH1 0x4 ADD DUP1 DUP1 PUSH1 0x20 ADD DUP3 DUP2 SUB DUP3 MSTORE PUSH1 0x20 DUP2 MSTORE PUSH1 0x20 ADD DUP1 PUSH32 0x4D7573742070726F7669646520636F6E73756D657220656E6F75676820676173 DUP2 MSTORE POP PUSH1 0x20 ADD SWAP2 POP POP PUSH1 0x40 MLOAD DUP1 SWAP2 SUB SWAP1 REVERT JUMPDEST PUSH1 0x0 DUP7 PUSH20 0xFFFFFFFFFFFFFFFFFFFFFFFFFFFFFFFFFFFFFFFF AND DUP7 DUP11 DUP7 PUSH1 0x40 MLOAD PUSH1 0x24 ADD DUP1 DUP4 DUP2 MSTORE PUSH1 0x20 ADD DUP3 DUP2 MSTORE PUSH1 0x20 ADD SWAP3 POP POP POP PUSH1 0x40 MLOAD PUSH1 0x20 DUP2 DUP4 SUB SUB DUP2 MSTORE SWAP1 PUSH1 0x40 MSTORE SWAP1 PUSH28 0xFFFFFFFFFFFFFFFFFFFFFFFFFFFFFFFFFFFFFFFFFFFFFFFFFFFFFFFF NOT AND PUSH1 0x20 DUP3 ADD DUP1 MLOAD PUSH28 0xFFFFFFFFFFFFFFFFFFFFFFFFFFFFFFFFFFFFFFFFFFFFFFFFFFFFFFFF DUP4 DUP2 DUP4 AND OR DUP4 MSTORE POP POP POP POP PUSH1 0x40 MLOAD DUP1 DUP3 DUP1 MLOAD SWAP1 PUSH1 0x20 ADD SWAP1 DUP1 DUP4 DUP4 JUMPDEST PUSH1 0x20 DUP4 LT PUSH2 0xCD4 JUMPI DUP1 MLOAD DUP3 MSTORE PUSH1 0x20 DUP3 ADD SWAP2 POP PUSH1 0x20 DUP2 ADD SWAP1 POP PUSH1 0x20 DUP4 SUB SWAP3 POP PUSH2 0xCB1 JUMP JUMPDEST PUSH1 0x1 DUP4 PUSH1 0x20 SUB PUSH2 0x100 EXP SUB DUP1 NOT DUP3 MLOAD AND DUP2 DUP5 MLOAD AND DUP1 DUP3 OR DUP6 MSTORE POP POP POP POP POP POP SWAP1 POP ADD SWAP2 POP POP PUSH1 0x0 PUSH1 0x40 MLOAD DUP1 DUP4 SUB DUP2 PUSH1 0x0 DUP7 GAS CALL SWAP2 POP POP RETURNDATASIZE DUP1 PUSH1 0x0 DUP2 EQ PUSH2 0xD36 JUMPI PUSH1 0x40 MLOAD SWAP2 POP PUSH1 0x1F NOT PUSH1 0x3F RETURNDATASIZE ADD AND DUP3 ADD PUSH1 0x40 MSTORE RETURNDATASIZE DUP3 MSTORE RETURNDATASIZE PUSH1 0x0 PUSH1 0x20 DUP5 ADD RETURNDATACOPY PUSH2 0xD3B JUMP JUMPDEST PUSH1 0x60 SWAP2 POP JUMPDEST POP POP SWAP1 POP DUP1 SWAP3 POP POP POP SWAP7 SWAP6 POP POP POP POP POP POP JUMP JUMPDEST PUSH2 0x12C DUP2 JUMP JUMPDEST PUSH1 0x0 PUSH2 0xD6C PUSH1 0x1 PUSH1 0x4 SLOAD PUSH2 0x2463 SWAP1 SWAP2 SWAP1 PUSH4 0xFFFFFFFF AND JUMP JUMPDEST SWAP1 POP SWAP1 JUMP JUMPDEST PUSH1 0x0 PUSH1 0x3 PUSH1 0x0 CALLER PUSH20 0xFFFFFFFFFFFFFFFFFFFFFFFFFFFFFFFFFFFFFFFF AND PUSH20 0xFFFFFFFFFFFFFFFFFFFFFFFFFFFFFFFFFFFFFFFF AND DUP2 MSTORE PUSH1 0x20 ADD SWAP1 DUP2 MSTORE PUSH1 0x20 ADD PUSH1 0x0 KECCAK256 PUSH1 0x0 SWAP1 SLOAD SWAP1 PUSH2 0x100 EXP SWAP1 DIV PUSH1 0xFF AND PUSH2 0xE15 JUMPI PUSH1 0x40 MLOAD PUSH32 0x8C379A000000000000000000000000000000000000000000000000000000000 DUP2 MSTORE PUSH1 0x4 ADD DUP1 DUP1 PUSH1 0x20 ADD DUP3 DUP2 SUB DUP3 MSTORE PUSH1 0x2A DUP2 MSTORE PUSH1 0x20 ADD DUP1 PUSH2 0x26E0 PUSH1 0x2A SWAP2 CODECOPY PUSH1 0x40 ADD SWAP2 POP POP PUSH1 0x40 MLOAD DUP1 SWAP2 SUB SWAP1 REVERT JUMPDEST DUP8 PUSH1 0x0 PUSH1 0x8 SHL PUSH1 0x2 PUSH1 0x0 DUP4 DUP2 MSTORE PUSH1 0x20 ADD SWAP1 DUP2 MSTORE PUSH1 0x20 ADD PUSH1 0x0 KECCAK256 PUSH1 0x0 ADD PUSH1 0x0 SWAP1 SLOAD SWAP1 PUSH2 0x100 EXP SWAP1 DIV PUSH1 0x8 SHL PUSH1 0xFF NOT AND EQ ISZERO PUSH2 0xEB7 JUMPI PUSH1 0x40 MLOAD PUSH32 0x8C379A000000000000000000000000000000000000000000000000000000000 DUP2 MSTORE PUSH1 0x4 ADD DUP1 DUP1 PUSH1 0x20 ADD DUP3 DUP2 SUB DUP3 MSTORE PUSH1 0x1B DUP2 MSTORE PUSH1 0x20 ADD DUP1 PUSH32 0x4D757374206861766520612076616C6964207265717565737449640000000000 DUP2 MSTORE POP PUSH1 0x20 ADD SWAP2 POP POP PUSH1 0x40 MLOAD DUP1 SWAP2 SUB SWAP1 REVERT JUMPDEST DUP9 DUP5 DUP5 DUP1 DUP1 PUSH1 0x1F ADD PUSH1 0x20 DUP1 SWAP2 DIV MUL PUSH1 0x20 ADD PUSH1 0x40 MLOAD SWAP1 DUP2 ADD PUSH1 0x40 MSTORE DUP1 SWAP4 SWAP3 SWAP2 SWAP1 DUP2 DUP2 MSTORE PUSH1 0x20 ADD DUP4 DUP4 DUP1 DUP3 DUP5 CALLDATACOPY PUSH1 0x0 DUP2 DUP5 ADD MSTORE PUSH1 0x1F NOT PUSH1 0x1F DUP3 ADD AND SWAP1 POP DUP1 DUP4 ADD SWAP3 POP POP POP POP POP POP POP PUSH1 0x0 PUSH1 0x20 DUP3 ADD MLOAD SWAP1 POP DUP1 DUP4 EQ PUSH2 0xF7B JUMPI PUSH1 0x40 MLOAD PUSH32 0x8C379A000000000000000000000000000000000000000000000000000000000 DUP2 MSTORE PUSH1 0x4 ADD DUP1 DUP1 PUSH1 0x20 ADD DUP3 DUP2 SUB DUP3 MSTORE PUSH1 0x1C DUP2 MSTORE PUSH1 0x20 ADD DUP1 PUSH32 0x466972737420776F7264206D7573742062652072657175657374496400000000 DUP2 MSTORE POP PUSH1 0x20 ADD SWAP2 POP POP PUSH1 0x40 MLOAD DUP1 SWAP2 SUB SWAP1 REVERT JUMPDEST PUSH2 0xF8A DUP13 DUP13 DUP13 DUP13 DUP13 PUSH1 0x2 PUSH2 0x228C JUMP JUMPDEST DUP12 PUSH32 0x9E9BC7616D42C2835D05AE617E508454E63B30B934BE8AA932EBC125E0E58A64 PUSH1 0x40 MLOAD PUSH1 0x40 MLOAD DUP1 SWAP2 SUB SWAP1 LOG2 PUSH3 0x61A80 GAS LT ISZERO PUSH2 0x1030 JUMPI PUSH1 0x40 MLOAD PUSH32 0x8C379A000000000000000000000000000000000000000000000000000000000 DUP2 MSTORE PUSH1 0x4 ADD DUP1 DUP1 PUSH1 0x20 ADD DUP3 DUP2 SUB DUP3 MSTORE PUSH1 0x20 DUP2 MSTORE PUSH1 0x20 ADD DUP1 PUSH32 0x4D7573742070726F7669646520636F6E73756D657220656E6F75676820676173 DUP2 MSTORE POP PUSH1 0x20 ADD SWAP2 POP POP PUSH1 0x40 MLOAD DUP1 SWAP2 SUB SWAP1 REVERT JUMPDEST PUSH1 0x0 DUP11 PUSH20 0xFFFFFFFFFFFFFFFFFFFFFFFFFFFFFFFFFFFFFFFF AND DUP11 DUP10 DUP10 PUSH1 0x40 MLOAD PUSH1 0x20 ADD DUP1 DUP5 PUSH28 0xFFFFFFFFFFFFFFFFFFFFFFFFFFFFFFFFFFFFFFFFFFFFFFFFFFFFFFFF NOT AND DUP2 MSTORE PUSH1 0x4 ADD DUP4 DUP4 DUP1 DUP3 DUP5 CALLDATACOPY DUP1 DUP4 ADD SWAP3 POP POP POP SWAP4 POP POP POP POP PUSH1 0x40 MLOAD PUSH1 0x20 DUP2 DUP4 SUB SUB DUP2 MSTORE SWAP1 PUSH1 0x40 MSTORE PUSH1 0x40 MLOAD DUP1 DUP3 DUP1 MLOAD SWAP1 PUSH1 0x20 ADD SWAP1 DUP1 DUP4 DUP4 JUMPDEST PUSH1 0x20 DUP4 LT PUSH2 0x10CC JUMPI DUP1 MLOAD DUP3 MSTORE PUSH1 0x20 DUP3 ADD SWAP2 POP PUSH1 0x20 DUP2 ADD SWAP1 POP PUSH1 0x20 DUP4 SUB SWAP3 POP PUSH2 0x10A9 JUMP JUMPDEST PUSH1 0x1 DUP4 PUSH1 0x20 SUB PUSH2 0x100 EXP SUB DUP1 NOT DUP3 MLOAD AND DUP2 DUP5 MLOAD AND DUP1 DUP3 OR DUP6 MSTORE POP POP POP POP POP POP SWAP1 POP ADD SWAP2 POP POP PUSH1 0x0 PUSH1 0x40 MLOAD DUP1 DUP4 SUB DUP2 PUSH1 0x0 DUP7 GAS CALL SWAP2 POP POP RETURNDATASIZE DUP1 PUSH1 0x0 DUP2 EQ PUSH2 0x112E JUMPI PUSH1 0x40 MLOAD SWAP2 POP PUSH1 0x1F NOT PUSH1 0x3F RETURNDATASIZE ADD AND DUP3 ADD PUSH1 0x40 MSTORE RETURNDATASIZE DUP3 MSTORE RETURNDATASIZE PUSH1 0x0 PUSH1 0x20 DUP5 ADD RETURNDATACOPY PUSH2 0x1133 JUMP JUMPDEST PUSH1 0x60 SWAP2 POP JUMPDEST POP POP SWAP1 POP DUP1 SWAP6 POP POP POP POP POP POP SWAP8 SWAP7 POP POP POP POP POP POP POP JUMP JUMPDEST PUSH1 0x0 PUSH2 0x1158 DUP5 CALLER DUP6 DUP6 PUSH2 0x24EC JUMP JUMPDEST SWAP1 POP DUP1 PUSH1 0xFF NOT AND PUSH1 0x2 PUSH1 0x0 DUP8 DUP2 MSTORE PUSH1 0x20 ADD SWAP1 DUP2 MSTORE PUSH1 0x20 ADD PUSH1 0x0 KECCAK256 PUSH1 0x0 ADD PUSH1 0x0 SWAP1 SLOAD SWAP1 PUSH2 0x100 EXP SWAP1 DIV PUSH1 0x8 SHL PUSH1 0xFF NOT AND EQ PUSH2 0x11FA JUMPI PUSH1 0x40 MLOAD PUSH32 0x8C379A000000000000000000000000000000000000000000000000000000000 DUP2 MSTORE PUSH1 0x4 ADD DUP1 DUP1 PUSH1 0x20 ADD DUP3 DUP2 SUB DUP3 MSTORE PUSH1 0x1E DUP2 MSTORE PUSH1 0x20 ADD DUP1 PUSH32 0x506172616D7320646F206E6F74206D6174636820726571756573742049440000 DUP2 MSTORE POP PUSH1 0x20 ADD SWAP2 POP POP PUSH1 0x40 MLOAD DUP1 SWAP2 SUB SWAP1 REVERT JUMPDEST TIMESTAMP DUP3 GT ISZERO PUSH2 0x1270 JUMPI PUSH1 0x40 MLOAD PUSH32 0x8C379A000000000000000000000000000000000000000000000000000000000 DUP2 MSTORE PUSH1 0x4 ADD DUP1 DUP1 PUSH1 0x20 ADD DUP3 DUP2 SUB DUP3 MSTORE PUSH1 0x16 DUP2 MSTORE PUSH1 0x20 ADD DUP1 PUSH32 0x52657175657374206973206E6F74206578706972656400000000000000000000 DUP2 MSTORE POP PUSH1 0x20 ADD SWAP2 POP POP PUSH1 0x40 MLOAD DUP1 SWAP2 SUB SWAP1 REVERT JUMPDEST PUSH1 0x2 PUSH1 0x0 DUP7 DUP2 MSTORE PUSH1 0x20 ADD SWAP1 DUP2 MSTORE PUSH1 0x20 ADD PUSH1 0x0 KECCAK256 PUSH1 0x0 DUP1 DUP3 ADD PUSH1 0x0 PUSH2 0x100 EXP DUP2 SLOAD SWAP1 PUSH31 0xFFFFFFFFFFFFFFFFFFFFFFFFFFFFFFFFFFFFFFFFFFFFFFFFFFFFFFFFFFFFFF MUL NOT AND SWAP1 SSTORE PUSH1 0x0 DUP3 ADD PUSH1 0x1F PUSH2 0x100 EXP DUP2 SLOAD SWAP1 PUSH1 0xFF MUL NOT AND SWAP1 SSTORE POP POP DUP5 PUSH32 0xA7842B9EC549398102C0D91B1B9919B2F20558AEFDADF57528A95C6CD3292E93 PUSH1 0x40 MLOAD PUSH1 0x40 MLOAD DUP1 SWAP2 SUB SWAP1 LOG2 PUSH32 0x0 PUSH20 0xFFFFFFFFFFFFFFFFFFFFFFFFFFFFFFFFFFFFFFFF AND PUSH4 0xA9059CBB CALLER DUP7 PUSH1 0x40 MLOAD DUP4 PUSH4 0xFFFFFFFF AND PUSH1 0xE0 SHL DUP2 MSTORE PUSH1 0x4 ADD DUP1 DUP4 PUSH20 0xFFFFFFFFFFFFFFFFFFFFFFFFFFFFFFFFFFFFFFFF AND DUP2 MSTORE PUSH1 0x20 ADD DUP3 DUP2 MSTORE PUSH1 0x20 ADD SWAP3 POP POP POP PUSH1 0x20 PUSH1 0x40 MLOAD DUP1 DUP4 SUB DUP2 PUSH1 0x0 DUP8 DUP1 EXTCODESIZE ISZERO DUP1 ISZERO PUSH2 0x138A JUMPI PUSH1 0x0 DUP1 REVERT JUMPDEST POP GAS CALL ISZERO DUP1 ISZERO PUSH2 0x139E JUMPI RETURNDATASIZE PUSH1 0x0 DUP1 RETURNDATACOPY RETURNDATASIZE PUSH1 0x0 REVERT JUMPDEST POP POP POP POP PUSH1 0x40 MLOAD RETURNDATASIZE PUSH1 0x20 DUP2 LT ISZERO PUSH2 0x13B4 JUMPI PUSH1 0x0 DUP1 REVERT JUMPDEST DUP2 ADD SWAP1 DUP1 DUP1 MLOAD SWAP1 PUSH1 0x20 ADD SWAP1 SWAP3 SWAP2 SWAP1 POP POP POP PUSH2 0x13CB JUMPI INVALID JUMPDEST POP POP POP POP POP JUMP JUMPDEST PUSH1 0x3 PUSH1 0x0 CALLER PUSH20 0xFFFFFFFFFFFFFFFFFFFFFFFFFFFFFFFFFFFFFFFF AND PUSH20 0xFFFFFFFFFFFFFFFFFFFFFFFFFFFFFFFFFFFFFFFF AND DUP2 MSTORE PUSH1 0x20 ADD SWAP1 DUP2 MSTORE PUSH1 0x20 ADD PUSH1 0x0 KECCAK256 PUSH1 0x0 SWAP1 SLOAD SWAP1 PUSH2 0x100 EXP SWAP1 DIV PUSH1 0xFF AND PUSH2 0x1474 JUMPI PUSH1 0x40 MLOAD PUSH32 0x8C379A000000000000000000000000000000000000000000000000000000000 DUP2 MSTORE PUSH1 0x4 ADD DUP1 DUP1 PUSH1 0x20 ADD DUP3 DUP2 SUB DUP3 MSTORE PUSH1 0x2A DUP2 MSTORE PUSH1 0x20 ADD DUP1 PUSH2 0x26E0 PUSH1 0x2A SWAP2 CODECOPY PUSH1 0x40 ADD SWAP2 POP POP PUSH1 0x40 MLOAD DUP1 SWAP2 SUB SWAP1 REVERT JUMPDEST PUSH32 0x0 PUSH20 0xFFFFFFFFFFFFFFFFFFFFFFFFFFFFFFFFFFFFFFFF AND DUP4 PUSH20 0xFFFFFFFFFFFFFFFFFFFFFFFFFFFFFFFFFFFFFFFF AND EQ ISZERO PUSH2 0x1519 JUMPI PUSH1 0x40 MLOAD PUSH32 0x8C379A000000000000000000000000000000000000000000000000000000000 DUP2 MSTORE PUSH1 0x4 ADD DUP1 DUP1 PUSH1 0x20 ADD DUP3 DUP2 SUB DUP3 MSTORE PUSH1 0x32 DUP2 MSTORE PUSH1 0x20 ADD DUP1 PUSH2 0x2679 PUSH1 0x32 SWAP2 CODECOPY PUSH1 0x40 ADD SWAP2 POP POP PUSH1 0x40 MLOAD DUP1 SWAP2 SUB SWAP1 REVERT JUMPDEST PUSH1 0x0 DUP4 PUSH20 0xFFFFFFFFFFFFFFFFFFFFFFFFFFFFFFFFFFFFFFFF AND DUP4 DUP4 PUSH1 0x40 MLOAD DUP1 DUP4 DUP4 DUP1 DUP3 DUP5 CALLDATACOPY DUP1 DUP4 ADD SWAP3 POP POP POP SWAP3 POP POP POP PUSH1 0x0 PUSH1 0x40 MLOAD DUP1 DUP4 SUB DUP2 PUSH1 0x0 DUP7 GAS CALL SWAP2 POP POP RETURNDATASIZE DUP1 PUSH1 0x0 DUP2 EQ PUSH2 0x1586 JUMPI PUSH1 0x40 MLOAD SWAP2 POP PUSH1 0x1F NOT PUSH1 0x3F RETURNDATASIZE ADD AND DUP3 ADD PUSH1 0x40 MSTORE RETURNDATASIZE DUP3 MSTORE RETURNDATASIZE PUSH1 0x0 PUSH1 0x20 DUP5 ADD RETURNDATACOPY PUSH2 0x158B JUMP JUMPDEST PUSH1 0x60 SWAP2 POP JUMPDEST POP POP SWAP1 POP DUP1 PUSH2 0x1602 JUMPI PUSH1 0x40 MLOAD PUSH32 0x8C379A000000000000000000000000000000000000000000000000000000000 DUP2 MSTORE PUSH1 0x4 ADD DUP1 DUP1 PUSH1 0x20 ADD DUP3 DUP2 SUB DUP3 MSTORE PUSH1 0x16 DUP2 MSTORE PUSH1 0x20 ADD DUP1 PUSH32 0x466F727761726465642063616C6C206661696C65642E00000000000000000000 DUP2 MSTORE POP PUSH1 0x20 ADD SWAP2 POP POP PUSH1 0x40 MLOAD DUP1 SWAP2 SUB SWAP1 REVERT JUMPDEST POP POP POP POP JUMP JUMPDEST PUSH1 0x1 PUSH1 0x0 SWAP1 SLOAD SWAP1 PUSH2 0x100 EXP SWAP1 DIV PUSH20 0xFFFFFFFFFFFFFFFFFFFFFFFFFFFFFFFFFFFFFFFF AND PUSH20 0xFFFFFFFFFFFFFFFFFFFFFFFFFFFFFFFFFFFFFFFF AND CALLER PUSH20 0xFFFFFFFFFFFFFFFFFFFFFFFFFFFFFFFFFFFFFFFF AND EQ PUSH2 0x16CB JUMPI PUSH1 0x40 MLOAD PUSH32 0x8C379A000000000000000000000000000000000000000000000000000000000 DUP2 MSTORE PUSH1 0x4 ADD DUP1 DUP1 PUSH1 0x20 ADD DUP3 DUP2 SUB DUP3 MSTORE PUSH1 0x16 DUP2 MSTORE PUSH1 0x20 ADD DUP1 PUSH32 0x4D7573742062652070726F706F736564206F776E657200000000000000000000 DUP2 MSTORE POP PUSH1 0x20 ADD SWAP2 POP POP PUSH1 0x40 MLOAD DUP1 SWAP2 SUB SWAP1 REVERT JUMPDEST PUSH1 0x0 DUP1 PUSH1 0x0 SWAP1 SLOAD SWAP1 PUSH2 0x100 EXP SWAP1 DIV PUSH20 0xFFFFFFFFFFFFFFFFFFFFFFFFFFFFFFFFFFFFFFFF AND SWAP1 POP CALLER PUSH1 0x0 DUP1 PUSH2 0x100 EXP DUP2 SLOAD DUP2 PUSH20 0xFFFFFFFFFFFFFFFFFFFFFFFFFFFFFFFFFFFFFFFF MUL NOT AND SWAP1 DUP4 PUSH20 0xFFFFFFFFFFFFFFFFFFFFFFFFFFFFFFFFFFFFFFFF AND MUL OR SWAP1 SSTORE POP PUSH1 0x0 PUSH1 0x1 PUSH1 0x0 PUSH2 0x100 EXP DUP2 SLOAD DUP2 PUSH20 0xFFFFFFFFFFFFFFFFFFFFFFFFFFFFFFFFFFFFFFFF MUL NOT AND SWAP1 DUP4 PUSH20 0xFFFFFFFFFFFFFFFFFFFFFFFFFFFFFFFFFFFFFFFF AND MUL OR SWAP1 SSTORE POP CALLER PUSH20 0xFFFFFFFFFFFFFFFFFFFFFFFFFFFFFFFFFFFFFFFF AND DUP2 PUSH20 0xFFFFFFFFFFFFFFFFFFFFFFFFFFFFFFFFFFFFFFFF AND PUSH32 0x8BE0079C531659141344CD1FD0A4F28419497F9722A3DAAFE3B4186F6B6457E0 PUSH1 0x40 MLOAD PUSH1 0x40 MLOAD DUP1 SWAP2 SUB SWAP1 LOG3 POP JUMP JUMPDEST PUSH1 0x0 DUP1 SLOAD SWAP1 PUSH2 0x100 EXP SWAP1 DIV PUSH20 0xFFFFFFFFFFFFFFFFFFFFFFFFFFFFFFFFFFFFFFFF AND DUP2 JUMP JUMPDEST PUSH2 0x17FC PUSH2 0x779 JUMP JUMPDEST PUSH20 0xFFFFFFFFFFFFFFFFFFFFFFFFFFFFFFFFFFFFFFFF AND CALLER PUSH20 0xFFFFFFFFFFFFFFFFFFFFFFFFFFFFFFFFFFFFFFFF AND EQ PUSH2 0x189C JUMPI PUSH1 0x40 MLOAD PUSH32 0x8C379A000000000000000000000000000000000000000000000000000000000 DUP2 MSTORE PUSH1 0x4 ADD DUP1 DUP1 PUSH1 0x20 ADD DUP3 DUP2 SUB DUP3 MSTORE PUSH1 0x13 DUP2 MSTORE PUSH1 0x20 ADD DUP1 PUSH32 0x4D75737420757365204C494E4B20746F6B656E00000000000000000000000000 DUP2 MSTORE POP PUSH1 0x20 ADD SWAP2 POP POP PUSH1 0x40 MLOAD DUP1 SWAP2 SUB SWAP1 REVERT JUMPDEST DUP1 PUSH1 0x2 PUSH1 0x20 MUL PUSH1 0x4 ADD DUP2 MLOAD LT ISZERO PUSH2 0x191B JUMPI PUSH1 0x40 MLOAD PUSH32 0x8C379A000000000000000000000000000000000000000000000000000000000 DUP2 MSTORE PUSH1 0x4 ADD DUP1 DUP1 PUSH1 0x20 ADD DUP3 DUP2 SUB DUP3 MSTORE PUSH1 0x16 DUP2 MSTORE PUSH1 0x20 ADD DUP1 PUSH32 0x496E76616C69642072657175657374206C656E67746800000000000000000000 DUP2 MSTORE POP PUSH1 0x20 ADD SWAP2 POP POP PUSH1 0x40 MLOAD DUP1 SWAP2 SUB SWAP1 REVERT JUMPDEST DUP2 PUSH1 0x0 PUSH1 0x20 DUP3 ADD MLOAD SWAP1 POP PUSH4 0x40429946 PUSH1 0xE0 SHL PUSH28 0xFFFFFFFFFFFFFFFFFFFFFFFFFFFFFFFFFFFFFFFFFFFFFFFFFFFFFFFF NOT AND DUP2 PUSH28 0xFFFFFFFFFFFFFFFFFFFFFFFFFFFFFFFFFFFFFFFFFFFFFFFFFFFFFFFF NOT AND EQ PUSH2 0x19DF JUMPI PUSH1 0x40 MLOAD PUSH32 0x8C379A000000000000000000000000000000000000000000000000000000000 DUP2 MSTORE PUSH1 0x4 ADD DUP1 DUP1 PUSH1 0x20 ADD DUP3 DUP2 SUB DUP3 MSTORE PUSH1 0x1E DUP2 MSTORE PUSH1 0x20 ADD DUP1 PUSH32 0x4D757374207573652077686974656C69737465642066756E6374696F6E730000 DUP2 MSTORE POP PUSH1 0x20 ADD SWAP2 POP POP PUSH1 0x40 MLOAD DUP1 SWAP2 SUB SWAP1 REVERT JUMPDEST DUP6 PUSH1 0x24 DUP6 ADD MSTORE DUP5 PUSH1 0x44 DUP6 ADD MSTORE PUSH1 0x0 ADDRESS PUSH20 0xFFFFFFFFFFFFFFFFFFFFFFFFFFFFFFFFFFFFFFFF AND DUP6 PUSH1 0x40 MLOAD DUP1 DUP3 DUP1 MLOAD SWAP1 PUSH1 0x20 ADD SWAP1 DUP1 DUP4 DUP4 JUMPDEST PUSH1 0x20 DUP4 LT PUSH2 0x1A38 JUMPI DUP1 MLOAD DUP3 MSTORE PUSH1 0x20 DUP3 ADD SWAP2 POP PUSH1 0x20 DUP2 ADD SWAP1 POP PUSH1 0x20 DUP4 SUB SWAP3 POP PUSH2 0x1A15 JUMP JUMPDEST PUSH1 0x1 DUP4 PUSH1 0x20 SUB PUSH2 0x100 EXP SUB DUP1 NOT DUP3 MLOAD AND DUP2 DUP5 MLOAD AND DUP1 DUP3 OR DUP6 MSTORE POP POP POP POP POP POP SWAP1 POP ADD SWAP2 POP POP PUSH1 0x0 PUSH1 0x40 MLOAD DUP1 DUP4 SUB DUP2 DUP6 GAS DELEGATECALL SWAP2 POP POP RETURNDATASIZE DUP1 PUSH1 0x0 DUP2 EQ PUSH2 0x1A98 JUMPI PUSH1 0x40 MLOAD SWAP2 POP PUSH1 0x1F NOT PUSH1 0x3F RETURNDATASIZE ADD AND DUP3 ADD PUSH1 0x40 MSTORE RETURNDATASIZE DUP3 MSTORE RETURNDATASIZE PUSH1 0x0 PUSH1 0x20 DUP5 ADD RETURNDATACOPY PUSH2 0x1A9D JUMP JUMPDEST PUSH1 0x60 SWAP2 POP JUMPDEST POP POP SWAP1 POP DUP1 PUSH2 0x1B14 JUMPI PUSH1 0x40 MLOAD PUSH32 0x8C379A000000000000000000000000000000000000000000000000000000000 DUP2 MSTORE PUSH1 0x4 ADD DUP1 DUP1 PUSH1 0x20 ADD DUP3 DUP2 SUB DUP3 MSTORE PUSH1 0x18 DUP2 MSTORE PUSH1 0x20 ADD DUP1 PUSH32 0x556E61626C6520746F2063726561746520726571756573740000000000000000 DUP2 MSTORE POP PUSH1 0x20 ADD SWAP2 POP POP PUSH1 0x40 MLOAD DUP1 SWAP2 SUB SWAP1 REVERT JUMPDEST POP POP POP POP POP POP POP JUMP JUMPDEST PUSH1 0x0 DUP1 SLOAD SWAP1 PUSH2 0x100 EXP SWAP1 DIV PUSH20 0xFFFFFFFFFFFFFFFFFFFFFFFFFFFFFFFFFFFFFFFF AND PUSH20 0xFFFFFFFFFFFFFFFFFFFFFFFFFFFFFFFFFFFFFFFF AND CALLER PUSH20 0xFFFFFFFFFFFFFFFFFFFFFFFFFFFFFFFFFFFFFFFF AND EQ PUSH2 0x1BDE JUMPI PUSH1 0x40 MLOAD PUSH32 0x8C379A000000000000000000000000000000000000000000000000000000000 DUP2 MSTORE PUSH1 0x4 ADD DUP1 DUP1 PUSH1 0x20 ADD DUP3 DUP2 SUB DUP3 MSTORE PUSH1 0x16 DUP2 MSTORE PUSH1 0x20 ADD DUP1 PUSH32 0x4F6E6C792063616C6C61626C65206279206F776E657200000000000000000000 DUP2 MSTORE POP PUSH1 0x20 ADD SWAP2 POP POP PUSH1 0x40 MLOAD DUP1 SWAP2 SUB SWAP1 REVERT JUMPDEST CALLER PUSH20 0xFFFFFFFFFFFFFFFFFFFFFFFFFFFFFFFFFFFFFFFF AND DUP2 PUSH20 0xFFFFFFFFFFFFFFFFFFFFFFFFFFFFFFFFFFFFFFFF AND EQ ISZERO PUSH2 0x1C80 JUMPI PUSH1 0x40 MLOAD PUSH32 0x8C379A000000000000000000000000000000000000000000000000000000000 DUP2 MSTORE PUSH1 0x4 ADD DUP1 DUP1 PUSH1 0x20 ADD DUP3 DUP2 SUB DUP3 MSTORE PUSH1 0x17 DUP2 MSTORE PUSH1 0x20 ADD DUP1 PUSH32 0x43616E6E6F74207472616E7366657220746F2073656C66000000000000000000 DUP2 MSTORE POP PUSH1 0x20 ADD SWAP2 POP POP PUSH1 0x40 MLOAD DUP1 SWAP2 SUB SWAP1 REVERT JUMPDEST DUP1 PUSH1 0x1 PUSH1 0x0 PUSH2 0x100 EXP DUP2 SLOAD DUP2 PUSH20 0xFFFFFFFFFFFFFFFFFFFFFFFFFFFFFFFFFFFFFFFF MUL NOT AND SWAP1 DUP4 PUSH20 0xFFFFFFFFFFFFFFFFFFFFFFFFFFFFFFFFFFFFFFFF AND MUL OR SWAP1 SSTORE POP DUP1 PUSH20 0xFFFFFFFFFFFFFFFFFFFFFFFFFFFFFFFFFFFFFFFF AND PUSH1 0x0 DUP1 SLOAD SWAP1 PUSH2 0x100 EXP SWAP1 DIV PUSH20 0xFFFFFFFFFFFFFFFFFFFFFFFFFFFFFFFFFFFFFFFF AND PUSH20 0xFFFFFFFFFFFFFFFFFFFFFFFFFFFFFFFFFFFFFFFF AND PUSH32 0xED8889F560326EB138920D842192F0EB3DD22B4F139C87A2C57538E05BAE1278 PUSH1 0x40 MLOAD PUSH1 0x40 MLOAD DUP1 SWAP2 SUB SWAP1 LOG3 POP JUMP JUMPDEST PUSH1 0x0 DUP1 SLOAD SWAP1 PUSH2 0x100 EXP SWAP1 DIV PUSH20 0xFFFFFFFFFFFFFFFFFFFFFFFFFFFFFFFFFFFFFFFF AND PUSH20 0xFFFFFFFFFFFFFFFFFFFFFFFFFFFFFFFFFFFFFFFF AND CALLER PUSH20 0xFFFFFFFFFFFFFFFFFFFFFFFFFFFFFFFFFFFFFFFF AND EQ PUSH2 0x1DFF JUMPI PUSH1 0x40 MLOAD PUSH32 0x8C379A000000000000000000000000000000000000000000000000000000000 DUP2 MSTORE PUSH1 0x4 ADD DUP1 DUP1 PUSH1 0x20 ADD DUP3 DUP2 SUB DUP3 MSTORE PUSH1 0x16 DUP2 MSTORE PUSH1 0x20 ADD DUP1 PUSH32 0x4F6E6C792063616C6C61626C65206279206F776E657200000000000000000000 DUP2 MSTORE POP PUSH1 0x20 ADD SWAP2 POP POP PUSH1 0x40 MLOAD DUP1 SWAP2 SUB SWAP1 REVERT JUMPDEST DUP1 PUSH1 0x3 PUSH1 0x0 DUP5 PUSH20 0xFFFFFFFFFFFFFFFFFFFFFFFFFFFFFFFFFFFFFFFF AND PUSH20 0xFFFFFFFFFFFFFFFFFFFFFFFFFFFFFFFFFFFFFFFF AND DUP2 MSTORE PUSH1 0x20 ADD SWAP1 DUP2 MSTORE PUSH1 0x20 ADD PUSH1 0x0 KECCAK256 PUSH1 0x0 PUSH2 0x100 EXP DUP2 SLOAD DUP2 PUSH1 0xFF MUL NOT AND SWAP1 DUP4 ISZERO ISZERO MUL OR SWAP1 SSTORE POP POP POP JUMP JUMPDEST PUSH1 0x0 DUP1 SLOAD SWAP1 PUSH2 0x100 EXP SWAP1 DIV PUSH20 0xFFFFFFFFFFFFFFFFFFFFFFFFFFFFFFFFFFFFFFFF AND PUSH20 0xFFFFFFFFFFFFFFFFFFFFFFFFFFFFFFFFFFFFFFFF AND CALLER PUSH20 0xFFFFFFFFFFFFFFFFFFFFFFFFFFFFFFFFFFFFFFFF AND EQ PUSH2 0x1F1B JUMPI PUSH1 0x40 MLOAD PUSH32 0x8C379A000000000000000000000000000000000000000000000000000000000 DUP2 MSTORE PUSH1 0x4 ADD DUP1 DUP1 PUSH1 0x20 ADD DUP3 DUP2 SUB DUP3 MSTORE PUSH1 0x16 DUP2 MSTORE PUSH1 0x20 ADD DUP1 PUSH32 0x4F6E6C792063616C6C61626C65206279206F776E657200000000000000000000 DUP2 MSTORE POP PUSH1 0x20 ADD SWAP2 POP POP PUSH1 0x40 MLOAD DUP1 SWAP2 SUB SWAP1 REVERT JUMPDEST DUP1 PUSH2 0x1F30 PUSH1 0x1 DUP3 PUSH2 0x256F SWAP1 SWAP2 SWAP1 PUSH4 0xFFFFFFFF AND JUMP JUMPDEST PUSH1 0x4 SLOAD LT ISZERO PUSH2 0x1F8A JUMPI PUSH1 0x40 MLOAD PUSH32 0x8C379A000000000000000000000000000000000000000000000000000000000 DUP2 MSTORE PUSH1 0x4 ADD DUP1 DUP1 PUSH1 0x20 ADD DUP3 DUP2 SUB DUP3 MSTORE PUSH1 0x35 DUP2 MSTORE PUSH1 0x20 ADD DUP1 PUSH2 0x26AB PUSH1 0x35 SWAP2 CODECOPY PUSH1 0x40 ADD SWAP2 POP POP PUSH1 0x40 MLOAD DUP1 SWAP2 SUB SWAP1 REVERT JUMPDEST PUSH2 0x1F9F DUP3 PUSH1 0x4 SLOAD PUSH2 0x2463 SWAP1 SWAP2 SWAP1 PUSH4 0xFFFFFFFF AND JUMP JUMPDEST PUSH1 0x4 DUP2 SWAP1 SSTORE POP PUSH32 0x0 PUSH20 0xFFFFFFFFFFFFFFFFFFFFFFFFFFFFFFFFFFFFFFFF AND PUSH4 0xA9059CBB DUP5 DUP5 PUSH1 0x40 MLOAD DUP4 PUSH4 0xFFFFFFFF AND PUSH1 0xE0 SHL DUP2 MSTORE PUSH1 0x4 ADD DUP1 DUP4 PUSH20 0xFFFFFFFFFFFFFFFFFFFFFFFFFFFFFFFFFFFFFFFF AND DUP2 MSTORE PUSH1 0x20 ADD DUP3 DUP2 MSTORE PUSH1 0x20 ADD SWAP3 POP POP POP PUSH1 0x20 PUSH1 0x40 MLOAD DUP1 DUP4 SUB DUP2 PUSH1 0x0 DUP8 DUP1 EXTCODESIZE ISZERO DUP1 ISZERO PUSH2 0x2036 JUMPI PUSH1 0x0 DUP1 REVERT JUMPDEST POP GAS CALL ISZERO DUP1 ISZERO PUSH2 0x204A JUMPI RETURNDATASIZE PUSH1 0x0 DUP1 RETURNDATACOPY RETURNDATASIZE PUSH1 0x0 REVERT JUMPDEST POP POP POP POP PUSH1 0x40 MLOAD RETURNDATASIZE PUSH1 0x20 DUP2 LT ISZERO PUSH2 0x2060 JUMPI PUSH1 0x0 DUP1 REVERT JUMPDEST DUP2 ADD SWAP1 DUP1 DUP1 MLOAD SWAP1 PUSH1 0x20 ADD SWAP1 SWAP3 SWAP2 SWAP1 POP POP POP PUSH2 0x2077 JUMPI INVALID JUMPDEST POP POP POP JUMP JUMPDEST PUSH1 0x0 PUSH1 0x3 PUSH1 0x0 DUP4 PUSH20 0xFFFFFFFFFFFFFFFFFFFFFFFFFFFFFFFFFFFFFFFF AND PUSH20 0xFFFFFFFFFFFFFFFFFFFFFFFFFFFFFFFFFFFFFFFF AND DUP2 MSTORE PUSH1 0x20 ADD SWAP1 DUP2 MSTORE PUSH1 0x20 ADD PUSH1 0x0 KECCAK256 PUSH1 0x0 SWAP1 SLOAD SWAP1 PUSH2 0x100 EXP SWAP1 DIV PUSH1 0xFF AND SWAP1 POP SWAP2 SWAP1 POP JUMP JUMPDEST PUSH1 0x0 DUP1 DUP8 DUP5 PUSH1 0x40 MLOAD PUSH1 0x20 ADD DUP1 DUP4 PUSH20 0xFFFFFFFFFFFFFFFFFFFFFFFFFFFFFFFFFFFFFFFF AND PUSH1 0x60 SHL DUP2 MSTORE PUSH1 0x14 ADD DUP3 DUP2 MSTORE PUSH1 0x20 ADD SWAP3 POP POP POP PUSH1 0x40 MLOAD PUSH1 0x20 DUP2 DUP4 SUB SUB DUP2 MSTORE SWAP1 PUSH1 0x40 MSTORE DUP1 MLOAD SWAP1 PUSH1 0x20 ADD KECCAK256 SWAP2 POP PUSH1 0x0 PUSH1 0x8 SHL PUSH1 0x2 PUSH1 0x0 DUP5 DUP2 MSTORE PUSH1 0x20 ADD SWAP1 DUP2 MSTORE PUSH1 0x20 ADD PUSH1 0x0 KECCAK256 PUSH1 0x0 ADD PUSH1 0x0 SWAP1 SLOAD SWAP1 PUSH2 0x100 EXP SWAP1 DIV PUSH1 0x8 SHL PUSH1 0xFF NOT AND EQ PUSH2 0x21BF JUMPI PUSH1 0x40 MLOAD PUSH32 0x8C379A000000000000000000000000000000000000000000000000000000000 DUP2 MSTORE PUSH1 0x4 ADD DUP1 DUP1 PUSH1 0x20 ADD DUP3 DUP2 SUB DUP3 MSTORE PUSH1 0x14 DUP2 MSTORE PUSH1 0x20 ADD DUP1 PUSH32 0x4D75737420757365206120756E69717565204944000000000000000000000000 DUP2 MSTORE POP PUSH1 0x20 ADD SWAP2 POP POP PUSH1 0x40 MLOAD DUP1 SWAP2 SUB SWAP1 REVERT JUMPDEST PUSH2 0x21D4 PUSH2 0x12C TIMESTAMP PUSH2 0x256F SWAP1 SWAP2 SWAP1 PUSH4 0xFFFFFFFF AND JUMP JUMPDEST SWAP1 POP PUSH1 0x0 PUSH2 0x21E4 DUP9 DUP9 DUP9 DUP6 PUSH2 0x24EC JUMP JUMPDEST SWAP1 POP PUSH1 0x40 MLOAD DUP1 PUSH1 0x40 ADD PUSH1 0x40 MSTORE DUP1 DUP3 PUSH1 0xFF NOT AND DUP2 MSTORE PUSH1 0x20 ADD PUSH2 0x2204 DUP7 PUSH2 0x25F7 JUMP JUMPDEST PUSH1 0xFF AND DUP2 MSTORE POP PUSH1 0x2 PUSH1 0x0 DUP6 DUP2 MSTORE PUSH1 0x20 ADD SWAP1 DUP2 MSTORE PUSH1 0x20 ADD PUSH1 0x0 KECCAK256 PUSH1 0x0 DUP3 ADD MLOAD DUP2 PUSH1 0x0 ADD PUSH1 0x0 PUSH2 0x100 EXP DUP2 SLOAD DUP2 PUSH31 0xFFFFFFFFFFFFFFFFFFFFFFFFFFFFFFFFFFFFFFFFFFFFFFFFFFFFFFFFFFFFFF MUL NOT AND SWAP1 DUP4 PUSH1 0x8 SHR MUL OR SWAP1 SSTORE POP PUSH1 0x20 DUP3 ADD MLOAD DUP2 PUSH1 0x0 ADD PUSH1 0x1F PUSH2 0x100 EXP DUP2 SLOAD DUP2 PUSH1 0xFF MUL NOT AND SWAP1 DUP4 PUSH1 0xFF AND MUL OR SWAP1 SSTORE POP SWAP1 POP POP POP SWAP7 POP SWAP7 SWAP5 POP POP POP POP POP JUMP JUMPDEST PUSH1 0x0 PUSH2 0x229A DUP7 DUP7 DUP7 DUP7 PUSH2 0x24EC JUMP JUMPDEST SWAP1 POP DUP1 PUSH1 0xFF NOT AND PUSH1 0x2 PUSH1 0x0 DUP10 DUP2 MSTORE PUSH1 0x20 ADD SWAP1 DUP2 MSTORE PUSH1 0x20 ADD PUSH1 0x0 KECCAK256 PUSH1 0x0 ADD PUSH1 0x0 SWAP1 SLOAD SWAP1 PUSH2 0x100 EXP SWAP1 DIV PUSH1 0x8 SHL PUSH1 0xFF NOT AND EQ PUSH2 0x233C JUMPI PUSH1 0x40 MLOAD PUSH32 0x8C379A000000000000000000000000000000000000000000000000000000000 DUP2 MSTORE PUSH1 0x4 ADD DUP1 DUP1 PUSH1 0x20 ADD DUP3 DUP2 SUB DUP3 MSTORE PUSH1 0x1E DUP2 MSTORE PUSH1 0x20 ADD DUP1 PUSH32 0x506172616D7320646F206E6F74206D6174636820726571756573742049440000 DUP2 MSTORE POP PUSH1 0x20 ADD SWAP2 POP POP PUSH1 0x40 MLOAD DUP1 SWAP2 SUB SWAP1 REVERT JUMPDEST PUSH2 0x2345 DUP3 PUSH2 0x25F7 JUMP JUMPDEST PUSH1 0xFF AND PUSH1 0x2 PUSH1 0x0 DUP10 DUP2 MSTORE PUSH1 0x20 ADD SWAP1 DUP2 MSTORE PUSH1 0x20 ADD PUSH1 0x0 KECCAK256 PUSH1 0x0 ADD PUSH1 0x1F SWAP1 SLOAD SWAP1 PUSH2 0x100 EXP SWAP1 DIV PUSH1 0xFF AND PUSH1 0xFF AND GT ISZERO PUSH2 0x23E3 JUMPI PUSH1 0x40 MLOAD PUSH32 0x8C379A000000000000000000000000000000000000000000000000000000000 DUP2 MSTORE PUSH1 0x4 ADD DUP1 DUP1 PUSH1 0x20 ADD DUP3 DUP2 SUB DUP3 MSTORE PUSH1 0x18 DUP2 MSTORE PUSH1 0x20 ADD DUP1 PUSH32 0x446174612076657273696F6E73206D757374206D617463680000000000000000 DUP2 MSTORE POP PUSH1 0x20 ADD SWAP2 POP POP PUSH1 0x40 MLOAD DUP1 SWAP2 SUB SWAP1 REVERT JUMPDEST PUSH2 0x23F8 DUP7 PUSH1 0x4 SLOAD PUSH2 0x256F SWAP1 SWAP2 SWAP1 PUSH4 0xFFFFFFFF AND JUMP JUMPDEST PUSH1 0x4 DUP2 SWAP1 SSTORE POP PUSH1 0x2 PUSH1 0x0 DUP9 DUP2 MSTORE PUSH1 0x20 ADD SWAP1 DUP2 MSTORE PUSH1 0x20 ADD PUSH1 0x0 KECCAK256 PUSH1 0x0 DUP1 DUP3 ADD PUSH1 0x0 PUSH2 0x100 EXP DUP2 SLOAD SWAP1 PUSH31 0xFFFFFFFFFFFFFFFFFFFFFFFFFFFFFFFFFFFFFFFFFFFFFFFFFFFFFFFFFFFFFF MUL NOT AND SWAP1 SSTORE PUSH1 0x0 DUP3 ADD PUSH1 0x1F PUSH2 0x100 EXP DUP2 SLOAD SWAP1 PUSH1 0xFF MUL NOT AND SWAP1 SSTORE POP POP POP POP POP POP POP POP POP JUMP JUMPDEST PUSH1 0x0 DUP3 DUP3 GT ISZERO PUSH2 0x24DB JUMPI PUSH1 0x40 MLOAD PUSH32 0x8C379A000000000000000000000000000000000000000000000000000000000 DUP2 MSTORE PUSH1 0x4 ADD DUP1 DUP1 PUSH1 0x20 ADD DUP3 DUP2 SUB DUP3 MSTORE PUSH1 0x1E DUP2 MSTORE PUSH1 0x20 ADD DUP1 PUSH32 0x536166654D6174683A207375627472616374696F6E206F766572666C6F770000 DUP2 MSTORE POP PUSH1 0x20 ADD SWAP2 POP POP PUSH1 0x40 MLOAD DUP1 SWAP2 SUB SWAP1 REVERT JUMPDEST PUSH1 0x0 DUP3 DUP5 SUB SWAP1 POP DUP1 SWAP2 POP POP SWAP3 SWAP2 POP POP JUMP JUMPDEST PUSH1 0x0 DUP5 DUP5 DUP5 DUP5 PUSH1 0x40 MLOAD PUSH1 0x20 ADD DUP1 DUP6 DUP2 MSTORE PUSH1 0x20 ADD DUP5 PUSH20 0xFFFFFFFFFFFFFFFFFFFFFFFFFFFFFFFFFFFFFFFF AND PUSH1 0x60 SHL DUP2 MSTORE PUSH1 0x14 ADD DUP4 PUSH28 0xFFFFFFFFFFFFFFFFFFFFFFFFFFFFFFFFFFFFFFFFFFFFFFFFFFFFFFFF NOT AND DUP2 MSTORE PUSH1 0x4 ADD DUP3 DUP2 MSTORE PUSH1 0x20 ADD SWAP5 POP POP POP POP POP PUSH1 0x40 MLOAD PUSH1 0x20 DUP2 DUP4 SUB SUB DUP2 MSTORE SWAP1 PUSH1 0x40 MSTORE DUP1 MLOAD SWAP1 PUSH1 0x20 ADD KECCAK256 SWAP1 POP SWAP5 SWAP4 POP POP POP POP JUMP JUMPDEST PUSH1 0x0 DUP1 DUP3 DUP5 ADD SWAP1 POP DUP4 DUP2 LT ISZERO PUSH2 0x25ED JUMPI PUSH1 0x40 MLOAD PUSH32 0x8C379A000000000000000000000000000000000000000000000000000000000 DUP2 MSTORE PUSH1 0x4 ADD DUP1 DUP1 PUSH1 0x20 ADD DUP3 DUP2 SUB DUP3 MSTORE PUSH1 0x1B DUP2 MSTORE PUSH1 0x20 ADD DUP1 PUSH32 0x536166654D6174683A206164646974696F6E206F766572666C6F770000000000 DUP2 MSTORE POP PUSH1 0x20 ADD SWAP2 POP POP PUSH1 0x40 MLOAD DUP1 SWAP2 SUB SWAP1 REVERT JUMPDEST DUP1 SWAP2 POP POP SWAP3 SWAP2 POP POP JUMP JUMPDEST PUSH1 0x0 PUSH2 0x100 DUP3 LT PUSH2 0x2670 JUMPI PUSH1 0x40 MLOAD PUSH32 0x8C379A000000000000000000000000000000000000000000000000000000000 DUP2 MSTORE PUSH1 0x4 ADD DUP1 DUP1 PUSH1 0x20 ADD DUP3 DUP2 SUB DUP3 MSTORE PUSH1 0x16 DUP2 MSTORE PUSH1 0x20 ADD DUP1 PUSH32 0x6E756D62657220746F6F2062696720746F206361737400000000000000000000 DUP2 MSTORE POP PUSH1 0x20 ADD SWAP2 POP POP PUSH1 0x40 MLOAD DUP1 SWAP2 SUB SWAP1 REVERT JUMPDEST DUP2 SWAP1 POP SWAP2 SWAP1 POP JUMP INVALID NUMBER PUSH2 0x6E6E PUSH16 0x74207573652023666F72776172642074 PUSH16 0x2073656E64206D657373616765732074 PUSH16 0x204C696E6B20746F6B656E416D6F756E PUSH21 0x207265717565737465642069732067726561746572 KECCAK256 PUSH21 0x68616E20776974686472617761626C652062616C61 PUSH15 0x63654E6F7420616E20617574686F72 PUSH10 0x7A6564206E6F64652074 PUSH16 0x2066756C66696C6C2072657175657374 PUSH20 0xA26469706673582212201EE0A53524752811CB08 0xC DUP15 0xA9 0xD6 0xBA 0xB7 0xF7 0xEF DIV RETURN 0xD6 COINBASE SHL CALLER PUSH29 0xFEDBCD1FCDC34464736F6C634300070000330000000000000000000000 "
		},
		"gasEstimates": {
			"creation": {
				"codeDepositCost": "2009400",
				"executionCost": "infinite",
				"totalCost": "infinite"
			},
			"external": {
				"EXPIRY_TIME()": "228",
				"acceptOwnership()": "45185",
				"cancelOracleRequest(bytes32,uint256,bytes4,uint256)": "infinite",
				"forward(address,bytes)": "infinite",
				"fulfillOracleRequest(bytes32,uint256,address,bytes4,uint256,bytes32)": "infinite",
				"fulfillOracleRequest2(bytes32,uint256,address,bytes4,uint256,bytes)": "infinite",
				"getChainlinkToken()": "infinite",
				"isAuthorizedSender(address)": "1326",
				"onTokenTransfer(address,uint256,bytes)": "infinite",
				"oracleRequest(address,uint256,bytes32,address,bytes4,uint256,uint256,bytes)": "infinite",
				"owner()": "1111",
				"setAuthorizedSender(address,bool)": "22137",
				"transferOwnership(address)": "24405",
				"withdraw(address,uint256)": "infinite",
				"withdrawable()": "infinite"
			},
			"internal": {
				"buildFunctionHash(uint256,address,bytes4,uint256)": "infinite",
				"safeCastToUint8(uint256)": "infinite",
				"verifyOracleRequest(address,uint256,address,bytes4,uint256,uint256)": "infinite",
				"verifyOracleResponse(bytes32,uint256,address,bytes4,uint256,uint256)": "infinite"
			}
		},
		"methodIdentifiers": {
			"EXPIRY_TIME()": "4b602282",
			"acceptOwnership()": "79ba5097",
			"cancelOracleRequest(bytes32,uint256,bytes4,uint256)": "6ee4d553",
			"forward(address,bytes)": "6fadcf72",
			"fulfillOracleRequest(bytes32,uint256,address,bytes4,uint256,bytes32)": "4ab0d190",
			"fulfillOracleRequest2(bytes32,uint256,address,bytes4,uint256,bytes)": "6ae0bc76",
			"getChainlinkToken()": "165d35e1",
			"isAuthorizedSender(address)": "fa00763a",
			"onTokenTransfer(address,uint256,bytes)": "a4c0ed36",
			"oracleRequest(address,uint256,bytes32,address,bytes4,uint256,uint256,bytes)": "40429946",
			"owner()": "8da5cb5b",
			"setAuthorizedSender(address,bool)": "f3dfc2a9",
			"transferOwnership(address)": "f2fde38b",
			"withdraw(address,uint256)": "f3fef3a3",
			"withdrawable()": "50188301"
		}
	},
	"abi": [
		{
			"inputs": [
				{
					"internalType": "address",
					"name": "link",
					"type": "address"
				},
				{
					"internalType": "address",
					"name": "owner",
					"type": "address"
				}
			],
			"stateMutability": "nonpayable",
			"type": "constructor"
		},
		{
			"anonymous": false,
			"inputs": [
				{
					"indexed": true,
					"internalType": "bytes32",
					"name": "requestId",
					"type": "bytes32"
				}
			],
			"name": "CancelOracleRequest",
			"type": "event"
		},
		{
			"anonymous": false,
			"inputs": [
				{
					"indexed": true,
					"internalType": "bytes32",
					"name": "specId",
					"type": "bytes32"
				},
				{
					"indexed": false,
					"internalType": "address",
					"name": "requester",
					"type": "address"
				},
				{
					"indexed": false,
					"internalType": "bytes32",
					"name": "requestId",
					"type": "bytes32"
				},
				{
					"indexed": false,
					"internalType": "uint256",
					"name": "payment",
					"type": "uint256"
				},
				{
					"indexed": false,
					"internalType": "address",
					"name": "callbackAddr",
					"type": "address"
				},
				{
					"indexed": false,
					"internalType": "bytes4",
					"name": "callbackFunctionId",
					"type": "bytes4"
				},
				{
					"indexed": false,
					"internalType": "uint256",
					"name": "cancelExpiration",
					"type": "uint256"
				},
				{
					"indexed": false,
					"internalType": "uint256",
					"name": "dataVersion",
					"type": "uint256"
				},
				{
					"indexed": false,
					"internalType": "bytes",
					"name": "data",
					"type": "bytes"
				}
			],
			"name": "OracleRequest",
			"type": "event"
		},
		{
			"anonymous": false,
			"inputs": [
				{
					"indexed": true,
					"internalType": "bytes32",
					"name": "requestId",
					"type": "bytes32"
				}
			],
			"name": "OracleResponse",
			"type": "event"
		},
		{
			"anonymous": false,
			"inputs": [
				{
					"indexed": true,
					"internalType": "address",
					"name": "from",
					"type": "address"
				},
				{
					"indexed": true,
					"internalType": "address",
					"name": "to",
					"type": "address"
				}
			],
			"name": "OwnershipTransferRequested",
			"type": "event"
		},
		{
			"anonymous": false,
			"inputs": [
				{
					"indexed": true,
					"internalType": "address",
					"name": "from",
					"type": "address"
				},
				{
					"indexed": true,
					"internalType": "address",
					"name": "to",
					"type": "address"
				}
			],
			"name": "OwnershipTransferred",
			"type": "event"
		},
		{
			"inputs": [],
			"name": "EXPIRY_TIME",
			"outputs": [
				{
					"internalType": "uint256",
					"name": "",
					"type": "uint256"
				}
			],
			"stateMutability": "view",
			"type": "function"
		},
		{
			"inputs": [],
			"name": "acceptOwnership",
			"outputs": [],
			"stateMutability": "nonpayable",
			"type": "function"
		},
		{
			"inputs": [
				{
					"internalType": "bytes32",
					"name": "requestId",
					"type": "bytes32"
				},
				{
					"internalType": "uint256",
					"name": "payment",
					"type": "uint256"
				},
				{
					"internalType": "bytes4",
					"name": "callbackFunc",
					"type": "bytes4"
				},
				{
					"internalType": "uint256",
					"name": "expiration",
					"type": "uint256"
				}
			],
			"name": "cancelOracleRequest",
			"outputs": [],
			"stateMutability": "nonpayable",
			"type": "function"
		},
		{
			"inputs": [
				{
					"internalType": "address",
					"name": "_to",
					"type": "address"
				},
				{
					"internalType": "bytes",
					"name": "_data",
					"type": "bytes"
				}
			],
			"name": "forward",
			"outputs": [],
			"stateMutability": "nonpayable",
			"type": "function"
		},
		{
			"inputs": [
				{
					"internalType": "bytes32",
					"name": "requestId",
					"type": "bytes32"
				},
				{
					"internalType": "uint256",
					"name": "payment",
					"type": "uint256"
				},
				{
					"internalType": "address",
					"name": "callbackAddress",
					"type": "address"
				},
				{
					"internalType": "bytes4",
					"name": "callbackFunctionId",
					"type": "bytes4"
				},
				{
					"internalType": "uint256",
					"name": "expiration",
					"type": "uint256"
				},
				{
					"internalType": "bytes32",
					"name": "data",
					"type": "bytes32"
				}
			],
			"name": "fulfillOracleRequest",
			"outputs": [
				{
					"internalType": "bool",
					"name": "",
					"type": "bool"
				}
			],
			"stateMutability": "nonpayable",
			"type": "function"
		},
		{
			"inputs": [
				{
					"internalType": "bytes32",
					"name": "requestId",
					"type": "bytes32"
				},
				{
					"internalType": "uint256",
					"name": "payment",
					"type": "uint256"
				},
				{
					"internalType": "address",
					"name": "callbackAddress",
					"type": "address"
				},
				{
					"internalType": "bytes4",
					"name": "callbackFunctionId",
					"type": "bytes4"
				},
				{
					"internalType": "uint256",
					"name": "expiration",
					"type": "uint256"
				},
				{
					"internalType": "bytes",
					"name": "data",
					"type": "bytes"
				}
			],
			"name": "fulfillOracleRequest2",
			"outputs": [
				{
					"internalType": "bool",
					"name": "",
					"type": "bool"
				}
			],
			"stateMutability": "nonpayable",
			"type": "function"
		},
		{
			"inputs": [],
			"name": "getChainlinkToken",
			"outputs": [
				{
					"internalType": "address",
					"name": "",
					"type": "address"
				}
			],
			"stateMutability": "view",
			"type": "function"
		},
		{
			"inputs": [
				{
					"internalType": "address",
					"name": "node",
					"type": "address"
				}
			],
			"name": "isAuthorizedSender",
			"outputs": [
				{
					"internalType": "bool",
					"name": "",
					"type": "bool"
				}
			],
			"stateMutability": "view",
			"type": "function"
		},
		{
			"inputs": [
				{
					"internalType": "address",
					"name": "_sender",
					"type": "address"
				},
				{
					"internalType": "uint256",
					"name": "_amount",
					"type": "uint256"
				},
				{
					"internalType": "bytes",
					"name": "_data",
					"type": "bytes"
				}
			],
			"name": "onTokenTransfer",
			"outputs": [],
			"stateMutability": "nonpayable",
			"type": "function"
		},
		{
			"inputs": [
				{
					"internalType": "address",
					"name": "sender",
					"type": "address"
				},
				{
					"internalType": "uint256",
					"name": "payment",
					"type": "uint256"
				},
				{
					"internalType": "bytes32",
					"name": "specId",
					"type": "bytes32"
				},
				{
					"internalType": "address",
					"name": "callbackAddress",
					"type": "address"
				},
				{
					"internalType": "bytes4",
					"name": "callbackFunctionId",
					"type": "bytes4"
				},
				{
					"internalType": "uint256",
					"name": "nonce",
					"type": "uint256"
				},
				{
					"internalType": "uint256",
					"name": "dataVersion",
					"type": "uint256"
				},
				{
					"internalType": "bytes",
					"name": "data",
					"type": "bytes"
				}
			],
			"name": "oracleRequest",
			"outputs": [],
			"stateMutability": "nonpayable",
			"type": "function"
		},
		{
			"inputs": [],
			"name": "owner",
			"outputs": [
				{
					"internalType": "address",
					"name": "",
					"type": "address"
				}
			],
			"stateMutability": "view",
			"type": "function"
		},
		{
			"inputs": [
				{
					"internalType": "address",
					"name": "node",
					"type": "address"
				},
				{
					"internalType": "bool",
					"name": "allowed",
					"type": "bool"
				}
			],
			"name": "setAuthorizedSender",
			"outputs": [],
			"stateMutability": "nonpayable",
			"type": "function"
		},
		{
			"inputs": [
				{
					"internalType": "address",
					"name": "_to",
					"type": "address"
				}
			],
			"name": "transferOwnership",
			"outputs": [],
			"stateMutability": "nonpayable",
			"type": "function"
		},
		{
			"inputs": [
				{
					"internalType": "address",
					"name": "recipient",
					"type": "address"
				},
				{
					"internalType": "uint256",
					"name": "amount",
					"type": "uint256"
				}
			],
			"name": "withdraw",
			"outputs": [],
			"stateMutability": "nonpayable",
			"type": "function"
		},
		{
			"inputs": [],
			"name": "withdrawable",
			"outputs": [
				{
					"internalType": "uint256",
					"name": "",
					"type": "uint256"
				}
			],
			"stateMutability": "view",
			"type": "function"
		}
	]
}