{
  "_format": "hh-sol-artifact-1",
  "contractName": "ValidatorProxy",
  "sourceName": "src/v0.8/ValidatorProxy.sol",
  "abi": [
    {
      "inputs": [
        {
          "internalType": "address",
          "name": "aggregator",
          "type": "address"
        },
        {
          "internalType": "contract AggregatorValidatorInterface",
          "name": "validator",
          "type": "address"
        }
      ],
      "stateMutability": "nonpayable",
      "type": "constructor"
    },
    {
      "anonymous": false,
      "inputs": [
        {
          "indexed": true,
          "internalType": "address",
          "name": "aggregator",
          "type": "address"
        }
      ],
      "name": "AggregatorProposed",
      "type": "event"
    },
    {
      "anonymous": false,
      "inputs": [
        {
          "indexed": true,
          "internalType": "address",
          "name": "previous",
          "type": "address"
        },
        {
          "indexed": true,
          "internalType": "address",
          "name": "current",
          "type": "address"
        }
      ],
      "name": "AggregatorUpgraded",
      "type": "event"
    },
    {
      "anonymous": false,
      "inputs": [
        {
          "indexed": true,
          "internalType": "address",
          "name": "from",
          "type": "address"
        },
        {
          "indexed": true,
          "internalType": "address",
          "name": "to",
          "type": "address"
        }
      ],
      "name": "OwnershipTransferRequested",
      "type": "event"
    },
    {
      "anonymous": false,
      "inputs": [
        {
          "indexed": true,
          "internalType": "address",
          "name": "from",
          "type": "address"
        },
        {
          "indexed": true,
          "internalType": "address",
          "name": "to",
          "type": "address"
        }
      ],
      "name": "OwnershipTransferred",
      "type": "event"
    },
    {
      "anonymous": false,
      "inputs": [
        {
          "indexed": true,
          "internalType": "address",
          "name": "proposed",
          "type": "address"
        },
        {
          "indexed": false,
          "internalType": "uint256",
          "name": "previousRoundId",
          "type": "uint256"
        },
        {
          "indexed": false,
          "internalType": "int256",
          "name": "previousAnswer",
          "type": "int256"
        },
        {
          "indexed": false,
          "internalType": "uint256",
          "name": "currentRoundId",
          "type": "uint256"
        },
        {
          "indexed": false,
          "internalType": "int256",
          "name": "currentAnswer",
          "type": "int256"
        }
      ],
      "name": "ProposedAggregatorValidateCall",
      "type": "event"
    },
    {
      "anonymous": false,
      "inputs": [
        {
          "indexed": true,
          "internalType": "contract AggregatorValidatorInterface",
          "name": "validator",
          "type": "address"
        }
      ],
      "name": "ValidatorProposed",
      "type": "event"
    },
    {
      "anonymous": false,
      "inputs": [
        {
          "indexed": true,
          "internalType": "contract AggregatorValidatorInterface",
          "name": "previous",
          "type": "address"
        },
        {
          "indexed": true,
          "internalType": "contract AggregatorValidatorInterface",
          "name": "current",
          "type": "address"
        }
      ],
      "name": "ValidatorUpgraded",
      "type": "event"
    },
    {
      "inputs": [],
      "name": "acceptOwnership",
      "outputs": [],
      "stateMutability": "nonpayable",
      "type": "function"
    },
    {
      "inputs": [],
      "name": "getAggregators",
      "outputs": [
        {
          "internalType": "address",
          "name": "current",
          "type": "address"
        },
        {
          "internalType": "bool",
          "name": "hasProposal",
          "type": "bool"
        },
        {
          "internalType": "address",
          "name": "proposed",
          "type": "address"
        }
      ],
      "stateMutability": "view",
      "type": "function"
    },
    {
      "inputs": [],
      "name": "getValidators",
      "outputs": [
        {
          "internalType": "contract AggregatorValidatorInterface",
          "name": "current",
          "type": "address"
        },
        {
          "internalType": "bool",
          "name": "hasProposal",
          "type": "bool"
        },
        {
          "internalType": "contract AggregatorValidatorInterface",
          "name": "proposed",
          "type": "address"
        }
      ],
      "stateMutability": "view",
      "type": "function"
    },
    {
      "inputs": [],
      "name": "owner",
      "outputs": [
        {
          "internalType": "address",
          "name": "",
          "type": "address"
        }
      ],
      "stateMutability": "view",
      "type": "function"
    },
    {
      "inputs": [
        {
          "internalType": "address",
          "name": "proposed",
          "type": "address"
        }
      ],
      "name": "proposeNewAggregator",
      "outputs": [],
      "stateMutability": "nonpayable",
      "type": "function"
    },
    {
      "inputs": [
        {
          "internalType": "contract AggregatorValidatorInterface",
          "name": "proposed",
          "type": "address"
        }
      ],
      "name": "proposeNewValidator",
      "outputs": [],
      "stateMutability": "nonpayable",
      "type": "function"
    },
    {
      "inputs": [
        {
          "internalType": "address",
          "name": "to",
          "type": "address"
        }
      ],
      "name": "transferOwnership",
      "outputs": [],
      "stateMutability": "nonpayable",
      "type": "function"
    },
    {
      "inputs": [],
      "name": "typeAndVersion",
      "outputs": [
        {
          "internalType": "string",
          "name": "",
          "type": "string"
        }
      ],
      "stateMutability": "pure",
      "type": "function"
    },
    {
      "inputs": [],
      "name": "upgradeAggregator",
      "outputs": [],
      "stateMutability": "nonpayable",
      "type": "function"
    },
    {
      "inputs": [],
      "name": "upgradeValidator",
      "outputs": [],
      "stateMutability": "nonpayable",
      "type": "function"
    },
    {
      "inputs": [
        {
          "internalType": "uint256",
          "name": "previousRoundId",
          "type": "uint256"
        },
        {
          "internalType": "int256",
          "name": "previousAnswer",
          "type": "int256"
        },
        {
          "internalType": "uint256",
          "name": "currentRoundId",
          "type": "uint256"
        },
        {
          "internalType": "int256",
          "name": "currentAnswer",
          "type": "int256"
        }
      ],
      "name": "validate",
      "outputs": [
        {
          "internalType": "bool",
          "name": "",
          "type": "bool"
        }
      ],
      "stateMutability": "nonpayable",
      "type": "function"
    }
  ],
  "bytecode": "0x60806040523480156200001157600080fd5b506040516200119a3803806200119a8339810160408190526200003491620001c8565b33806000816200008b5760405162461bcd60e51b815260206004820152601860248201527f43616e6e6f7420736574206f776e657220746f207a65726f000000000000000060448201526064015b60405180910390fd5b600080546001600160a01b0319166001600160a01b0384811691909117909155811615620000be57620000be816200011c565b50506040805180820182526001600160a01b0394851680825260006020928301819052600280546001600160a81b03199081169093179055835180850190945294909516808352910192909252506004805490921617905562000220565b6001600160a01b038116331415620001775760405162461bcd60e51b815260206004820152601760248201527f43616e6e6f74207472616e7366657220746f2073656c66000000000000000000604482015260640162000082565b600180546001600160a01b0319166001600160a01b0383811691821790925560008054604051929316917fed8889f560326eb138920d842192f0eb3dd22b4f139c87a2c57538e05bae12789190a350565b60008060408385031215620001dc57600080fd5b8251620001e98162000207565b6020840151909250620001fc8162000207565b809150509250929050565b6001600160a01b03811681146200021d57600080fd5b50565b610f6a80620002306000396000f3fe608060405234801561001057600080fd5b50600436106100c95760003560e01c80638da5cb5b11610081578063beed9b511161005b578063beed9b511461022b578063c97f78561461024e578063f2fde38b1461025657600080fd5b80638da5cb5b146101af57806394ce943b146101d7578063b7ab4db5146101ea57600080fd5b80637903677f116100b25780637903677f1461012b57806379ba5097146101335780637ee7f7d11461013b57600080fd5b8063181f5a77146100ce57806359112a4e14610116575b600080fd5b604080518082018252601481527f56616c696461746f7250726f787920312e302e300000000000000000000000006020820152905161010d9190610eba565b60405180910390f35b610129610124366004610e48565b610269565b005b6101296103d4565b610129610544565b60025460035473ffffffffffffffffffffffffffffffffffffffff8083169274010000000000000000000000000000000000000000900460ff1691165b6040805173ffffffffffffffffffffffffffffffffffffffff9485168152921515602084015292169181019190915260600161010d565b60005460405173ffffffffffffffffffffffffffffffffffffffff909116815260200161010d565b6101296101e5366004610e48565b610641565b60045460055473ffffffffffffffffffffffffffffffffffffffff8083169274010000000000000000000000000000000000000000900460ff169116610178565b61023e610239366004610e6c565b6107a6565b604051901515815260200161010d565b610129610b4b565b610129610264366004610e48565b610cbb565b610271610ccf565b60035473ffffffffffffffffffffffffffffffffffffffff8281169116148015906102b7575060025473ffffffffffffffffffffffffffffffffffffffff828116911614155b610322576040517f08c379a000000000000000000000000000000000000000000000000000000000815260206004820152601060248201527f496e76616c69642070726f706f73616c0000000000000000000000000000000060448201526064015b60405180910390fd5b600380547fffffffffffffffffffffffff00000000000000000000000000000000000000001673ffffffffffffffffffffffffffffffffffffffff8316908117909155600280547fffffffffffffffffffffff00ffffffffffffffffffffffffffffffffffffffff1682151574010000000000000000000000000000000000000000021790556040517f5f9c9d260db95e6065c958ac4462171e7a8e70c0c5a7e1864ec8e425c3348de790600090a250565b6103dc610ccf565b6040805180820190915260045473ffffffffffffffffffffffffffffffffffffffff8082168084527401000000000000000000000000000000000000000090920460ff1615156020840181905260055490911690610496576040517f08c379a000000000000000000000000000000000000000000000000000000000815260206004820152600b60248201527f4e6f2070726f706f73616c0000000000000000000000000000000000000000006044820152606401610319565b60408051808201825273ffffffffffffffffffffffffffffffffffffffff80841680835260006020909301839052600480547fffffffffffffffffffffff0000000000000000000000000000000000000000001682179055600580547fffffffffffffffffffffffff00000000000000000000000000000000000000001690559251908516917fb78a7598213b871cdb0b5cf984a129fa34c321bfd3b74073ba5147e0e3f1c33c91a3505050565b60015473ffffffffffffffffffffffffffffffffffffffff1633146105c5576040517f08c379a000000000000000000000000000000000000000000000000000000000815260206004820152601660248201527f4d7573742062652070726f706f736564206f776e6572000000000000000000006044820152606401610319565b60008054337fffffffffffffffffffffffff00000000000000000000000000000000000000008083168217845560018054909116905560405173ffffffffffffffffffffffffffffffffffffffff90921692909183917f8be0079c531659141344cd1fd0a4f28419497f9722a3daafe3b4186f6b6457e091a350565b610649610ccf565b60055473ffffffffffffffffffffffffffffffffffffffff82811691161480159061068f575060045473ffffffffffffffffffffffffffffffffffffffff828116911614155b6106f5576040517f08c379a000000000000000000000000000000000000000000000000000000000815260206004820152601060248201527f496e76616c69642070726f706f73616c000000000000000000000000000000006044820152606401610319565b600580547fffffffffffffffffffffffff00000000000000000000000000000000000000001673ffffffffffffffffffffffffffffffffffffffff8316908117909155600480547fffffffffffffffffffffff00ffffffffffffffffffffffffffffffffffffffff1682151574010000000000000000000000000000000000000000021790556040517e2d79d30d9a290b4aa306dc3542d81c243b1f679b4083044b9723d2378600be90600090a250565b60025460009073ffffffffffffffffffffffffffffffffffffffff163381146108b65760035473ffffffffffffffffffffffffffffffffffffffff1633811461084b576040517f08c379a000000000000000000000000000000000000000000000000000000000815260206004820152601b60248201527f4e6f74206120636f6e666967757265642061676772656761746f7200000000006044820152606401610319565b60408051888152602081018890529081018690526060810185905273ffffffffffffffffffffffffffffffffffffffff8216907f5a76b3e9adddfd8f853f50a26cb51f7e4cfef4fbaf1d49df7da37b90119aba789060800160405180910390a2600192505050610b43565b6040805180820190915260045473ffffffffffffffffffffffffffffffffffffffff81168083527401000000000000000000000000000000000000000090910460ff161515602083015280610967576040517f08c379a000000000000000000000000000000000000000000000000000000000815260206004820152601060248201527f4e6f2076616c696461746f7220736574000000000000000000000000000000006044820152606401610319565b60408051602481018a9052604481018990526064810188905260848082018890528251808303909101815260a490910182526020810180517bffffffffffffffffffffffffffffffffffffffffffffffffffffffff167fbeed9b5100000000000000000000000000000000000000000000000000000000179052905173ffffffffffffffffffffffffffffffffffffffff831691610a0491610e9e565b6000604051808303816000865af19150503d8060008114610a41576040519150601f19603f3d011682016040523d82523d6000602084013e610a46565b606091505b505050816020015115610b3b5760055460408051602481018b9052604481018a90526064810189905260848082018990528251808303909101815260a490910182526020810180517bffffffffffffffffffffffffffffffffffffffffffffffffffffffff167fbeed9b5100000000000000000000000000000000000000000000000000000000179052905173ffffffffffffffffffffffffffffffffffffffff90921691610af59190610e9e565b6000604051808303816000865af19150503d8060008114610b32576040519150601f19603f3d011682016040523d82523d6000602084013e610b37565b606091505b5050505b600193505050505b949350505050565b610b53610ccf565b6040805180820190915260025473ffffffffffffffffffffffffffffffffffffffff8082168084527401000000000000000000000000000000000000000090920460ff1615156020840181905260035490911690610c0d576040517f08c379a000000000000000000000000000000000000000000000000000000000815260206004820152600b60248201527f4e6f2070726f706f73616c0000000000000000000000000000000000000000006044820152606401610319565b60408051808201825273ffffffffffffffffffffffffffffffffffffffff80841680835260006020909301839052600280547fffffffffffffffffffffff0000000000000000000000000000000000000000001682179055600380547fffffffffffffffffffffffff00000000000000000000000000000000000000001690559251908516917f7005ddb42f7ac176ef55c6adb46b53f52e2832c77e915dad61a643841466ea2191a3505050565b610cc3610ccf565b610ccc81610d52565b50565b60005473ffffffffffffffffffffffffffffffffffffffff163314610d50576040517f08c379a000000000000000000000000000000000000000000000000000000000815260206004820152601660248201527f4f6e6c792063616c6c61626c65206279206f776e6572000000000000000000006044820152606401610319565b565b73ffffffffffffffffffffffffffffffffffffffff8116331415610dd2576040517f08c379a000000000000000000000000000000000000000000000000000000000815260206004820152601760248201527f43616e6e6f74207472616e7366657220746f2073656c660000000000000000006044820152606401610319565b600180547fffffffffffffffffffffffff00000000000000000000000000000000000000001673ffffffffffffffffffffffffffffffffffffffff83811691821790925560008054604051929316917fed8889f560326eb138920d842192f0eb3dd22b4f139c87a2c57538e05bae12789190a350565b600060208284031215610e5a57600080fd5b8135610e6581610f3b565b9392505050565b60008060008060808587031215610e8257600080fd5b5050823594602084013594506040840135936060013592509050565b60008251610eb0818460208701610f0b565b9190910192915050565b6020815260008251806020840152610ed9816040850160208701610f0b565b601f017fffffffffffffffffffffffffffffffffffffffffffffffffffffffffffffffe0169190910160400192915050565b60005b83811015610f26578181015183820152602001610f0e565b83811115610f35576000848401525b50505050565b73ffffffffffffffffffffffffffffffffffffffff81168114610ccc57600080fdfea164736f6c6343000806000a",
  "linkReferences": {},
  "deployedLinkReferences": {}
}