{
  "_format": "hh-sol-artifact-1",
  "contractName": "ConfirmedOwnerTestHelper",
  "sourceName": "src/v0.7/tests/ConfirmedOwnerTestHelper.sol",
  "abi": [
    {
      "inputs": [],
      "stateMutability": "nonpayable",
      "type": "constructor"
    },
    {
      "anonymous": false,
      "inputs": [],
      "name": "Here",
      "type": "event"
    },
    {
      "anonymous": false,
      "inputs": [
        {
          "indexed": true,
          "internalType": "address",
          "name": "from",
          "type": "address"
        },
        {
          "indexed": true,
          "internalType": "address",
          "name": "to",
          "type": "address"
        }
      ],
      "name": "OwnershipTransferRequested",
      "type": "event"
    },
    {
      "anonymous": false,
      "inputs": [
        {
          "indexed": true,
          "internalType": "address",
          "name": "from",
          "type": "address"
        },
        {
          "indexed": true,
          "internalType": "address",
          "name": "to",
          "type": "address"
        }
      ],
      "name": "OwnershipTransferred",
      "type": "event"
    },
    {
      "inputs": [],
      "name": "acceptOwnership",
      "outputs": [],
      "stateMutability": "nonpayable",
      "type": "function"
    },
    {
      "inputs": [],
      "name": "modifierOnlyOwner",
      "outputs": [],
      "stateMutability": "nonpayable",
      "type": "function"
    },
    {
      "inputs": [],
      "name": "owner",
      "outputs": [
        {
          "internalType": "address",
          "name": "",
          "type": "address"
        }
      ],
      "stateMutability": "view",
      "type": "function"
    },
    {
      "inputs": [
        {
          "internalType": "address",
          "name": "to",
          "type": "address"
        }
      ],
      "name": "transferOwnership",
      "outputs": [],
      "stateMutability": "nonpayable",
      "type": "function"
    }
  ],
  "bytecode": "0x608060405234801561001057600080fd5b503380600081610067576040805162461bcd60e51b815260206004820152601860248201527f43616e6e6f7420736574206f776e657220746f207a65726f0000000000000000604482015290519081900360640190fd5b600080546001600160a01b0319166001600160a01b0384811691909117909155811615610097576100978161009f565b50505061014e565b6001600160a01b0381163314156100fd576040805162461bcd60e51b815260206004820152601760248201527f43616e6e6f74207472616e7366657220746f2073656c66000000000000000000604482015290519081900360640190fd5b600180546001600160a01b0319166001600160a01b0383811691821790925560008054604051929316917fed8889f560326eb138920d842192f0eb3dd22b4f139c87a2c57538e05bae12789190a350565b6103bc8061015d6000396000f3fe608060405234801561001057600080fd5b506004361061004c5760003560e01c806379ba5097146100515780638da5cb5b1461005b578063d1f4537e1461008c578063f2fde38b14610094575b600080fd5b6100596100c7565b005b6100636101c9565b6040805173ffffffffffffffffffffffffffffffffffffffff9092168252519081900360200190f35b6100596101e5565b610059600480360360208110156100aa57600080fd5b503573ffffffffffffffffffffffffffffffffffffffff16610218565b60015473ffffffffffffffffffffffffffffffffffffffff16331461014d57604080517f08c379a000000000000000000000000000000000000000000000000000000000815260206004820152601660248201527f4d7573742062652070726f706f736564206f776e657200000000000000000000604482015290519081900360640190fd5b60008054337fffffffffffffffffffffffff00000000000000000000000000000000000000008083168217845560018054909116905560405173ffffffffffffffffffffffffffffffffffffffff90921692909183917f8be0079c531659141344cd1fd0a4f28419497f9722a3daafe3b4186f6b6457e091a350565b60005473ffffffffffffffffffffffffffffffffffffffff1690565b6101ed61022c565b6040517ffe92bbc330eb12cd316e909741296a7fbde0684922f2564d9a9021f08959374090600090a1565b61022061022c565b610229816102b4565b50565b60005473ffffffffffffffffffffffffffffffffffffffff1633146102b257604080517f08c379a000000000000000000000000000000000000000000000000000000000815260206004820152601660248201527f4f6e6c792063616c6c61626c65206279206f776e657200000000000000000000604482015290519081900360640190fd5b565b73ffffffffffffffffffffffffffffffffffffffff811633141561033957604080517f08c379a000000000000000000000000000000000000000000000000000000000815260206004820152601760248201527f43616e6e6f74207472616e7366657220746f2073656c66000000000000000000604482015290519081900360640190fd5b600180547fffffffffffffffffffffffff00000000000000000000000000000000000000001673ffffffffffffffffffffffffffffffffffffffff83811691821790925560008054604051929316917fed8889f560326eb138920d842192f0eb3dd22b4f139c87a2c57538e05bae12789190a35056fea164736f6c6343000706000a",
  "linkReferences": {},
  "deployedLinkReferences": {}
}