{
  "_format": "hh-sol-artifact-1",
  "contractName": "VRFMaliciousConsumerV2",
  "sourceName": "src/v0.8/tests/VRFMaliciousConsumerV2.sol",
  "abi": [
    {
      "inputs": [
        {
          "internalType": "address",
          "name": "vrfCoordinator",
          "type": "address"
        },
        {
          "internalType": "address",
          "name": "link",
          "type": "address"
        }
      ],
      "stateMutability": "nonpayable",
      "type": "constructor"
    },
    {
      "inputs": [
        {
          "internalType": "address",
          "name": "have",
          "type": "address"
        },
        {
          "internalType": "address",
          "name": "want",
          "type": "address"
        }
      ],
      "name": "OnlyCoordinatorCanFulfill",
      "type": "error"
    },
    {
      "inputs": [
        {
          "internalType": "uint256",
          "name": "requestId",
          "type": "uint256"
        },
        {
          "internalType": "uint256[]",
          "name": "randomWords",
          "type": "uint256[]"
        }
      ],
      "name": "rawFulfillRandomWords",
      "outputs": [],
      "stateMutability": "nonpayable",
      "type": "function"
    },
    {
      "inputs": [],
      "name": "s_gasAvailable",
      "outputs": [
        {
          "internalType": "uint256",
          "name": "",
          "type": "uint256"
        }
      ],
      "stateMutability": "view",
      "type": "function"
    },
    {
      "inputs": [
        {
          "internalType": "uint256",
          "name": "",
          "type": "uint256"
        }
      ],
      "name": "s_randomWords",
      "outputs": [
        {
          "internalType": "uint256",
          "name": "",
          "type": "uint256"
        }
      ],
      "stateMutability": "view",
      "type": "function"
    },
    {
      "inputs": [],
      "name": "s_requestId",
      "outputs": [
        {
          "internalType": "uint256",
          "name": "",
          "type": "uint256"
        }
      ],
      "stateMutability": "view",
      "type": "function"
    },
    {
      "inputs": [],
      "name": "s_subId",
      "outputs": [
        {
          "internalType": "uint64",
          "name": "",
          "type": "uint64"
        }
      ],
      "stateMutability": "view",
      "type": "function"
    },
    {
      "inputs": [
        {
          "internalType": "bytes32",
          "name": "keyHash",
          "type": "bytes32"
        }
      ],
      "name": "setKeyHash",
      "outputs": [],
      "stateMutability": "nonpayable",
      "type": "function"
    },
    {
      "inputs": [
        {
          "internalType": "uint96",
          "name": "amount",
          "type": "uint96"
        }
      ],
      "name": "testCreateSubscriptionAndFund",
      "outputs": [],
      "stateMutability": "nonpayable",
      "type": "function"
    },
    {
      "inputs": [],
      "name": "testRequestRandomness",
      "outputs": [
        {
          "internalType": "uint256",
          "name": "",
          "type": "uint256"
        }
      ],
      "stateMutability": "nonpayable",
      "type": "function"
    },
    {
      "inputs": [
        {
          "internalType": "address[]",
          "name": "consumers",
          "type": "address[]"
        }
      ],
      "name": "updateSubscription",
      "outputs": [],
      "stateMutability": "nonpayable",
      "type": "function"
    }
  ],
  "bytecode": "0x60a060405234801561001057600080fd5b50604051610d9c380380610d9c83398101604081905261002f9161008e565b6001600160601b0319606083901b16608052600280546001600160a01b03199081166001600160a01b0394851617909155600380549290931691161790556100c1565b80516001600160a01b038116811461008957600080fd5b919050565b600080604083850312156100a157600080fd5b6100aa83610072565b91506100b860208401610072565b90509250929050565b60805160601c610cb66100e66000396000818161019301526101fb0152610cb66000f3fe608060405234801561001057600080fd5b50600436106100a35760003560e01c8063706da1ca11610076578063e89e106a1161005b578063e89e106a14610156578063f08c5daa1461015f578063f6eaffc81461016857600080fd5b8063706da1ca146100fe578063985447101461014357600080fd5b80631fe543e3146100a857806336bfffed146100bd5780636802f726146100d0578063702a2ec9146100e3575b600080fd5b6100bb6100b63660046109d6565b61017b565b005b6100bb6100cb3660046108bc565b61023b565b6100bb6100de366004610aa4565b6103c3565b6100eb610642565b6040519081526020015b60405180910390f35b60035461012a9074010000000000000000000000000000000000000000900467ffffffffffffffff1681565b60405167ffffffffffffffff90911681526020016100f5565b6100bb6101513660046109a4565b600555565b6100eb60015481565b6100eb60045481565b6100eb6101763660046109a4565b610731565b3373ffffffffffffffffffffffffffffffffffffffff7f0000000000000000000000000000000000000000000000000000000000000000161461022d576040517f1cf993f400000000000000000000000000000000000000000000000000000000815233600482015273ffffffffffffffffffffffffffffffffffffffff7f00000000000000000000000000000000000000000000000000000000000000001660248201526044015b60405180910390fd5b6102378282610752565b5050565b60035474010000000000000000000000000000000000000000900467ffffffffffffffff166102c6576040517f08c379a000000000000000000000000000000000000000000000000000000000815260206004820152600d60248201527f7375624944206e6f7420736574000000000000000000000000000000000000006044820152606401610224565b60005b815181101561023757600254600354835173ffffffffffffffffffffffffffffffffffffffff90921691637341c10c9174010000000000000000000000000000000000000000900467ffffffffffffffff169085908590811061032e5761032e610c4b565b60200260200101516040518363ffffffff1660e01b815260040161037e92919067ffffffffffffffff92909216825273ffffffffffffffffffffffffffffffffffffffff16602082015260400190565b600060405180830381600087803b15801561039857600080fd5b505af11580156103ac573d6000803e3d6000fd5b5050505080806103bb90610beb565b9150506102c9565b60035474010000000000000000000000000000000000000000900467ffffffffffffffff1661056e57600260009054906101000a900473ffffffffffffffffffffffffffffffffffffffff1673ffffffffffffffffffffffffffffffffffffffff1663a21a23e46040518163ffffffff1660e01b8152600401602060405180830381600087803b15801561045657600080fd5b505af115801561046a573d6000803e3d6000fd5b505050506040513d601f19601f8201168201806040525081019061048e9190610a7a565b600380547fffffffff0000000000000000ffffffffffffffffffffffffffffffffffffffff167401000000000000000000000000000000000000000067ffffffffffffffff938416810291909117918290556002546040517f7341c10c00000000000000000000000000000000000000000000000000000000815291909204909216600483015230602483015273ffffffffffffffffffffffffffffffffffffffff1690637341c10c90604401600060405180830381600087803b15801561055557600080fd5b505af1158015610569573d6000803e3d6000fd5b505050505b6003546002546040805174010000000000000000000000000000000000000000840467ffffffffffffffff16602082015273ffffffffffffffffffffffffffffffffffffffff93841693634000aea09316918591016040516020818303038152906040526040518463ffffffff1660e01b81526004016105f093929190610ad2565b602060405180830381600087803b15801561060a57600080fd5b505af115801561061e573d6000803e3d6000fd5b505050506040513d601f19601f82011682018060405250810190610237919061097b565b6002546005546003546040517f5d3b1d30000000000000000000000000000000000000000000000000000000008152600481019290925274010000000000000000000000000000000000000000900467ffffffffffffffff1660248201526001604482018190526207a1206064830152608482015260009173ffffffffffffffffffffffffffffffffffffffff1690635d3b1d309060a401602060405180830381600087803b1580156106f457600080fd5b505af1158015610708573d6000803e3d6000fd5b505050506040513d601f19601f8201168201806040525081019061072c91906109bd565b905090565b6000818154811061074157600080fd5b600091825260209091200154905081565b5a600455805161076990600090602084019061085c565b5060018281556002546005546003546040517f5d3b1d30000000000000000000000000000000000000000000000000000000008152600481019290925274010000000000000000000000000000000000000000900467ffffffffffffffff1660248201526044810183905262030d406064820152608481019290925273ffffffffffffffffffffffffffffffffffffffff1690635d3b1d309060a401602060405180830381600087803b15801561081f57600080fd5b505af1158015610833573d6000803e3d6000fd5b505050506040513d601f19601f8201168201806040525081019061085791906109bd565b505050565b828054828255906000526020600020908101928215610897579160200282015b8281111561089757825182559160200191906001019061087c565b506108a39291506108a7565b5090565b5b808211156108a357600081556001016108a8565b600060208083850312156108cf57600080fd5b823567ffffffffffffffff8111156108e657600080fd5b8301601f810185136108f757600080fd5b803561090a61090582610bc7565b610b78565b80828252848201915084840188868560051b870101111561092a57600080fd5b60009450845b8481101561096d57813573ffffffffffffffffffffffffffffffffffffffff8116811461095b578687fd5b84529286019290860190600101610930565b509098975050505050505050565b60006020828403121561098d57600080fd5b8151801515811461099d57600080fd5b9392505050565b6000602082840312156109b657600080fd5b5035919050565b6000602082840312156109cf57600080fd5b5051919050565b600080604083850312156109e957600080fd5b8235915060208084013567ffffffffffffffff811115610a0857600080fd5b8401601f81018613610a1957600080fd5b8035610a2761090582610bc7565b80828252848201915084840189868560051b8701011115610a4757600080fd5b600094505b83851015610a6a578035835260019490940193918501918501610a4c565b5080955050505050509250929050565b600060208284031215610a8c57600080fd5b815167ffffffffffffffff8116811461099d57600080fd5b600060208284031215610ab657600080fd5b81356bffffffffffffffffffffffff8116811461099d57600080fd5b73ffffffffffffffffffffffffffffffffffffffff84168152600060206bffffffffffffffffffffffff85168184015260606040840152835180606085015260005b81811015610b3057858101830151858201608001528201610b14565b81811115610b42576000608083870101525b50601f017fffffffffffffffffffffffffffffffffffffffffffffffffffffffffffffffe0169290920160800195945050505050565b604051601f82017fffffffffffffffffffffffffffffffffffffffffffffffffffffffffffffffe016810167ffffffffffffffff81118282101715610bbf57610bbf610c7a565b604052919050565b600067ffffffffffffffff821115610be157610be1610c7a565b5060051b60200190565b60007fffffffffffffffffffffffffffffffffffffffffffffffffffffffffffffffff821415610c44577f4e487b7100000000000000000000000000000000000000000000000000000000600052601160045260246000fd5b5060010190565b7f4e487b7100000000000000000000000000000000000000000000000000000000600052603260045260246000fd5b7f4e487b7100000000000000000000000000000000000000000000000000000000600052604160045260246000fdfea164736f6c6343000806000a",
  "linkReferences": {},
  "deployedLinkReferences": {}
}