{
  "_format": "hh-sol-artifact-1",
  "contractName": "PublicResolver",
  "sourceName": "src/v0.4/vendor/PublicResolver.sol",
  "abi": [
    {
      "constant": true,
      "inputs": [
        {
          "name": "interfaceID",
          "type": "bytes4"
        }
      ],
      "name": "supportsInterface",
      "outputs": [
        {
          "name": "",
          "type": "bool"
        }
      ],
      "payable": false,
      "stateMutability": "pure",
      "type": "function"
    },
    {
      "constant": false,
      "inputs": [
        {
          "name": "node",
          "type": "bytes32"
        },
        {
          "name": "key",
          "type": "string"
        },
        {
          "name": "value",
          "type": "string"
        }
      ],
      "name": "setText",
      "outputs": [],
      "payable": false,
      "stateMutability": "nonpayable",
      "type": "function"
    },
    {
      "constant": true,
      "inputs": [
        {
          "name": "node",
          "type": "bytes32"
        },
        {
          "name": "contentTypes",
          "type": "uint256"
        }
      ],
      "name": "ABI",
      "outputs": [
        {
          "name": "contentType",
          "type": "uint256"
        },
        {
          "name": "data",
          "type": "bytes"
        }
      ],
      "payable": false,
      "stateMutability": "view",
      "type": "function"
    },
    {
      "constant": false,
      "inputs": [
        {
          "name": "node",
          "type": "bytes32"
        },
        {
          "name": "x",
          "type": "bytes32"
        },
        {
          "name": "y",
          "type": "bytes32"
        }
      ],
      "name": "setPubkey",
      "outputs": [],
      "payable": false,
      "stateMutability": "nonpayable",
      "type": "function"
    },
    {
      "constant": true,
      "inputs": [
        {
          "name": "node",
          "type": "bytes32"
        }
      ],
      "name": "content",
      "outputs": [
        {
          "name": "",
          "type": "bytes32"
        }
      ],
      "payable": false,
      "stateMutability": "view",
      "type": "function"
    },
    {
      "constant": true,
      "inputs": [
        {
          "name": "node",
          "type": "bytes32"
        }
      ],
      "name": "addr",
      "outputs": [
        {
          "name": "",
          "type": "address"
        }
      ],
      "payable": false,
      "stateMutability": "view",
      "type": "function"
    },
    {
      "constant": true,
      "inputs": [
        {
          "name": "node",
          "type": "bytes32"
        },
        {
          "name": "key",
          "type": "string"
        }
      ],
      "name": "text",
      "outputs": [
        {
          "name": "",
          "type": "string"
        }
      ],
      "payable": false,
      "stateMutability": "view",
      "type": "function"
    },
    {
      "constant": false,
      "inputs": [
        {
          "name": "node",
          "type": "bytes32"
        },
        {
          "name": "contentType",
          "type": "uint256"
        },
        {
          "name": "data",
          "type": "bytes"
        }
      ],
      "name": "setABI",
      "outputs": [],
      "payable": false,
      "stateMutability": "nonpayable",
      "type": "function"
    },
    {
      "constant": true,
      "inputs": [
        {
          "name": "node",
          "type": "bytes32"
        }
      ],
      "name": "name",
      "outputs": [
        {
          "name": "",
          "type": "string"
        }
      ],
      "payable": false,
      "stateMutability": "view",
      "type": "function"
    },
    {
      "constant": false,
      "inputs": [
        {
          "name": "node",
          "type": "bytes32"
        },
        {
          "name": "name",
          "type": "string"
        }
      ],
      "name": "setName",
      "outputs": [],
      "payable": false,
      "stateMutability": "nonpayable",
      "type": "function"
    },
    {
      "constant": false,
      "inputs": [
        {
          "name": "node",
          "type": "bytes32"
        },
        {
          "name": "hash",
          "type": "bytes"
        }
      ],
      "name": "setMultihash",
      "outputs": [],
      "payable": false,
      "stateMutability": "nonpayable",
      "type": "function"
    },
    {
      "constant": false,
      "inputs": [
        {
          "name": "node",
          "type": "bytes32"
        },
        {
          "name": "hash",
          "type": "bytes32"
        }
      ],
      "name": "setContent",
      "outputs": [],
      "payable": false,
      "stateMutability": "nonpayable",
      "type": "function"
    },
    {
      "constant": true,
      "inputs": [
        {
          "name": "node",
          "type": "bytes32"
        }
      ],
      "name": "pubkey",
      "outputs": [
        {
          "name": "x",
          "type": "bytes32"
        },
        {
          "name": "y",
          "type": "bytes32"
        }
      ],
      "payable": false,
      "stateMutability": "view",
      "type": "function"
    },
    {
      "constant": false,
      "inputs": [
        {
          "name": "node",
          "type": "bytes32"
        },
        {
          "name": "addr",
          "type": "address"
        }
      ],
      "name": "setAddr",
      "outputs": [],
      "payable": false,
      "stateMutability": "nonpayable",
      "type": "function"
    },
    {
      "constant": true,
      "inputs": [
        {
          "name": "node",
          "type": "bytes32"
        }
      ],
      "name": "multihash",
      "outputs": [
        {
          "name": "",
          "type": "bytes"
        }
      ],
      "payable": false,
      "stateMutability": "view",
      "type": "function"
    },
    {
      "inputs": [
        {
          "name": "ensAddr",
          "type": "address"
        }
      ],
      "payable": false,
      "stateMutability": "nonpayable",
      "type": "constructor"
    },
    {
      "anonymous": false,
      "inputs": [
        {
          "indexed": true,
          "name": "node",
          "type": "bytes32"
        },
        {
          "indexed": false,
          "name": "a",
          "type": "address"
        }
      ],
      "name": "AddrChanged",
      "type": "event"
    },
    {
      "anonymous": false,
      "inputs": [
        {
          "indexed": true,
          "name": "node",
          "type": "bytes32"
        },
        {
          "indexed": false,
          "name": "hash",
          "type": "bytes32"
        }
      ],
      "name": "ContentChanged",
      "type": "event"
    },
    {
      "anonymous": false,
      "inputs": [
        {
          "indexed": true,
          "name": "node",
          "type": "bytes32"
        },
        {
          "indexed": false,
          "name": "name",
          "type": "string"
        }
      ],
      "name": "NameChanged",
      "type": "event"
    },
    {
      "anonymous": false,
      "inputs": [
        {
          "indexed": true,
          "name": "node",
          "type": "bytes32"
        },
        {
          "indexed": true,
          "name": "contentType",
          "type": "uint256"
        }
      ],
      "name": "ABIChanged",
      "type": "event"
    },
    {
      "anonymous": false,
      "inputs": [
        {
          "indexed": true,
          "name": "node",
          "type": "bytes32"
        },
        {
          "indexed": false,
          "name": "x",
          "type": "bytes32"
        },
        {
          "indexed": false,
          "name": "y",
          "type": "bytes32"
        }
      ],
      "name": "PubkeyChanged",
      "type": "event"
    },
    {
      "anonymous": false,
      "inputs": [
        {
          "indexed": true,
          "name": "node",
          "type": "bytes32"
        },
        {
          "indexed": false,
          "name": "indexedKey",
          "type": "string"
        },
        {
          "indexed": false,
          "name": "key",
          "type": "string"
        }
      ],
      "name": "TextChanged",
      "type": "event"
    },
    {
      "anonymous": false,
      "inputs": [
        {
          "indexed": true,
          "name": "node",
          "type": "bytes32"
        },
        {
          "indexed": false,
          "name": "hash",
          "type": "bytes"
        }
      ],
      "name": "MultihashChanged",
      "type": "event"
    }
  ],
  "bytecode": "0x608060405234801561001057600080fd5b50604051602080611775833981016040525160008054600160a060020a03909216600160a060020a0319909216919091179055611723806100526000396000f3006080604052600436106100da5763ffffffff7c010000000000000000000000000000000000000000000000000000000060003504166301ffc9a781146100df57806310f13a8c1461012d5780632203ab56146101cb57806329cd62ea146102655780632dff6941146102835780633b3b57de146102ad57806359d1d43c146102ee578063623195b0146103c1578063691f3431146104215780637737221314610439578063aa4cb54714610497578063c3d014d6146104f5578063c869023314610510578063d5fa2b0014610541578063e89401a114610572575b600080fd5b3480156100eb57600080fd5b506101197fffffffff000000000000000000000000000000000000000000000000000000006004351661058a565b604080519115158252519081900360200190f35b34801561013957600080fd5b5060408051602060046024803582810135601f81018590048502860185019096528585526101c995833595369560449491939091019190819084018382808284375050604080516020601f89358b018035918201839004830284018301909452808352979a9998810197919650918201945092508291508401838280828437509497506107eb9650505050505050565b005b3480156101d757600080fd5b506101e6600435602435610a7d565b6040518083815260200180602001828103825283818151815260200191508051906020019080838360005b83811015610229578181015183820152602001610211565b50505050905090810190601f1680156102565780820380516001836020036101000a031916815260200191505b50935050505060405180910390f35b34801561027157600080fd5b506101c9600435602435604435610bc5565b34801561028f57600080fd5b5061029b600435610cf5565b60408051918252519081900360200190f35b3480156102b957600080fd5b506102c5600435610d0b565b6040805173ffffffffffffffffffffffffffffffffffffffff9092168252519081900360200190f35b3480156102fa57600080fd5b5060408051602060046024803582810135601f810185900485028601850190965285855261034c958335953695604494919390910191908190840183828082843750949750610d339650505050505050565b6040805160208082528351818301528351919283929083019185019080838360005b8381101561038657818101518382015260200161036e565b50505050905090810190601f1680156103b35780820380516001836020036101000a031916815260200191505b509250505060405180910390f35b3480156103cd57600080fd5b50604080516020600460443581810135601f81018490048402850184019095528484526101c9948235946024803595369594606494920191908190840183828082843750949750610e789650505050505050565b34801561042d57600080fd5b5061034c600435610fc7565b34801561044557600080fd5b5060408051602060046024803582810135601f81018590048502860185019096528585526101c99583359536956044949193909101919081908401838280828437509497506110899650505050505050565b3480156104a357600080fd5b5060408051602060046024803582810135601f81018590048502860185019096528585526101c995833595369560449491939091019190819084018382808284375094975061120f9650505050505050565b34801561050157600080fd5b506101c9600435602435611355565b34801561051c57600080fd5b50610528600435611466565b6040805192835260208301919091528051918290030190f35b34801561054d57600080fd5b506101c960043573ffffffffffffffffffffffffffffffffffffffff60243516611483565b34801561057e57600080fd5b5061034c6004356115cf565b60007fffffffff0000000000000000000000000000000000000000000000000000000082167f3b3b57de00000000000000000000000000000000000000000000000000000000148061061d57507fffffffff0000000000000000000000000000000000000000000000000000000082167fd8389dc500000000000000000000000000000000000000000000000000000000145b8061066957507fffffffff0000000000000000000000000000000000000000000000000000000082167f691f343100000000000000000000000000000000000000000000000000000000145b806106b557507fffffffff0000000000000000000000000000000000000000000000000000000082167f2203ab5600000000000000000000000000000000000000000000000000000000145b8061070157507fffffffff0000000000000000000000000000000000000000000000000000000082167fc869023300000000000000000000000000000000000000000000000000000000145b8061074d57507fffffffff0000000000000000000000000000000000000000000000000000000082167f59d1d43c00000000000000000000000000000000000000000000000000000000145b8061079957507fffffffff0000000000000000000000000000000000000000000000000000000082167fe89401a100000000000000000000000000000000000000000000000000000000145b806107e557507fffffffff0000000000000000000000000000000000000000000000000000000082167f01ffc9a700000000000000000000000000000000000000000000000000000000145b92915050565b60008054604080517f02571be30000000000000000000000000000000000000000000000000000000081526004810187905290518693339373ffffffffffffffffffffffffffffffffffffffff16926302571be39260248083019360209383900390910190829087803b15801561086157600080fd5b505af1158015610875573d6000803e3d6000fd5b505050506040513d602081101561088b57600080fd5b505173ffffffffffffffffffffffffffffffffffffffff16146108ad57600080fd5b6000848152600160209081526040918290209151855185936005019287929182918401908083835b6020831061091257805182527fffffffffffffffffffffffffffffffffffffffffffffffffffffffffffffffe090920191602091820191016108d5565b51815160209384036101000a7fffffffffffffffffffffffffffffffffffffffffffffffffffffffffffffffff01801990921691161790529201948552506040519384900381019093208451610971959194919091019250905061165c565b5083600019167fd8c9334b1a9c2f9da342a0a2b32629c1a229b6445dad78947f674b44444a75508485604051808060200180602001838103835285818151815260200191508051906020019080838360005b838110156109db5781810151838201526020016109c3565b50505050905090810190601f168015610a085780820380516001836020036101000a031916815260200191505b50838103825284518152845160209182019186019080838360005b83811015610a3b578181015183820152602001610a23565b50505050905090810190601f168015610a685780820380516001836020036101000a031916815260200191505b5094505050505060405180910390a250505050565b60008281526001602081905260409091206060905b838311610bb85782841615801590610ae95750600083815260068201602052604081205460027fffffffffffffffffffffffffffffffffffffffffffffffffffffffffffffffff6101006001841615020190911604115b15610bad57600083815260068201602090815260409182902080548351601f60027fffffffffffffffffffffffffffffffffffffffffffffffffffffffffffffffff61010060018616150201909316929092049182018490048402810184019094528084529091830182828015610ba15780601f10610b7657610100808354040283529160200191610ba1565b820191906000526020600020905b815481529060010190602001808311610b8457829003601f168201915b50505050509150610bbd565b600290920291610a92565b600092505b509250929050565b60008054604080517f02571be30000000000000000000000000000000000000000000000000000000081526004810187905290518693339373ffffffffffffffffffffffffffffffffffffffff16926302571be39260248083019360209383900390910190829087803b158015610c3b57600080fd5b505af1158015610c4f573d6000803e3d6000fd5b505050506040513d6020811015610c6557600080fd5b505173ffffffffffffffffffffffffffffffffffffffff1614610c8757600080fd5b604080518082018252848152602080820185815260008881526001835284902092516003840155516004909201919091558151858152908101849052815186927f1d6f5e03d3f63eb58751986629a5439baee5079ff04f345becb66e23eb154e46928290030190a250505050565b6000908152600160208190526040909120015490565b60009081526001602052604090205473ffffffffffffffffffffffffffffffffffffffff1690565b600082815260016020908152604091829020915183516060936005019285929182918401908083835b60208310610d9957805182527fffffffffffffffffffffffffffffffffffffffffffffffffffffffffffffffe09092019160209182019101610d5c565b5181517fffffffffffffffffffffffffffffffffffffffffffffffffffffffffffffffff602094850361010090810a820192831692199390931691909117909252949092019687526040805197889003820188208054601f6002600183161590980290950116959095049283018290048202880182019052818752929450925050830182828015610e6b5780601f10610e4057610100808354040283529160200191610e6b565b820191906000526020600020905b815481529060010190602001808311610e4e57829003601f168201915b5050505050905092915050565b60008054604080517f02571be30000000000000000000000000000000000000000000000000000000081526004810187905290518693339373ffffffffffffffffffffffffffffffffffffffff16926302571be39260248083019360209383900390910190829087803b158015610eee57600080fd5b505af1158015610f02573d6000803e3d6000fd5b505050506040513d6020811015610f1857600080fd5b505173ffffffffffffffffffffffffffffffffffffffff1614610f3a57600080fd5b7fffffffffffffffffffffffffffffffffffffffffffffffffffffffffffffffff8301831615610f6957600080fd5b600084815260016020908152604080832086845260060182529091208351610f939285019061165c565b50604051839085907faa121bbeef5f32f5961a2a28966e769023910fc9479059ee3495d4c1a696efe390600090a350505050565b6000818152600160208181526040928390206002908101805485517fffffffffffffffffffffffffffffffffffffffffffffffffffffffffffffffff9582161561010002959095011691909104601f8101839004830284018301909452838352606093909183018282801561107d5780601f106110525761010080835404028352916020019161107d565b820191906000526020600020905b81548152906001019060200180831161106057829003601f168201915b50505050509050919050565b60008054604080517f02571be30000000000000000000000000000000000000000000000000000000081526004810186905290518593339373ffffffffffffffffffffffffffffffffffffffff16926302571be39260248083019360209383900390910190829087803b1580156110ff57600080fd5b505af1158015611113573d6000803e3d6000fd5b505050506040513d602081101561112957600080fd5b505173ffffffffffffffffffffffffffffffffffffffff161461114b57600080fd5b600083815260016020908152604090912083516111709260029092019185019061165c565b50604080516020808252845181830152845186937fb7d29e911041e8d9b843369e890bcb72c9388692ba48b65ac54e7214c4c348f79387939092839283019185019080838360005b838110156111d05781810151838201526020016111b8565b50505050905090810190601f1680156111fd5780820380516001836020036101000a031916815260200191505b509250505060405180910390a2505050565b60008054604080517f02571be30000000000000000000000000000000000000000000000000000000081526004810186905290518593339373ffffffffffffffffffffffffffffffffffffffff16926302571be39260248083019360209383900390910190829087803b15801561128557600080fd5b505af1158015611299573d6000803e3d6000fd5b505050506040513d60208110156112af57600080fd5b505173ffffffffffffffffffffffffffffffffffffffff16146112d157600080fd5b600083815260016020908152604090912083516112f69260079092019185019061165c565b50604080516020808252845181830152845186937fc0b0fc07269fc2749adada3221c095a1d2187b2d075b51c915857b520f3a5021938793909283928301918501908083836000838110156111d05781810151838201526020016111b8565b60008054604080517f02571be30000000000000000000000000000000000000000000000000000000081526004810186905290518593339373ffffffffffffffffffffffffffffffffffffffff16926302571be39260248083019360209383900390910190829087803b1580156113cb57600080fd5b505af11580156113df573d6000803e3d6000fd5b505050506040513d60208110156113f557600080fd5b505173ffffffffffffffffffffffffffffffffffffffff161461141757600080fd5b6000838152600160208181526040928390209091018490558151848152915185927f0424b6fe0d9c3bdbece0e7879dc241bb0c22e900be8b6c168b4ee08bd9bf83bc92908290030190a2505050565b600090815260016020526040902060038101546004909101549091565b60008054604080517f02571be30000000000000000000000000000000000000000000000000000000081526004810186905290518593339373ffffffffffffffffffffffffffffffffffffffff16926302571be39260248083019360209383900390910190829087803b1580156114f957600080fd5b505af115801561150d573d6000803e3d6000fd5b505050506040513d602081101561152357600080fd5b505173ffffffffffffffffffffffffffffffffffffffff161461154557600080fd5b60008381526001602090815260409182902080547fffffffffffffffffffffffff00000000000000000000000000000000000000001673ffffffffffffffffffffffffffffffffffffffff86169081179091558251908152915185927f52d7d861f09ab3d26239d492e8968629f95e9e318cf0b73bfddc441522a15fd292908290030190a2505050565b6000818152600160208181526040928390206007018054845160027fffffffffffffffffffffffffffffffffffffffffffffffffffffffffffffffff95831615610100029590950190911693909304601f8101839004830284018301909452838352606093909183018282801561107d5780601f106110525761010080835404028352916020019161107d565b828054600181600116156101000203166002900490600052602060002090601f016020900481019282601f1061169d57805160ff19168380011785556116ca565b828001600101855582156116ca579182015b828111156116ca5782518255916020019190600101906116af565b506116d69291506116da565b5090565b6116f491905b808211156116d657600081556001016116e0565b905600a165627a7a7230582014368e3367dbd84da66962a393a8dbc8db06be35d6a9b0e7c755b0d844d9ed1d0029",
  "linkReferences": {},
  "deployedLinkReferences": {}
}