{
  "_format": "hh-sol-artifact-1",
  "contractName": "ChainlinkClientTestHelper",
  "sourceName": "src/v0.7/tests/ChainlinkClientTestHelper.sol",
  "abi": [
    {
      "inputs": [
        {
          "internalType": "address",
          "name": "_link",
          "type": "address"
        },
        {
          "internalType": "address",
          "name": "_oracle",
          "type": "address"
        }
      ],
      "stateMutability": "nonpayable",
      "type": "constructor"
    },
    {
      "anonymous": false,
      "inputs": [
        {
          "indexed": true,
          "internalType": "bytes32",
          "name": "id",
          "type": "bytes32"
        }
      ],
      "name": "ChainlinkCancelled",
      "type": "event"
    },
    {
      "anonymous": false,
      "inputs": [
        {
          "indexed": true,
          "internalType": "bytes32",
          "name": "id",
          "type": "bytes32"
        }
      ],
      "name": "ChainlinkFulfilled",
      "type": "event"
    },
    {
      "anonymous": false,
      "inputs": [
        {
          "indexed": true,
          "internalType": "bytes32",
          "name": "id",
          "type": "bytes32"
        }
      ],
      "name": "ChainlinkRequested",
      "type": "event"
    },
    {
      "anonymous": false,
      "inputs": [
        {
          "indexed": false,
          "internalType": "uint256",
          "name": "amount",
          "type": "uint256"
        }
      ],
      "name": "LinkAmount",
      "type": "event"
    },
    {
      "anonymous": false,
      "inputs": [
        {
          "indexed": false,
          "internalType": "bytes32",
          "name": "id",
          "type": "bytes32"
        },
        {
          "indexed": false,
          "internalType": "address",
          "name": "callbackAddress",
          "type": "address"
        },
        {
          "indexed": false,
          "internalType": "bytes4",
          "name": "callbackfunctionSelector",
          "type": "bytes4"
        },
        {
          "indexed": false,
          "internalType": "bytes",
          "name": "data",
          "type": "bytes"
        }
      ],
      "name": "Request",
      "type": "event"
    },
    {
      "inputs": [
        {
          "internalType": "bytes32",
          "name": "_requestId",
          "type": "bytes32"
        },
        {
          "internalType": "bytes32",
          "name": "",
          "type": "bytes32"
        }
      ],
      "name": "fulfillRequest",
      "outputs": [],
      "stateMutability": "nonpayable",
      "type": "function"
    },
    {
      "inputs": [
        {
          "internalType": "address",
          "name": "_oracle",
          "type": "address"
        },
        {
          "internalType": "bytes32",
          "name": "_requestId",
          "type": "bytes32"
        }
      ],
      "name": "publicAddExternalRequest",
      "outputs": [],
      "stateMutability": "nonpayable",
      "type": "function"
    },
    {
      "inputs": [
        {
          "internalType": "bytes32",
          "name": "_requestId",
          "type": "bytes32"
        },
        {
          "internalType": "uint256",
          "name": "_payment",
          "type": "uint256"
        },
        {
          "internalType": "bytes4",
          "name": "_callbackFunctionId",
          "type": "bytes4"
        },
        {
          "internalType": "uint256",
          "name": "_expiration",
          "type": "uint256"
        }
      ],
      "name": "publicCancelRequest",
      "outputs": [],
      "stateMutability": "nonpayable",
      "type": "function"
    },
    {
      "inputs": [],
      "name": "publicChainlinkToken",
      "outputs": [
        {
          "internalType": "address",
          "name": "",
          "type": "address"
        }
      ],
      "stateMutability": "view",
      "type": "function"
    },
    {
      "inputs": [
        {
          "internalType": "bytes32",
          "name": "_requestId",
          "type": "bytes32"
        },
        {
          "internalType": "bytes32",
          "name": "",
          "type": "bytes32"
        }
      ],
      "name": "publicFulfillChainlinkRequest",
      "outputs": [],
      "stateMutability": "nonpayable",
      "type": "function"
    },
    {
      "inputs": [
        {
          "internalType": "uint256",
          "name": "_amount",
          "type": "uint256"
        }
      ],
      "name": "publicLINK",
      "outputs": [],
      "stateMutability": "nonpayable",
      "type": "function"
    },
    {
      "inputs": [
        {
          "internalType": "bytes32",
          "name": "_id",
          "type": "bytes32"
        },
        {
          "internalType": "address",
          "name": "_address",
          "type": "address"
        },
        {
          "internalType": "bytes",
          "name": "_fulfillmentSignature",
          "type": "bytes"
        }
      ],
      "name": "publicNewRequest",
      "outputs": [],
      "stateMutability": "nonpayable",
      "type": "function"
    },
    {
      "inputs": [],
      "name": "publicOracleAddress",
      "outputs": [
        {
          "internalType": "address",
          "name": "",
          "type": "address"
        }
      ],
      "stateMutability": "view",
      "type": "function"
    },
    {
      "inputs": [
        {
          "internalType": "bytes32",
          "name": "_id",
          "type": "bytes32"
        },
        {
          "internalType": "address",
          "name": "_address",
          "type": "address"
        },
        {
          "internalType": "bytes",
          "name": "_fulfillmentSignature",
          "type": "bytes"
        },
        {
          "internalType": "uint256",
          "name": "_wei",
          "type": "uint256"
        }
      ],
      "name": "publicRequest",
      "outputs": [],
      "stateMutability": "nonpayable",
      "type": "function"
    },
    {
      "inputs": [
        {
          "internalType": "bytes32",
          "name": "_id",
          "type": "bytes32"
        },
        {
          "internalType": "address",
          "name": "_address",
          "type": "address"
        },
        {
          "internalType": "bytes",
          "name": "_fulfillmentSignature",
          "type": "bytes"
        },
        {
          "internalType": "uint256",
          "name": "_wei",
          "type": "uint256"
        }
      ],
      "name": "publicRequestOracleData",
      "outputs": [],
      "stateMutability": "nonpayable",
      "type": "function"
    },
    {
      "inputs": [
        {
          "internalType": "address",
          "name": "_oracle",
          "type": "address"
        },
        {
          "internalType": "bytes32",
          "name": "_id",
          "type": "bytes32"
        },
        {
          "internalType": "address",
          "name": "_address",
          "type": "address"
        },
        {
          "internalType": "bytes",
          "name": "_fulfillmentSignature",
          "type": "bytes"
        },
        {
          "internalType": "uint256",
          "name": "_wei",
          "type": "uint256"
        }
      ],
      "name": "publicRequestOracleDataFrom",
      "outputs": [],
      "stateMutability": "nonpayable",
      "type": "function"
    },
    {
      "inputs": [
        {
          "internalType": "address",
          "name": "_oracle",
          "type": "address"
        },
        {
          "internalType": "bytes32",
          "name": "_id",
          "type": "bytes32"
        },
        {
          "internalType": "address",
          "name": "_address",
          "type": "address"
        },
        {
          "internalType": "bytes",
          "name": "_fulfillmentSignature",
          "type": "bytes"
        },
        {
          "internalType": "uint256",
          "name": "_wei",
          "type": "uint256"
        }
      ],
      "name": "publicRequestRunTo",
      "outputs": [],
      "stateMutability": "nonpayable",
      "type": "function"
    }
  ],
  "bytecode": "0x6080604052600160045534801561001557600080fd5b506040516112943803806112948339818101604052604081101561003857600080fd5b50805160209091015161004a8261005a565b6100538161007c565b505061009e565b600280546001600160a01b0319166001600160a01b0392909216919091179055565b600380546001600160a01b0319166001600160a01b0392909216919091179055565b6111e7806100ad6000396000f3fe608060405234801561001057600080fd5b50600436106100d45760003560e01c8063898d49aa11610081578063ad7e401c1161005b578063ad7e401c14610512578063d9a2671614610535578063f7ea03ff146105fd576100d4565b8063898d49aa1461034357806398bb2b2d1461040d578063a1179a271461043e576100d4565b80635d64e310116100b25780635d64e3101461018257806366a4f350146101a55780636aab346d1461026f576100d4565b80633f14df82146100d9578063448d6c10146100f85780635491ec6a14610149575b600080fd5b6100f6600480360360208110156100ef57600080fd5b5035610605565b005b6100f66004803603608081101561010e57600080fd5b508035906020810135907fffffffff00000000000000000000000000000000000000000000000000000000604082013516906060013561064c565b6100f66004803603604081101561015f57600080fd5b5073ffffffffffffffffffffffffffffffffffffffff813516906020013561065e565b6100f66004803603604081101561019857600080fd5b508035906020013561066c565b6100f6600480360360808110156101bb57600080fd5b81359173ffffffffffffffffffffffffffffffffffffffff602082013516918101906060810160408201356401000000008111156101f857600080fd5b82018360208201111561020a57600080fd5b8035906020019184600183028401116401000000008311171561022c57600080fd5b91908080601f0160208091040260200160405190810160405280939291908181526020018383808284376000920191909152509295505091359250610675915050565b6100f6600480360360a081101561028557600080fd5b73ffffffffffffffffffffffffffffffffffffffff82358116926020810135926040820135909216918101906080810160608201356401000000008111156102cc57600080fd5b8201836020820111156102de57600080fd5b8035906020019184600183028401116401000000008311171561030057600080fd5b91908080601f016020809104026020016040519081016040528093929190818152602001838380828437600092019190915250929550509135925061069d915050565b6100f66004803603608081101561035957600080fd5b81359173ffffffffffffffffffffffffffffffffffffffff6020820135169181019060608101604082013564010000000081111561039657600080fd5b8201836020820111156103a857600080fd5b803590602001918460018302840111640100000000831117156103ca57600080fd5b91908080601f01602080910402602001604051908101604052809392919081815260200183838082843760009201919091525092955050913592506106c7915050565b6104156106e7565b6040805173ffffffffffffffffffffffffffffffffffffffff9092168252519081900360200190f35b6100f6600480360360a081101561045457600080fd5b73ffffffffffffffffffffffffffffffffffffffff823581169260208101359260408201359092169181019060808101606082013564010000000081111561049b57600080fd5b8201836020820111156104ad57600080fd5b803590602001918460018302840111640100000000831117156104cf57600080fd5b91908080601f01602080910402602001604051908101604052809392919081815260200183838082843760009201919091525092955050913592506106f6915050565b6100f66004803603604081101561052857600080fd5b5080359060200135610717565b6100f66004803603606081101561054b57600080fd5b81359173ffffffffffffffffffffffffffffffffffffffff6020820135169181019060608101604082013564010000000081111561058857600080fd5b82018360208201111561059a57600080fd5b803590602001918460018302840111640100000000831117156105bc57600080fd5b91908080601f016020809104026020016040519081016040528093929190818152602001838380828437600092019190915250929550610722945050505050565b610415610838565b7f81c82a6ea1ed1cf28a5376c6d13caab9047c853ec5107907ec9431c50ec1a85c610638670de0b6b3a764000083610842565b60408051918252519081900360200190a150565b610658848484846108be565b50505050565b61066882826109f9565b5050565b61066882610ae0565b600061068985858580519060200120610bbd565b90506106958183610be2565b505050505050565b60006106b185858580519060200120610bbd565b90506106be868284610c09565b50505050505050565b60006106db85858580519060200120610bbd565b90506106958183610c41565b60006106f1610c68565b905090565b600061070a85858580519060200120610bbd565b90506106be868284610c84565b61066882600061066c565b600061073684848480519060200120610bbd565b90507f6ae3654efc50e419eaebe21a0569020545587e83c4409cfb1d3a4217cbed8a21816000015182602001518360400151846080015160000151604051808581526020018473ffffffffffffffffffffffffffffffffffffffff168152602001837bffffffffffffffffffffffffffffffffffffffffffffffffffffffff1916815260200180602001828103825283818151815260200191508051906020019080838360005b838110156107f55781810151838201526020016107dd565b50505050905090810190601f1680156108225780820380516001836020036101000a031916815260200191505b509550505050505060405180910390a150505050565b60006106f1610cb4565b600082610851575060006108b8565b8282028284828161085e57fe5b04146108b5576040517f08c379a00000000000000000000000000000000000000000000000000000000081526004018080602001828103825260218152602001806111926021913960400191505060405180910390fd5b90505b92915050565b60008481526005602052604080822080547fffffffffffffffffffffffff00000000000000000000000000000000000000008116909155905173ffffffffffffffffffffffffffffffffffffffff9091169186917fe1fe3afa0f7f761ff0a8b89086790efd5140d2907ebd5b7ff6bfcb5e075fd4c59190a2604080517f6ee4d55300000000000000000000000000000000000000000000000000000000815260048101879052602481018690527fffffffff000000000000000000000000000000000000000000000000000000008516604482015260648101849052905173ffffffffffffffffffffffffffffffffffffffff831691636ee4d55391608480830192600092919082900301818387803b1580156109da57600080fd5b505af11580156109ee573d6000803e3d6000fd5b505050505050505050565b600081815260056020526040902054819073ffffffffffffffffffffffffffffffffffffffff1615610a8c57604080517f08c379a000000000000000000000000000000000000000000000000000000000815260206004820152601a60248201527f5265717565737420697320616c72656164792070656e64696e67000000000000604482015290519081900360640190fd5b50600090815260056020526040902080547fffffffffffffffffffffffff00000000000000000000000000000000000000001673ffffffffffffffffffffffffffffffffffffffff92909216919091179055565b600081815260056020526040902054819073ffffffffffffffffffffffffffffffffffffffff163314610b5e576040517f08c379a00000000000000000000000000000000000000000000000000000000081526004018080602001828103825260288152602001806111b36028913960400191505060405180910390fd5b60008181526005602052604080822080547fffffffffffffffffffffffff00000000000000000000000000000000000000001690555182917f7cc135e0cebb02c3480ae5d74d377283180a2601f8f644edf7987b009316c63a91a25050565b610bc561111f565b610bcd61111f565b610bd981868686610cd0565b95945050505050565b6003546000906108b59073ffffffffffffffffffffffffffffffffffffffff168484610c84565b6000610c3984848460027f6de879d600000000000000000000000000000000000000000000000000000000610d32565b949350505050565b6003546000906108b59073ffffffffffffffffffffffffffffffffffffffff168484610c09565b60025473ffffffffffffffffffffffffffffffffffffffff1690565b6000610c3984848460017f4042994600000000000000000000000000000000000000000000000000000000610d32565b60035473ffffffffffffffffffffffffffffffffffffffff1690565b610cd861111f565b610ce885608001516101006110e5565b505091835273ffffffffffffffffffffffffffffffffffffffff1660208301527fffffffff0000000000000000000000000000000000000000000000000000000016604082015290565b6004546040805130606090811b60208084019190915260348084018690528451808503909101815260549093018452825192810192909220908801939093526000838152600590915281812080547fffffffffffffffffffffffff00000000000000000000000000000000000000001673ffffffffffffffffffffffffffffffffffffffff8a16179055905182917fb5e6e01e79f91267dc17b4e6314d5d4d03593d2ceee0fbb452b750bd70ea5af991a2600082600080886000015189602001518a604001518b606001518a8d6080015160000151604051602401808973ffffffffffffffffffffffffffffffffffffffff1681526020018881526020018781526020018673ffffffffffffffffffffffffffffffffffffffff168152602001857bffffffffffffffffffffffffffffffffffffffffffffffffffffffff1916815260200184815260200183815260200180602001828103825283818151815260200191508051906020019080838360005b83811015610ebc578181015183820152602001610ea4565b50505050905090810190601f168015610ee95780820380516001836020036101000a031916815260200191505b509950505050505050505050604051602081830303815290604052907bffffffffffffffffffffffffffffffffffffffffffffffffffffffff19166020820180517bffffffffffffffffffffffffffffffffffffffffffffffffffffffff83818316178352505050509050600260009054906101000a900473ffffffffffffffffffffffffffffffffffffffff1673ffffffffffffffffffffffffffffffffffffffff16634000aea08887846040518463ffffffff1660e01b8152600401808473ffffffffffffffffffffffffffffffffffffffff16815260200183815260200180602001828103825283818151815260200191508051906020019080838360005b83811015611003578181015183820152602001610feb565b50505050905090810190601f1680156110305780820380516001836020036101000a031916815260200191505b50945050505050602060405180830381600087803b15801561105157600080fd5b505af1158015611065573d6000803e3d6000fd5b505050506040513d602081101561107b57600080fd5b50516110d2576040517f08c379a000000000000000000000000000000000000000000000000000000000815260040180806020018281038252602381526020018061116f6023913960400191505060405180910390fd5b5060048054600101905595945050505050565b6110ed611154565b60208206156111025760208206602003820191505b506020828101829052604080518085526000815290920101905290565b6040805160a08101825260008082526020820181905291810182905260608101919091526080810161114f611154565b905290565b60405180604001604052806060815260200160008152509056fe756e61626c6520746f207472616e73666572416e6443616c6c20746f206f7261636c65536166654d6174683a206d756c7469706c69636174696f6e206f766572666c6f77536f75726365206d75737420626520746865206f7261636c65206f66207468652072657175657374a164736f6c6343000706000a",
  "linkReferences": {},
  "deployedLinkReferences": {}
}