{
  "_format": "hh-sol-artifact-1",
  "contractName": "FlagsTestHelper",
  "sourceName": "src/v0.8/tests/FlagsTestHelper.sol",
  "abi": [
    {
      "inputs": [
        {
          "internalType": "address",
          "name": "flagsContract",
          "type": "address"
        }
      ],
      "stateMutability": "nonpayable",
      "type": "constructor"
    },
    {
      "inputs": [],
      "name": "flags",
      "outputs": [
        {
          "internalType": "contract Flags",
          "name": "",
          "type": "address"
        }
      ],
      "stateMutability": "view",
      "type": "function"
    },
    {
      "inputs": [
        {
          "internalType": "address",
          "name": "subject",
          "type": "address"
        }
      ],
      "name": "getFlag",
      "outputs": [
        {
          "internalType": "bool",
          "name": "",
          "type": "bool"
        }
      ],
      "stateMutability": "view",
      "type": "function"
    },
    {
      "inputs": [
        {
          "internalType": "address[]",
          "name": "subjects",
          "type": "address[]"
        }
      ],
      "name": "getFlags",
      "outputs": [
        {
          "internalType": "bool[]",
          "name": "",
          "type": "bool[]"
        }
      ],
      "stateMutability": "view",
      "type": "function"
    }
  ],
  "bytecode": "0x608060405234801561001057600080fd5b5060405161058b38038061058b83398101604081905261002f91610054565b600080546001600160a01b0319166001600160a01b0392909216919091179055610084565b60006020828403121561006657600080fd5b81516001600160a01b038116811461007d57600080fd5b9392505050565b6104f8806100936000396000f3fe608060405234801561001057600080fd5b50600436106100415760003560e01c8063357e47fe1461004657806364cc4aa51461006e5780637d723cac146100b3575b600080fd5b610059610054366004610288565b6100d3565b60405190151581526020015b60405180910390f35b60005461008e9073ffffffffffffffffffffffffffffffffffffffff1681565b60405173ffffffffffffffffffffffffffffffffffffffff9091168152602001610065565b6100c66100c13660046102a3565b61017d565b6040516100659190610476565b600080546040517f357e47fe00000000000000000000000000000000000000000000000000000000815273ffffffffffffffffffffffffffffffffffffffff84811660048301529091169063357e47fe9060240160206040518083038186803b15801561013f57600080fd5b505afa158015610153573d6000803e3d6000fd5b505050506040513d601f19601f820116820180604052508101906101779190610402565b92915050565b6000546040517f7d723cac00000000000000000000000000000000000000000000000000000000815260609173ffffffffffffffffffffffffffffffffffffffff1690637d723cac906101d6908690869060040161041d565b60006040518083038186803b1580156101ee57600080fd5b505afa158015610202573d6000803e3d6000fd5b505050506040513d6000823e601f3d9081017fffffffffffffffffffffffffffffffffffffffffffffffffffffffffffffffe01682016040526102489190810190610318565b9392505050565b803573ffffffffffffffffffffffffffffffffffffffff8116811461027357600080fd5b919050565b8051801515811461027357600080fd5b60006020828403121561029a57600080fd5b6102488261024f565b600080602083850312156102b657600080fd5b823567ffffffffffffffff808211156102ce57600080fd5b818501915085601f8301126102e257600080fd5b8135818111156102f157600080fd5b8660208260051b850101111561030657600080fd5b60209290920196919550909350505050565b6000602080838503121561032b57600080fd5b825167ffffffffffffffff8082111561034357600080fd5b818501915085601f83011261035757600080fd5b815181811115610369576103696104bc565b8060051b6040517fffffffffffffffffffffffffffffffffffffffffffffffffffffffffffffffe0603f830116810181811085821117156103ac576103ac6104bc565b604052828152858101935084860182860187018a10156103cb57600080fd5b600095505b838610156103f5576103e181610278565b8552600195909501949386019386016103d0565b5098975050505050505050565b60006020828403121561041457600080fd5b61024882610278565b60208082528181018390526000908460408401835b8681101561046b5773ffffffffffffffffffffffffffffffffffffffff6104588461024f565b1682529183019190830190600101610432565b509695505050505050565b6020808252825182820181905260009190848201906040850190845b818110156104b0578351151583529284019291840191600101610492565b50909695505050505050565b7f4e487b7100000000000000000000000000000000000000000000000000000000600052604160045260246000fdfea164736f6c6343000806000a",
  "linkReferences": {},
  "deployedLinkReferences": {}
}