{
  "contractName": "Consumer",
  "abi": [
    {
      "constant": true,
      "inputs": [],
      "name": "currentPrice",
      "outputs": [
        {
          "name": "",
          "type": "bytes32"
        }
      ],
      "payable": false,
      "stateMutability": "view",
      "type": "function"
    },
    {
      "anonymous": false,
      "inputs": [
        {
          "indexed": true,
          "name": "requestId",
          "type": "bytes32"
        },
        {
          "indexed": true,
          "name": "price",
          "type": "bytes32"
        }
      ],
      "name": "RequestFulfilled",
      "type": "event"
    },
    {
      "anonymous": false,
      "inputs": [
        {
          "indexed": true,
          "name": "id",
          "type": "bytes32"
        }
      ],
      "name": "ChainlinkRequested",
      "type": "event"
    },
    {
      "anonymous": false,
      "inputs": [
        {
          "indexed": true,
          "name": "id",
          "type": "bytes32"
        }
      ],
      "name": "ChainlinkFulfilled",
      "type": "event"
    },
    {
      "anonymous": false,
      "inputs": [
        {
          "indexed": true,
          "name": "id",
          "type": "bytes32"
        }
      ],
      "name": "ChainlinkCancelled",
      "type": "event"
    },
    {
      "constant": false,
      "inputs": [
        {
          "name": "_currency",
          "type": "string"
        }
      ],
      "name": "requestEthereumPrice",
      "outputs": [],
      "payable": false,
      "stateMutability": "nonpayable",
      "type": "function"
    },
    {
      "constant": false,
      "inputs": [
        {
          "name": "_requestId",
          "type": "bytes32"
        },
        {
          "name": "_payment",
          "type": "uint256"
        },
        {
          "name": "_callbackFunctionId",
          "type": "bytes4"
        },
        {
          "name": "_expiration",
          "type": "uint256"
        }
      ],
      "name": "cancelRequest",
      "outputs": [],
      "payable": false,
      "stateMutability": "nonpayable",
      "type": "function"
    },
    {
      "constant": false,
      "inputs": [],
      "name": "withdrawLink",
      "outputs": [],
      "payable": false,
      "stateMutability": "nonpayable",
      "type": "function"
    },
    {
      "constant": false,
      "inputs": [
        {
          "name": "_requestId",
          "type": "bytes32"
        },
        {
          "name": "_price",
          "type": "bytes32"
        }
      ],
      "name": "fulfill",
      "outputs": [],
      "payable": false,
      "stateMutability": "nonpayable",
      "type": "function"
    }
  ],
  "bytecode": "0x6080604052600160045534801561001557600080fd5b50611560806100256000396000f30060806040526004361061006d576000357c0100000000000000000000000000000000000000000000000000000000900463ffffffff168063042f2b65146100725780636c0cae68146100b15780638dc654a21461011a5780639d1b464a14610131578063ec65d0f814610164575b600080fd5b34801561007e57600080fd5b506100af600480360381019080803560001916906020019092919080356000191690602001909291905050506101d2565b005b3480156100bd57600080fd5b50610118600480360381019080803590602001908201803590602001908080601f016020809104026020016040519081016040528093929190818152602001838380828437820191505050505050919291929050505061038c565b005b34801561012657600080fd5b5061012f61054e565b005b34801561013d57600080fd5b50610146610784565b60405180826000191660001916815260200191505060405180910390f35b34801561017057600080fd5b506101d060048036038101908080356000191690602001909291908035906020019092919080357bffffffffffffffffffffffffffffffffffffffffffffffffffffffff191690602001909291908035906020019092919050505061078a565b005b8160056000826000191660001916815260200190815260200160002060009054906101000a900473ffffffffffffffffffffffffffffffffffffffff1673ffffffffffffffffffffffffffffffffffffffff163373ffffffffffffffffffffffffffffffffffffffff161415156102d7576040517f08c379a00000000000000000000000000000000000000000000000000000000081526004018080602001828103825260288152602001807f536f75726365206d75737420626520746865206f7261636c65206f662074686581526020017f207265717565737400000000000000000000000000000000000000000000000081525060400191505060405180910390fd5b60056000826000191660001916815260200190815260200160002060006101000a81549073ffffffffffffffffffffffffffffffffffffffff021916905580600019167f7cc135e0cebb02c3480ae5d74d377283180a2601f8f644edf7987b009316c63a60405160405180910390a2816000191683600019167f0c2366233f634048c0f0458060d1228fab36d00f7c0ecf6bdf2d9c458503631160405160405180910390a38160078160001916905550505050565b610394611492565b60606103c66006543063042f2b657c01000000000000000000000000000000000000000000000000000000000261079c565b91506104946040805190810160405280600381526020017f75726c0000000000000000000000000000000000000000000000000000000000815250608060405190810160405280604781526020017f68747470733a2f2f6d696e2d6170692e63727970746f636f6d706172652e636f81526020017f6d2f646174612f70726963653f6673796d3d455448267473796d733d5553442c81526020017f4555522c4a505900000000000000000000000000000000000000000000000000815250846107cd9092919063ffffffff16565b60016040519080825280602002602001820160405280156104c957816020015b60608152602001906001900390816104b45790505b509050828160008151811015156104dc57fe5b906020019060200201819052506105336040805190810160405280600481526020017f706174680000000000000000000000000000000000000000000000000000000081525082846108009092919063ffffffff16565b61054882670de0b6b3a7640000600102610882565b50505050565b60006105586108b9565b90508073ffffffffffffffffffffffffffffffffffffffff1663a9059cbb338373ffffffffffffffffffffffffffffffffffffffff166370a08231306040518263ffffffff167c0100000000000000000000000000000000000000000000000000000000028152600401808273ffffffffffffffffffffffffffffffffffffffff1673ffffffffffffffffffffffffffffffffffffffff168152602001915050602060405180830381600087803b15801561061257600080fd5b505af1158015610626573d6000803e3d6000fd5b505050506040513d602081101561063c57600080fd5b81019080805190602001909291905050506040518363ffffffff167c0100000000000000000000000000000000000000000000000000000000028152600401808373ffffffffffffffffffffffffffffffffffffffff1673ffffffffffffffffffffffffffffffffffffffff16815260200182815260200192505050602060405180830381600087803b1580156106d257600080fd5b505af11580156106e6573d6000803e3d6000fd5b505050506040513d60208110156106fc57600080fd5b81019080805190602001909291905050501515610781576040517f08c379a00000000000000000000000000000000000000000000000000000000081526004018080602001828103825260128152602001807f556e61626c6520746f207472616e73666572000000000000000000000000000081525060200191505060405180910390fd5b50565b60075481565b610796848484846108e3565b50505050565b6107a4611492565b6107ac611492565b6107c385858584610a7e909392919063ffffffff16565b9150509392505050565b6107e4828460800151610b3790919063ffffffff16565b6107fb818460800151610b3790919063ffffffff16565b505050565b6000610819838560800151610b3790919063ffffffff16565b6108268460800151610b5c565b600090505b815181101561086f57610862828281518110151561084557fe5b906020019060200201518560800151610b3790919063ffffffff16565b808060010191505061082b565b61087c8460800151610b6a565b50505050565b60006108b1600360009054906101000a900473ffffffffffffffffffffffffffffffffffffffff168484610b78565b905092915050565b6000600260009054906101000a900473ffffffffffffffffffffffffffffffffffffffff16905090565b600060056000866000191660001916815260200190815260200160002060009054906101000a900473ffffffffffffffffffffffffffffffffffffffff16905060056000866000191660001916815260200190815260200160002060006101000a81549073ffffffffffffffffffffffffffffffffffffffff021916905584600019167fe1fe3afa0f7f761ff0a8b89086790efd5140d2907ebd5b7ff6bfcb5e075fd4c560405160405180910390a28073ffffffffffffffffffffffffffffffffffffffff16638a20130b868686866040518563ffffffff167c0100000000000000000000000000000000000000000000000000000000028152600401808560001916600019168152602001848152602001837bffffffffffffffffffffffffffffffffffffffffffffffffffffffff19167bffffffffffffffffffffffffffffffffffffffffffffffffffffffff19168152602001828152602001945050505050600060405180830381600087803b158015610a5f57600080fd5b505af1158015610a73573d6000803e3d6000fd5b505050505050505050565b610a86611492565b610a968560800151610100610f04565b838560000190600019169081600019168152505082856020019073ffffffffffffffffffffffffffffffffffffffff16908173ffffffffffffffffffffffffffffffffffffffff16815250508185604001907bffffffffffffffffffffffffffffffffffffffffffffffffffffffff191690817bffffffffffffffffffffffffffffffffffffffffffffffffffffffff191681525050849050949350505050565b610b448260038351610f58565b610b5781836110b190919063ffffffff16565b505050565b610b6781600461115d565b50565b610b7581600761115d565b50565b600030600454604051602001808373ffffffffffffffffffffffffffffffffffffffff1673ffffffffffffffffffffffffffffffffffffffff166c01000000000000000000000000028152601401828152602001925050506040516020818303038152906040526040518082805190602001908083835b602083101515610c145780518252602082019150602081019050602083039250610bef565b6001836020036101000a038019825116818451168082178552505050505050905001915050604051809103902090506004548360600181815250508360056000836000191660001916815260200190815260200160002060006101000a81548173ffffffffffffffffffffffffffffffffffffffff021916908373ffffffffffffffffffffffffffffffffffffffff16021790555080600019167fb5e6e01e79f91267dc17b4e6314d5d4d03593d2ceee0fbb452b750bd70ea5af960405160405180910390a2600260009054906101000a900473ffffffffffffffffffffffffffffffffffffffff1673ffffffffffffffffffffffffffffffffffffffff16634000aea08584610d2387611181565b6040518463ffffffff167c0100000000000000000000000000000000000000000000000000000000028152600401808473ffffffffffffffffffffffffffffffffffffffff1673ffffffffffffffffffffffffffffffffffffffff16815260200183815260200180602001828103825283818151815260200191508051906020019080838360005b83811015610dc6578082015181840152602081019050610dab565b50505050905090810190601f168015610df35780820380516001836020036101000a031916815260200191505b50945050505050602060405180830381600087803b158015610e1457600080fd5b505af1158015610e28573d6000803e3d6000fd5b505050506040513d6020811015610e3e57600080fd5b81019080805190602001909291905050501515610ee9576040517f08c379a00000000000000000000000000000000000000000000000000000000081526004018080602001828103825260238152602001807f756e61626c6520746f207472616e73666572416e6443616c6c20746f206f726181526020017f636c65000000000000000000000000000000000000000000000000000000000081525060400191505060405180910390fd5b60016004600082825401925050819055508090509392505050565b6000610f3660207fffffffffffffffffffffffffffffffffffffffffffffffffffffffffffffffe0601f8501166113ac565b9050808360200181815250506040518084526000815281810160405250505050565b601781111515610f8957610f848160058460ff169060020a0260ff1617846113c890919063ffffffff16565b6110ac565b60ff81111515610fcf57610fb3601860058460ff169060020a0217846113c890919063ffffffff16565b610fc9816001856114089092919063ffffffff16565b506110ab565b61ffff8111151561101657610ffa601960058460ff169060020a0217846113c890919063ffffffff16565b611010816002856114089092919063ffffffff16565b506110aa565b63ffffffff8111151561105f57611043601a60058460ff169060020a0217846113c890919063ffffffff16565b611059816004856114089092919063ffffffff16565b506110a9565b67ffffffffffffffff811115156110a857611090601b60058460ff169060020a0217846113c890919063ffffffff16565b6110a6816008856114089092919063ffffffff16565b505b5b5b5b5b505050565b6110b9611500565b600080600080866020015187600001515187510111156110ef576110ee8760026110e88a602001518a516113ac565b0261146f565b5b8551915086518051602081830101955087518101825260208801945050505b602082101515611133578251845260208401935060208301925060208203915061110e565b6001826020036101000a039050801983511681855116818117865250508694505050505092915050565b61117d601f60058360ff169060020a0217836113c890919063ffffffff16565b5050565b6060600360009054906101000a900473ffffffffffffffffffffffffffffffffffffffff1673ffffffffffffffffffffffffffffffffffffffff1663c3d2026f90507c01000000000000000000000000000000000000000000000000000000000260008060018560000151866020015187604001518860600151896080015160000151604051602401808973ffffffffffffffffffffffffffffffffffffffff1673ffffffffffffffffffffffffffffffffffffffff16815260200188815260200187815260200186600019166000191681526020018573ffffffffffffffffffffffffffffffffffffffff1673ffffffffffffffffffffffffffffffffffffffff168152602001847bffffffffffffffffffffffffffffffffffffffffffffffffffffffff19167bffffffffffffffffffffffffffffffffffffffffffffffffffffffff1916815260200183815260200180602001828103825283818151815260200191508051906020019080838360005b8381101561130f5780820151818401526020810190506112f4565b50505050905090810190601f16801561133c5780820380516001836020036101000a031916815260200191505b509950505050505050505050604051602081830303815290604052907bffffffffffffffffffffffffffffffffffffffffffffffffffffffff19166020820180517bffffffffffffffffffffffffffffffffffffffffffffffffffffffff83818316178352505050509050919050565b6000818311156113be578290506113c2565b8190505b92915050565b816020015160018360000151510111156113ee576113ed82600284602001510261146f565b5b815180516020818301018381536001820183525050505050565b611410611500565b60008460200151856000015151840111156114405761143f8560026114398860200151876113ac565b0261146f565b5b6001836101000a0390508451805184818301018684198251161781528582018352505050849150509392505050565b6060826000015190506114828383610f04565b61148c83826110b1565b50505050565b60c06040519081016040528060008019168152602001600073ffffffffffffffffffffffffffffffffffffffff16815260200160007bffffffffffffffffffffffffffffffffffffffffffffffffffffffff19168152602001600081526020016114fa61151a565b81525090565b604080519081016040528060608152602001600081525090565b6040805190810160405280606081526020016000815250905600a165627a7a7230582095298f33119dbc927f7bf3d4d834947f6a981da087e1781fc568c0ecd3a6c4990029",
  "source": "pragma solidity 0.4.24;\n\nimport \"../Chainlinked.sol\";\n\ncontract Consumer is Chainlinked {\n  bytes32 internal specId;\n  bytes32 public currentPrice;\n\n  uint256 constant private ORACLE_PAYMENT = 1 * LINK; // solium-disable-line zeppelin/no-arithmetic-operations\n\n  event RequestFulfilled(\n    bytes32 indexed requestId,  // User-defined ID\n    bytes32 indexed price\n  );\n\n  function requestEthereumPrice(string _currency) public {\n    ChainlinkLib.Run memory run = newRun(specId, this, this.fulfill.selector);\n    run.add(\"url\", \"https://min-api.cryptocompare.com/data/price?fsym=ETH&tsyms=USD,EUR,JPY\");\n    string[] memory path = new string[](1);\n    path[0] = _currency;\n    run.addStringArray(\"path\", path);\n    chainlinkRequest(run, ORACLE_PAYMENT);\n  }\n\n  function cancelRequest(\n    bytes32 _requestId,\n    uint256 _payment,\n    bytes4 _callbackFunctionId,\n    uint256 _expiration\n  ) public {\n    cancelChainlinkRequest(_requestId, _payment, _callbackFunctionId, _expiration);\n  }\n\n  function withdrawLink() public {\n    LinkTokenInterface link = LinkTokenInterface(chainlinkToken());\n    require(link.transfer(msg.sender, link.balanceOf(address(this))), \"Unable to transfer\");\n  }\n\n  function fulfill(bytes32 _requestId, bytes32 _price)\n    public\n    recordChainlinkFulfillment(_requestId)\n  {\n    emit RequestFulfilled(_requestId, _price);\n    currentPrice = _price;\n  }\n\n}\n",
  "sourcePath": "/Users/jonashals/go/src/github.com/smartcontractkit/chainlink/solidity/contracts/examples/Consumer.sol",
  "compiler": {
    "name": "solc",
    "version": "0.4.24+commit.e67f0147.Emscripten.clang"
  },
  "schemaVersion": "3.0.1",
  "updatedAt": "2019-02-03T15:40:22.448Z",
  "devdoc": {
    "methods": {}
  },
  "userdoc": {
    "methods": {}
  }
}