{
  "contractName": "Coordinator",
  "abi": [
    {
      "constant": true,
      "inputs": [
        {
          "name": "",
          "type": "bytes32"
        }
      ],
      "name": "serviceAgreements",
      "outputs": [
        {
          "name": "payment",
          "type": "uint256"
        },
        {
          "name": "expiration",
          "type": "uint256"
        },
        {
          "name": "endAt",
          "type": "uint256"
        },
        {
          "name": "requestDigest",
          "type": "bytes32"
        }
      ],
      "payable": false,
      "stateMutability": "view",
      "type": "function"
    },
    {
      "inputs": [
        {
          "name": "_link",
          "type": "address"
        }
      ],
      "payable": false,
      "stateMutability": "nonpayable",
      "type": "constructor"
    },
    {
      "anonymous": false,
      "inputs": [
        {
          "indexed": true,
          "name": "sAId",
          "type": "bytes32"
        },
        {
          "indexed": true,
          "name": "requester",
          "type": "address"
        },
        {
          "indexed": true,
          "name": "amount",
          "type": "uint256"
        },
        {
          "indexed": false,
          "name": "requestId",
          "type": "uint256"
        },
        {
          "indexed": false,
          "name": "dataVersion",
          "type": "uint256"
        },
        {
          "indexed": false,
          "name": "callbackAddr",
          "type": "address"
        },
        {
          "indexed": false,
          "name": "callbackFunctionId",
          "type": "bytes4"
        },
        {
          "indexed": false,
          "name": "cancelExpiration",
          "type": "uint256"
        },
        {
          "indexed": false,
          "name": "data",
          "type": "bytes"
        }
      ],
      "name": "RunRequest",
      "type": "event"
    },
    {
      "anonymous": false,
      "inputs": [
        {
          "indexed": true,
          "name": "said",
          "type": "bytes32"
        },
        {
          "indexed": true,
          "name": "requestDigest",
          "type": "bytes32"
        }
      ],
      "name": "NewServiceAgreement",
      "type": "event"
    },
    {
      "anonymous": false,
      "inputs": [
        {
          "indexed": false,
          "name": "internalId",
          "type": "bytes32"
        }
      ],
      "name": "CancelRequest",
      "type": "event"
    },
    {
      "constant": false,
      "inputs": [
        {
          "name": "_sender",
          "type": "address"
        },
        {
          "name": "_amount",
          "type": "uint256"
        },
        {
          "name": "_data",
          "type": "bytes"
        }
      ],
      "name": "onTokenTransfer",
      "outputs": [],
      "payable": false,
      "stateMutability": "nonpayable",
      "type": "function"
    },
    {
      "constant": false,
      "inputs": [
        {
          "name": "_sender",
          "type": "address"
        },
        {
          "name": "_amount",
          "type": "uint256"
        },
        {
          "name": "_dataVersion",
          "type": "uint256"
        },
        {
          "name": "_sAId",
          "type": "bytes32"
        },
        {
          "name": "_callbackAddress",
          "type": "address"
        },
        {
          "name": "_callbackFunctionId",
          "type": "bytes4"
        },
        {
          "name": "_nonce",
          "type": "uint256"
        },
        {
          "name": "_data",
          "type": "bytes"
        }
      ],
      "name": "requestData",
      "outputs": [],
      "payable": false,
      "stateMutability": "nonpayable",
      "type": "function"
    },
    {
      "constant": true,
      "inputs": [
        {
          "name": "_payment",
          "type": "uint256"
        },
        {
          "name": "_expiration",
          "type": "uint256"
        },
        {
          "name": "_endAt",
          "type": "uint256"
        },
        {
          "name": "_oracles",
          "type": "address[]"
        },
        {
          "name": "_requestDigest",
          "type": "bytes32"
        }
      ],
      "name": "getPackedArguments",
      "outputs": [
        {
          "name": "",
          "type": "bytes"
        }
      ],
      "payable": false,
      "stateMutability": "pure",
      "type": "function"
    },
    {
      "constant": true,
      "inputs": [
        {
          "name": "_payment",
          "type": "uint256"
        },
        {
          "name": "_expiration",
          "type": "uint256"
        },
        {
          "name": "_endAt",
          "type": "uint256"
        },
        {
          "name": "_oracles",
          "type": "address[]"
        },
        {
          "name": "_requestDigest",
          "type": "bytes32"
        }
      ],
      "name": "getId",
      "outputs": [
        {
          "name": "",
          "type": "bytes32"
        }
      ],
      "payable": false,
      "stateMutability": "pure",
      "type": "function"
    },
    {
      "constant": false,
      "inputs": [
        {
          "name": "_payment",
          "type": "uint256"
        },
        {
          "name": "_expiration",
          "type": "uint256"
        },
        {
          "name": "_endAt",
          "type": "uint256"
        },
        {
          "name": "_oracles",
          "type": "address[]"
        },
        {
          "name": "_vs",
          "type": "uint8[]"
        },
        {
          "name": "_rs",
          "type": "bytes32[]"
        },
        {
          "name": "_ss",
          "type": "bytes32[]"
        },
        {
          "name": "_requestDigest",
          "type": "bytes32"
        }
      ],
      "name": "initiateServiceAgreement",
      "outputs": [
        {
          "name": "serviceAgreementID",
          "type": "bytes32"
        }
      ],
      "payable": false,
      "stateMutability": "nonpayable",
      "type": "function"
    },
    {
      "constant": false,
      "inputs": [
        {
          "name": "_requestId",
          "type": "uint256"
        },
        {
          "name": "_data",
          "type": "bytes32"
        }
      ],
      "name": "fulfillData",
      "outputs": [
        {
          "name": "",
          "type": "bool"
        }
      ],
      "payable": false,
      "stateMutability": "nonpayable",
      "type": "function"
    },
    {
      "constant": false,
      "inputs": [
        {
          "name": "",
          "type": "bytes32"
        },
        {
          "name": "",
          "type": "uint256"
        },
        {
          "name": "",
          "type": "bytes4"
        },
        {
          "name": "",
          "type": "uint256"
        }
      ],
      "name": "cancel",
      "outputs": [],
      "payable": false,
      "stateMutability": "nonpayable",
      "type": "function"
    }
  ],
  "bytecode": "0x608060405234801561001057600080fd5b50604051602080611b3183398101806040528101908080519060200190929190505050806000806101000a81548173ffffffffffffffffffffffffffffffffffffffff021916908373ffffffffffffffffffffffffffffffffffffffff16021790555050611aae806100836000396000f30060806040526004361061008e576000357c0100000000000000000000000000000000000000000000000000000000900463ffffffff16806375d350701461009357806376005c26146100f557806386b62331146101485780638a20130b146102535780639f1d0971146102c1578063a4c0ed361461036f578063b612691c14610402578063c3d2026f146104cd575b600080fd5b34801561009f57600080fd5b506100c2600480360381019080803560001916906020019092919050505061059d565b60405180858152602001848152602001838152602001826000191660001916815260200194505050505060405180910390f35b34801561010157600080fd5b5061012e6004803603810190808035906020019092919080356000191690602001909291905050506105cd565b604051808215151515815260200191505060405180910390f35b34801561015457600080fd5b506101d8600480360381019080803590602001909291908035906020019092919080359060200190929190803590602001908201803590602001908080602002602001604051908101604052809392919081815260200183836020028082843782019150505050505091929192908035600019169060200190929190505050610916565b6040518080602001828103825283818151815260200191508051906020019080838360005b838110156102185780820151818401526020810190506101fd565b50505050905090810190601f1680156102455780820380516001836020036101000a031916815260200191505b509250505060405180910390f35b34801561025f57600080fd5b506102bf60048036038101908080356000191690602001909291908035906020019092919080357bffffffffffffffffffffffffffffffffffffffffffffffffffffffff1916906020019092919080359060200190929190505050610998565b005b3480156102cd57600080fd5b5061035160048036038101908080359060200190929190803590602001909291908035906020019092919080359060200190820180359060200190808060200260200160405190810160405280939291908181526020018383602002808284378201915050505050509192919290803560001916906020019092919050505061099e565b60405180826000191660001916815260200191505060405180910390f35b34801561037b57600080fd5b50610400600480360381019080803573ffffffffffffffffffffffffffffffffffffffff16906020019092919080359060200190929190803590602001908201803590602001908080601f0160208091040260200160405190810160405280939291908181526020018383808284378201915050505050509192919290505050610a1a565b005b34801561040e57600080fd5b506104af6004803603810190808035906020019092919080359060200190929190803590602001909291908035906020019082018035906020019190919293919293908035906020019082018035906020019190919293919293908035906020019082018035906020019190919293919293908035906020019082018035906020019190919293919293908035600019169060200190929190505050610ce2565b60405180826000191660001916815260200191505060405180910390f35b3480156104d957600080fd5b5061059b600480360381019080803573ffffffffffffffffffffffffffffffffffffffff16906020019092919080359060200190929190803590602001909291908035600019169060200190929190803573ffffffffffffffffffffffffffffffffffffffff16906020019092919080357bffffffffffffffffffffffffffffffffffffffffffffffffffffffff1916906020019092919080359060200190929190803590602001908201803590602001919091929391929390505050611057565b005b60026020528060005260406000206000915090508060000154908060010154908060020154908060040154905084565b6000806105d861192a565b84600073ffffffffffffffffffffffffffffffffffffffff1660016000836001026000191660001916815260200190815260200160002060010160009054906101000a900473ffffffffffffffffffffffffffffffffffffffff1673ffffffffffffffffffffffffffffffffffffffff16141515156106bf576040517f08c379a000000000000000000000000000000000000000000000000000000000815260040180806020018281038252601b8152602001807f4d757374206861766520612076616c696420726571756573744964000000000081525060200191505060405180910390fd5b85600102925060016000846000191660001916815260200190815260200160002060806040519081016040529081600082015481526020016001820160009054906101000a900473ffffffffffffffffffffffffffffffffffffffff1673ffffffffffffffffffffffffffffffffffffffff1673ffffffffffffffffffffffffffffffffffffffff1681526020016001820160149054906101000a90047c0100000000000000000000000000000000000000000000000000000000027bffffffffffffffffffffffffffffffffffffffffffffffffffffffff19167bffffffffffffffffffffffffffffffffffffffffffffffffffffffff191681526020016001820160189054906101000a900467ffffffffffffffff1667ffffffffffffffff1667ffffffffffffffff168152505091506001600084600019166000191681526020019081526020016000206000808201600090556001820160006101000a81549073ffffffffffffffffffffffffffffffffffffffff02191690556001820160146101000a81549063ffffffff02191690556001820160186101000a81549067ffffffffffffffff02191690555050816020015173ffffffffffffffffffffffffffffffffffffffff1682604001517c0100000000000000000000000000000000000000000000000000000000900487876040518363ffffffff167c0100000000000000000000000000000000000000000000000000000000028152600401808381526020018260001916600019168152602001925050506000604051808303816000875af192505050935050505092915050565b6060858585858560405160200180868152602001858152602001848152602001838051906020019060200280838360005b83811015610962578082015181840152602081019050610947565b50505050905001826000191660001916815260200195505050505050604051602081830303815290604052905095945050505050565b50505050565b60006109ad8686868686610916565b6040518082805190602001908083835b6020831015156109e257805182526020820191506020810190506020830392506109bd565b6001836020036101000a0380198251168184511680821785525050505050509050019150506040518091039020905095945050505050565b6000809054906101000a900473ffffffffffffffffffffffffffffffffffffffff1673ffffffffffffffffffffffffffffffffffffffff163373ffffffffffffffffffffffffffffffffffffffff16141515610ade576040517f08c379a00000000000000000000000000000000000000000000000000000000081526004018080602001828103825260138152602001807f4d75737420757365204c494e4b20746f6b656e0000000000000000000000000081525060200191505060405180910390fd5b610ae6611992565b60046084823763c3d2026f7c0100000000000000000000000000000000000000000000000000000000027bffffffffffffffffffffffffffffffffffffffffffffffffffffffff1916816000600181101515610b3e57fe5b60200201517bffffffffffffffffffffffffffffffffffffffffffffffffffffffff1916141515610bd7576040517f08c379a000000000000000000000000000000000000000000000000000000000815260040180806020018281038252601e8152602001807f4d757374207573652077686974656c69737465642066756e6374696f6e73000081525060200191505060405180910390fd5b8360248301528260448301523073ffffffffffffffffffffffffffffffffffffffff168260405180828051906020019080838360005b83811015610c28578082015181840152602081019050610c0d565b50505050905090810190601f168015610c555780820380516001836020036101000a031916815260200191505b50915050600060405180830381855af49150501515610cdc576040517f08c379a00000000000000000000000000000000000000000000000000000000081526004018080602001828103825260188152602001807f556e61626c6520746f206372656174652072657175657374000000000000000081525060200191505060405180910390fd5b50505050565b6000878790508a8a9050148015610cfe57508585905088889050145b8015610d0f57508383905086869050145b1515610da9576040517f08c379a000000000000000000000000000000000000000000000000000000000815260040180806020018281038252602a8152602001807f4d757374207061737320696e206173206d616e79207369676e6174757265732081526020017f6173206f7261636c65730000000000000000000000000000000000000000000081525060400191505060405180910390fd5b428b111515610e46576040517f08c379a000000000000000000000000000000000000000000000000000000000815260040180806020018281038252602d8152602001807f456e64206f66205365727669636541677265656d656e74206d7573742062652081526020017f696e20746865206675747572650000000000000000000000000000000000000081525060400191505060405180910390fd5b610e828d8d8d8d8d808060200260200160405190810160405280939291908181526020018383602002808284378201915050505050508661099e565b9050610f4d818b8b808060200260200160405190810160405280939291908181526020018383602002808284378201915050505050508a8a80806020026020016040519081016040528093929190818152602001838360200280828437820191505050505050898980806020026020016040519081016040528093929190818152602001838360200280828437820191505050505050888880806020026020016040519081016040528093929190818152602001838360200280828437820191505050505050611671565b60a0604051908101604052808e81526020018d81526020018c81526020018b8b80806020026020016040519081016040528093929190818152602001838360200280828437820191505050505050815260200183600019168152506002600083600019166000191681526020019081526020016000206000820151816000015560208201518160010155604082015181600201556060820151816003019080519060200190610ffd9291906119b5565b5060808201518160040190600019169055905050816000191681600019167f77919e14b37beb51528107e030bd85fe76b9f9316ee1464f7ab2c41abb549fe960405160405180910390a39c9b505050505050505050505050565b60008060009054906101000a900473ffffffffffffffffffffffffffffffffffffffff1673ffffffffffffffffffffffffffffffffffffffff163373ffffffffffffffffffffffffffffffffffffffff1614151561111d576040517f08c379a00000000000000000000000000000000000000000000000000000000081526004018080602001828103825260138152602001807f4d75737420757365204c494e4b20746f6b656e0000000000000000000000000081525060200191505060405180910390fd5b88876002600082600019166000191681526020019081526020016000206000015482101515156111b5576040517f08c379a00000000000000000000000000000000000000000000000000000000081526004018080602001828103825260148152602001807f42656c6f7720616772656564207061796d656e7400000000000000000000000081525060200191505060405180910390fd5b876000809054906101000a900473ffffffffffffffffffffffffffffffffffffffff1673ffffffffffffffffffffffffffffffffffffffff168173ffffffffffffffffffffffffffffffffffffffff161415151561127b576040517f08c379a00000000000000000000000000000000000000000000000000000000081526004018080602001828103825260178152602001807f43616e6e6f742063616c6c6261636b20746f204c494e4b00000000000000000081525060200191505060405180910390fd5b8c87604051602001808373ffffffffffffffffffffffffffffffffffffffff1673ffffffffffffffffffffffffffffffffffffffff166c01000000000000000000000000028152601401828152602001925050506040516020818303038152906040526040518082805190602001908083835b60208310151561131357805182526020820191506020810190506020830392506112ee565b6001836020036101000a03801982511681845116808217855250505050505090500191505060405180910390209350600060016000866000191660001916815260200190815260200160002060010160189054906101000a900467ffffffffffffffff1667ffffffffffffffff161415156113f6576040517f08c379a00000000000000000000000000000000000000000000000000000000081526004018080602001828103825260148152602001807f4d75737420757365206120756e6971756520494400000000000000000000000081525060200191505060405180910390fd5b6080604051908101604052808d81526020018a73ffffffffffffffffffffffffffffffffffffffff168152602001897bffffffffffffffffffffffffffffffffffffffffffffffffffffffff1916815260200161145e61012c426117cb90919063ffffffff16565b67ffffffffffffffff168152506001600086600019166000191681526020019081526020016000206000820151816000015560208201518160010160006101000a81548173ffffffffffffffffffffffffffffffffffffffff021916908373ffffffffffffffffffffffffffffffffffffffff16021790555060408201518160010160146101000a81548163ffffffff02191690837c01000000000000000000000000000000000000000000000000000000009004021790555060608201518160010160186101000a81548167ffffffffffffffff021916908367ffffffffffffffff1602179055509050508b8d73ffffffffffffffffffffffffffffffffffffffff168b600019167fe9cf09ba23a60c27cfb5ad84043dba257ed0ccea7f0095ff7054ec8088ce587187600190048f8e8e6115a561012c426117cb90919063ffffffff16565b8e8e604051808881526020018781526020018673ffffffffffffffffffffffffffffffffffffffff1673ffffffffffffffffffffffffffffffffffffffff168152602001857bffffffffffffffffffffffffffffffffffffffffffffffffffffffff19167bffffffffffffffffffffffffffffffffffffffffffffffffffffffff1916815260200184815260200180602001828103825284848281815260200192508082843782019150509850505050505050505060405180910390a450505050505050505050505050565b600080600091505b85518210156117c2576116d387868481518110151561169457fe5b9060200190602002015186858151811015156116ac57fe5b9060200190602002015186868151811015156116c457fe5b906020019060200201516117e7565b90508073ffffffffffffffffffffffffffffffffffffffff1686838151811015156116fa57fe5b9060200190602002015173ffffffffffffffffffffffffffffffffffffffff161415156117b5576040517f08c379a00000000000000000000000000000000000000000000000000000000081526004018080602001828103825260288152602001807f496e76616c6964206f7261636c65207369676e6174757265207370656369666981526020017f656420696e20534100000000000000000000000000000000000000000000000081525060400191505060405180910390fd5b8180600101925050611679565b50505050505050565b600081830190508281101515156117de57fe5b80905092915050565b6000808560405160200180807f19457468657265756d205369676e6564204d6573736167653a0a333200000000815250601c0182600019166000191681526020019150506040516020818303038152906040526040518082805190602001908083835b60208310151561186f578051825260208201915060208101905060208303925061184a565b6001836020036101000a03801982511681845116808217855250505050505090500191505060405180910390209050600181868686604051600081526020016040526040518085600019166000191681526020018460ff1660ff1681526020018360001916600019168152602001826000191660001916815260200194505050505060206040516020810390808403906000865af1158015611915573d6000803e3d6000fd5b50505060206040510351915050949350505050565b60806040519081016040528060008152602001600073ffffffffffffffffffffffffffffffffffffffff16815260200160007bffffffffffffffffffffffffffffffffffffffffffffffffffffffff19168152602001600067ffffffffffffffff1681525090565b602060405190810160405280600190602082028038833980820191505090505090565b828054828255906000526020600020908101928215611a2e579160200282015b82811115611a2d5782518260006101000a81548173ffffffffffffffffffffffffffffffffffffffff021916908373ffffffffffffffffffffffffffffffffffffffff160217905550916020019190600101906119d5565b5b509050611a3b9190611a3f565b5090565b611a7f91905b80821115611a7b57600081816101000a81549073ffffffffffffffffffffffffffffffffffffffff021916905550600101611a45565b5090565b905600a165627a7a723058202099d3aab01c02c125a8fa7e8e0d24183be183cda1a500e9b4741c5587a753fa0029",
  "source": "pragma solidity 0.4.24;\n\nimport \"openzeppelin-solidity/contracts/math/SafeMath.sol\";\nimport \"./interfaces/ChainlinkRequestInterface.sol\";\nimport \"./interfaces/CoordinatorInterface.sol\";\nimport \"./interfaces/LinkTokenInterface.sol\";\n\n// Coordinator handles oracle service aggreements between one or more oracles.\ncontract Coordinator is ChainlinkRequestInterface, CoordinatorInterface {\n  using SafeMath for uint256;\n\n  LinkTokenInterface internal LINK;\n\n  struct ServiceAgreement {\n    uint256 payment;\n    uint256 expiration;\n    uint256 endAt;\n    address[] oracles;\n    bytes32 requestDigest;\n  }\n\n  struct Callback {\n    uint256 amount;\n    address addr;\n    bytes4 functionId;\n    uint64 cancelExpiration;\n  }\n\n  mapping(bytes32 => Callback) private callbacks;\n  mapping(bytes32 => ServiceAgreement) public serviceAgreements;\n\n  constructor(address _link) public {\n    LINK = LinkTokenInterface(_link);\n  }\n\n  event RunRequest(\n    bytes32 indexed sAId,\n    address indexed requester,\n    uint256 indexed amount,\n    uint256 requestId,\n    uint256 dataVersion,\n    address callbackAddr,\n    bytes4 callbackFunctionId,\n    uint256 cancelExpiration,\n    bytes data\n  );\n\n  event NewServiceAgreement(\n    bytes32 indexed said,\n    bytes32 indexed requestDigest\n  );\n\n  event CancelRequest(\n    bytes32 internalId\n  );\n\n  function onTokenTransfer(\n    address _sender,\n    uint256 _amount,\n    bytes _data\n  )\n    public\n    onlyLINK\n    permittedFunctionsForLINK\n  {\n    assembly {\n      // solium-disable-next-line security/no-low-level-calls\n      mstore(add(_data, 36), _sender) // ensure correct sender is passed\n      // solium-disable-next-line security/no-low-level-calls\n      mstore(add(_data, 68), _amount)    // ensure correct amount is passed\n    }\n    // solium-disable-next-line security/no-low-level-calls\n    require(address(this).delegatecall(_data), \"Unable to create request\"); // calls requestData\n  }\n\n  function requestData(\n    address _sender,\n    uint256 _amount,\n    uint256 _dataVersion,\n    bytes32 _sAId,\n    address _callbackAddress,\n    bytes4 _callbackFunctionId,\n    uint256 _nonce,\n    bytes _data\n  )\n    external\n    onlyLINK\n    sufficientLINK(_amount, _sAId)\n    checkCallbackAddress(_callbackAddress)\n  {\n    bytes32 requestId = keccak256(abi.encodePacked(_sender, _nonce));\n    require(callbacks[requestId].cancelExpiration == 0, \"Must use a unique ID\");\n    callbacks[requestId] = Callback(\n      _amount,\n      _callbackAddress,\n      _callbackFunctionId,\n      uint64(now.add(5 minutes)));\n\n    emit RunRequest(\n      _sAId,\n      _sender,\n      _amount,\n      uint256(requestId),\n      _dataVersion,\n      _callbackAddress,\n      _callbackFunctionId,\n      now.add(5 minutes),\n      _data);\n  }\n\n  // This is mostly useful as a sanity check in the #getId test, because the\n  // hash value there is illegible by design.\n  function getPackedArguments(\n    uint256 _payment,\n    uint256 _expiration,\n    uint256 _endAt,\n    address[] _oracles,\n    bytes32 _requestDigest\n  )\n    public\n    pure\n    returns (bytes)\n  {\n    return abi.encodePacked(_payment, _expiration, _endAt, _oracles, _requestDigest);\n  }\n\n  function getId(\n    uint256 _payment,\n    uint256 _expiration,\n    uint256 _endAt,\n    address[] _oracles,\n    bytes32 _requestDigest\n  )\n    public pure returns (bytes32)\n  {\n    return keccak256(getPackedArguments(_payment, _expiration, _endAt, _oracles, _requestDigest));\n  }\n\n  function initiateServiceAgreement(\n    uint256 _payment,\n    uint256 _expiration,\n    uint256 _endAt,\n    address[] _oracles,\n    uint8[] _vs,\n    bytes32[] _rs,\n    bytes32[] _ss,\n    bytes32 _requestDigest\n  )\n    external\n    returns (bytes32 serviceAgreementID)\n  {\n    require(_oracles.length == _vs.length && _vs.length == _rs.length && _rs.length == _ss.length, \"Must pass in as many signatures as oracles\"); /* solium-disable-line max-len */\n    require(_endAt > block.timestamp, \"End of ServiceAgreement must be in the future\");\n\n    serviceAgreementID = getId(_payment, _expiration, _endAt, _oracles, _requestDigest);\n\n    verifyOracleSignatures(serviceAgreementID, _oracles, _vs, _rs, _ss);\n\n    serviceAgreements[serviceAgreementID] = ServiceAgreement(\n      _payment,\n      _expiration,\n      _endAt,\n      _oracles,\n      _requestDigest\n    );\n\n    emit NewServiceAgreement(serviceAgreementID, _requestDigest);\n  }\n\n  function verifyOracleSignatures(\n    bytes32 _serviceAgreementID,\n    address[] _oracles,\n    uint8[] _vs,\n    bytes32[] _rs,\n    bytes32[] _ss\n  )\n    private pure\n  {\n    for (uint i = 0; i < _oracles.length; i++) {\n      address signer = getOracleAddressFromSASignature(_serviceAgreementID, _vs[i], _rs[i], _ss[i]);\n      require(_oracles[i] == signer, \"Invalid oracle signature specified in SA\");\n    }\n\n  }\n\n  function getOracleAddressFromSASignature(\n    bytes32 _serviceAgreementID,\n    uint8 _v,\n    bytes32 _r,\n    bytes32 _s\n  )\n    private pure returns (address)\n  {\n    bytes32 prefixedHash = keccak256(abi.encodePacked(\"\\x19Ethereum Signed Message:\\n32\", _serviceAgreementID));\n    return ecrecover(prefixedHash, _v, _r, _s);\n  }\n\n  modifier onlyLINK() {\n    require(msg.sender == address(LINK), \"Must use LINK token\"); \n    _;\n  }\n\n  modifier permittedFunctionsForLINK() {\n    bytes4[1] memory funcSelector;\n    assembly {\n      // solium-disable-next-line security/no-low-level-calls\n      calldatacopy(funcSelector, 132, 4) // grab function selector from calldata\n    }\n    require(funcSelector[0] == this.requestData.selector, \"Must use whitelisted functions\");\n    _;\n  }\n\n  modifier sufficientLINK(uint256 _amount, bytes32 _sAId) {\n    require(_amount >= serviceAgreements[_sAId].payment, \"Below agreed payment\");\n    _;\n  }\n\n  modifier isValidRequest(uint256 _requestId) {\n    require(callbacks[bytes32(_requestId)].addr != address(0), \"Must have a valid requestId\");\n    _;\n  }\n\n  function fulfillData(\n    uint256 _requestId,\n    bytes32 _data\n  )\n    external\n    isValidRequest(_requestId)\n    returns (bool)\n  {\n    bytes32 requestId = bytes32(_requestId);\n    Callback memory callback = callbacks[requestId];\n    delete callbacks[requestId];\n    // All updates to the oracle's fulfillment should come before calling the\n    // callback(addr+functionId) as it is untrusted. See:\n    // https://solidity.readthedocs.io/en/develop/security-considerations.html#use-the-checks-effects-interactions-pattern\n    return callback.addr.call(callback.functionId, _requestId, _data); // solium-disable-line security/no-low-level-calls\n  }\n\n  // Necessary to implement ChainlinkRequestInterface\n  function cancel(bytes32, uint256, bytes4, uint256) external {}\n\n  modifier checkCallbackAddress(address _to) {\n    require(_to != address(LINK), \"Cannot callback to LINK\");\n    _;\n  }\n}\n",
  "sourcePath": "/Users/jonashals/go/src/github.com/smartcontractkit/chainlink/solidity/contracts/Coordinator.sol",
  "compiler": {
    "name": "solc",
    "version": "0.4.24+commit.e67f0147.Emscripten.clang"
  },
  "schemaVersion": "3.0.1",
  "updatedAt": "2019-02-01T11:22:22.590Z",
  "devdoc": {
    "methods": {}
  },
  "userdoc": {
    "methods": {}
  }
}