{
  "contractName": "EmptyOracle",
  "abi": [
    {
      "constant": false,
      "inputs": [
        {
          "name": "",
          "type": "bytes32"
        },
        {
          "name": "",
          "type": "uint256"
        },
        {
          "name": "",
          "type": "bytes4"
        },
        {
          "name": "",
          "type": "uint256"
        }
      ],
      "name": "cancel",
      "outputs": [],
      "payable": false,
      "stateMutability": "nonpayable",
      "type": "function"
    },
    {
      "constant": false,
      "inputs": [
        {
          "name": "",
          "type": "uint256"
        },
        {
          "name": "",
          "type": "uint256"
        },
        {
          "name": "",
          "type": "address"
        },
        {
          "name": "",
          "type": "bytes4"
        },
        {
          "name": "",
          "type": "uint256"
        },
        {
          "name": "",
          "type": "bytes32"
        }
      ],
      "name": "fulfillData",
      "outputs": [
        {
          "name": "",
          "type": "bool"
        }
      ],
      "payable": false,
      "stateMutability": "nonpayable",
      "type": "function"
    },
    {
      "constant": true,
      "inputs": [
        {
          "name": "",
          "type": "address"
        }
      ],
      "name": "getAuthorizationStatus",
      "outputs": [
        {
          "name": "",
          "type": "bool"
        }
      ],
      "payable": false,
      "stateMutability": "view",
      "type": "function"
    },
    {
      "constant": true,
      "inputs": [
        {
          "name": "",
          "type": "address"
        },
        {
          "name": "",
          "type": "uint256"
        },
        {
          "name": "",
          "type": "bytes"
        }
      ],
      "name": "onTokenTransfer",
      "outputs": [],
      "payable": false,
      "stateMutability": "pure",
      "type": "function"
    },
    {
      "constant": false,
      "inputs": [
        {
          "name": "",
          "type": "address"
        },
        {
          "name": "",
          "type": "uint256"
        },
        {
          "name": "",
          "type": "uint256"
        },
        {
          "name": "",
          "type": "bytes32"
        },
        {
          "name": "",
          "type": "address"
        },
        {
          "name": "",
          "type": "bytes4"
        },
        {
          "name": "",
          "type": "uint256"
        },
        {
          "name": "",
          "type": "bytes"
        }
      ],
      "name": "requestData",
      "outputs": [],
      "payable": false,
      "stateMutability": "nonpayable",
      "type": "function"
    },
    {
      "constant": false,
      "inputs": [
        {
          "name": "",
          "type": "address"
        },
        {
          "name": "",
          "type": "bool"
        }
      ],
      "name": "setFulfillmentPermission",
      "outputs": [],
      "payable": false,
      "stateMutability": "nonpayable",
      "type": "function"
    },
    {
      "constant": false,
      "inputs": [
        {
          "name": "",
          "type": "address"
        },
        {
          "name": "",
          "type": "uint256"
        }
      ],
      "name": "withdraw",
      "outputs": [],
      "payable": false,
      "stateMutability": "nonpayable",
      "type": "function"
    },
    {
      "constant": true,
      "inputs": [],
      "name": "withdrawable",
      "outputs": [
        {
          "name": "",
          "type": "uint256"
        }
      ],
      "payable": false,
      "stateMutability": "view",
      "type": "function"
    }
  ],
  "bytecode": "0x608060405234801561001057600080fd5b5061046e806100206000396000f30060806040526004361061008e576000357c0100000000000000000000000000000000000000000000000000000000900463ffffffff16806350188301146100935780637fcd56db146100be5780638a20130b1461010d578063a4c0ed361461017b578063c3d2026f146101e0578063d3e9c314146102b0578063eea57e701461030b578063f3fef3a3146103bb575b600080fd5b34801561009f57600080fd5b506100a8610408565b6040518082815260200191505060405180910390f35b3480156100ca57600080fd5b5061010b600480360381019080803573ffffffffffffffffffffffffffffffffffffffff16906020019092919080351515906020019092919050505061040d565b005b34801561011957600080fd5b5061017960048036038101908080356000191690602001909291908035906020019092919080357bffffffffffffffffffffffffffffffffffffffffffffffffffffffff1916906020019092919080359060200190929190505050610411565b005b34801561018757600080fd5b506101de600480360381019080803573ffffffffffffffffffffffffffffffffffffffff16906020019092919080359060200190929190803590602001908201803590602001919091929391929390505050610417565b005b3480156101ec57600080fd5b506102ae600480360381019080803573ffffffffffffffffffffffffffffffffffffffff16906020019092919080359060200190929190803590602001909291908035600019169060200190929190803573ffffffffffffffffffffffffffffffffffffffff16906020019092919080357bffffffffffffffffffffffffffffffffffffffffffffffffffffffff191690602001909291908035906020019092919080359060200190820180359060200191909192939192939050505061041d565b005b3480156102bc57600080fd5b506102f1600480360381019080803573ffffffffffffffffffffffffffffffffffffffff169060200190929190505050610428565b604051808215151515815260200191505060405180910390f35b34801561031757600080fd5b506103a16004803603810190808035906020019092919080359060200190929190803573ffffffffffffffffffffffffffffffffffffffff16906020019092919080357bffffffffffffffffffffffffffffffffffffffffffffffffffffffff19169060200190929190803590602001909291908035600019169060200190929190505050610432565b604051808215151515815260200191505060405180910390f35b3480156103c757600080fd5b50610406600480360381019080803573ffffffffffffffffffffffffffffffffffffffff1690602001909291908035906020019092919050505061043e565b005b600090565b5050565b50505050565b50505050565b505050505050505050565b6000809050919050565b60009695505050505050565b50505600a165627a7a72305820c55d867c175e053e928391ac755be72ff6d0ef78b610c512f5e1331fb07f2d530029",
  "source": "pragma solidity 0.4.24;\n\nimport \"../interfaces/ChainlinkRequestInterface.sol\";\nimport \"../interfaces/OracleInterface.sol\";\n\ncontract EmptyOracle is ChainlinkRequestInterface, OracleInterface {\n\n  function cancel(bytes32, uint256, bytes4, uint256) external {}\n  function fulfillData(uint256, uint256, address, bytes4, uint256, bytes32) external returns (bool) {}\n  function getAuthorizationStatus(address) external view returns (bool) { return false; }\n  function onTokenTransfer(address, uint256, bytes) external pure {}\n  function requestData(address, uint256, uint256, bytes32, address, bytes4, uint256, bytes) external {}\n  function setFulfillmentPermission(address, bool) external {}\n  function withdraw(address, uint256) external {}\n  function withdrawable() external view returns (uint256) {}\n\n}\n",
  "sourcePath": "/Users/jonashals/go/src/github.com/smartcontractkit/chainlink/solidity/contracts/examples/EmptyOracle.sol",
  "compiler": {
    "name": "solc",
    "version": "0.4.24+commit.e67f0147.Emscripten.clang"
  },
  "schemaVersion": "3.0.1",
  "updatedAt": "2019-02-01T11:22:22.607Z",
  "devdoc": {
    "methods": {}
  },
  "userdoc": {
    "methods": {}
  }
}