{
  "contractName": "MaliciousConsumer",
  "abi": [
    {
      "inputs": [
        {
          "name": "_link",
          "type": "address"
        },
        {
          "name": "_oracle",
          "type": "address"
        }
      ],
      "payable": true,
      "stateMutability": "payable",
      "type": "constructor"
    },
    {
      "payable": true,
      "stateMutability": "payable",
      "type": "fallback"
    },
    {
      "anonymous": false,
      "inputs": [
        {
          "indexed": true,
          "name": "id",
          "type": "bytes32"
        }
      ],
      "name": "ChainlinkRequested",
      "type": "event"
    },
    {
      "anonymous": false,
      "inputs": [
        {
          "indexed": true,
          "name": "id",
          "type": "bytes32"
        }
      ],
      "name": "ChainlinkFulfilled",
      "type": "event"
    },
    {
      "anonymous": false,
      "inputs": [
        {
          "indexed": true,
          "name": "id",
          "type": "bytes32"
        }
      ],
      "name": "ChainlinkCancelled",
      "type": "event"
    },
    {
      "constant": false,
      "inputs": [
        {
          "name": "_id",
          "type": "bytes32"
        },
        {
          "name": "_callbackFunc",
          "type": "bytes"
        }
      ],
      "name": "requestData",
      "outputs": [],
      "payable": false,
      "stateMutability": "nonpayable",
      "type": "function"
    },
    {
      "constant": true,
      "inputs": [
        {
          "name": "",
          "type": "bytes32"
        },
        {
          "name": "",
          "type": "bytes32"
        }
      ],
      "name": "assertFail",
      "outputs": [],
      "payable": false,
      "stateMutability": "pure",
      "type": "function"
    },
    {
      "constant": false,
      "inputs": [
        {
          "name": "_requestId",
          "type": "bytes32"
        },
        {
          "name": "",
          "type": "bytes32"
        }
      ],
      "name": "cancelRequestOnFulfill",
      "outputs": [],
      "payable": false,
      "stateMutability": "nonpayable",
      "type": "function"
    },
    {
      "constant": false,
      "inputs": [],
      "name": "remove",
      "outputs": [],
      "payable": false,
      "stateMutability": "nonpayable",
      "type": "function"
    },
    {
      "constant": false,
      "inputs": [
        {
          "name": "_requestId",
          "type": "bytes32"
        },
        {
          "name": "",
          "type": "bytes32"
        }
      ],
      "name": "stealEthCall",
      "outputs": [],
      "payable": false,
      "stateMutability": "nonpayable",
      "type": "function"
    },
    {
      "constant": false,
      "inputs": [
        {
          "name": "_requestId",
          "type": "bytes32"
        },
        {
          "name": "",
          "type": "bytes32"
        }
      ],
      "name": "stealEthSend",
      "outputs": [],
      "payable": false,
      "stateMutability": "nonpayable",
      "type": "function"
    },
    {
      "constant": false,
      "inputs": [
        {
          "name": "_requestId",
          "type": "bytes32"
        },
        {
          "name": "",
          "type": "bytes32"
        }
      ],
      "name": "stealEthTransfer",
      "outputs": [],
      "payable": false,
      "stateMutability": "nonpayable",
      "type": "function"
    },
    {
      "constant": true,
      "inputs": [
        {
          "name": "",
          "type": "bytes32"
        },
        {
          "name": "",
          "type": "bytes32"
        }
      ],
      "name": "doesNothing",
      "outputs": [],
      "payable": false,
      "stateMutability": "pure",
      "type": "function"
    }
  ],
  "bytecode": "0x60806040526001600455604051604080611468833981018060405281019080805190602001909291908051906020019092919050505061004d8261006c640100000000026401000000009004565b610065816100b0640100000000026401000000009004565b50506100f4565b80600260006101000a81548173ffffffffffffffffffffffffffffffffffffffff021916908373ffffffffffffffffffffffffffffffffffffffff16021790555050565b80600360006101000a81548173ffffffffffffffffffffffffffffffffffffffff021916908373ffffffffffffffffffffffffffffffffffffffff16021790555050565b611365806101036000396000f30060806040526004361061008e576000357c0100000000000000000000000000000000000000000000000000000000900463ffffffff1680631eb0f61014610090578063a09d636a146100cf578063a7f437791461010e578063acdf0ba214610125578063b40584e814610164578063c728f720146101a3578063c737ecab146101e2578063e7eb2b1714610259575b005b34801561009c57600080fd5b506100cd60048036038101908080356000191690602001909291908035600019169060200190929190505050610298565b005b3480156100db57600080fd5b5061010c6004803603810190808035600019169060200190929190803560001916906020019092919050505061029c565b005b34801561011a57600080fd5b506101236104b6565b005b34801561013157600080fd5b50610162600480360381019080803560001916906020019092919080356000191690602001909291905050506104d0565b005b34801561017057600080fd5b506101a1600480360381019080803560001916906020019092919080356000191690602001909291905050506106f3565b005b3480156101af57600080fd5b506101e060048036038101908080356000191690602001909291908035600019169060200190929190505050610733565b005b3480156101ee57600080fd5b506102576004803603810190808035600019169060200190929190803590602001908201803590602001908080601f01602080910402602001604051908101604052809392919081815260200183838082843782019150505050505091929192905050506108f4565b005b34801561026557600080fd5b50610296600480360381019080803560001916906020019092919080356000191690602001909291905050506109a1565b005b5050565b8160056000826000191660001916815260200190815260200160002060009054906101000a900473ffffffffffffffffffffffffffffffffffffffff1673ffffffffffffffffffffffffffffffffffffffff163373ffffffffffffffffffffffffffffffffffffffff161415156103a1576040517f08c379a00000000000000000000000000000000000000000000000000000000081526004018080602001828103825260288152602001807f536f75726365206d75737420626520746865206f7261636c65206f662074686581526020017f207265717565737400000000000000000000000000000000000000000000000081525060400191505060405180910390fd5b60056000826000191660001916815260200190815260200160002060006101000a81549073ffffffffffffffffffffffffffffffffffffffff021916905580600019167f7cc135e0cebb02c3480ae5d74d377283180a2601f8f644edf7987b009316c63a60405160405180910390a23073ffffffffffffffffffffffffffffffffffffffff16606460405160006040518083038185875af19250505015156104b1576040517f08c379a000000000000000000000000000000000000000000000000000000000815260040180806020018281038252600b8152602001807f43616c6c206661696c656400000000000000000000000000000000000000000081525060200191505060405180910390fd5b505050565b600073ffffffffffffffffffffffffffffffffffffffff16ff5b8160056000826000191660001916815260200190815260200160002060009054906101000a900473ffffffffffffffffffffffffffffffffffffffff1673ffffffffffffffffffffffffffffffffffffffff163373ffffffffffffffffffffffffffffffffffffffff161415156105d5576040517f08c379a00000000000000000000000000000000000000000000000000000000081526004018080602001828103825260288152602001807f536f75726365206d75737420626520746865206f7261636c65206f662074686581526020017f207265717565737400000000000000000000000000000000000000000000000081525060400191505060405180910390fd5b60056000826000191660001916815260200190815260200160002060006101000a81549073ffffffffffffffffffffffffffffffffffffffff021916905580600019167f7cc135e0cebb02c3480ae5d74d377283180a2601f8f644edf7987b009316c63a60405160405180910390a23073ffffffffffffffffffffffffffffffffffffffff166108fc60649081150290604051600060405180830381858888f1935050505015156106ee576040517f08c379a000000000000000000000000000000000000000000000000000000000815260040180806020018281038252600b8152602001807f53656e64206661696c656400000000000000000000000000000000000000000081525060200191505060405180910390fd5b505050565b61072f82670de0b6b3a764000060010263b40584e87c0100000000000000000000000000000000000000000000000000000000026006546109b2565b5050565b8160056000826000191660001916815260200190815260200160002060009054906101000a900473ffffffffffffffffffffffffffffffffffffffff1673ffffffffffffffffffffffffffffffffffffffff163373ffffffffffffffffffffffffffffffffffffffff16141515610838576040517f08c379a00000000000000000000000000000000000000000000000000000000081526004018080602001828103825260288152602001807f536f75726365206d75737420626520746865206f7261636c65206f662074686581526020017f207265717565737400000000000000000000000000000000000000000000000081525060400191505060405180910390fd5b60056000826000191660001916815260200190815260200160002060006101000a81549073ffffffffffffffffffffffffffffffffffffffff021916905580600019167f7cc135e0cebb02c3480ae5d74d377283180a2601f8f644edf7987b009316c63a60405160405180910390a23073ffffffffffffffffffffffffffffffffffffffff166108fc60649081150290604051600060405180830381858888f193505050501580156108ee573d6000803e3d6000fd5b50505050565b6108fc6112b1565b6109698330846040518082805190602001908083835b6020831015156109375780518252602082019150602081019050602083039250610912565b6001836020036101000a0380198251168184511680821785525050505050509050019150506040518091039020610b4d565b905061098061012c42610b7e90919063ffffffff16565b60068190555061099b81670de0b6b3a7640000600102610b9a565b50505050565b600260011415156109ae57fe5b5050565b600060056000866000191660001916815260200190815260200160002060009054906101000a900473ffffffffffffffffffffffffffffffffffffffff16905060056000866000191660001916815260200190815260200160002060006101000a81549073ffffffffffffffffffffffffffffffffffffffff021916905584600019167fe1fe3afa0f7f761ff0a8b89086790efd5140d2907ebd5b7ff6bfcb5e075fd4c560405160405180910390a28073ffffffffffffffffffffffffffffffffffffffff16638a20130b868686866040518563ffffffff167c0100000000000000000000000000000000000000000000000000000000028152600401808560001916600019168152602001848152602001837bffffffffffffffffffffffffffffffffffffffffffffffffffffffff19167bffffffffffffffffffffffffffffffffffffffffffffffffffffffff19168152602001828152602001945050505050600060405180830381600087803b158015610b2e57600080fd5b505af1158015610b42573d6000803e3d6000fd5b505050505050505050565b610b556112b1565b610b5d6112b1565b610b7485858584610bd1909392919063ffffffff16565b9150509392505050565b60008183019050828110151515610b9157fe5b80905092915050565b6000610bc9600360009054906101000a900473ffffffffffffffffffffffffffffffffffffffff168484610c8a565b905092915050565b610bd96112b1565b610be98560800151610100611016565b838560000190600019169081600019168152505082856020019073ffffffffffffffffffffffffffffffffffffffff16908173ffffffffffffffffffffffffffffffffffffffff16815250508185604001907bffffffffffffffffffffffffffffffffffffffffffffffffffffffff191690817bffffffffffffffffffffffffffffffffffffffffffffffffffffffff191681525050849050949350505050565b600030600454604051602001808373ffffffffffffffffffffffffffffffffffffffff1673ffffffffffffffffffffffffffffffffffffffff166c01000000000000000000000000028152601401828152602001925050506040516020818303038152906040526040518082805190602001908083835b602083101515610d265780518252602082019150602081019050602083039250610d01565b6001836020036101000a038019825116818451168082178552505050505050905001915050604051809103902090506004548360600181815250508360056000836000191660001916815260200190815260200160002060006101000a81548173ffffffffffffffffffffffffffffffffffffffff021916908373ffffffffffffffffffffffffffffffffffffffff16021790555080600019167fb5e6e01e79f91267dc17b4e6314d5d4d03593d2ceee0fbb452b750bd70ea5af960405160405180910390a2600260009054906101000a900473ffffffffffffffffffffffffffffffffffffffff1673ffffffffffffffffffffffffffffffffffffffff16634000aea08584610e358761106a565b6040518463ffffffff167c0100000000000000000000000000000000000000000000000000000000028152600401808473ffffffffffffffffffffffffffffffffffffffff1673ffffffffffffffffffffffffffffffffffffffff16815260200183815260200180602001828103825283818151815260200191508051906020019080838360005b83811015610ed8578082015181840152602081019050610ebd565b50505050905090810190601f168015610f055780820380516001836020036101000a031916815260200191505b50945050505050602060405180830381600087803b158015610f2657600080fd5b505af1158015610f3a573d6000803e3d6000fd5b505050506040513d6020811015610f5057600080fd5b81019080805190602001909291905050501515610ffb576040517f08c379a00000000000000000000000000000000000000000000000000000000081526004018080602001828103825260238152602001807f756e61626c6520746f207472616e73666572416e6443616c6c20746f206f726181526020017f636c65000000000000000000000000000000000000000000000000000000000081525060400191505060405180910390fd5b60016004600082825401925050819055508090509392505050565b600061104860207fffffffffffffffffffffffffffffffffffffffffffffffffffffffffffffffe0601f850116611295565b9050808360200181815250506040518084526000815281810160405250505050565b6060600360009054906101000a900473ffffffffffffffffffffffffffffffffffffffff1673ffffffffffffffffffffffffffffffffffffffff1663c3d2026f90507c01000000000000000000000000000000000000000000000000000000000260008060018560000151866020015187604001518860600151896080015160000151604051602401808973ffffffffffffffffffffffffffffffffffffffff1673ffffffffffffffffffffffffffffffffffffffff16815260200188815260200187815260200186600019166000191681526020018573ffffffffffffffffffffffffffffffffffffffff1673ffffffffffffffffffffffffffffffffffffffff168152602001847bffffffffffffffffffffffffffffffffffffffffffffffffffffffff19167bffffffffffffffffffffffffffffffffffffffffffffffffffffffff1916815260200183815260200180602001828103825283818151815260200191508051906020019080838360005b838110156111f85780820151818401526020810190506111dd565b50505050905090810190601f1680156112255780820380516001836020036101000a031916815260200191505b509950505050505050505050604051602081830303815290604052907bffffffffffffffffffffffffffffffffffffffffffffffffffffffff19166020820180517bffffffffffffffffffffffffffffffffffffffffffffffffffffffff83818316178352505050509050919050565b6000818311156112a7578290506112ab565b8190505b92915050565b60c06040519081016040528060008019168152602001600073ffffffffffffffffffffffffffffffffffffffff16815260200160007bffffffffffffffffffffffffffffffffffffffffffffffffffffffff191681526020016000815260200161131961131f565b81525090565b6040805190810160405280606081526020016000815250905600a165627a7a72305820b497d36cb25c500851f8667f874603b104e1441e03b2c4b1698fb9d496c28a1d0029",
  "source": "pragma solidity 0.4.24;\n\n\nimport \"../Chainlinked.sol\";\n\n\ncontract MaliciousConsumer is Chainlinked {\n  uint256 constant private ORACLE_PAYMENT = 1 * LINK; // solium-disable-line zeppelin/no-arithmetic-operations\n  uint256 private expiration;\n\n  constructor(address _link, address _oracle) public payable {\n    setLinkToken(_link);\n    setOracle(_oracle);\n  }\n\n  function () public payable {}\n\n  function requestData(bytes32 _id, bytes _callbackFunc) public {\n    ChainlinkLib.Run memory run = newRun(_id, this, bytes4(keccak256(_callbackFunc)));\n    expiration = now.add(5 minutes);\n    chainlinkRequest(run, ORACLE_PAYMENT);\n  }\n\n  function assertFail(bytes32, bytes32) public pure {\n    assert(1 == 2);\n  }\n\n  function cancelRequestOnFulfill(bytes32 _requestId, bytes32) public {\n    cancelChainlinkRequest(\n      _requestId,\n      ORACLE_PAYMENT,\n      this.cancelRequestOnFulfill.selector,\n      expiration);\n  }\n\n  function remove() public {\n    selfdestruct(address(0));\n  }\n\n  function stealEthCall(bytes32 _requestId, bytes32) public recordChainlinkFulfillment(_requestId) {\n    // solium-disable-next-line security/no-call-value\n    require(address(this).call.value(100)(), \"Call failed\");\n  }\n\n  function stealEthSend(bytes32 _requestId, bytes32) public recordChainlinkFulfillment(_requestId) {\n    // solium-disable-next-line security/no-send\n    require(address(this).send(100), \"Send failed\");\n  }\n\n  function stealEthTransfer(bytes32 _requestId, bytes32) public recordChainlinkFulfillment(_requestId) {\n    address(this).transfer(100);\n  }\n\n  function doesNothing(bytes32, bytes32) public pure {}\n}\n",
  "sourcePath": "/Users/jonashals/go/src/github.com/smartcontractkit/chainlink/solidity/contracts/examples/MaliciousConsumer.sol",
  "compiler": {
    "name": "solc",
    "version": "0.4.24+commit.e67f0147.Emscripten.clang"
  },
  "schemaVersion": "3.0.1",
  "updatedAt": "2019-02-03T15:40:22.451Z",
  "devdoc": {
    "methods": {}
  },
  "userdoc": {
    "methods": {}
  }
}