{
  "contractName": "MaliciousRequester",
  "abi": [
    {
      "inputs": [
        {
          "name": "_link",
          "type": "address"
        },
        {
          "name": "_oracle",
          "type": "address"
        }
      ],
      "payable": false,
      "stateMutability": "nonpayable",
      "type": "constructor"
    },
    {
      "anonymous": false,
      "inputs": [
        {
          "indexed": true,
          "name": "id",
          "type": "bytes32"
        }
      ],
      "name": "ChainlinkRequested",
      "type": "event"
    },
    {
      "anonymous": false,
      "inputs": [
        {
          "indexed": true,
          "name": "id",
          "type": "bytes32"
        }
      ],
      "name": "ChainlinkFulfilled",
      "type": "event"
    },
    {
      "anonymous": false,
      "inputs": [
        {
          "indexed": true,
          "name": "id",
          "type": "bytes32"
        }
      ],
      "name": "ChainlinkCancelled",
      "type": "event"
    },
    {
      "constant": false,
      "inputs": [],
      "name": "maliciousWithdraw",
      "outputs": [],
      "payable": false,
      "stateMutability": "nonpayable",
      "type": "function"
    },
    {
      "constant": false,
      "inputs": [
        {
          "name": "_id",
          "type": "bytes32"
        },
        {
          "name": "_target",
          "type": "address"
        },
        {
          "name": "_callbackFunc",
          "type": "bytes"
        }
      ],
      "name": "request",
      "outputs": [
        {
          "name": "requestId",
          "type": "bytes32"
        }
      ],
      "payable": false,
      "stateMutability": "nonpayable",
      "type": "function"
    },
    {
      "constant": false,
      "inputs": [
        {
          "name": "_id",
          "type": "bytes32"
        }
      ],
      "name": "maliciousPrice",
      "outputs": [
        {
          "name": "requestId",
          "type": "bytes32"
        }
      ],
      "payable": false,
      "stateMutability": "nonpayable",
      "type": "function"
    },
    {
      "constant": false,
      "inputs": [
        {
          "name": "_target",
          "type": "address"
        }
      ],
      "name": "maliciousTargetConsumer",
      "outputs": [
        {
          "name": "requestId",
          "type": "bytes32"
        }
      ],
      "payable": false,
      "stateMutability": "nonpayable",
      "type": "function"
    },
    {
      "constant": false,
      "inputs": [
        {
          "name": "_id",
          "type": "bytes32"
        },
        {
          "name": "_callbackFunc",
          "type": "bytes"
        }
      ],
      "name": "maliciousRequestCancel",
      "outputs": [],
      "payable": false,
      "stateMutability": "nonpayable",
      "type": "function"
    },
    {
      "constant": true,
      "inputs": [
        {
          "name": "",
          "type": "bytes32"
        },
        {
          "name": "",
          "type": "bytes32"
        }
      ],
      "name": "doesNothing",
      "outputs": [],
      "payable": false,
      "stateMutability": "pure",
      "type": "function"
    }
  ],
  "bytecode": "0x60806040526001600455600160065534801561001a57600080fd5b506040516040806200215383398101806040528101908080519060200190929190805190602001909291905050506100608261007f640100000000026401000000009004565b610078816100c3640100000000026401000000009004565b5050610107565b80600260006101000a81548173ffffffffffffffffffffffffffffffffffffffff021916908373ffffffffffffffffffffffffffffffffffffffff16021790555050565b80600360006101000a81548173ffffffffffffffffffffffffffffffffffffffff021916908373ffffffffffffffffffffffffffffffffffffffff16021790555050565b61203c80620001176000396000f300608060405260043610610078576000357c0100000000000000000000000000000000000000000000000000000000900463ffffffff1680631188ffff1461007d5780631ea3949e146100f45780631eb0f6101461010b578063cae2d8881461014a578063dac4c125146101a9578063e325a1181461025c575b600080fd5b34801561008957600080fd5b506100f26004803603810190808035600019169060200190929190803590602001908201803590602001908080601f01602080910402602001604051908101604052809392919081815260200183838082843782019150505050505091929192905050506102a9565b005b34801561010057600080fd5b506101096103d9565b005b34801561011757600080fd5b506101486004803603810190808035600019169060200190929190803560001916906020019092919050505061044a565b005b34801561015657600080fd5b5061018b600480360381019080803573ffffffffffffffffffffffffffffffffffffffff16906020019092919050505061044e565b60405180826000191660001916815260200191505060405180910390f35b3480156101b557600080fd5b5061023e6004803603810190808035600019169060200190929190803573ffffffffffffffffffffffffffffffffffffffff169060200190929190803590602001908201803590602001908080601f01602080910402602001604051908101604052809392919081815260200183838082843782019150505050505091929192905050506104d8565b60405180826000191660001916815260200191505060405180910390f35b34801561026857600080fd5b5061028b600480360381019080803560001916906020019092919050505061058b565b60405180826000191660001916815260200191505060405180910390f35b60006102b36105e2565b90508073ffffffffffffffffffffffffffffffffffffffff16638a20130b6102dc8530866104d8565b670de0b6b3a7640000600102631188ffff7c0100000000000000000000000000000000000000000000000000000000026008546040518563ffffffff167c0100000000000000000000000000000000000000000000000000000000028152600401808560001916600019168152602001848152602001837bffffffffffffffffffffffffffffffffffffffffffffffffffffffff19167bffffffffffffffffffffffffffffffffffffffffffffffffffffffff19168152602001828152602001945050505050600060405180830381600087803b1580156103bc57600080fd5b505af11580156103d0573d6000803e3d6000fd5b50505050505050565b6103e1611f1a565b61042f7f737065634964000000000000000000000000000000000000000000000000000030631eb0f6107c01000000000000000000000000000000000000000000000000000000000261060c565b905061044681670de0b6b3a764000060010261063d565b5050565b5050565b6000610458611f88565b6104b87f73706563496400000000000000000000000000000000000000000000000000008460405180807f66756c66696c6c28627974657333322c62797465733332290000000000000000815250601801905060405180910390206109c0565b90506104d08382670de0b6b3a76400006001026109f1565b915050919050565b60006104e2611f88565b61054f8585856040518082805190602001908083835b60208310151561051d57805182526020820191506020810190506020830392506104f8565b6001836020036101000a03801982511681845116808217855250505050505090500191505060405180910390206109c0565b905061056661012c42610d7590919063ffffffff16565b60088190555061058181670de0b6b3a7640000600102610d91565b9150509392505050565b6000610595611f88565b6105c38330631eb0f6107c0100000000000000000000000000000000000000000000000000000000026109c0565b90506105da81670de0b6b3a7640000600102610dc8565b915050919050565b6000600360009054906101000a900473ffffffffffffffffffffffffffffffffffffffff16905090565b610614611f1a565b61061c611f1a565b6106338585858461114b909392919063ffffffff16565b9150509392505050565b60008030600654604051602001808373ffffffffffffffffffffffffffffffffffffffff1673ffffffffffffffffffffffffffffffffffffffff166c01000000000000000000000000028152601401828152602001925050506040516020818303038152906040526040518082805190602001908083835b6020831015156106da57805182526020820191506020810190506020830392506106b5565b6001836020036101000a0380198251168184511680821785525050505050509050019150506040518091039020915060065484606001818152505061071d6105e2565b60076000846000191660001916815260200190815260200160002060006101000a81548173ffffffffffffffffffffffffffffffffffffffff021916908373ffffffffffffffffffffffffffffffffffffffff16021790555081600019167fb5e6e01e79f91267dc17b4e6314d5d4d03593d2ceee0fbb452b750bd70ea5af960405160405180910390a26107af611203565b90508073ffffffffffffffffffffffffffffffffffffffff16634000aea06107d56105e2565b856107df8861122d565b6040518463ffffffff167c0100000000000000000000000000000000000000000000000000000000028152600401808473ffffffffffffffffffffffffffffffffffffffff1673ffffffffffffffffffffffffffffffffffffffff16815260200183815260200180602001828103825283818151815260200191508051906020019080838360005b83811015610882578082015181840152602081019050610867565b50505050905090810190601f1680156108af5780820380516001836020036101000a031916815260200191505b50945050505050602060405180830381600087803b1580156108d057600080fd5b505af11580156108e4573d6000803e3d6000fd5b505050506040513d60208110156108fa57600080fd5b810190808051906020019092919050505015156109a5576040517f08c379a00000000000000000000000000000000000000000000000000000000081526004018080602001828103825260238152602001807f556e61626c6520746f207472616e73666572416e6443616c6c20746f206f726181526020017f636c65000000000000000000000000000000000000000000000000000000000081525060400191505060405180910390fd5b60016006600082825401925050819055508191505092915050565b6109c8611f88565b6109d0611f88565b6109e7858585846113d5909392919063ffffffff16565b9150509392505050565b60008084600654604051602001808373ffffffffffffffffffffffffffffffffffffffff1673ffffffffffffffffffffffffffffffffffffffff166c01000000000000000000000000028152601401828152602001925050506040516020818303038152906040526040518082805190602001908083835b602083101515610a8e5780518252602082019150602081019050602083039250610a69565b6001836020036101000a03801982511681845116808217855250505050505090500191505060405180910390209150600654846060018181525050610ad16105e2565b60076000846000191660001916815260200190815260200160002060006101000a81548173ffffffffffffffffffffffffffffffffffffffff021916908373ffffffffffffffffffffffffffffffffffffffff16021790555081600019167fb5e6e01e79f91267dc17b4e6314d5d4d03593d2ceee0fbb452b750bd70ea5af960405160405180910390a2610b63611203565b90508073ffffffffffffffffffffffffffffffffffffffff16634000aea0610b896105e2565b85610b938861148e565b6040518463ffffffff167c0100000000000000000000000000000000000000000000000000000000028152600401808473ffffffffffffffffffffffffffffffffffffffff1673ffffffffffffffffffffffffffffffffffffffff16815260200183815260200180602001828103825283818151815260200191508051906020019080838360005b83811015610c36578082015181840152602081019050610c1b565b50505050905090810190601f168015610c635780820380516001836020036101000a031916815260200191505b50945050505050602060405180830381600087803b158015610c8457600080fd5b505af1158015610c98573d6000803e3d6000fd5b505050506040513d6020811015610cae57600080fd5b81019080805190602001909291905050501515610d59576040517f08c379a00000000000000000000000000000000000000000000000000000000081526004018080602001828103825260238152602001807f556e61626c6520746f207472616e73666572416e6443616c6c20746f206f726181526020017f636c65000000000000000000000000000000000000000000000000000000000081525060400191505060405180910390fd5b6001600660008282540192505081905550819150509392505050565b60008183019050828110151515610d8857fe5b80905092915050565b6000610dc0600360009054906101000a900473ffffffffffffffffffffffffffffffffffffffff1684846116b9565b905092915050565b60008030600654604051602001808373ffffffffffffffffffffffffffffffffffffffff1673ffffffffffffffffffffffffffffffffffffffff166c01000000000000000000000000028152601401828152602001925050506040516020818303038152906040526040518082805190602001908083835b602083101515610e655780518252602082019150602081019050602083039250610e40565b6001836020036101000a03801982511681845116808217855250505050505090500191505060405180910390209150600654846060018181525050610ea86105e2565b60076000846000191660001916815260200190815260200160002060006101000a81548173ffffffffffffffffffffffffffffffffffffffff021916908373ffffffffffffffffffffffffffffffffffffffff16021790555081600019167fb5e6e01e79f91267dc17b4e6314d5d4d03593d2ceee0fbb452b750bd70ea5af960405160405180910390a2610f3a611203565b90508073ffffffffffffffffffffffffffffffffffffffff16634000aea0610f606105e2565b85610f6a88611a45565b6040518463ffffffff167c0100000000000000000000000000000000000000000000000000000000028152600401808473ffffffffffffffffffffffffffffffffffffffff1673ffffffffffffffffffffffffffffffffffffffff16815260200183815260200180602001828103825283818151815260200191508051906020019080838360005b8381101561100d578082015181840152602081019050610ff2565b50505050905090810190601f16801561103a5780820380516001836020036101000a031916815260200191505b50945050505050602060405180830381600087803b15801561105b57600080fd5b505af115801561106f573d6000803e3d6000fd5b505050506040513d602081101561108557600080fd5b81019080805190602001909291905050501515611130576040517f08c379a00000000000000000000000000000000000000000000000000000000081526004018080602001828103825260238152602001807f556e61626c6520746f207472616e73666572416e6443616c6c20746f206f726181526020017f636c65000000000000000000000000000000000000000000000000000000000081525060400191505060405180910390fd5b60016006600082825401925050819055508191505092915050565b611153611f1a565b61116285608001516080611c7f565b838560000190600019169081600019168152505082856020019073ffffffffffffffffffffffffffffffffffffffff16908173ffffffffffffffffffffffffffffffffffffffff16815250508185604001907bffffffffffffffffffffffffffffffffffffffffffffffffffffffff191690817bffffffffffffffffffffffffffffffffffffffffffffffffffffffff191681525050849050949350505050565b6000600260009054906101000a900473ffffffffffffffffffffffffffffffffffffffff16905090565b606060405180807f776974686472617728616464726573732c75696e74323536290000000000000081525060190190506040518091039020826020015183604001518460600151856080015160000151604051602401808573ffffffffffffffffffffffffffffffffffffffff1673ffffffffffffffffffffffffffffffffffffffff168152602001847bffffffffffffffffffffffffffffffffffffffffffffffffffffffff19167bffffffffffffffffffffffffffffffffffffffffffffffffffffffff1916815260200183815260200180602001828103825283818151815260200191508051906020019080838360005b8381101561133c578082015181840152602081019050611321565b50505050905090810190601f1680156113695780820380516001836020036101000a031916815260200191505b5095505050505050604051602081830303815290604052907bffffffffffffffffffffffffffffffffffffffffffffffffffffffff19166020820180517bffffffffffffffffffffffffffffffffffffffffffffffffffffffff83818316178352505050509050919050565b6113dd611f88565b6113ed8560800151610100611c7f565b838560000190600019169081600019168152505082856020019073ffffffffffffffffffffffffffffffffffffffff16908173ffffffffffffffffffffffffffffffffffffffff16815250508185604001907bffffffffffffffffffffffffffffffffffffffffffffffffffffffff191690817bffffffffffffffffffffffffffffffffffffffffffffffffffffffff191681525050849050949350505050565b606060405180807f726571756573744461746128616464726573732c75696e743235362c75696e7481526020017f3235362c627974657333322c616464726573732c6279746573342c75696e743281526020017f35362c62797465732900000000000000000000000000000000000000000000008152506049019050604051809103902060008060018560000151866020015187604001518860600151896080015160000151604051602401808960ff1681526020018860ff1681526020018760ff16815260200186600019166000191681526020018573ffffffffffffffffffffffffffffffffffffffff1673ffffffffffffffffffffffffffffffffffffffff168152602001847bffffffffffffffffffffffffffffffffffffffffffffffffffffffff19167bffffffffffffffffffffffffffffffffffffffffffffffffffffffff1916815260200183815260200180602001828103825283818151815260200191508051906020019080838360005b8381101561161c578082015181840152602081019050611601565b50505050905090810190601f1680156116495780820380516001836020036101000a031916815260200191505b509950505050505050505050604051602081830303815290604052907bffffffffffffffffffffffffffffffffffffffffffffffffffffffff19166020820180517bffffffffffffffffffffffffffffffffffffffffffffffffffffffff83818316178352505050509050919050565b600030600454604051602001808373ffffffffffffffffffffffffffffffffffffffff1673ffffffffffffffffffffffffffffffffffffffff166c01000000000000000000000000028152601401828152602001925050506040516020818303038152906040526040518082805190602001908083835b6020831015156117555780518252602082019150602081019050602083039250611730565b6001836020036101000a038019825116818451168082178552505050505050905001915050604051809103902090506004548360600181815250508360056000836000191660001916815260200190815260200160002060006101000a81548173ffffffffffffffffffffffffffffffffffffffff021916908373ffffffffffffffffffffffffffffffffffffffff16021790555080600019167fb5e6e01e79f91267dc17b4e6314d5d4d03593d2ceee0fbb452b750bd70ea5af960405160405180910390a2600260009054906101000a900473ffffffffffffffffffffffffffffffffffffffff1673ffffffffffffffffffffffffffffffffffffffff16634000aea0858461186487611cd3565b6040518463ffffffff167c0100000000000000000000000000000000000000000000000000000000028152600401808473ffffffffffffffffffffffffffffffffffffffff1673ffffffffffffffffffffffffffffffffffffffff16815260200183815260200180602001828103825283818151815260200191508051906020019080838360005b838110156119075780820151818401526020810190506118ec565b50505050905090810190601f1680156119345780820380516001836020036101000a031916815260200191505b50945050505050602060405180830381600087803b15801561195557600080fd5b505af1158015611969573d6000803e3d6000fd5b505050506040513d602081101561197f57600080fd5b81019080805190602001909291905050501515611a2a576040517f08c379a00000000000000000000000000000000000000000000000000000000081526004018080602001828103825260238152602001807f756e61626c6520746f207472616e73666572416e6443616c6c20746f206f726181526020017f636c65000000000000000000000000000000000000000000000000000000000081525060400191505060405180910390fd5b60016004600082825401925050819055508090509392505050565b606060405180807f726571756573744461746128616464726573732c75696e743235362c75696e7481526020017f3235362c627974657333322c616464726573732c6279746573342c75696e743281526020017f35362c6279746573290000000000000000000000000000000000000000000000815250604901905060405180910390206000671bc16d674ec8000060018560000151866020015187604001518860600151896080015160000151604051602401808960ff1681526020018867ffffffffffffffff1681526020018760ff16815260200186600019166000191681526020018573ffffffffffffffffffffffffffffffffffffffff1673ffffffffffffffffffffffffffffffffffffffff168152602001847bffffffffffffffffffffffffffffffffffffffffffffffffffffffff19167bffffffffffffffffffffffffffffffffffffffffffffffffffffffff1916815260200183815260200180602001828103825283818151815260200191508051906020019080838360005b83811015611be2578082015181840152602081019050611bc7565b50505050905090810190601f168015611c0f5780820380516001836020036101000a031916815260200191505b509950505050505050505050604051602081830303815290604052907bffffffffffffffffffffffffffffffffffffffffffffffffffffffff19166020820180517bffffffffffffffffffffffffffffffffffffffffffffffffffffffff83818316178352505050509050919050565b6000611cb160207fffffffffffffffffffffffffffffffffffffffffffffffffffffffffffffffe0601f850116611efe565b9050808360200181815250506040518084526000815281810160405250505050565b6060600360009054906101000a900473ffffffffffffffffffffffffffffffffffffffff1673ffffffffffffffffffffffffffffffffffffffff1663c3d2026f90507c01000000000000000000000000000000000000000000000000000000000260008060018560000151866020015187604001518860600151896080015160000151604051602401808973ffffffffffffffffffffffffffffffffffffffff1673ffffffffffffffffffffffffffffffffffffffff16815260200188815260200187815260200186600019166000191681526020018573ffffffffffffffffffffffffffffffffffffffff1673ffffffffffffffffffffffffffffffffffffffff168152602001847bffffffffffffffffffffffffffffffffffffffffffffffffffffffff19167bffffffffffffffffffffffffffffffffffffffffffffffffffffffff1916815260200183815260200180602001828103825283818151815260200191508051906020019080838360005b83811015611e61578082015181840152602081019050611e46565b50505050905090810190601f168015611e8e5780820380516001836020036101000a031916815260200191505b509950505050505050505050604051602081830303815290604052907bffffffffffffffffffffffffffffffffffffffffffffffffffffffff19166020820180517bffffffffffffffffffffffffffffffffffffffffffffffffffffffff83818316178352505050509050919050565b600081831115611f1057829050611f14565b8190505b92915050565b60c06040519081016040528060008019168152602001600073ffffffffffffffffffffffffffffffffffffffff16815260200160007bffffffffffffffffffffffffffffffffffffffffffffffffffffffff1916815260200160008152602001611f82611ff6565b81525090565b60c06040519081016040528060008019168152602001600073ffffffffffffffffffffffffffffffffffffffff16815260200160007bffffffffffffffffffffffffffffffffffffffffffffffffffffffff1916815260200160008152602001611ff0611ff6565b81525090565b6040805190810160405280606081526020016000815250905600a165627a7a723058203ffdeac04606204538d629be3a1fe816bd8aa62c8e19d2fdcbc76bf0b09d49180029",
  "source": "pragma solidity 0.4.24;\n\n\nimport \"./MaliciousChainlinked.sol\";\n\n\ncontract MaliciousRequester is MaliciousChainlinked {\n\n  uint256 constant private ORACLE_PAYMENT = 1 * LINK; // solium-disable-line zeppelin/no-arithmetic-operations\n  uint256 private expiration;\n\n  constructor(address _link, address _oracle)\n    public\n  {\n    setLinkToken(_link);\n    setOracle(_oracle);\n  }\n\n  function maliciousWithdraw()\n    public\n  {\n    MaliciousChainlinkLib.WithdrawRun memory run = newWithdrawRun(\n      \"specId\", this, this.doesNothing.selector);\n    chainlinkWithdrawRequest(run, ORACLE_PAYMENT);\n  }\n\n  function request(bytes32 _id, address _target, bytes _callbackFunc) public returns (bytes32 requestId) {\n    ChainlinkLib.Run memory run = newRun(_id, _target, bytes4(keccak256(_callbackFunc)));\n    expiration = now.add(5 minutes);\n    requestId = chainlinkRequest(run, ORACLE_PAYMENT);\n  }\n\n  function maliciousPrice(bytes32 _id) public returns (bytes32 requestId) {\n    ChainlinkLib.Run memory run = newRun(_id, this, this.doesNothing.selector);\n    requestId = chainlinkPriceRequest(run, ORACLE_PAYMENT);\n  }\n\n  function maliciousTargetConsumer(address _target) public returns (bytes32 requestId) {\n    ChainlinkLib.Run memory run = newRun(\"specId\", _target, bytes4(keccak256(\"fulfill(bytes32,bytes32)\")));\n    requestId = chainlinkTargetRequest(_target, run, ORACLE_PAYMENT);\n  }\n\n  function maliciousRequestCancel(bytes32 _id, bytes _callbackFunc) public {\n    ChainlinkRequestInterface oracle = ChainlinkRequestInterface(oracleAddress());\n    oracle.cancel(\n      request(_id, this, _callbackFunc),\n      ORACLE_PAYMENT,\n      this.maliciousRequestCancel.selector,\n      expiration\n    );\n  }\n\n  function doesNothing(bytes32, bytes32) public pure {}\n}\n",
  "sourcePath": "/Users/jonashals/go/src/github.com/smartcontractkit/chainlink/solidity/contracts/examples/MaliciousRequester.sol",
  "compiler": {
    "name": "solc",
    "version": "0.4.24+commit.e67f0147.Emscripten.clang"
  },
  "schemaVersion": "3.0.1",
  "updatedAt": "2019-02-03T15:40:22.457Z",
  "devdoc": {
    "methods": {}
  },
  "userdoc": {
    "methods": {}
  }
}