{
  "contractName": "Oracle",
  "abi": [
    {
      "constant": true,
      "inputs": [],
      "name": "EXPIRY_TIME",
      "outputs": [
        {
          "name": "",
          "type": "uint256"
        }
      ],
      "payable": false,
      "stateMutability": "view",
      "type": "function"
    },
    {
      "constant": false,
      "inputs": [],
      "name": "renounceOwnership",
      "outputs": [],
      "payable": false,
      "stateMutability": "nonpayable",
      "type": "function"
    },
    {
      "constant": true,
      "inputs": [],
      "name": "owner",
      "outputs": [
        {
          "name": "",
          "type": "address"
        }
      ],
      "payable": false,
      "stateMutability": "view",
      "type": "function"
    },
    {
      "constant": false,
      "inputs": [
        {
          "name": "_newOwner",
          "type": "address"
        }
      ],
      "name": "transferOwnership",
      "outputs": [],
      "payable": false,
      "stateMutability": "nonpayable",
      "type": "function"
    },
    {
      "inputs": [
        {
          "name": "_link",
          "type": "address"
        }
      ],
      "payable": false,
      "stateMutability": "nonpayable",
      "type": "constructor"
    },
    {
      "anonymous": false,
      "inputs": [
        {
          "indexed": true,
          "name": "specId",
          "type": "bytes32"
        },
        {
          "indexed": true,
          "name": "requester",
          "type": "address"
        },
        {
          "indexed": true,
          "name": "payment",
          "type": "uint256"
        },
        {
          "indexed": false,
          "name": "requestId",
          "type": "uint256"
        },
        {
          "indexed": false,
          "name": "dataVersion",
          "type": "uint256"
        },
        {
          "indexed": false,
          "name": "callbackAddr",
          "type": "address"
        },
        {
          "indexed": false,
          "name": "callbackFunctionId",
          "type": "bytes4"
        },
        {
          "indexed": false,
          "name": "cancelExpiration",
          "type": "uint256"
        },
        {
          "indexed": false,
          "name": "data",
          "type": "bytes"
        }
      ],
      "name": "RunRequest",
      "type": "event"
    },
    {
      "anonymous": false,
      "inputs": [
        {
          "indexed": true,
          "name": "requestId",
          "type": "bytes32"
        }
      ],
      "name": "CancelRequest",
      "type": "event"
    },
    {
      "anonymous": false,
      "inputs": [
        {
          "indexed": true,
          "name": "previousOwner",
          "type": "address"
        }
      ],
      "name": "OwnershipRenounced",
      "type": "event"
    },
    {
      "anonymous": false,
      "inputs": [
        {
          "indexed": true,
          "name": "previousOwner",
          "type": "address"
        },
        {
          "indexed": true,
          "name": "newOwner",
          "type": "address"
        }
      ],
      "name": "OwnershipTransferred",
      "type": "event"
    },
    {
      "constant": false,
      "inputs": [
        {
          "name": "_sender",
          "type": "address"
        },
        {
          "name": "_amount",
          "type": "uint256"
        },
        {
          "name": "_data",
          "type": "bytes"
        }
      ],
      "name": "onTokenTransfer",
      "outputs": [],
      "payable": false,
      "stateMutability": "nonpayable",
      "type": "function"
    },
    {
      "constant": false,
      "inputs": [
        {
          "name": "_sender",
          "type": "address"
        },
        {
          "name": "_payment",
          "type": "uint256"
        },
        {
          "name": "_dataVersion",
          "type": "uint256"
        },
        {
          "name": "_specId",
          "type": "bytes32"
        },
        {
          "name": "_callbackAddress",
          "type": "address"
        },
        {
          "name": "_callbackFunctionId",
          "type": "bytes4"
        },
        {
          "name": "_nonce",
          "type": "uint256"
        },
        {
          "name": "_data",
          "type": "bytes"
        }
      ],
      "name": "requestData",
      "outputs": [],
      "payable": false,
      "stateMutability": "nonpayable",
      "type": "function"
    },
    {
      "constant": false,
      "inputs": [
        {
          "name": "_requestId",
          "type": "uint256"
        },
        {
          "name": "_payment",
          "type": "uint256"
        },
        {
          "name": "_callbackAddress",
          "type": "address"
        },
        {
          "name": "_callbackFunctionId",
          "type": "bytes4"
        },
        {
          "name": "_expiration",
          "type": "uint256"
        },
        {
          "name": "_data",
          "type": "bytes32"
        }
      ],
      "name": "fulfillData",
      "outputs": [
        {
          "name": "",
          "type": "bool"
        }
      ],
      "payable": false,
      "stateMutability": "nonpayable",
      "type": "function"
    },
    {
      "constant": true,
      "inputs": [
        {
          "name": "_node",
          "type": "address"
        }
      ],
      "name": "getAuthorizationStatus",
      "outputs": [
        {
          "name": "",
          "type": "bool"
        }
      ],
      "payable": false,
      "stateMutability": "view",
      "type": "function"
    },
    {
      "constant": false,
      "inputs": [
        {
          "name": "_node",
          "type": "address"
        },
        {
          "name": "_allowed",
          "type": "bool"
        }
      ],
      "name": "setFulfillmentPermission",
      "outputs": [],
      "payable": false,
      "stateMutability": "nonpayable",
      "type": "function"
    },
    {
      "constant": false,
      "inputs": [
        {
          "name": "_recipient",
          "type": "address"
        },
        {
          "name": "_amount",
          "type": "uint256"
        }
      ],
      "name": "withdraw",
      "outputs": [],
      "payable": false,
      "stateMutability": "nonpayable",
      "type": "function"
    },
    {
      "constant": true,
      "inputs": [],
      "name": "withdrawable",
      "outputs": [
        {
          "name": "",
          "type": "uint256"
        }
      ],
      "payable": false,
      "stateMutability": "view",
      "type": "function"
    },
    {
      "constant": false,
      "inputs": [
        {
          "name": "_requestId",
          "type": "bytes32"
        },
        {
          "name": "_payment",
          "type": "uint256"
        },
        {
          "name": "_callbackFunc",
          "type": "bytes4"
        },
        {
          "name": "_expiration",
          "type": "uint256"
        }
      ],
      "name": "cancel",
      "outputs": [],
      "payable": false,
      "stateMutability": "nonpayable",
      "type": "function"
    }
  ],
  "bytecode": "0x6080604052600160045534801561001557600080fd5b50604051602080611db383398101806040528101908080519060200190929190505050336000806101000a81548173ffffffffffffffffffffffffffffffffffffffff021916908373ffffffffffffffffffffffffffffffffffffffff16021790555080600160006101000a81548173ffffffffffffffffffffffffffffffffffffffff021916908373ffffffffffffffffffffffffffffffffffffffff16021790555050611cea806100c96000396000f3006080604052600436106100ba576000357c0100000000000000000000000000000000000000000000000000000000900463ffffffff1680634b602282146100bf57806350188301146100ea578063715018a6146101155780637fcd56db1461012c5780638a20130b1461017b5780638da5cb5b146101e9578063a4c0ed3614610240578063c3d2026f146102d3578063d3e9c314146103a3578063eea57e70146103fe578063f2fde38b146104ae578063f3fef3a3146104f1575b600080fd5b3480156100cb57600080fd5b506100d461053e565b6040518082815260200191505060405180910390f35b3480156100f657600080fd5b506100ff610544565b6040518082815260200191505060405180910390f35b34801561012157600080fd5b5061012a6105bc565b005b34801561013857600080fd5b50610179600480360381019080803573ffffffffffffffffffffffffffffffffffffffff1690602001909291908035151590602001909291905050506106be565b005b34801561018757600080fd5b506101e760048036038101908080356000191690602001909291908035906020019092919080357bffffffffffffffffffffffffffffffffffffffffffffffffffffffff1916906020019092919080359060200190929190505050610774565b005b3480156101f557600080fd5b506101fe610afc565b604051808273ffffffffffffffffffffffffffffffffffffffff1673ffffffffffffffffffffffffffffffffffffffff16815260200191505060405180910390f35b34801561024c57600080fd5b506102d1600480360381019080803573ffffffffffffffffffffffffffffffffffffffff16906020019092919080359060200190929190803590602001908201803590602001908080601f0160208091040260200160405190810160405280939291908181526020018383808284378201915050505050509192919290505050610b21565b005b3480156102df57600080fd5b506103a1600480360381019080803573ffffffffffffffffffffffffffffffffffffffff16906020019092919080359060200190929190803590602001909291908035600019169060200190929190803573ffffffffffffffffffffffffffffffffffffffff16906020019092919080357bffffffffffffffffffffffffffffffffffffffffffffffffffffffff1916906020019092919080359060200190929190803590602001908201803590602001919091929391929390505050610e56565b005b3480156103af57600080fd5b506103e4600480360381019080803573ffffffffffffffffffffffffffffffffffffffff1690602001909291905050506113a5565b604051808215151515815260200191505060405180910390f35b34801561040a57600080fd5b506104946004803603810190808035906020019092919080359060200190929190803573ffffffffffffffffffffffffffffffffffffffff16906020019092919080357bffffffffffffffffffffffffffffffffffffffffffffffffffffffff191690602001909291908035906020019092919080356000191690602001909291905050506113fb565b604051808215151515815260200191505060405180910390f35b3480156104ba57600080fd5b506104ef600480360381019080803573ffffffffffffffffffffffffffffffffffffffff1690602001909291905050506118f1565b005b3480156104fd57600080fd5b5061053c600480360381019080803573ffffffffffffffffffffffffffffffffffffffff16906020019092919080359060200190929190505050611958565b005b61012c81565b60008060009054906101000a900473ffffffffffffffffffffffffffffffffffffffff1673ffffffffffffffffffffffffffffffffffffffff163373ffffffffffffffffffffffffffffffffffffffff161415156105a157600080fd5b6105b76001600454611b8f90919063ffffffff16565b905090565b6000809054906101000a900473ffffffffffffffffffffffffffffffffffffffff1673ffffffffffffffffffffffffffffffffffffffff163373ffffffffffffffffffffffffffffffffffffffff1614151561061757600080fd5b6000809054906101000a900473ffffffffffffffffffffffffffffffffffffffff1673ffffffffffffffffffffffffffffffffffffffff167ff8df31144d9c2f0f6b59d69b8b98abd5459d07f2742c4df920b25aae33c6482060405160405180910390a260008060006101000a81548173ffffffffffffffffffffffffffffffffffffffff021916908373ffffffffffffffffffffffffffffffffffffffff160217905550565b6000809054906101000a900473ffffffffffffffffffffffffffffffffffffffff1673ffffffffffffffffffffffffffffffffffffffff163373ffffffffffffffffffffffffffffffffffffffff1614151561071957600080fd5b80600360008473ffffffffffffffffffffffffffffffffffffffff1673ffffffffffffffffffffffffffffffffffffffff16815260200190815260200160002060006101000a81548160ff0219169083151502179055505050565b600083338484604051602001808581526020018473ffffffffffffffffffffffffffffffffffffffff1673ffffffffffffffffffffffffffffffffffffffff166c01000000000000000000000000028152601401837bffffffffffffffffffffffffffffffffffffffffffffffffffffffff19167bffffffffffffffffffffffffffffffffffffffffffffffffffffffff191681526004018281526020019450505050506040516020818303038152906040526040518082805190602001908083835b60208310151561085c5780518252602082019150602081019050602083039250610837565b6001836020036101000a0380198251168184511680821785525050505050509050019150506040518091039020905060026000866000191660001916815260200190815260200160002054600019168160001916141515610925576040517f08c379a000000000000000000000000000000000000000000000000000000000815260040180806020018281038252601e8152602001807f506172616d7320646f206e6f74206d617463682072657175657374204944000081525060200191505060405180910390fd5b42821115151561099d576040517f08c379a00000000000000000000000000000000000000000000000000000000081526004018080602001828103825260168152602001807f52657175657374206973206e6f7420657870697265640000000000000000000081525060200191505060405180910390fd5b6002600086600019166000191681526020019081526020016000206000905584600019167f2002125a4b5064a9eee28f96e8999ee0f26ffc896f5ee4d869f37c8f53c52e0660405160405180910390a2600160009054906101000a900473ffffffffffffffffffffffffffffffffffffffff1673ffffffffffffffffffffffffffffffffffffffff1663a9059cbb33866040518363ffffffff167c0100000000000000000000000000000000000000000000000000000000028152600401808373ffffffffffffffffffffffffffffffffffffffff1673ffffffffffffffffffffffffffffffffffffffff16815260200182815260200192505050602060405180830381600087803b158015610ab257600080fd5b505af1158015610ac6573d6000803e3d6000fd5b505050506040513d6020811015610adc57600080fd5b81019080805190602001909291905050501515610af557fe5b5050505050565b6000809054906101000a900473ffffffffffffffffffffffffffffffffffffffff1681565b600160009054906101000a900473ffffffffffffffffffffffffffffffffffffffff1673ffffffffffffffffffffffffffffffffffffffff163373ffffffffffffffffffffffffffffffffffffffff16141515610be6576040517f08c379a00000000000000000000000000000000000000000000000000000000081526004018080602001828103825260138152602001807f4d75737420757365204c494e4b20746f6b656e0000000000000000000000000081525060200191505060405180910390fd5b806009602002600401815110151515610c67576040517f08c379a00000000000000000000000000000000000000000000000000000000081526004018080602001828103825260168152602001807f496e76616c69642072657175657374206c656e6774680000000000000000000081525060200191505060405180910390fd5b8160006020820151905063c3d2026f7c0100000000000000000000000000000000000000000000000000000000027bffffffffffffffffffffffffffffffffffffffffffffffffffffffff1916817bffffffffffffffffffffffffffffffffffffffffffffffffffffffff1916141515610d49576040517f08c379a000000000000000000000000000000000000000000000000000000000815260040180806020018281038252601e8152602001807f4d757374207573652077686974656c69737465642066756e6374696f6e73000081525060200191505060405180910390fd5b8560248501528460448501523073ffffffffffffffffffffffffffffffffffffffff168460405180828051906020019080838360005b83811015610d9a578082015181840152602081019050610d7f565b50505050905090810190601f168015610dc75780820380516001836020036101000a031916815260200191505b50915050600060405180830381855af49150501515610e4e576040517f08c379a00000000000000000000000000000000000000000000000000000000081526004018080602001828103825260188152602001807f556e61626c6520746f206372656174652072657175657374000000000000000081525060200191505060405180910390fd5b505050505050565b600080600160009054906101000a900473ffffffffffffffffffffffffffffffffffffffff1673ffffffffffffffffffffffffffffffffffffffff163373ffffffffffffffffffffffffffffffffffffffff16141515610f1e576040517f08c379a00000000000000000000000000000000000000000000000000000000081526004018080602001828103825260138152602001807f4d75737420757365204c494e4b20746f6b656e0000000000000000000000000081525060200191505060405180910390fd5b86600160009054906101000a900473ffffffffffffffffffffffffffffffffffffffff1673ffffffffffffffffffffffffffffffffffffffff168173ffffffffffffffffffffffffffffffffffffffff1614151515610fe5576040517f08c379a00000000000000000000000000000000000000000000000000000000081526004018080602001828103825260178152602001807f43616e6e6f742063616c6c6261636b20746f204c494e4b00000000000000000081525060200191505060405180910390fd5b8b86604051602001808373ffffffffffffffffffffffffffffffffffffffff1673ffffffffffffffffffffffffffffffffffffffff166c01000000000000000000000000028152601401828152602001925050506040516020818303038152906040526040518082805190602001908083835b60208310151561107d5780518252602082019150602081019050602083039250611058565b6001836020036101000a0380198251168184511680821785525050505050509050019150506040518091039020925060006001026002600085600019166000191681526020019081526020016000205460001916141515611146576040517f08c379a00000000000000000000000000000000000000000000000000000000081526004018080602001828103825260148152602001807f4d75737420757365206120756e6971756520494400000000000000000000000081525060200191505060405180910390fd5b61115b61012c42611ba890919063ffffffff16565b91508a888884604051602001808581526020018473ffffffffffffffffffffffffffffffffffffffff1673ffffffffffffffffffffffffffffffffffffffff166c01000000000000000000000000028152601401837bffffffffffffffffffffffffffffffffffffffffffffffffffffffff19167bffffffffffffffffffffffffffffffffffffffffffffffffffffffff191681526004018281526020019450505050506040516020818303038152906040526040518082805190602001908083835b602083101515611243578051825260208201915060208101905060208303925061121e565b6001836020036101000a038019825116818451168082178552505050505050905001915050604051809103902060026000856000191660001916815260200190815260200160002081600019169055508a8c73ffffffffffffffffffffffffffffffffffffffff168a600019167fe9cf09ba23a60c27cfb5ad84043dba257ed0ccea7f0095ff7054ec8088ce587186600190048e8d8d898d8d604051808881526020018781526020018673ffffffffffffffffffffffffffffffffffffffff1673ffffffffffffffffffffffffffffffffffffffff168152602001857bffffffffffffffffffffffffffffffffffffffffffffffffffffffff19167bffffffffffffffffffffffffffffffffffffffffffffffffffffffff1916815260200184815260200180602001828103825284848281815260200192508082843782019150509850505050505050505060405180910390a4505050505050505050505050565b6000600360008373ffffffffffffffffffffffffffffffffffffffff1673ffffffffffffffffffffffffffffffffffffffff16815260200190815260200160002060009054906101000a900460ff169050919050565b6000806000600360003373ffffffffffffffffffffffffffffffffffffffff1673ffffffffffffffffffffffffffffffffffffffff16815260200190815260200160002060009054906101000a900460ff16806114a457506000809054906101000a900473ffffffffffffffffffffffffffffffffffffffff1673ffffffffffffffffffffffffffffffffffffffff163373ffffffffffffffffffffffffffffffffffffffff16145b151561153e576040517f08c379a000000000000000000000000000000000000000000000000000000000815260040180806020018281038252602a8152602001807f4e6f7420616e20617574686f72697a6564206e6f646520746f2066756c66696c81526020017f6c2072657175657374730000000000000000000000000000000000000000000081525060400191505060405180910390fd5b8860006001026002600083600102600019166000191681526020019081526020016000205460001916141515156115dd576040517f08c379a000000000000000000000000000000000000000000000000000000000815260040180806020018281038252601b8152602001807f4d757374206861766520612076616c696420726571756573744964000000000081525060200191505060405180910390fd5b89600102925088888888604051602001808581526020018473ffffffffffffffffffffffffffffffffffffffff1673ffffffffffffffffffffffffffffffffffffffff166c01000000000000000000000000028152601401837bffffffffffffffffffffffffffffffffffffffffffffffffffffffff19167bffffffffffffffffffffffffffffffffffffffffffffffffffffffff191681526004018281526020019450505050506040516020818303038152906040526040518082805190602001908083835b6020831015156116c957805182526020820191506020810190506020830392506116a4565b6001836020036101000a0380198251168184511680821785525050505050509050019150506040518091039020915081600019166002600085600019166000191681526020019081526020016000205460001916141515611792576040517f08c379a000000000000000000000000000000000000000000000000000000000815260040180806020018281038252601e8152602001807f506172616d7320646f206e6f74206d617463682072657175657374204944000081525060200191505060405180910390fd5b6117a789600454611ba890919063ffffffff16565b6004819055506002600084600019166000191681526020019081526020016000206000905562061a805a10151515611847576040517f08c379a00000000000000000000000000000000000000000000000000000000081526004018080602001828103825260208152602001807f4d7573742070726f7669646520636f6e73756d657220656e6f7567682067617381525060200191505060405180910390fd5b8773ffffffffffffffffffffffffffffffffffffffff16877c0100000000000000000000000000000000000000000000000000000000900484876040518363ffffffff167c01000000000000000000000000000000000000000000000000000000000281526004018083600019166000191681526020018260001916600019168152602001925050506000604051808303816000875af19250505093505050509695505050505050565b6000809054906101000a900473ffffffffffffffffffffffffffffffffffffffff1673ffffffffffffffffffffffffffffffffffffffff163373ffffffffffffffffffffffffffffffffffffffff1614151561194c57600080fd5b61195581611bc4565b50565b6000809054906101000a900473ffffffffffffffffffffffffffffffffffffffff1673ffffffffffffffffffffffffffffffffffffffff163373ffffffffffffffffffffffffffffffffffffffff161415156119b357600080fd5b806119c8600182611ba890919063ffffffff16565b60045410151515611a67576040517f08c379a00000000000000000000000000000000000000000000000000000000081526004018080602001828103825260358152602001807f416d6f756e74207265717565737465642069732067726561746572207468616e81526020017f20776974686472617761626c652062616c616e6365000000000000000000000081525060400191505060405180910390fd5b611a7c82600454611b8f90919063ffffffff16565b600481905550600160009054906101000a900473ffffffffffffffffffffffffffffffffffffffff1673ffffffffffffffffffffffffffffffffffffffff1663a9059cbb84846040518363ffffffff167c0100000000000000000000000000000000000000000000000000000000028152600401808373ffffffffffffffffffffffffffffffffffffffff1673ffffffffffffffffffffffffffffffffffffffff16815260200182815260200192505050602060405180830381600087803b158015611b4757600080fd5b505af1158015611b5b573d6000803e3d6000fd5b505050506040513d6020811015611b7157600080fd5b81019080805190602001909291905050501515611b8a57fe5b505050565b6000828211151515611b9d57fe5b818303905092915050565b60008183019050828110151515611bbb57fe5b80905092915050565b600073ffffffffffffffffffffffffffffffffffffffff168173ffffffffffffffffffffffffffffffffffffffff1614151515611c0057600080fd5b8073ffffffffffffffffffffffffffffffffffffffff166000809054906101000a900473ffffffffffffffffffffffffffffffffffffffff1673ffffffffffffffffffffffffffffffffffffffff167f8be0079c531659141344cd1fd0a4f28419497f9722a3daafe3b4186f6b6457e060405160405180910390a3806000806101000a81548173ffffffffffffffffffffffffffffffffffffffff021916908373ffffffffffffffffffffffffffffffffffffffff160217905550505600a165627a7a723058206e589ccb7cd9b05abd8a7d31f1575b65d32706176fc36e84ccddcee38baaf8640029",
  "source": "pragma solidity 0.4.24;\n\nimport \"openzeppelin-solidity/contracts/ownership/Ownable.sol\";\nimport \"openzeppelin-solidity/contracts/math/SafeMath.sol\";\nimport \"./interfaces/ChainlinkRequestInterface.sol\";\nimport \"./interfaces/OracleInterface.sol\";\nimport \"./interfaces/LinkTokenInterface.sol\";\n\ncontract Oracle is ChainlinkRequestInterface, OracleInterface, Ownable {\n  using SafeMath for uint256;\n\n  uint256 constant public EXPIRY_TIME = 5 minutes;\n  uint256 constant private MINIMUM_CONSUMER_GAS_LIMIT = 400000;\n  // We initialize fields to 1 instead of 0 so that the first invocation\n  // does not cost more gas.\n  uint256 constant private ONE_FOR_CONSISTENT_GAS_COST = 1;\n  uint256 constant private SELECTOR_LENGTH = 4;\n  uint256 constant private EXPECTED_REQUEST_WORDS = 9;\n  // solium-disable-next-line zeppelin/no-arithmetic-operations\n  uint256 constant private MINIMUM_REQUEST_LENGTH = SELECTOR_LENGTH + (32 * EXPECTED_REQUEST_WORDS);\n\n  LinkTokenInterface internal LinkToken;\n  mapping(bytes32 => bytes32) private commitments;\n  mapping(address => bool) private authorizedNodes;\n  uint256 private withdrawableTokens = ONE_FOR_CONSISTENT_GAS_COST;\n\n  event RunRequest(\n    bytes32 indexed specId,\n    address indexed requester,\n    uint256 indexed payment,\n    uint256 requestId,\n    uint256 dataVersion,\n    address callbackAddr,\n    bytes4 callbackFunctionId,\n    uint256 cancelExpiration,\n    bytes data\n  );\n\n  event CancelRequest(\n    bytes32 indexed requestId\n  );\n\n  constructor(address _link) Ownable() public {\n    LinkToken = LinkTokenInterface(_link);\n  }\n\n  function onTokenTransfer(\n    address _sender,\n    uint256 _amount,\n    bytes _data\n  )\n    public\n    onlyLINK\n    validRequestLength(_data)\n    permittedFunctionsForLINK(_data)\n  {\n    assembly {\n      // solium-disable-next-line security/no-low-level-calls\n      mstore(add(_data, 36), _sender) // ensure correct sender is passed\n      // solium-disable-next-line security/no-low-level-calls\n      mstore(add(_data, 68), _amount)    // ensure correct amount is passed\n    }\n    // solium-disable-next-line security/no-low-level-calls\n    require(address(this).delegatecall(_data), \"Unable to create request\"); // calls requestData\n  }\n\n  function requestData(\n    address _sender,\n    uint256 _payment,\n    uint256 _dataVersion,\n    bytes32 _specId,\n    address _callbackAddress,\n    bytes4 _callbackFunctionId,\n    uint256 _nonce,\n    bytes _data\n  )\n    external\n    onlyLINK\n    checkCallbackAddress(_callbackAddress)\n  {\n    bytes32 requestId = keccak256(abi.encodePacked(_sender, _nonce));\n    require(commitments[requestId] == 0, \"Must use a unique ID\");\n    uint256 expiration = now.add(EXPIRY_TIME);\n\n    commitments[requestId] = keccak256(\n      abi.encodePacked(\n        _payment,\n        _callbackAddress,\n        _callbackFunctionId,\n        expiration\n      )\n    );\n\n    emit RunRequest(\n      _specId,\n      _sender,\n      _payment,\n      uint256(requestId),\n      _dataVersion,\n      _callbackAddress,\n      _callbackFunctionId,\n      expiration,\n      _data);\n  }\n\n  function fulfillData(\n    uint256 _requestId,\n    uint256 _payment,\n    address _callbackAddress,\n    bytes4 _callbackFunctionId,\n    uint256 _expiration,\n    bytes32 _data\n  )\n    external\n    onlyAuthorizedNode\n    isValidRequest(_requestId)\n    returns (bool)\n  {\n    bytes32 requestId = bytes32(_requestId);\n    bytes32 paramsHash = keccak256(\n      abi.encodePacked(\n        _payment,\n        _callbackAddress,\n        _callbackFunctionId,\n        _expiration\n      )\n    );\n    require(commitments[requestId] == paramsHash, \"Params do not match request ID\");\n    withdrawableTokens = withdrawableTokens.add(_payment);\n    delete commitments[requestId];\n    require(gasleft() >= MINIMUM_CONSUMER_GAS_LIMIT, \"Must provide consumer enough gas\");\n    // All updates to the oracle's fulfillment should come before calling the\n    // callback(addr+functionId) as it is untrusted.\n    // See: https://solidity.readthedocs.io/en/develop/security-considerations.html#use-the-checks-effects-interactions-pattern\n    return _callbackAddress.call(_callbackFunctionId, requestId, _data); // solium-disable-line security/no-low-level-calls\n  }\n\n  function getAuthorizationStatus(address _node) external view returns (bool) {\n    return authorizedNodes[_node];\n  }\n\n  function setFulfillmentPermission(address _node, bool _allowed) external onlyOwner {\n    authorizedNodes[_node] = _allowed;\n  }\n\n  function withdraw(address _recipient, uint256 _amount)\n    external\n    onlyOwner\n    hasAvailableFunds(_amount)\n  {\n    withdrawableTokens = withdrawableTokens.sub(_amount);\n    assert(LinkToken.transfer(_recipient, _amount));\n  }\n\n  function withdrawable() external view onlyOwner returns (uint256) {\n    return withdrawableTokens.sub(ONE_FOR_CONSISTENT_GAS_COST);\n  }\n\n  function cancel(\n    bytes32 _requestId,\n    uint256 _payment,\n    bytes4 _callbackFunc,\n    uint256 _expiration\n  ) external {\n    bytes32 paramsHash = keccak256(\n      abi.encodePacked(\n        _payment,\n        msg.sender,\n        _callbackFunc,\n        _expiration)\n    );\n    require(paramsHash == commitments[_requestId], \"Params do not match request ID\");\n    require(_expiration <= now, \"Request is not expired\");\n\n    delete commitments[_requestId];\n    emit CancelRequest(_requestId);\n\n    assert(LinkToken.transfer(msg.sender, _payment));\n  }\n\n  // MODIFIERS\n\n  modifier hasAvailableFunds(uint256 _amount) {\n    require(withdrawableTokens >= _amount.add(ONE_FOR_CONSISTENT_GAS_COST), \"Amount requested is greater than withdrawable balance\");\n    _;\n  }\n\n  modifier isValidRequest(uint256 _requestId) {\n    require(commitments[bytes32(_requestId)] != 0, \"Must have a valid requestId\");\n    _;\n  }\n\n  modifier onlyAuthorizedNode() {\n    require(authorizedNodes[msg.sender] || msg.sender == owner, \"Not an authorized node to fulfill requests\");\n    _;\n  }\n\n  modifier onlyLINK() {\n    require(msg.sender == address(LinkToken), \"Must use LINK token\");\n    _;\n  }\n\n  modifier permittedFunctionsForLINK(bytes _data) {\n    bytes4 funcSelector;\n    assembly {\n      // solium-disable-next-line security/no-low-level-calls\n      funcSelector := mload(add(_data, 32))\n    }\n    require(funcSelector == this.requestData.selector, \"Must use whitelisted functions\");\n    _;\n  }\n\n  modifier checkCallbackAddress(address _to) {\n    require(_to != address(LinkToken), \"Cannot callback to LINK\");\n    _;\n  }\n\n  modifier validRequestLength(bytes _data) {\n    require(_data.length >= MINIMUM_REQUEST_LENGTH, \"Invalid request length\");\n    _;\n  }\n\n}\n",
  "sourcePath": "/Users/jonashals/go/src/github.com/smartcontractkit/chainlink/solidity/contracts/Oracle.sol",
  "compiler": {
    "name": "solc",
    "version": "0.4.24+commit.e67f0147.Emscripten.clang"
  },
  "schemaVersion": "3.0.1",
  "updatedAt": "2019-02-03T15:40:22.486Z",
  "devdoc": {
    "methods": {
      "renounceOwnership()": {
        "details": "Allows the current owner to relinquish control of the contract."
      },
      "transferOwnership(address)": {
        "details": "Allows the current owner to transfer control of the contract to a newOwner.",
        "params": {
          "_newOwner": "The address to transfer ownership to."
        }
      }
    }
  },
  "userdoc": {
    "methods": {
      "renounceOwnership()": {
        "notice": "Renouncing to ownership will leave the contract without an owner. It will not be possible to call the functions with the `onlyOwner` modifier anymore."
      }
    }
  }
}