{
  "contractName": "ServiceAgreementConsumer",
  "abi": [
    {
      "constant": true,
      "inputs": [],
      "name": "currentPrice",
      "outputs": [
        {
          "name": "",
          "type": "bytes32"
        }
      ],
      "payable": false,
      "stateMutability": "view",
      "type": "function"
    },
    {
      "inputs": [
        {
          "name": "_link",
          "type": "address"
        },
        {
          "name": "_coordinator",
          "type": "address"
        },
        {
          "name": "_sAId",
          "type": "bytes32"
        }
      ],
      "payable": false,
      "stateMutability": "nonpayable",
      "type": "constructor"
    },
    {
      "anonymous": false,
      "inputs": [
        {
          "indexed": true,
          "name": "id",
          "type": "bytes32"
        }
      ],
      "name": "ChainlinkRequested",
      "type": "event"
    },
    {
      "anonymous": false,
      "inputs": [
        {
          "indexed": true,
          "name": "id",
          "type": "bytes32"
        }
      ],
      "name": "ChainlinkFulfilled",
      "type": "event"
    },
    {
      "anonymous": false,
      "inputs": [
        {
          "indexed": true,
          "name": "id",
          "type": "bytes32"
        }
      ],
      "name": "ChainlinkCancelled",
      "type": "event"
    },
    {
      "constant": false,
      "inputs": [
        {
          "name": "_currency",
          "type": "string"
        }
      ],
      "name": "requestEthereumPrice",
      "outputs": [],
      "payable": false,
      "stateMutability": "nonpayable",
      "type": "function"
    },
    {
      "constant": false,
      "inputs": [
        {
          "name": "_requestId",
          "type": "bytes32"
        },
        {
          "name": "_price",
          "type": "bytes32"
        }
      ],
      "name": "fulfill",
      "outputs": [],
      "payable": false,
      "stateMutability": "nonpayable",
      "type": "function"
    }
  ],
  "bytecode": "0x6080604052600160045534801561001557600080fd5b5060405160608061108e8339810180604052810190808051906020019092919080519060200190929190805190602001909291905050506100648361008f640100000000026401000000009004565b61007c826100d3640100000000026401000000009004565b8060068160001916905550505050610117565b80600260006101000a81548173ffffffffffffffffffffffffffffffffffffffff021916908373ffffffffffffffffffffffffffffffffffffffff16021790555050565b80600360006101000a81548173ffffffffffffffffffffffffffffffffffffffff021916908373ffffffffffffffffffffffffffffffffffffffff16021790555050565b610f68806101266000396000f300608060405260043610610057576000357c0100000000000000000000000000000000000000000000000000000000900463ffffffff168063042f2b651461005c5780636c0cae681461009b5780639d1b464a14610104575b600080fd5b34801561006857600080fd5b5061009960048036038101908080356000191690602001909291908035600019169060200190929190505050610137565b005b3480156100a757600080fd5b50610102600480360381019080803590602001908201803590602001908080601f01602080910402602001604051908101604052809392919081815260200183838082843782019150505050505091929192905050506102bb565b005b34801561011057600080fd5b50610119610425565b60405180826000191660001916815260200191505060405180910390f35b8160056000826000191660001916815260200190815260200160002060009054906101000a900473ffffffffffffffffffffffffffffffffffffffff1673ffffffffffffffffffffffffffffffffffffffff163373ffffffffffffffffffffffffffffffffffffffff1614151561023c576040517f08c379a00000000000000000000000000000000000000000000000000000000081526004018080602001828103825260288152602001807f536f75726365206d75737420626520746865206f7261636c65206f662074686581526020017f207265717565737400000000000000000000000000000000000000000000000081525060400191505060405180910390fd5b60056000826000191660001916815260200190815260200160002060006101000a81549073ffffffffffffffffffffffffffffffffffffffff021916905580600019167f7cc135e0cebb02c3480ae5d74d377283180a2601f8f644edf7987b009316c63a60405160405180910390a28160078160001916905550505050565b6102c3610e9a565b6102f36006543063042f2b657c01000000000000000000000000000000000000000000000000000000000261042b565b90506103c16040805190810160405280600381526020017f75726c0000000000000000000000000000000000000000000000000000000000815250608060405190810160405280604781526020017f68747470733a2f2f6d696e2d6170692e63727970746f636f6d706172652e636f81526020017f6d2f646174612f70726963653f6673796d3d455448267473796d733d5553442c81526020017f4555522c4a5059000000000000000000000000000000000000000000000000008152508361045c9092919063ffffffff16565b61040b6040805190810160405280600481526020017f7061746800000000000000000000000000000000000000000000000000000000815250838361045c9092919063ffffffff16565b61042081670de0b6b3a764000060010261048f565b505050565b60075481565b610433610e9a565b61043b610e9a565b610452858585846104c6909392919063ffffffff16565b9150509392505050565b61047382846080015161057f90919063ffffffff16565b61048a81846080015161057f90919063ffffffff16565b505050565b60006104be600360009054906101000a900473ffffffffffffffffffffffffffffffffffffffff1684846105a4565b905092915050565b6104ce610e9a565b6104de8560800151610100610930565b838560000190600019169081600019168152505082856020019073ffffffffffffffffffffffffffffffffffffffff16908173ffffffffffffffffffffffffffffffffffffffff16815250508185604001907bffffffffffffffffffffffffffffffffffffffffffffffffffffffff191690817bffffffffffffffffffffffffffffffffffffffffffffffffffffffff191681525050849050949350505050565b61058c8260038351610984565b61059f8183610add90919063ffffffff16565b505050565b600030600454604051602001808373ffffffffffffffffffffffffffffffffffffffff1673ffffffffffffffffffffffffffffffffffffffff166c01000000000000000000000000028152601401828152602001925050506040516020818303038152906040526040518082805190602001908083835b602083101515610640578051825260208201915060208101905060208303925061061b565b6001836020036101000a038019825116818451168082178552505050505050905001915050604051809103902090506004548360600181815250508360056000836000191660001916815260200190815260200160002060006101000a81548173ffffffffffffffffffffffffffffffffffffffff021916908373ffffffffffffffffffffffffffffffffffffffff16021790555080600019167fb5e6e01e79f91267dc17b4e6314d5d4d03593d2ceee0fbb452b750bd70ea5af960405160405180910390a2600260009054906101000a900473ffffffffffffffffffffffffffffffffffffffff1673ffffffffffffffffffffffffffffffffffffffff16634000aea0858461074f87610b89565b6040518463ffffffff167c0100000000000000000000000000000000000000000000000000000000028152600401808473ffffffffffffffffffffffffffffffffffffffff1673ffffffffffffffffffffffffffffffffffffffff16815260200183815260200180602001828103825283818151815260200191508051906020019080838360005b838110156107f25780820151818401526020810190506107d7565b50505050905090810190601f16801561081f5780820380516001836020036101000a031916815260200191505b50945050505050602060405180830381600087803b15801561084057600080fd5b505af1158015610854573d6000803e3d6000fd5b505050506040513d602081101561086a57600080fd5b81019080805190602001909291905050501515610915576040517f08c379a00000000000000000000000000000000000000000000000000000000081526004018080602001828103825260238152602001807f756e61626c6520746f207472616e73666572416e6443616c6c20746f206f726181526020017f636c65000000000000000000000000000000000000000000000000000000000081525060400191505060405180910390fd5b60016004600082825401925050819055508090509392505050565b600061096260207fffffffffffffffffffffffffffffffffffffffffffffffffffffffffffffffe0601f850116610db4565b9050808360200181815250506040518084526000815281810160405250505050565b6017811115156109b5576109b08160058460ff169060020a0260ff161784610dd090919063ffffffff16565b610ad8565b60ff811115156109fb576109df601860058460ff169060020a021784610dd090919063ffffffff16565b6109f581600185610e109092919063ffffffff16565b50610ad7565b61ffff81111515610a4257610a26601960058460ff169060020a021784610dd090919063ffffffff16565b610a3c81600285610e109092919063ffffffff16565b50610ad6565b63ffffffff81111515610a8b57610a6f601a60058460ff169060020a021784610dd090919063ffffffff16565b610a8581600485610e109092919063ffffffff16565b50610ad5565b67ffffffffffffffff81111515610ad457610abc601b60058460ff169060020a021784610dd090919063ffffffff16565b610ad281600885610e109092919063ffffffff16565b505b5b5b5b5b505050565b610ae5610f08565b60008060008086602001518760000151518751011115610b1b57610b1a876002610b148a602001518a51610db4565b02610e77565b5b8551915086518051602081830101955087518101825260208801945050505b602082101515610b5f5782518452602084019350602083019250602082039150610b3a565b6001826020036101000a039050801983511681855116818117865250508694505050505092915050565b6060600360009054906101000a900473ffffffffffffffffffffffffffffffffffffffff1673ffffffffffffffffffffffffffffffffffffffff1663c3d2026f90507c01000000000000000000000000000000000000000000000000000000000260008060018560000151866020015187604001518860600151896080015160000151604051602401808973ffffffffffffffffffffffffffffffffffffffff1673ffffffffffffffffffffffffffffffffffffffff16815260200188815260200187815260200186600019166000191681526020018573ffffffffffffffffffffffffffffffffffffffff1673ffffffffffffffffffffffffffffffffffffffff168152602001847bffffffffffffffffffffffffffffffffffffffffffffffffffffffff19167bffffffffffffffffffffffffffffffffffffffffffffffffffffffff1916815260200183815260200180602001828103825283818151815260200191508051906020019080838360005b83811015610d17578082015181840152602081019050610cfc565b50505050905090810190601f168015610d445780820380516001836020036101000a031916815260200191505b509950505050505050505050604051602081830303815290604052907bffffffffffffffffffffffffffffffffffffffffffffffffffffffff19166020820180517bffffffffffffffffffffffffffffffffffffffffffffffffffffffff83818316178352505050509050919050565b600081831115610dc657829050610dca565b8190505b92915050565b81602001516001836000015151011115610df657610df5826002846020015102610e77565b5b815180516020818301018381536001820183525050505050565b610e18610f08565b6000846020015185600001515184011115610e4857610e47856002610e41886020015187610db4565b02610e77565b5b6001836101000a0390508451805184818301018684198251161781528582018352505050849150509392505050565b606082600001519050610e8a8383610930565b610e948382610add565b50505050565b60c06040519081016040528060008019168152602001600073ffffffffffffffffffffffffffffffffffffffff16815260200160007bffffffffffffffffffffffffffffffffffffffffffffffffffffffff1916815260200160008152602001610f02610f22565b81525090565b604080519081016040528060608152602001600081525090565b6040805190810160405280606081526020016000815250905600a165627a7a723058206bea60d752420004b1f8852ee46fd205af5f4d2aacee5f084d9efb386f6da8280029",
  "source": "pragma solidity ^0.4.24;\n\nimport \"../Chainlinked.sol\";\n\ncontract ServiceAgreementConsumer is Chainlinked {\n  uint256 constant private ORACLE_PAYMENT = 1 * LINK; // solium-disable-line zeppelin/no-arithmetic-operations\n\n  bytes32 internal sAId;\n  bytes32 public currentPrice;\n\n  constructor(address _link, address _coordinator, bytes32 _sAId) public {\n    setLinkToken(_link);\n    setOracle(_coordinator);\n    sAId = _sAId;\n  }\n\n  function requestEthereumPrice(string _currency) public {\n    ChainlinkLib.Run memory run = newRun(sAId, this, this.fulfill.selector);\n    run.add(\"url\", \"https://min-api.cryptocompare.com/data/price?fsym=ETH&tsyms=USD,EUR,JPY\");\n    run.add(\"path\", _currency);\n    chainlinkRequest(run, ORACLE_PAYMENT);\n  }\n\n  function fulfill(bytes32 _requestId, bytes32 _price)\n    public\n    recordChainlinkFulfillment(_requestId)\n  {\n    currentPrice = _price;\n  }\n}\n",
  "sourcePath": "/Users/jonashals/go/src/github.com/smartcontractkit/chainlink/solidity/contracts/examples/ServiceAgreementConsumer.sol",
  "compiler": {
    "name": "solc",
    "version": "0.4.24+commit.e67f0147.Emscripten.clang"
  },
  "schemaVersion": "3.0.1",
  "updatedAt": "2019-02-03T15:40:22.444Z",
  "devdoc": {
    "methods": {}
  },
  "userdoc": {
    "methods": {}
  }
}