{
  "contractName": "UpdatableConsumer",
  "abi": [
    {
      "constant": false,
      "inputs": [
        {
          "name": "_requestId",
          "type": "bytes32"
        },
        {
          "name": "_price",
          "type": "bytes32"
        }
      ],
      "name": "fulfill",
      "outputs": [],
      "payable": false,
      "stateMutability": "nonpayable",
      "type": "function"
    },
    {
      "constant": false,
      "inputs": [
        {
          "name": "_currency",
          "type": "string"
        }
      ],
      "name": "requestEthereumPrice",
      "outputs": [],
      "payable": false,
      "stateMutability": "nonpayable",
      "type": "function"
    },
    {
      "constant": false,
      "inputs": [],
      "name": "withdrawLink",
      "outputs": [],
      "payable": false,
      "stateMutability": "nonpayable",
      "type": "function"
    },
    {
      "constant": true,
      "inputs": [],
      "name": "currentPrice",
      "outputs": [
        {
          "name": "",
          "type": "bytes32"
        }
      ],
      "payable": false,
      "stateMutability": "view",
      "type": "function"
    },
    {
      "constant": false,
      "inputs": [
        {
          "name": "_requestId",
          "type": "bytes32"
        },
        {
          "name": "_payment",
          "type": "uint256"
        },
        {
          "name": "_callbackFunctionId",
          "type": "bytes4"
        },
        {
          "name": "_expiration",
          "type": "uint256"
        }
      ],
      "name": "cancelRequest",
      "outputs": [],
      "payable": false,
      "stateMutability": "nonpayable",
      "type": "function"
    },
    {
      "inputs": [
        {
          "name": "_specId",
          "type": "bytes32"
        },
        {
          "name": "_ens",
          "type": "address"
        },
        {
          "name": "_node",
          "type": "bytes32"
        }
      ],
      "payable": false,
      "stateMutability": "nonpayable",
      "type": "constructor"
    },
    {
      "anonymous": false,
      "inputs": [
        {
          "indexed": true,
          "name": "requestId",
          "type": "bytes32"
        },
        {
          "indexed": true,
          "name": "price",
          "type": "bytes32"
        }
      ],
      "name": "RequestFulfilled",
      "type": "event"
    },
    {
      "anonymous": false,
      "inputs": [
        {
          "indexed": true,
          "name": "id",
          "type": "bytes32"
        }
      ],
      "name": "ChainlinkRequested",
      "type": "event"
    },
    {
      "anonymous": false,
      "inputs": [
        {
          "indexed": true,
          "name": "id",
          "type": "bytes32"
        }
      ],
      "name": "ChainlinkFulfilled",
      "type": "event"
    },
    {
      "anonymous": false,
      "inputs": [
        {
          "indexed": true,
          "name": "id",
          "type": "bytes32"
        }
      ],
      "name": "ChainlinkCancelled",
      "type": "event"
    },
    {
      "constant": false,
      "inputs": [],
      "name": "updateOracle",
      "outputs": [],
      "payable": false,
      "stateMutability": "nonpayable",
      "type": "function"
    },
    {
      "constant": true,
      "inputs": [],
      "name": "getChainlinkToken",
      "outputs": [
        {
          "name": "",
          "type": "address"
        }
      ],
      "payable": false,
      "stateMutability": "view",
      "type": "function"
    },
    {
      "constant": true,
      "inputs": [],
      "name": "getOracle",
      "outputs": [
        {
          "name": "",
          "type": "address"
        }
      ],
      "payable": false,
      "stateMutability": "view",
      "type": "function"
    }
  ],
  "bytecode": "0x608060405260016004553480156200001657600080fd5b5060405160608062001fc483398101806040528101908080519060200190929190805190602001909291908051906020019092919050505082600681600019169055506200007482826200007d640100000000026401000000009004565b5050506200066f565b600080836000806101000a81548173ffffffffffffffffffffffffffffffffffffffff021916908373ffffffffffffffffffffffffffffffffffffffff160217905550826001816000191690555060015460405180807f6c696e6b00000000000000000000000000000000000000000000000000000000815250600401905060405180910390206040516020018083600019166000191681526020018260001916600019168152602001925050506040516020818303038152906040526040518082805190602001908083835b6020831015156200017157805182526020820191506020810190506020830392506200014a565b6001836020036101000a038019825116818451168082178552505050505050905001915050604051809103902091506000809054906101000a900473ffffffffffffffffffffffffffffffffffffffff1673ffffffffffffffffffffffffffffffffffffffff16630178b8bf836040518263ffffffff167c0100000000000000000000000000000000000000000000000000000000028152600401808260001916600019168152602001915050602060405180830381600087803b1580156200023957600080fd5b505af11580156200024e573d6000803e3d6000fd5b505050506040513d60208110156200026557600080fd5b81019080805190602001909291905050509050620003468173ffffffffffffffffffffffffffffffffffffffff16633b3b57de846040518263ffffffff167c0100000000000000000000000000000000000000000000000000000000028152600401808260001916600019168152602001915050602060405180830381600087803b158015620002f457600080fd5b505af115801562000309573d6000803e3d6000fd5b505050506040513d60208110156200032057600080fd5b810190808051906020019092919050505062000365640100000000026401000000009004565b6200035f620003a9640100000000026401000000009004565b50505050565b80600260006101000a81548173ffffffffffffffffffffffffffffffffffffffff021916908373ffffffffffffffffffffffffffffffffffffffff16021790555050565b60008060015460405180807f6f7261636c650000000000000000000000000000000000000000000000000000815250600601905060405180910390206040516020018083600019166000191681526020018260001916600019168152602001925050506040516020818303038152906040526040518082805190602001908083835b6020831015156200045257805182526020820191506020810190506020830392506200042b565b6001836020036101000a038019825116818451168082178552505050505050905001915050604051809103902091506000809054906101000a900473ffffffffffffffffffffffffffffffffffffffff1673ffffffffffffffffffffffffffffffffffffffff16630178b8bf836040518263ffffffff167c0100000000000000000000000000000000000000000000000000000000028152600401808260001916600019168152602001915050602060405180830381600087803b1580156200051a57600080fd5b505af11580156200052f573d6000803e3d6000fd5b505050506040513d60208110156200054657600080fd5b81019080805190602001909291905050509050620006278173ffffffffffffffffffffffffffffffffffffffff16633b3b57de846040518263ffffffff167c0100000000000000000000000000000000000000000000000000000000028152600401808260001916600019168152602001915050602060405180830381600087803b158015620005d557600080fd5b505af1158015620005ea573d6000803e3d6000fd5b505050506040513d60208110156200060157600080fd5b81019080805190602001909291905050506200062b640100000000026401000000009004565b5050565b80600360006101000a81548173ffffffffffffffffffffffffffffffffffffffff021916908373ffffffffffffffffffffffffffffffffffffffff16021790555050565b611945806200067f6000396000f30060806040526004361061008e576000357c0100000000000000000000000000000000000000000000000000000000900463ffffffff168063042f2b6514610093578063165d35e1146100d25780636c0cae6814610129578063833b1fce146101925780638dc654a2146101e95780639d1b464a14610200578063d6f124f014610233578063ec65d0f81461024a575b600080fd5b34801561009f57600080fd5b506100d0600480360381019080803560001916906020019092919080356000191690602001909291905050506102b8565b005b3480156100de57600080fd5b506100e7610472565b604051808273ffffffffffffffffffffffffffffffffffffffff1673ffffffffffffffffffffffffffffffffffffffff16815260200191505060405180910390f35b34801561013557600080fd5b50610190600480360381019080803590602001908201803590602001908080601f0160208091040260200160405190810160405280939291908181526020018383808284378201915050505050509192919290505050610481565b005b34801561019e57600080fd5b506101a7610643565b604051808273ffffffffffffffffffffffffffffffffffffffff1673ffffffffffffffffffffffffffffffffffffffff16815260200191505060405180910390f35b3480156101f557600080fd5b506101fe610652565b005b34801561020c57600080fd5b50610215610888565b60405180826000191660001916815260200191505060405180910390f35b34801561023f57600080fd5b5061024861088e565b005b34801561025657600080fd5b506102b660048036038101908080356000191690602001909291908035906020019092919080357bffffffffffffffffffffffffffffffffffffffffffffffffffffffff1916906020019092919080359060200190929190505050610898565b005b8160056000826000191660001916815260200190815260200160002060009054906101000a900473ffffffffffffffffffffffffffffffffffffffff1673ffffffffffffffffffffffffffffffffffffffff163373ffffffffffffffffffffffffffffffffffffffff161415156103bd576040517f08c379a00000000000000000000000000000000000000000000000000000000081526004018080602001828103825260288152602001807f536f75726365206d75737420626520746865206f7261636c65206f662074686581526020017f207265717565737400000000000000000000000000000000000000000000000081525060400191505060405180910390fd5b60056000826000191660001916815260200190815260200160002060006101000a81549073ffffffffffffffffffffffffffffffffffffffff021916905580600019167f7cc135e0cebb02c3480ae5d74d377283180a2601f8f644edf7987b009316c63a60405160405180910390a2816000191683600019167f0c2366233f634048c0f0458060d1228fab36d00f7c0ecf6bdf2d9c458503631160405160405180910390a38160078160001916905550505050565b600061047c6108aa565b905090565b610489611877565b60606104bb6006543063042f2b657c0100000000000000000000000000000000000000000000000000000000026108d4565b91506105896040805190810160405280600381526020017f75726c0000000000000000000000000000000000000000000000000000000000815250608060405190810160405280604781526020017f68747470733a2f2f6d696e2d6170692e63727970746f636f6d706172652e636f81526020017f6d2f646174612f70726963653f6673796d3d455448267473796d733d5553442c81526020017f4555522c4a505900000000000000000000000000000000000000000000000000815250846109059092919063ffffffff16565b60016040519080825280602002602001820160405280156105be57816020015b60608152602001906001900390816105a95790505b509050828160008151811015156105d157fe5b906020019060200201819052506106286040805190810160405280600481526020017f706174680000000000000000000000000000000000000000000000000000000081525082846109389092919063ffffffff16565b61063d82670de0b6b3a76400006001026109ba565b50505050565b600061064d6109f1565b905090565b600061065c6108aa565b90508073ffffffffffffffffffffffffffffffffffffffff1663a9059cbb338373ffffffffffffffffffffffffffffffffffffffff166370a08231306040518263ffffffff167c0100000000000000000000000000000000000000000000000000000000028152600401808273ffffffffffffffffffffffffffffffffffffffff1673ffffffffffffffffffffffffffffffffffffffff168152602001915050602060405180830381600087803b15801561071657600080fd5b505af115801561072a573d6000803e3d6000fd5b505050506040513d602081101561074057600080fd5b81019080805190602001909291905050506040518363ffffffff167c0100000000000000000000000000000000000000000000000000000000028152600401808373ffffffffffffffffffffffffffffffffffffffff1673ffffffffffffffffffffffffffffffffffffffff16815260200182815260200192505050602060405180830381600087803b1580156107d657600080fd5b505af11580156107ea573d6000803e3d6000fd5b505050506040513d602081101561080057600080fd5b81019080805190602001909291905050501515610885576040517f08c379a00000000000000000000000000000000000000000000000000000000081526004018080602001828103825260128152602001807f556e61626c6520746f207472616e73666572000000000000000000000000000081525060200191505060405180910390fd5b50565b60075481565b610896610a1b565b565b6108a484848484610c84565b50505050565b6000600260009054906101000a900473ffffffffffffffffffffffffffffffffffffffff16905090565b6108dc611877565b6108e4611877565b6108fb85858584610e1f909392919063ffffffff16565b9150509392505050565b61091c828460800151610ed890919063ffffffff16565b610933818460800151610ed890919063ffffffff16565b505050565b6000610951838560800151610ed890919063ffffffff16565b61095e8460800151610efd565b600090505b81518110156109a75761099a828281518110151561097d57fe5b906020019060200201518560800151610ed890919063ffffffff16565b8080600101915050610963565b6109b48460800151610f0b565b50505050565b60006109e9600360009054906101000a900473ffffffffffffffffffffffffffffffffffffffff168484610f19565b905092915050565b6000600360009054906101000a900473ffffffffffffffffffffffffffffffffffffffff16905090565b60008060015460405180807f6f7261636c650000000000000000000000000000000000000000000000000000815250600601905060405180910390206040516020018083600019166000191681526020018260001916600019168152602001925050506040516020818303038152906040526040518082805190602001908083835b602083101515610ac25780518252602082019150602081019050602083039250610a9d565b6001836020036101000a038019825116818451168082178552505050505050905001915050604051809103902091506000809054906101000a900473ffffffffffffffffffffffffffffffffffffffff1673ffffffffffffffffffffffffffffffffffffffff16630178b8bf836040518263ffffffff167c0100000000000000000000000000000000000000000000000000000000028152600401808260001916600019168152602001915050602060405180830381600087803b158015610b8957600080fd5b505af1158015610b9d573d6000803e3d6000fd5b505050506040513d6020811015610bb357600080fd5b81019080805190602001909291905050509050610c808173ffffffffffffffffffffffffffffffffffffffff16633b3b57de846040518263ffffffff167c0100000000000000000000000000000000000000000000000000000000028152600401808260001916600019168152602001915050602060405180830381600087803b158015610c4057600080fd5b505af1158015610c54573d6000803e3d6000fd5b505050506040513d6020811015610c6a57600080fd5b81019080805190602001909291905050506112a5565b5050565b600060056000866000191660001916815260200190815260200160002060009054906101000a900473ffffffffffffffffffffffffffffffffffffffff16905060056000866000191660001916815260200190815260200160002060006101000a81549073ffffffffffffffffffffffffffffffffffffffff021916905584600019167fe1fe3afa0f7f761ff0a8b89086790efd5140d2907ebd5b7ff6bfcb5e075fd4c560405160405180910390a28073ffffffffffffffffffffffffffffffffffffffff16638a20130b868686866040518563ffffffff167c0100000000000000000000000000000000000000000000000000000000028152600401808560001916600019168152602001848152602001837bffffffffffffffffffffffffffffffffffffffffffffffffffffffff19167bffffffffffffffffffffffffffffffffffffffffffffffffffffffff19168152602001828152602001945050505050600060405180830381600087803b158015610e0057600080fd5b505af1158015610e14573d6000803e3d6000fd5b505050505050505050565b610e27611877565b610e3785608001516101006112e9565b838560000190600019169081600019168152505082856020019073ffffffffffffffffffffffffffffffffffffffff16908173ffffffffffffffffffffffffffffffffffffffff16815250508185604001907bffffffffffffffffffffffffffffffffffffffffffffffffffffffff191690817bffffffffffffffffffffffffffffffffffffffffffffffffffffffff191681525050849050949350505050565b610ee5826003835161133d565b610ef8818361149690919063ffffffff16565b505050565b610f08816004611542565b50565b610f16816007611542565b50565b600030600454604051602001808373ffffffffffffffffffffffffffffffffffffffff1673ffffffffffffffffffffffffffffffffffffffff166c01000000000000000000000000028152601401828152602001925050506040516020818303038152906040526040518082805190602001908083835b602083101515610fb55780518252602082019150602081019050602083039250610f90565b6001836020036101000a038019825116818451168082178552505050505050905001915050604051809103902090506004548360600181815250508360056000836000191660001916815260200190815260200160002060006101000a81548173ffffffffffffffffffffffffffffffffffffffff021916908373ffffffffffffffffffffffffffffffffffffffff16021790555080600019167fb5e6e01e79f91267dc17b4e6314d5d4d03593d2ceee0fbb452b750bd70ea5af960405160405180910390a2600260009054906101000a900473ffffffffffffffffffffffffffffffffffffffff1673ffffffffffffffffffffffffffffffffffffffff16634000aea085846110c487611566565b6040518463ffffffff167c0100000000000000000000000000000000000000000000000000000000028152600401808473ffffffffffffffffffffffffffffffffffffffff1673ffffffffffffffffffffffffffffffffffffffff16815260200183815260200180602001828103825283818151815260200191508051906020019080838360005b8381101561116757808201518184015260208101905061114c565b50505050905090810190601f1680156111945780820380516001836020036101000a031916815260200191505b50945050505050602060405180830381600087803b1580156111b557600080fd5b505af11580156111c9573d6000803e3d6000fd5b505050506040513d60208110156111df57600080fd5b8101908080519060200190929190505050151561128a576040517f08c379a00000000000000000000000000000000000000000000000000000000081526004018080602001828103825260238152602001807f756e61626c6520746f207472616e73666572416e6443616c6c20746f206f726181526020017f636c65000000000000000000000000000000000000000000000000000000000081525060400191505060405180910390fd5b60016004600082825401925050819055508090509392505050565b80600360006101000a81548173ffffffffffffffffffffffffffffffffffffffff021916908373ffffffffffffffffffffffffffffffffffffffff16021790555050565b600061131b60207fffffffffffffffffffffffffffffffffffffffffffffffffffffffffffffffe0601f850116611791565b9050808360200181815250506040518084526000815281810160405250505050565b60178111151561136e576113698160058460ff169060020a0260ff1617846117ad90919063ffffffff16565b611491565b60ff811115156113b457611398601860058460ff169060020a0217846117ad90919063ffffffff16565b6113ae816001856117ed9092919063ffffffff16565b50611490565b61ffff811115156113fb576113df601960058460ff169060020a0217846117ad90919063ffffffff16565b6113f5816002856117ed9092919063ffffffff16565b5061148f565b63ffffffff8111151561144457611428601a60058460ff169060020a0217846117ad90919063ffffffff16565b61143e816004856117ed9092919063ffffffff16565b5061148e565b67ffffffffffffffff8111151561148d57611475601b60058460ff169060020a0217846117ad90919063ffffffff16565b61148b816008856117ed9092919063ffffffff16565b505b5b5b5b5b505050565b61149e6118e5565b600080600080866020015187600001515187510111156114d4576114d38760026114cd8a602001518a51611791565b02611854565b5b8551915086518051602081830101955087518101825260208801945050505b60208210151561151857825184526020840193506020830192506020820391506114f3565b6001826020036101000a039050801983511681855116818117865250508694505050505092915050565b611562601f60058360ff169060020a0217836117ad90919063ffffffff16565b5050565b6060600360009054906101000a900473ffffffffffffffffffffffffffffffffffffffff1673ffffffffffffffffffffffffffffffffffffffff1663c3d2026f90507c01000000000000000000000000000000000000000000000000000000000260008060018560000151866020015187604001518860600151896080015160000151604051602401808973ffffffffffffffffffffffffffffffffffffffff1673ffffffffffffffffffffffffffffffffffffffff16815260200188815260200187815260200186600019166000191681526020018573ffffffffffffffffffffffffffffffffffffffff1673ffffffffffffffffffffffffffffffffffffffff168152602001847bffffffffffffffffffffffffffffffffffffffffffffffffffffffff19167bffffffffffffffffffffffffffffffffffffffffffffffffffffffff1916815260200183815260200180602001828103825283818151815260200191508051906020019080838360005b838110156116f45780820151818401526020810190506116d9565b50505050905090810190601f1680156117215780820380516001836020036101000a031916815260200191505b509950505050505050505050604051602081830303815290604052907bffffffffffffffffffffffffffffffffffffffffffffffffffffffff19166020820180517bffffffffffffffffffffffffffffffffffffffffffffffffffffffff83818316178352505050509050919050565b6000818311156117a3578290506117a7565b8190505b92915050565b816020015160018360000151510111156117d3576117d2826002846020015102611854565b5b815180516020818301018381536001820183525050505050565b6117f56118e5565b60008460200151856000015151840111156118255761182485600261181e886020015187611791565b02611854565b5b6001836101000a0390508451805184818301018684198251161781528582018352505050849150509392505050565b60608260000151905061186783836112e9565b6118718382611496565b50505050565b60c06040519081016040528060008019168152602001600073ffffffffffffffffffffffffffffffffffffffff16815260200160007bffffffffffffffffffffffffffffffffffffffffffffffffffffffff19168152602001600081526020016118df6118ff565b81525090565b604080519081016040528060608152602001600081525090565b6040805190810160405280606081526020016000815250905600a165627a7a72305820156b522769ddf56673343ebf1ebe7f1ee6ad76f1ebae9f107ba316333e2ce7870029",
  "source": "pragma solidity 0.4.24;\n\nimport \"./Consumer.sol\";\n\ncontract UpdatableConsumer is Consumer {\n\n  constructor(bytes32 _specId, address _ens, bytes32 _node) public {\n    specId = _specId;\n    setChainlinkWithENS(_ens, _node);\n  }\n\n  function updateOracle() public {\n    setOracleWithENS();\n  }\n\n  function getChainlinkToken() public view returns (address) {\n    return chainlinkToken();\n  }\n\n  function getOracle() public view returns (address) {\n    return oracleAddress();\n  }\n\n}\n",
  "sourcePath": "/Users/jonashals/go/src/github.com/smartcontractkit/chainlink/solidity/contracts/examples/UpdatableConsumer.sol",
  "compiler": {
    "name": "solc",
    "version": "0.4.24+commit.e67f0147.Emscripten.clang"
  },
  "schemaVersion": "3.0.1",
  "updatedAt": "2019-02-03T15:40:22.443Z",
  "devdoc": {
    "methods": {}
  },
  "userdoc": {
    "methods": {}
  }
}