{
  "_format": "hh-sol-artifact-1",
  "contractName": "CompoundPriceFlaggingValidator",
  "sourceName": "src/v0.7/dev/CompoundPriceFlaggingValidator.sol",
  "abi": [
    {
      "inputs": [
        {
          "internalType": "address",
          "name": "flagsAddress",
          "type": "address"
        },
        {
          "internalType": "address",
          "name": "compoundOracleAddress",
          "type": "address"
        }
      ],
      "stateMutability": "nonpayable",
      "type": "constructor"
    },
    {
      "anonymous": false,
      "inputs": [
        {
          "indexed": true,
          "internalType": "address",
          "name": "from",
          "type": "address"
        },
        {
          "indexed": true,
          "internalType": "address",
          "name": "to",
          "type": "address"
        }
      ],
      "name": "CompoundOpenOracleAddressUpdated",
      "type": "event"
    },
    {
      "anonymous": false,
      "inputs": [
        {
          "indexed": true,
          "internalType": "address",
          "name": "aggregator",
          "type": "address"
        },
        {
          "indexed": false,
          "internalType": "string",
          "name": "symbol",
          "type": "string"
        },
        {
          "indexed": false,
          "internalType": "uint8",
          "name": "decimals",
          "type": "uint8"
        },
        {
          "indexed": false,
          "internalType": "uint32",
          "name": "deviationThresholdNumerator",
          "type": "uint32"
        }
      ],
      "name": "FeedDetailsSet",
      "type": "event"
    },
    {
      "anonymous": false,
      "inputs": [
        {
          "indexed": true,
          "internalType": "address",
          "name": "from",
          "type": "address"
        },
        {
          "indexed": true,
          "internalType": "address",
          "name": "to",
          "type": "address"
        }
      ],
      "name": "FlagsAddressUpdated",
      "type": "event"
    },
    {
      "anonymous": false,
      "inputs": [
        {
          "indexed": true,
          "internalType": "address",
          "name": "from",
          "type": "address"
        },
        {
          "indexed": true,
          "internalType": "address",
          "name": "to",
          "type": "address"
        }
      ],
      "name": "OwnershipTransferRequested",
      "type": "event"
    },
    {
      "anonymous": false,
      "inputs": [
        {
          "indexed": true,
          "internalType": "address",
          "name": "from",
          "type": "address"
        },
        {
          "indexed": true,
          "internalType": "address",
          "name": "to",
          "type": "address"
        }
      ],
      "name": "OwnershipTransferred",
      "type": "event"
    },
    {
      "inputs": [],
      "name": "acceptOwnership",
      "outputs": [],
      "stateMutability": "nonpayable",
      "type": "function"
    },
    {
      "inputs": [
        {
          "internalType": "address[]",
          "name": "aggregators",
          "type": "address[]"
        }
      ],
      "name": "check",
      "outputs": [
        {
          "internalType": "address[]",
          "name": "",
          "type": "address[]"
        }
      ],
      "stateMutability": "view",
      "type": "function"
    },
    {
      "inputs": [
        {
          "internalType": "bytes",
          "name": "data",
          "type": "bytes"
        }
      ],
      "name": "checkUpkeep",
      "outputs": [
        {
          "internalType": "bool",
          "name": "",
          "type": "bool"
        },
        {
          "internalType": "bytes",
          "name": "",
          "type": "bytes"
        }
      ],
      "stateMutability": "view",
      "type": "function"
    },
    {
      "inputs": [],
      "name": "compoundOpenOracle",
      "outputs": [
        {
          "internalType": "address",
          "name": "",
          "type": "address"
        }
      ],
      "stateMutability": "view",
      "type": "function"
    },
    {
      "inputs": [],
      "name": "flags",
      "outputs": [
        {
          "internalType": "address",
          "name": "",
          "type": "address"
        }
      ],
      "stateMutability": "view",
      "type": "function"
    },
    {
      "inputs": [
        {
          "internalType": "address",
          "name": "aggregator",
          "type": "address"
        }
      ],
      "name": "getFeedDetails",
      "outputs": [
        {
          "internalType": "string",
          "name": "",
          "type": "string"
        },
        {
          "internalType": "uint8",
          "name": "",
          "type": "uint8"
        },
        {
          "internalType": "uint32",
          "name": "",
          "type": "uint32"
        }
      ],
      "stateMutability": "view",
      "type": "function"
    },
    {
      "inputs": [],
      "name": "owner",
      "outputs": [
        {
          "internalType": "address",
          "name": "",
          "type": "address"
        }
      ],
      "stateMutability": "view",
      "type": "function"
    },
    {
      "inputs": [
        {
          "internalType": "bytes",
          "name": "data",
          "type": "bytes"
        }
      ],
      "name": "performUpkeep",
      "outputs": [],
      "stateMutability": "nonpayable",
      "type": "function"
    },
    {
      "inputs": [
        {
          "internalType": "address",
          "name": "oracleAddress",
          "type": "address"
        }
      ],
      "name": "setCompoundOpenOracleAddress",
      "outputs": [],
      "stateMutability": "nonpayable",
      "type": "function"
    },
    {
      "inputs": [
        {
          "internalType": "address",
          "name": "aggregator",
          "type": "address"
        },
        {
          "internalType": "string",
          "name": "compoundSymbol",
          "type": "string"
        },
        {
          "internalType": "uint8",
          "name": "compoundDecimals",
          "type": "uint8"
        },
        {
          "internalType": "uint32",
          "name": "compoundDeviationThresholdNumerator",
          "type": "uint32"
        }
      ],
      "name": "setFeedDetails",
      "outputs": [],
      "stateMutability": "nonpayable",
      "type": "function"
    },
    {
      "inputs": [
        {
          "internalType": "address",
          "name": "flagsAddress",
          "type": "address"
        }
      ],
      "name": "setFlagsAddress",
      "outputs": [],
      "stateMutability": "nonpayable",
      "type": "function"
    },
    {
      "inputs": [
        {
          "internalType": "address",
          "name": "to",
          "type": "address"
        }
      ],
      "name": "transferOwnership",
      "outputs": [],
      "stateMutability": "nonpayable",
      "type": "function"
    },
    {
      "inputs": [
        {
          "internalType": "address[]",
          "name": "aggregators",
          "type": "address[]"
        }
      ],
      "name": "update",
      "outputs": [
        {
          "internalType": "address[]",
          "name": "",
          "type": "address[]"
        }
      ],
      "stateMutability": "nonpayable",
      "type": "function"
    }
  ],
  "bytecode": "0x60806040523480156200001157600080fd5b5060405162001c9d38038062001c9d833981810160405260408110156200003757600080fd5b508051602090910151338060008162000097576040805162461bcd60e51b815260206004820152601860248201527f43616e6e6f7420736574206f776e657220746f207a65726f0000000000000000604482015290519081900360640190fd5b600080546001600160a01b0319166001600160a01b0384811691909117909155811615620000ca57620000ca81620000f1565b505050620000de82620001a160201b60201c565b620000e98162000215565b5050620002ea565b6001600160a01b03811633141562000150576040805162461bcd60e51b815260206004820152601760248201527f43616e6e6f74207472616e7366657220746f2073656c66000000000000000000604482015290519081900360640190fd5b600180546001600160a01b0319166001600160a01b0383811691821790925560008054604051929316917fed8889f560326eb138920d842192f0eb3dd22b4f139c87a2c57538e05bae12789190a350565b620001ab62000288565b6002546001600160a01b0390811690821681146200021157600280546001600160a01b0319166001600160a01b0384811691821790925560405190918316907f900aa01828592ab069e4d44e7a36c70ebd476e35f567c7db6a691e503b8029d890600090a35b5050565b6200021f62000288565b6003546001600160a01b0390811690821681146200021157600380546001600160a01b0319166001600160a01b0384811691821790925560405190918316907fd37715469c4865e142b38d226fd2732c830e5acb6338e1b3007a8a0b689f766790600090a35050565b6000546001600160a01b03163314620002e8576040805162461bcd60e51b815260206004820152601660248201527f4f6e6c792063616c6c61626c65206279206f776e657200000000000000000000604482015290519081900360640190fd5b565b6119a380620002fa6000396000f3fe608060405234801561001057600080fd5b50600436106100df5760003560e01c806379ba50971161008c5780638da5cb5b116100665780638da5cb5b146104ed578063f0ba3ae1146104f5578063f1987695146105b7578063f2fde38b146105ea576100df565b806379ba5097146103a65780638417ca99146103ae578063870e5d511461044a576100df565b806364cc4aa5116100bd57806364cc4aa51461027c5780636e04ff0d146102ad578063725afd441461039e576100df565b806325c620b9146100e4578063317f17dc146101195780634585e33b1461020c575b600080fd5b610117600480360360208110156100fa57600080fd5b503573ffffffffffffffffffffffffffffffffffffffff1661061d565b005b6101bc6004803603602081101561012f57600080fd5b81019060208101813564010000000081111561014a57600080fd5b82018360208201111561015c57600080fd5b8035906020019184602083028401116401000000008311171561017e57600080fd5b9190808060200260200160405190810160405280939291908181526020018383602002808284376000920191909152509295506106c0945050505050565b60408051602080825283518183015283519192839290830191858101910280838360005b838110156101f85781810151838201526020016101e0565b505050509050019250505060405180910390f35b6101176004803603602081101561022257600080fd5b81019060208101813564010000000081111561023d57600080fd5b82018360208201111561024f57600080fd5b8035906020019184600183028401116401000000008311171561027157600080fd5b50909250905061079f565b6102846107b7565b6040805173ffffffffffffffffffffffffffffffffffffffff9092168252519081900360200190f35b61031d600480360360208110156102c357600080fd5b8101906020810181356401000000008111156102de57600080fd5b8201836020820111156102f057600080fd5b8035906020019184600183028401116401000000008311171561031257600080fd5b5090925090506107d3565b60405180831515815260200180602001828103825283818151815260200191508051906020019080838360005b8381101561036257818101518382015260200161034a565b50505050905090810190601f16801561038f5780820380516001836020036101000a031916815260200191505b50935050505060405180910390f35b610284610862565b61011761087e565b610117600480360360808110156103c457600080fd5b73ffffffffffffffffffffffffffffffffffffffff82351691908101906040810160208201356401000000008111156103fc57600080fd5b82018360208201111561040e57600080fd5b8035906020019184600183028401116401000000008311171561043057600080fd5b9193509150803560ff16906020013563ffffffff16610980565b6101bc6004803603602081101561046057600080fd5b81019060208101813564010000000081111561047b57600080fd5b82018360208201111561048d57600080fd5b803590602001918460208302840111640100000000831117156104af57600080fd5b919080806020026020016040519081016040528093929190818152602001838360200280828437600092019190915250929550610ee8945050505050565b610284610fba565b6105286004803603602081101561050b57600080fd5b503573ffffffffffffffffffffffffffffffffffffffff16610fd6565b60405180806020018460ff1681526020018363ffffffff168152602001828103825285818151815260200191508051906020019080838360005b8381101561057a578181015183820152602001610562565b50505050905090810190601f1680156105a75780820380516001836020036101000a031916815260200191505b5094505050505060405180910390f35b610117600480360360208110156105cd57600080fd5b503573ffffffffffffffffffffffffffffffffffffffff166110f5565b6101176004803603602081101561060057600080fd5b503573ffffffffffffffffffffffffffffffffffffffff16611197565b6106256111ab565b60035473ffffffffffffffffffffffffffffffffffffffff90811690821681146106bc57600380547fffffffffffffffffffffffff00000000000000000000000000000000000000001673ffffffffffffffffffffffffffffffffffffffff84811691821790925560405190918316907fd37715469c4865e142b38d226fd2732c830e5acb6338e1b3007a8a0b689f766790600090a35b5050565b606060006106cd83610ee8565b6002546040517f760bc82d00000000000000000000000000000000000000000000000000000000815260206004820181815284516024840152845194955073ffffffffffffffffffffffffffffffffffffffff9093169363760bc82d93869390928392604490920191818601910280838360005b83811015610759578181015183820152602001610741565b5050505090500192505050600060405180830381600087803b15801561077e57600080fd5b505af1158015610792573d6000803e3d6000fd5b509293505050505b919050565b6107b28282602081101561012f57600080fd5b505050565b60025473ffffffffffffffffffffffffffffffffffffffff1690565b6000606060006107ec8585602081101561046057600080fd5b9050600080825111905080826040516020018080602001828103825283818151815260200191508051906020019060200280838360005b8381101561083b578181015183820152602001610823565b50505050905001925050506040516020818303038152906040529350935050509250929050565b60035473ffffffffffffffffffffffffffffffffffffffff1690565b60015473ffffffffffffffffffffffffffffffffffffffff16331461090457604080517f08c379a000000000000000000000000000000000000000000000000000000000815260206004820152601660248201527f4d7573742062652070726f706f736564206f776e657200000000000000000000604482015290519081900360640190fd5b60008054337fffffffffffffffffffffffff00000000000000000000000000000000000000008083168217845560018054909116905560405173ffffffffffffffffffffffffffffffffffffffff90921692909183917f8be0079c531659141344cd1fd0a4f28419497f9722a3daafe3b4186f6b6457e091a350565b6109886111ab565b60008163ffffffff161180156109a85750633b9aca008163ffffffff1611155b610a1357604080517f08c379a000000000000000000000000000000000000000000000000000000000815260206004820152601b60248201527f496e76616c6964207468726573686f6c64206e756d657261746f720000000000604482015290519081900360640190fd5b610a5284848080601f01602080910402602001604051908101604052809392919081815260200183838082843760009201919091525061123392505050565b610abd57604080517f08c379a000000000000000000000000000000000000000000000000000000000815260206004820152601660248201527f496e76616c696420436f6d706f756e6420707269636500000000000000000000604482015290519081900360640190fd5b73ffffffffffffffffffffffffffffffffffffffff851660009081526004602090815260408083208054825160026001831615610100027fffffffffffffffffffffffffffffffffffffffffffffffffffffffffffffffff0190921691909104601f810185900485028201850190935282815292909190830182828015610b855780601f10610b5a57610100808354040283529160200191610b85565b820191906000526020600020905b815481529060010190602001808311610b6857829003601f168201915b50505050509050805160001415610d4b57604051806060016040528086868080601f016020809104026020016040519081016040528093929190818152602001838380828437600092018290525093855250505060ff861660208084019190915263ffffffff861660409384015273ffffffffffffffffffffffffffffffffffffffff8a16825260048152919020825180519192610c28928492909101906118d4565b5060208281015160019290920180546040948501517fffffffffffffffffffffffffffffffffffffffffffffffffffffffffffffff0090911660ff948516177fffffffffffffffffffffffffffffffffffffffffffffffffffffff00000000ff1661010063ffffffff92831602179091558351928716918301919091528416918101919091526060808252810185905273ffffffffffffffffffffffffffffffffffffffff8716907f135b0348f308ff0dd1327c639a992d37786e313b6b100424477b900a075ddaa69087908790879087908060808101868680828437600083820152604051601f9091017fffffffffffffffffffffffffffffffffffffffffffffffffffffffffffffffe01690920182900397509095505050505050a2610ee0565b6040805160608101825282815260ff851660208083019190915263ffffffff85168284015273ffffffffffffffffffffffffffffffffffffffff8916600090815260048252929092208151805192939192610da992849201906118d4565b5060208281015160019290920180546040948501517fffffffffffffffffffffffffffffffffffffffffffffffffffffffffffffff0090911660ff948516177fffffffffffffffffffffffffffffffffffffffffffffffffffffff00000000ff1661010063ffffffff92831602179091558351928716838301528516928201929092526060808252835190820152825173ffffffffffffffffffffffffffffffffffffffff8916927f135b0348f308ff0dd1327c639a992d37786e313b6b100424477b900a075ddaa69285928892889291829160808301919087019080838360005b83811015610ea3578181015183820152602001610e8b565b50505050905090810190601f168015610ed05780820380516001836020036101000a031916815260200191505b5094505050505060405180910390a25b505050505050565b60606000825167ffffffffffffffff81118015610f0457600080fd5b50604051908082528060200260200182016040528015610f2e578160200160208202803683370190505b5090506000805b8451811015610fa6576000858281518110610f4c57fe5b60200260200101519050610f5f81611333565b15610f9d5780848481518110610f7157fe5b73ffffffffffffffffffffffffffffffffffffffff909216602092830291909101909101526001909201915b50600101610f35565b5080845114610fb3578082525b5092915050565b60005473ffffffffffffffffffffffffffffffffffffffff1690565b73ffffffffffffffffffffffffffffffffffffffff811660009081526004602090815260408083208151815460026001821615610100027fffffffffffffffffffffffffffffffffffffffffffffffffffffffffffffffff0190911604601f81018590049094028101608090810190935260608082018581529095948594859492849290918491908401828280156110af5780601f10611084576101008083540402835291602001916110af565b820191906000526020600020905b81548152906001019060200180831161109257829003601f168201915b50505091835250506001919091015460ff811660208084019190915261010090910463ffffffff1660409283015282519083015192909101519097919650945092505050565b6110fd6111ab565b60025473ffffffffffffffffffffffffffffffffffffffff90811690821681146106bc57600280547fffffffffffffffffffffffff00000000000000000000000000000000000000001673ffffffffffffffffffffffffffffffffffffffff84811691821790925560405190918316907f900aa01828592ab069e4d44e7a36c70ebd476e35f567c7db6a691e503b8029d890600090a35050565b61119f6111ab565b6111a881611497565b50565b60005473ffffffffffffffffffffffffffffffffffffffff16331461123157604080517f08c379a000000000000000000000000000000000000000000000000000000000815260206004820152601660248201527f4f6e6c792063616c6c61626c65206279206f776e657200000000000000000000604482015290519081900360640190fd5b565b6003546040517ffe2c619800000000000000000000000000000000000000000000000000000000815260206004820181815284516024840152845160009473ffffffffffffffffffffffffffffffffffffffff169363fe2c6198938793928392604401918501908083838b5b838110156112b757818101518382015260200161129f565b50505050905090810190601f1680156112e45780820380516001836020036101000a031916815260200191505b509250505060206040518083038186803b15801561130157600080fd5b505afa158015611315573d6000803e3d6000fd5b505050506040513d602081101561132b57600080fd5b505192915050565b73ffffffffffffffffffffffffffffffffffffffff811660009081526004602090815260408083208151815460026001821615610100027fffffffffffffffffffffffffffffffffffffffffffffffffffffffffffffffff0190911604601f8101859004909402810160809081019093526060810184815285949193849284918401828280156114045780601f106113d957610100808354040283529160200191611404565b820191906000526020600020905b8154815290600101906020018083116113e757829003601f168201915b50505091835250506001919091015460ff8116602083015263ffffffff6101009091048116604092830152908201519192501661144557600091505061079a565b60006114548260000151611233565b905060008061146286611592565b9150915061147682828587602001516116b0565b809450819350505061148d828486604001516116fd565b9695505050505050565b73ffffffffffffffffffffffffffffffffffffffff811633141561151c57604080517f08c379a000000000000000000000000000000000000000000000000000000000815260206004820152601760248201527f43616e6e6f74207472616e7366657220746f2073656c66000000000000000000604482015290519081900360640190fd5b600180547fffffffffffffffffffffffff00000000000000000000000000000000000000001673ffffffffffffffffffffffffffffffffffffffff83811691821790925560008054604051929316917fed8889f560326eb138920d842192f0eb3dd22b4f139c87a2c57538e05bae12789190a350565b600080600083905060008173ffffffffffffffffffffffffffffffffffffffff1663feaf968c6040518163ffffffff1660e01b815260040160a06040518083038186803b1580156115e257600080fd5b505afa1580156115f6573d6000803e3d6000fd5b505050506040513d60a081101561160c57600080fd5b50602090810151604080517f313ce567000000000000000000000000000000000000000000000000000000008152905191965086935073ffffffffffffffffffffffffffffffffffffffff85169263313ce56792600480840193829003018186803b15801561167a57600080fd5b505afa15801561168e573d6000803e3d6000fd5b505050506040513d60208110156116a457600080fd5b50519395939450505050565b6000808260ff168560ff1611156116d45760ff83860316600a0a93909302926116f1565b8260ff168560ff1610156116f15760ff85840316600a0a95909502945b50939491935090915050565b600080611721633b9aca0061171b8763ffffffff8088169061175d16565b906117d9565b905060008486111561173e57611737868661185d565b9050611753565b8486101561175357611750858761185d565b90505b1015949350505050565b60008261176c575060006117d3565b8282028284828161177957fe5b04146117d0576040517f08c379a00000000000000000000000000000000000000000000000000000000081526004018080602001828103825260218152602001806119766021913960400191505060405180910390fd5b90505b92915050565b600080821161184957604080517f08c379a000000000000000000000000000000000000000000000000000000000815260206004820152601a60248201527f536166654d6174683a206469766973696f6e206279207a65726f000000000000604482015290519081900360640190fd5b600082848161185457fe5b04949350505050565b6000828211156118ce57604080517f08c379a000000000000000000000000000000000000000000000000000000000815260206004820152601e60248201527f536166654d6174683a207375627472616374696f6e206f766572666c6f770000604482015290519081900360640190fd5b50900390565b828054600181600116156101000203166002900490600052602060002090601f01602090048101928261190a5760008555611950565b82601f1061192357805160ff1916838001178555611950565b82800160010185558215611950579182015b82811115611950578251825591602001919060010190611935565b5061195c929150611960565b5090565b5b8082111561195c576000815560010161196156fe536166654d6174683a206d756c7469706c69636174696f6e206f766572666c6f77a164736f6c6343000706000a",
  "linkReferences": {},
  "deployedLinkReferences": {}
}