{
  "_format": "hh-sol-artifact-1",
  "contractName": "BasicConsumer",
  "sourceName": "src/v0.5/tests/BasicConsumer.sol",
  "abi": [
    {
      "constant": false,
      "inputs": [
        {
          "name": "_requestId",
          "type": "bytes32"
        },
        {
          "name": "_price",
          "type": "bytes32"
        }
      ],
      "name": "fulfill",
      "outputs": [],
      "payable": false,
      "stateMutability": "nonpayable",
      "type": "function"
    },
    {
      "constant": false,
      "inputs": [
        {
          "name": "_oracle",
          "type": "address"
        },
        {
          "name": "_requestId",
          "type": "bytes32"
        },
        {
          "name": "_payment",
          "type": "uint256"
        },
        {
          "name": "_callbackFunctionId",
          "type": "bytes4"
        },
        {
          "name": "_expiration",
          "type": "uint256"
        }
      ],
      "name": "cancelRequest",
      "outputs": [],
      "payable": false,
      "stateMutability": "nonpayable",
      "type": "function"
    },
    {
      "constant": false,
      "inputs": [
        {
          "name": "_currency",
          "type": "string"
        },
        {
          "name": "_payment",
          "type": "uint256"
        },
        {
          "name": "_callback",
          "type": "address"
        }
      ],
      "name": "requestEthereumPriceByCallback",
      "outputs": [],
      "payable": false,
      "stateMutability": "nonpayable",
      "type": "function"
    },
    {
      "constant": false,
      "inputs": [
        {
          "name": "_currency",
          "type": "string"
        },
        {
          "name": "_payment",
          "type": "uint256"
        }
      ],
      "name": "requestEthereumPrice",
      "outputs": [],
      "payable": false,
      "stateMutability": "nonpayable",
      "type": "function"
    },
    {
      "constant": false,
      "inputs": [],
      "name": "withdrawLink",
      "outputs": [],
      "payable": false,
      "stateMutability": "nonpayable",
      "type": "function"
    },
    {
      "constant": true,
      "inputs": [],
      "name": "currentPrice",
      "outputs": [
        {
          "name": "",
          "type": "bytes32"
        }
      ],
      "payable": false,
      "stateMutability": "view",
      "type": "function"
    },
    {
      "constant": false,
      "inputs": [
        {
          "name": "_oracle",
          "type": "address"
        },
        {
          "name": "_requestId",
          "type": "bytes32"
        }
      ],
      "name": "addExternalRequest",
      "outputs": [],
      "payable": false,
      "stateMutability": "nonpayable",
      "type": "function"
    },
    {
      "inputs": [
        {
          "name": "_link",
          "type": "address"
        },
        {
          "name": "_oracle",
          "type": "address"
        },
        {
          "name": "_specId",
          "type": "bytes32"
        }
      ],
      "payable": false,
      "stateMutability": "nonpayable",
      "type": "constructor"
    },
    {
      "anonymous": false,
      "inputs": [
        {
          "indexed": true,
          "name": "requestId",
          "type": "bytes32"
        },
        {
          "indexed": true,
          "name": "price",
          "type": "bytes32"
        }
      ],
      "name": "RequestFulfilled",
      "type": "event"
    },
    {
      "anonymous": false,
      "inputs": [
        {
          "indexed": true,
          "name": "id",
          "type": "bytes32"
        }
      ],
      "name": "ChainlinkRequested",
      "type": "event"
    },
    {
      "anonymous": false,
      "inputs": [
        {
          "indexed": true,
          "name": "id",
          "type": "bytes32"
        }
      ],
      "name": "ChainlinkFulfilled",
      "type": "event"
    },
    {
      "anonymous": false,
      "inputs": [
        {
          "indexed": true,
          "name": "id",
          "type": "bytes32"
        }
      ],
      "name": "ChainlinkCancelled",
      "type": "event"
    }
  ],
  "bytecode": "0x6080604052600160045534801561001557600080fd5b5060405160608061145f8339810180604052606081101561003557600080fd5b508051602082015160409092015190919061005883640100000000610075810204565b61006a82640100000000610097810204565b600655506100b99050565b60028054600160a060020a031916600160a060020a0392909216919091179055565b60038054600160a060020a031916600160a060020a0392909216919091179055565b611397806100c86000396000f3fe6080604052600436106100825763ffffffff7c0100000000000000000000000000000000000000000000000000000000600035041663042f2b6581146100875780635591a608146100b957806374961d4d1461013357806383db5cbc146102015780638dc654a2146102b65780639d1b464a146102cb578063e8d5359d146102f2575b600080fd5b34801561009357600080fd5b506100b7600480360360408110156100aa57600080fd5b5080359060200135610338565b005b3480156100c557600080fd5b506100b7600480360360a08110156100dc57600080fd5b5073ffffffffffffffffffffffffffffffffffffffff813516906020810135906040810135907fffffffff000000000000000000000000000000000000000000000000000000006060820135169060800135610481565b34801561013f57600080fd5b506100b76004803603606081101561015657600080fd5b81019060208101813564010000000081111561017157600080fd5b82018360208201111561018357600080fd5b803590602001918460018302840111640100000000831117156101a557600080fd5b91908080601f016020809104026020016040519081016040528093929190818152602001838380828437600092019190915250929550508235935050506020013573ffffffffffffffffffffffffffffffffffffffff16610548565b34801561020d57600080fd5b506100b76004803603604081101561022457600080fd5b81019060208101813564010000000081111561023f57600080fd5b82018360208201111561025157600080fd5b8035906020019184600183028401116401000000008311171561027357600080fd5b91908080601f01602080910402602001604051908101604052809392919081815260200183838082843760009201919091525092955050913592506106f3915050565b3480156102c257600080fd5b506100b7610702565b3480156102d757600080fd5b506102e06108c0565b60408051918252519081900360200190f35b3480156102fe57600080fd5b506100b76004803603604081101561031557600080fd5b5073ffffffffffffffffffffffffffffffffffffffff81351690602001356108c6565b600082815260056020526040902054829073ffffffffffffffffffffffffffffffffffffffff1633146103f257604080517f08c379a000000000000000000000000000000000000000000000000000000000815260206004820152602860248201527f536f75726365206d75737420626520746865206f7261636c65206f662074686560448201527f2072657175657374000000000000000000000000000000000000000000000000606482015290519081900360840190fd5b60008181526005602052604080822080547fffffffffffffffffffffffff00000000000000000000000000000000000000001690555182917f7cc135e0cebb02c3480ae5d74d377283180a2601f8f644edf7987b009316c63a91a2604051829084907f0c2366233f634048c0f0458060d1228fab36d00f7c0ecf6bdf2d9c458503631190600090a35060075550565b604080517f6ee4d55300000000000000000000000000000000000000000000000000000000815260048101869052602481018590527fffffffff0000000000000000000000000000000000000000000000000000000084166044820152606481018390529051869173ffffffffffffffffffffffffffffffffffffffff831691636ee4d5539160848082019260009290919082900301818387803b15801561052857600080fd5b505af115801561053c573d6000803e3d6000fd5b50505050505050505050565b61055061131e565b60065461057e90837f042f2b65000000000000000000000000000000000000000000000000000000006108d0565b905061064c6040805190810160405280600381526020017f6765740000000000000000000000000000000000000000000000000000000000815250608060405190810160405280604781526020017f68747470733a2f2f6d696e2d6170692e63727970746f636f6d706172652e636f81526020017f6d2f646174612f70726963653f6673796d3d455448267473796d733d5553442c81526020017f4555522c4a505900000000000000000000000000000000000000000000000000815250836108fb9092919063ffffffff16565b604080516001808252818301909252606091816020015b60608152602001906001900390816106635790505090508481600081518110151561068a57fe5b906020019060200201819052506106e16040805190810160405280600481526020017f7061746800000000000000000000000000000000000000000000000000000000815250828461092a9092919063ffffffff16565b6106eb828561099a565b505050505050565b6106fe828230610548565b5050565b600061070c6109ca565b604080517f70a08231000000000000000000000000000000000000000000000000000000008152306004820152905191925073ffffffffffffffffffffffffffffffffffffffff83169163a9059cbb91339184916370a08231916024808301926020929190829003018186803b15801561078557600080fd5b505afa158015610799573d6000803e3d6000fd5b505050506040513d60208110156107af57600080fd5b5051604080517c010000000000000000000000000000000000000000000000000000000063ffffffff861602815273ffffffffffffffffffffffffffffffffffffffff909316600484015260248301919091525160448083019260209291908290030181600087803b15801561082457600080fd5b505af1158015610838573d6000803e3d6000fd5b505050506040513d602081101561084e57600080fd5b505115156108bd57604080517f08c379a000000000000000000000000000000000000000000000000000000000815260206004820152601260248201527f556e61626c6520746f207472616e736665720000000000000000000000000000604482015290519081900360640190fd5b50565b60075481565b6106fe82826109e6565b6108d861131e565b6108e061131e565b6108f28186868663ffffffff610acd16565b95945050505050565b6080830151610910908363ffffffff610b2f16565b6080830151610925908263ffffffff610b2f16565b505050565b608083015161093f908363ffffffff610b2f16565b61094c8360800151610b4c565b60005b815181101561098c57610984828281518110151561096957fe5b6020908102909101015160808601519063ffffffff610b2f16565b60010161094f565b506109258360800151610b57565b6003546000906109c19073ffffffffffffffffffffffffffffffffffffffff168484610b62565b90505b92915050565b60025473ffffffffffffffffffffffffffffffffffffffff1690565b600081815260056020526040902054819073ffffffffffffffffffffffffffffffffffffffff1615610a7957604080517f08c379a000000000000000000000000000000000000000000000000000000000815260206004820152601a60248201527f5265717565737420697320616c72656164792070656e64696e67000000000000604482015290519081900360640190fd5b50600090815260056020526040902080547fffffffffffffffffffffffff00000000000000000000000000000000000000001673ffffffffffffffffffffffffffffffffffffffff92909216919091179055565b610ad561131e565b610ae58560800151610100610e04565b505091835273ffffffffffffffffffffffffffffffffffffffff1660208301527fffffffff0000000000000000000000000000000000000000000000000000000016604082015290565b610b3c8260038351610e3e565b610925828263ffffffff610f4116565b6108bd816004610f5b565b6108bd816007610f5b565b60045460408051306c01000000000000000000000000026020808301919091526034808301859052835180840390910181526054909201835281519181019190912060608601939093526000838152600590915281812080547fffffffffffffffffffffffff00000000000000000000000000000000000000001673ffffffffffffffffffffffffffffffffffffffff8816179055905182917fb5e6e01e79f91267dc17b4e6314d5d4d03593d2ceee0fbb452b750bd70ea5af991a260025473ffffffffffffffffffffffffffffffffffffffff16634000aea08584610c4787610f74565b6040518463ffffffff167c0100000000000000000000000000000000000000000000000000000000028152600401808473ffffffffffffffffffffffffffffffffffffffff1673ffffffffffffffffffffffffffffffffffffffff16815260200183815260200180602001828103825283818151815260200191508051906020019080838360005b83811015610ce7578181015183820152602001610ccf565b50505050905090810190601f168015610d145780820380516001836020036101000a031916815260200191505b50945050505050602060405180830381600087803b158015610d3557600080fd5b505af1158015610d49573d6000803e3d6000fd5b505050506040513d6020811015610d5f57600080fd5b50511515610df457604080517f08c379a000000000000000000000000000000000000000000000000000000000815260206004820152602360248201527f756e61626c6520746f207472616e73666572416e6443616c6c20746f206f726160448201527f636c650000000000000000000000000000000000000000000000000000000000606482015290519081900360840190fd5b6004805460010190559392505050565b610e0c611353565b6020820615610e215760208206602003820191505b506020828101829052604080518085526000815290920101905290565b60178111610e6057610e5a8360ff848116602002168317611126565b50610925565b60ff8111610e9457610e81836018602060ff8616021763ffffffff61112616565b50610e5a8382600163ffffffff61113e16565b61ffff8111610ec957610eb6836019602060ff8616021763ffffffff61112616565b50610e5a8382600263ffffffff61113e16565b63ffffffff8111610f0057610eed83601a602060ff8616021763ffffffff61112616565b50610e5a8382600463ffffffff61113e16565b67ffffffffffffffff811161092557610f2883601b602060ff8616021763ffffffff61112616565b50610f3b8382600863ffffffff61113e16565b50505050565b610f49611353565b6109c18384600001515184855161115f565b61092582601f602060ff8516021763ffffffff61112616565b8051602080830151604080850151606086810151608088015151935160006024820181815260448301829052606483018a905273ffffffffffffffffffffffffffffffffffffffff881660848401527fffffffff00000000000000000000000000000000000000000000000000000000861660a484015260c48301849052600160e48401819052610100610104850190815288516101248601528851969b7f40429946000000000000000000000000000000000000000000000000000000009b949a8b9a91999098909796939591949361014401918501908083838e5b83811015611069578181015183820152602001611051565b50505050905090810190601f1680156110965780820380516001836020036101000a031916815260200191505b50604080517fffffffffffffffffffffffffffffffffffffffffffffffffffffffffffffffe08184030181529190526020810180517bffffffffffffffffffffffffffffffffffffffffffffffffffffffff167fffffffff00000000000000000000000000000000000000000000000000000000909d169c909c17909b5250989950505050505050505050919050565b61112e611353565b6109c18384600001515184611247565b611146611353565b611157848560000151518585611292565b949350505050565b611167611353565b825182111561117557600080fd5b8460200151828501111561119f5761119f8561119787602001518786016112f0565b600202611307565b6000808651805187602083010193508088870111156111be5787860182525b505050602084015b6020841061120357805182527fffffffffffffffffffffffffffffffffffffffffffffffffffffffffffffffe090930192602091820191016111c6565b5181517fffffffffffffffffffffffffffffffffffffffffffffffffffffffffffffffff60208690036101000a019081169019919091161790525083949350505050565b61124f611353565b6020840151831061126b5761126b848560200151600202611307565b8351805160208583010184815381861415611287576001820183525b509495945050505050565b61129a611353565b846020015184830111156112b7576112b785858401600202611307565b60006001836101000a03905085518386820101858319825116178152815185880111156112e45784870182525b50959695505050505050565b6000818311156113015750816109c4565b50919050565b81516113138383610e04565b50610f3b8382610f41565b6040805160c08101825260008082526020820181905291810182905260608101919091526080810161134e611353565b905290565b6040805180820190915260608152600060208201529056fea165627a7a72305820862764b4a9b9a1bbf845ac04ae170436cd7d9842dbc1c748253a10bcbaaef2740029",
  "linkReferences": {},
  "deployedLinkReferences": {}
}