{
  "_format": "hh-sol-artifact-1",
  "contractName": "ChainlinkClientTestHelper",
  "sourceName": "src/v0.6/tests/ChainlinkClientTestHelper.sol",
  "abi": [
    {
      "inputs": [
        {
          "internalType": "address",
          "name": "_link",
          "type": "address"
        },
        {
          "internalType": "address",
          "name": "_oracle",
          "type": "address"
        }
      ],
      "stateMutability": "nonpayable",
      "type": "constructor"
    },
    {
      "anonymous": false,
      "inputs": [
        {
          "indexed": true,
          "internalType": "bytes32",
          "name": "id",
          "type": "bytes32"
        }
      ],
      "name": "ChainlinkCancelled",
      "type": "event"
    },
    {
      "anonymous": false,
      "inputs": [
        {
          "indexed": true,
          "internalType": "bytes32",
          "name": "id",
          "type": "bytes32"
        }
      ],
      "name": "ChainlinkFulfilled",
      "type": "event"
    },
    {
      "anonymous": false,
      "inputs": [
        {
          "indexed": true,
          "internalType": "bytes32",
          "name": "id",
          "type": "bytes32"
        }
      ],
      "name": "ChainlinkRequested",
      "type": "event"
    },
    {
      "anonymous": false,
      "inputs": [
        {
          "indexed": false,
          "internalType": "uint256",
          "name": "amount",
          "type": "uint256"
        }
      ],
      "name": "LinkAmount",
      "type": "event"
    },
    {
      "anonymous": false,
      "inputs": [
        {
          "indexed": false,
          "internalType": "bytes32",
          "name": "id",
          "type": "bytes32"
        },
        {
          "indexed": false,
          "internalType": "address",
          "name": "callbackAddress",
          "type": "address"
        },
        {
          "indexed": false,
          "internalType": "bytes4",
          "name": "callbackfunctionSelector",
          "type": "bytes4"
        },
        {
          "indexed": false,
          "internalType": "bytes",
          "name": "data",
          "type": "bytes"
        }
      ],
      "name": "Request",
      "type": "event"
    },
    {
      "inputs": [
        {
          "internalType": "bytes32",
          "name": "_requestId",
          "type": "bytes32"
        },
        {
          "internalType": "bytes32",
          "name": "",
          "type": "bytes32"
        }
      ],
      "name": "fulfillRequest",
      "outputs": [],
      "stateMutability": "nonpayable",
      "type": "function"
    },
    {
      "inputs": [
        {
          "internalType": "address",
          "name": "_oracle",
          "type": "address"
        },
        {
          "internalType": "bytes32",
          "name": "_requestId",
          "type": "bytes32"
        }
      ],
      "name": "publicAddExternalRequest",
      "outputs": [],
      "stateMutability": "nonpayable",
      "type": "function"
    },
    {
      "inputs": [
        {
          "internalType": "bytes32",
          "name": "_requestId",
          "type": "bytes32"
        },
        {
          "internalType": "uint256",
          "name": "_payment",
          "type": "uint256"
        },
        {
          "internalType": "bytes4",
          "name": "_callbackFunctionId",
          "type": "bytes4"
        },
        {
          "internalType": "uint256",
          "name": "_expiration",
          "type": "uint256"
        }
      ],
      "name": "publicCancelRequest",
      "outputs": [],
      "stateMutability": "nonpayable",
      "type": "function"
    },
    {
      "inputs": [],
      "name": "publicChainlinkToken",
      "outputs": [
        {
          "internalType": "address",
          "name": "",
          "type": "address"
        }
      ],
      "stateMutability": "view",
      "type": "function"
    },
    {
      "inputs": [
        {
          "internalType": "bytes32",
          "name": "_requestId",
          "type": "bytes32"
        },
        {
          "internalType": "bytes32",
          "name": "",
          "type": "bytes32"
        }
      ],
      "name": "publicFulfillChainlinkRequest",
      "outputs": [],
      "stateMutability": "nonpayable",
      "type": "function"
    },
    {
      "inputs": [
        {
          "internalType": "uint256",
          "name": "_amount",
          "type": "uint256"
        }
      ],
      "name": "publicLINK",
      "outputs": [],
      "stateMutability": "nonpayable",
      "type": "function"
    },
    {
      "inputs": [
        {
          "internalType": "bytes32",
          "name": "_id",
          "type": "bytes32"
        },
        {
          "internalType": "address",
          "name": "_address",
          "type": "address"
        },
        {
          "internalType": "bytes",
          "name": "_fulfillmentSignature",
          "type": "bytes"
        }
      ],
      "name": "publicNewRequest",
      "outputs": [],
      "stateMutability": "nonpayable",
      "type": "function"
    },
    {
      "inputs": [],
      "name": "publicOracleAddress",
      "outputs": [
        {
          "internalType": "address",
          "name": "",
          "type": "address"
        }
      ],
      "stateMutability": "view",
      "type": "function"
    },
    {
      "inputs": [
        {
          "internalType": "bytes32",
          "name": "_id",
          "type": "bytes32"
        },
        {
          "internalType": "address",
          "name": "_address",
          "type": "address"
        },
        {
          "internalType": "bytes",
          "name": "_fulfillmentSignature",
          "type": "bytes"
        },
        {
          "internalType": "uint256",
          "name": "_wei",
          "type": "uint256"
        }
      ],
      "name": "publicRequest",
      "outputs": [],
      "stateMutability": "nonpayable",
      "type": "function"
    },
    {
      "inputs": [
        {
          "internalType": "address",
          "name": "_oracle",
          "type": "address"
        },
        {
          "internalType": "bytes32",
          "name": "_id",
          "type": "bytes32"
        },
        {
          "internalType": "address",
          "name": "_address",
          "type": "address"
        },
        {
          "internalType": "bytes",
          "name": "_fulfillmentSignature",
          "type": "bytes"
        },
        {
          "internalType": "uint256",
          "name": "_wei",
          "type": "uint256"
        }
      ],
      "name": "publicRequestRunTo",
      "outputs": [],
      "stateMutability": "nonpayable",
      "type": "function"
    }
  ],
  "bytecode": "0x6080604052600160045534801561001557600080fd5b506040516110e83803806110e88339818101604052604081101561003857600080fd5b508051602090910151610053826001600160e01b0361006c16565b610065816001600160e01b0361008e16565b50506100b0565b600280546001600160a01b0319166001600160a01b0392909216919091179055565b600380546001600160a01b0319166001600160a01b0392909216919091179055565b611029806100bf6000396000f3fe608060405234801561001057600080fd5b50600436106100be5760003560e01c806398bb2b2d11610076578063ad7e401c1161005b578063ad7e401c1461035e578063d9a2671614610381578063f7ea03ff14610449576100be565b806398bb2b2d14610259578063a1179a271461028a576100be565b80635491ec6a116100a75780635491ec6a146101335780635d64e3101461016c57806366a4f3501461018f576100be565b80633f14df82146100c3578063448d6c10146100e2575b600080fd5b6100e0600480360360208110156100d957600080fd5b5035610451565b005b6100e0600480360360808110156100f857600080fd5b508035906020810135907fffffffff00000000000000000000000000000000000000000000000000000000604082013516906060013561049e565b6100e06004803603604081101561014957600080fd5b5073ffffffffffffffffffffffffffffffffffffffff81351690602001356104b0565b6100e06004803603604081101561018257600080fd5b50803590602001356104be565b6100e0600480360360808110156101a557600080fd5b81359173ffffffffffffffffffffffffffffffffffffffff602082013516918101906060810160408201356401000000008111156101e257600080fd5b8201836020820111156101f457600080fd5b8035906020019184600183028401116401000000008311171561021657600080fd5b91908080601f01602080910402602001604051908101604052809392919081815260200183838082843760009201919091525092955050913592506104c7915050565b6102616104f5565b6040805173ffffffffffffffffffffffffffffffffffffffff9092168252519081900360200190f35b6100e0600480360360a08110156102a057600080fd5b73ffffffffffffffffffffffffffffffffffffffff82358116926020810135926040820135909216918101906080810160608201356401000000008111156102e757600080fd5b8201836020820111156102f957600080fd5b8035906020019184600183028401116401000000008311171561031b57600080fd5b91908080601f0160208091040260200160405190810160405280939291908181526020018383808284376000920191909152509295505091359250610504915050565b6100e06004803603604081101561037457600080fd5b5080359060200135610534565b6100e06004803603606081101561039757600080fd5b81359173ffffffffffffffffffffffffffffffffffffffff602082013516918101906060810160408201356401000000008111156103d457600080fd5b8201836020820111156103e657600080fd5b8035906020019184600183028401116401000000008311171561040857600080fd5b91908080601f01602080910402602001604051908101604052809392919081815260200183838082843760009201919091525092955061053f945050505050565b610261610690565b7f81c82a6ea1ed1cf28a5376c6d13caab9047c853ec5107907ec9431c50ec1a85c61048a670de0b6b3a76400008363ffffffff61069a16565b60408051918252519081900360200190a150565b6104aa84848484610716565b50505050565b6104ba8282610851565b5050565b6104ba82610938565b6104cf610f61565b6104e185858580519060200120610a15565b90506104ed8183610a40565b505050505050565b60006104ff610a67565b905090565b61050c610f61565b61051e85858580519060200120610a15565b905061052b868284610a83565b50505050505050565b6104ba8260006104be565b610547610f61565b61055984848480519060200120610a15565b90507f6ae3654efc50e419eaebe21a0569020545587e83c4409cfb1d3a4217cbed8a21816000015182602001518360400151846080015160000151604051808581526020018473ffffffffffffffffffffffffffffffffffffffff1673ffffffffffffffffffffffffffffffffffffffff168152602001837bffffffffffffffffffffffffffffffffffffffffffffffffffffffff19167bffffffffffffffffffffffffffffffffffffffffffffffffffffffff1916815260200180602001828103825283818151815260200191508051906020019080838360005b8381101561064d578181015183820152602001610635565b50505050905090810190601f16801561067a5780820380516001836020036101000a031916815260200191505b509550505050505060405180910390a150505050565b60006104ff610cc0565b6000826106a957506000610710565b828202828482816106b657fe5b041461070d576040517f08c379a0000000000000000000000000000000000000000000000000000000008152600401808060200182810382526021815260200180610fd46021913960400191505060405180910390fd5b90505b92915050565b60008481526005602052604080822080547fffffffffffffffffffffffff00000000000000000000000000000000000000008116909155905173ffffffffffffffffffffffffffffffffffffffff9091169186917fe1fe3afa0f7f761ff0a8b89086790efd5140d2907ebd5b7ff6bfcb5e075fd4c59190a2604080517f6ee4d55300000000000000000000000000000000000000000000000000000000815260048101879052602481018690527fffffffff000000000000000000000000000000000000000000000000000000008516604482015260648101849052905173ffffffffffffffffffffffffffffffffffffffff831691636ee4d55391608480830192600092919082900301818387803b15801561083257600080fd5b505af1158015610846573d6000803e3d6000fd5b505050505050505050565b600081815260056020526040902054819073ffffffffffffffffffffffffffffffffffffffff16156108e457604080517f08c379a000000000000000000000000000000000000000000000000000000000815260206004820152601a60248201527f5265717565737420697320616c72656164792070656e64696e67000000000000604482015290519081900360640190fd5b50600090815260056020526040902080547fffffffffffffffffffffffff00000000000000000000000000000000000000001673ffffffffffffffffffffffffffffffffffffffff92909216919091179055565b600081815260056020526040902054819073ffffffffffffffffffffffffffffffffffffffff1633146109b6576040517f08c379a0000000000000000000000000000000000000000000000000000000008152600401808060200182810382526028815260200180610ff56028913960400191505060405180910390fd5b60008181526005602052604080822080547fffffffffffffffffffffffff00000000000000000000000000000000000000001690555182917f7cc135e0cebb02c3480ae5d74d377283180a2601f8f644edf7987b009316c63a91a25050565b610a1d610f61565b610a25610f61565b610a378186868663ffffffff610cdc16565b95945050505050565b60035460009061070d9073ffffffffffffffffffffffffffffffffffffffff168484610a83565b60025473ffffffffffffffffffffffffffffffffffffffff1690565b6004546040805130606090811b60208084019190915260348084018690528451808503909101815260549093018452825192810192909220908601939093526000838152600590915281812080547fffffffffffffffffffffffff00000000000000000000000000000000000000001673ffffffffffffffffffffffffffffffffffffffff8816179055905182917fb5e6e01e79f91267dc17b4e6314d5d4d03593d2ceee0fbb452b750bd70ea5af991a260025473ffffffffffffffffffffffffffffffffffffffff16634000aea08584610b5d87610d3e565b6040518463ffffffff1660e01b8152600401808473ffffffffffffffffffffffffffffffffffffffff1673ffffffffffffffffffffffffffffffffffffffff16815260200183815260200180602001828103825283818151815260200191508051906020019080838360005b83811015610be1578181015183820152602001610bc9565b50505050905090810190601f168015610c0e5780820380516001836020036101000a031916815260200191505b50945050505050602060405180830381600087803b158015610c2f57600080fd5b505af1158015610c43573d6000803e3d6000fd5b505050506040513d6020811015610c5957600080fd5b5051610cb0576040517f08c379a0000000000000000000000000000000000000000000000000000000008152600401808060200182810382526023815260200180610fb16023913960400191505060405180910390fd5b6004805460010190559392505050565b60035473ffffffffffffffffffffffffffffffffffffffff1690565b610ce4610f61565b610cf48560800151610100610f27565b505091835273ffffffffffffffffffffffffffffffffffffffff1660208301527fffffffff0000000000000000000000000000000000000000000000000000000016604082015290565b6060634042994660e01b60008084600001518560200151866040015187606001516001896080015160000151604051602401808973ffffffffffffffffffffffffffffffffffffffff1673ffffffffffffffffffffffffffffffffffffffff1681526020018881526020018781526020018673ffffffffffffffffffffffffffffffffffffffff1673ffffffffffffffffffffffffffffffffffffffff168152602001857bffffffffffffffffffffffffffffffffffffffffffffffffffffffff19167bffffffffffffffffffffffffffffffffffffffffffffffffffffffff1916815260200184815260200183815260200180602001828103825283818151815260200191508051906020019080838360005b83811015610e6a578181015183820152602001610e52565b50505050905090810190601f168015610e975780820380516001836020036101000a031916815260200191505b50604080517fffffffffffffffffffffffffffffffffffffffffffffffffffffffffffffffe08184030181529190526020810180517bffffffffffffffffffffffffffffffffffffffffffffffffffffffff167fffffffff00000000000000000000000000000000000000000000000000000000909d169c909c17909b5250989950505050505050505050919050565b610f2f610f96565b6020820615610f445760208206602003820191505b506020828101829052604080518085526000815290920101905290565b6040805160a081018252600080825260208201819052918101829052606081019190915260808101610f91610f96565b905290565b60405180604001604052806060815260200160008152509056fe756e61626c6520746f207472616e73666572416e6443616c6c20746f206f7261636c65536166654d6174683a206d756c7469706c69636174696f6e206f766572666c6f77536f75726365206d75737420626520746865206f7261636c65206f66207468652072657175657374a164736f6c6343000606000a",
  "linkReferences": {},
  "deployedLinkReferences": {}
}