{
  "_format": "hh-sol-artifact-1",
  "contractName": "AuthorizedForwarder",
  "sourceName": "src/v0.7/AuthorizedForwarder.sol",
  "abi": [
    {
      "inputs": [
        {
          "internalType": "address",
          "name": "link",
          "type": "address"
        },
        {
          "internalType": "address",
          "name": "owner",
          "type": "address"
        },
        {
          "internalType": "address",
          "name": "recipient",
          "type": "address"
        },
        {
          "internalType": "bytes",
          "name": "message",
          "type": "bytes"
        }
      ],
      "stateMutability": "nonpayable",
      "type": "constructor"
    },
    {
      "anonymous": false,
      "inputs": [
        {
          "indexed": false,
          "internalType": "address[]",
          "name": "senders",
          "type": "address[]"
        },
        {
          "indexed": false,
          "internalType": "address",
          "name": "changedBy",
          "type": "address"
        }
      ],
      "name": "AuthorizedSendersChanged",
      "type": "event"
    },
    {
      "anonymous": false,
      "inputs": [
        {
          "indexed": true,
          "internalType": "address",
          "name": "from",
          "type": "address"
        },
        {
          "indexed": true,
          "internalType": "address",
          "name": "to",
          "type": "address"
        }
      ],
      "name": "OwnershipTransferRequested",
      "type": "event"
    },
    {
      "anonymous": false,
      "inputs": [
        {
          "indexed": true,
          "internalType": "address",
          "name": "from",
          "type": "address"
        },
        {
          "indexed": true,
          "internalType": "address",
          "name": "to",
          "type": "address"
        },
        {
          "indexed": false,
          "internalType": "bytes",
          "name": "message",
          "type": "bytes"
        }
      ],
      "name": "OwnershipTransferRequestedWithMessage",
      "type": "event"
    },
    {
      "anonymous": false,
      "inputs": [
        {
          "indexed": true,
          "internalType": "address",
          "name": "from",
          "type": "address"
        },
        {
          "indexed": true,
          "internalType": "address",
          "name": "to",
          "type": "address"
        }
      ],
      "name": "OwnershipTransferred",
      "type": "event"
    },
    {
      "inputs": [],
      "name": "acceptOwnership",
      "outputs": [],
      "stateMutability": "nonpayable",
      "type": "function"
    },
    {
      "inputs": [
        {
          "internalType": "address",
          "name": "to",
          "type": "address"
        },
        {
          "internalType": "bytes",
          "name": "data",
          "type": "bytes"
        }
      ],
      "name": "forward",
      "outputs": [],
      "stateMutability": "nonpayable",
      "type": "function"
    },
    {
      "inputs": [],
      "name": "getAuthorizedSenders",
      "outputs": [
        {
          "internalType": "address[]",
          "name": "",
          "type": "address[]"
        }
      ],
      "stateMutability": "view",
      "type": "function"
    },
    {
      "inputs": [],
      "name": "getChainlinkToken",
      "outputs": [
        {
          "internalType": "address",
          "name": "",
          "type": "address"
        }
      ],
      "stateMutability": "view",
      "type": "function"
    },
    {
      "inputs": [
        {
          "internalType": "address",
          "name": "sender",
          "type": "address"
        }
      ],
      "name": "isAuthorizedSender",
      "outputs": [
        {
          "internalType": "bool",
          "name": "",
          "type": "bool"
        }
      ],
      "stateMutability": "view",
      "type": "function"
    },
    {
      "inputs": [],
      "name": "owner",
      "outputs": [
        {
          "internalType": "address",
          "name": "",
          "type": "address"
        }
      ],
      "stateMutability": "view",
      "type": "function"
    },
    {
      "inputs": [
        {
          "internalType": "address",
          "name": "to",
          "type": "address"
        },
        {
          "internalType": "bytes",
          "name": "data",
          "type": "bytes"
        }
      ],
      "name": "ownerForward",
      "outputs": [],
      "stateMutability": "nonpayable",
      "type": "function"
    },
    {
      "inputs": [
        {
          "internalType": "address[]",
          "name": "senders",
          "type": "address[]"
        }
      ],
      "name": "setAuthorizedSenders",
      "outputs": [],
      "stateMutability": "nonpayable",
      "type": "function"
    },
    {
      "inputs": [
        {
          "internalType": "address",
          "name": "to",
          "type": "address"
        }
      ],
      "name": "transferOwnership",
      "outputs": [],
      "stateMutability": "nonpayable",
      "type": "function"
    },
    {
      "inputs": [
        {
          "internalType": "address",
          "name": "to",
          "type": "address"
        },
        {
          "internalType": "bytes",
          "name": "message",
          "type": "bytes"
        }
      ],
      "name": "transferOwnershipWithMessage",
      "outputs": [],
      "stateMutability": "nonpayable",
      "type": "function"
    }
  ],
  "bytecode": "0x60a06040523480156200001157600080fd5b50604051620011f2380380620011f2833981810160405260808110156200003757600080fd5b8151602083015160408085015160608601805192519496939591949391820192846401000000008211156200006b57600080fd5b9083019060208201858111156200008157600080fd5b82516401000000008111828201881017156200009c57600080fd5b82525081516020918201929091019080838360005b83811015620000cb578181015183820152602001620000b1565b50505050905090810190601f168015620000f95780820380516001836020036101000a031916815260200191505b50604052508491508390506001600160a01b03821662000160576040805162461bcd60e51b815260206004820152601860248201527f43616e6e6f7420736574206f776e657220746f207a65726f0000000000000000604482015290519081900360640190fd5b600080546001600160a01b0319166001600160a01b03848116919091179091558116156200019357620001938162000272565b50506001600160601b0319606085901b166080526001600160a01b038216156200026857816001600160a01b0316836001600160a01b03167f4e1e878dc28d5f040db5969163ff1acd75c44c3f655da2dde9c70bbd8e56dc7e836040518080602001828103825283818151815260200191508051906020019080838360005b838110156200022c57818101518382015260200162000212565b50505050905090810190601f1680156200025a5780820380516001836020036101000a031916815260200191505b509250505060405180910390a35b5050505062000322565b6001600160a01b038116331415620002d1576040805162461bcd60e51b815260206004820152601760248201527f43616e6e6f74207472616e7366657220746f2073656c66000000000000000000604482015290519081900360640190fd5b600180546001600160a01b0319166001600160a01b0383811691821790925560008054604051929316917fed8889f560326eb138920d842192f0eb3dd22b4f139c87a2c57538e05bae12789190a350565b60805160601c610ead620003456000398061043f52806105ae5250610ead6000f3fe608060405234801561001057600080fd5b50600436106100be5760003560e01c806379ba509711610076578063ee56997b1161005b578063ee56997b1461033b578063f2fde38b146103ab578063fa00763a146103de576100be565b806379ba50971461032b5780638da5cb5b14610333576100be565b80632408afaa116100a75780632408afaa146101835780634d3e2323146101db5780636fadcf721461029e576100be565b8063033f49f7146100c3578063165d35e114610152575b600080fd5b610150600480360360408110156100d957600080fd5b73ffffffffffffffffffffffffffffffffffffffff823516919081019060408101602082013564010000000081111561011157600080fd5b82018360208201111561012357600080fd5b8035906020019184600183028401116401000000008311171561014557600080fd5b509092509050610425565b005b61015a61043d565b6040805173ffffffffffffffffffffffffffffffffffffffff9092168252519081900360200190f35b61018b610461565b60408051602080825283518183015283519192839290830191858101910280838360005b838110156101c75781810151838201526020016101af565b505050509050019250505060405180910390f35b610150600480360360408110156101f157600080fd5b73ffffffffffffffffffffffffffffffffffffffff823516919081019060408101602082013564010000000081111561022957600080fd5b82018360208201111561023b57600080fd5b8035906020019184600183028401116401000000008311171561025d57600080fd5b91908080601f0160208091040260200160405190810160405280939291908181526020018383808284376000920191909152509295506104d0945050505050565b610150600480360360408110156102b457600080fd5b73ffffffffffffffffffffffffffffffffffffffff82351691908101906040810160208201356401000000008111156102ec57600080fd5b8201836020820111156102fe57600080fd5b8035906020019184600183028401116401000000008311171561032057600080fd5b5090925090506105a4565b610150610667565b61015a610769565b6101506004803603602081101561035157600080fd5b81019060208101813564010000000081111561036c57600080fd5b82018360208201111561037e57600080fd5b803590602001918460208302840111640100000000831117156103a057600080fd5b509092509050610785565b610150600480360360208110156103c157600080fd5b503573ffffffffffffffffffffffffffffffffffffffff16610a0a565b610411600480360360208110156103f457600080fd5b503573ffffffffffffffffffffffffffffffffffffffff16610a1e565b604080519115158252519081900360200190f35b61042d610a49565b610438838383610ad1565b505050565b7f000000000000000000000000000000000000000000000000000000000000000081565b606060038054806020026020016040519081016040528092919081815260200182805480156104c657602002820191906000526020600020905b815473ffffffffffffffffffffffffffffffffffffffff16815260019091019060200180831161049b575b5050505050905090565b6104d982610a0a565b8173ffffffffffffffffffffffffffffffffffffffff163373ffffffffffffffffffffffffffffffffffffffff167f4e1e878dc28d5f040db5969163ff1acd75c44c3f655da2dde9c70bbd8e56dc7e836040518080602001828103825283818151815260200191508051906020019080838360005b8381101561056657818101518382015260200161054e565b50505050905090810190601f1680156105935780820380516001836020036101000a031916815260200191505b509250505060405180910390a35050565b6105ac610c41565b7f000000000000000000000000000000000000000000000000000000000000000073ffffffffffffffffffffffffffffffffffffffff168373ffffffffffffffffffffffffffffffffffffffff16141561042d57604080517f08c379a000000000000000000000000000000000000000000000000000000000815260206004820152601d60248201527f43616e6e6f742023666f727761726420746f204c696e6b20746f6b656e000000604482015290519081900360640190fd5b60015473ffffffffffffffffffffffffffffffffffffffff1633146106ed57604080517f08c379a000000000000000000000000000000000000000000000000000000000815260206004820152601660248201527f4d7573742062652070726f706f736564206f776e657200000000000000000000604482015290519081900360640190fd5b60008054337fffffffffffffffffffffffff00000000000000000000000000000000000000008083168217845560018054909116905560405173ffffffffffffffffffffffffffffffffffffffff90921692909183917f8be0079c531659141344cd1fd0a4f28419497f9722a3daafe3b4186f6b6457e091a350565b60005473ffffffffffffffffffffffffffffffffffffffff1690565b61078d610cb5565b6107f857604080517f08c379a000000000000000000000000000000000000000000000000000000000815260206004820152601d60248201527f43616e6e6f742073657420617574686f72697a65642073656e64657273000000604482015290519081900360640190fd5b8061084e576040517f08c379a0000000000000000000000000000000000000000000000000000000008152600401808060200182810382526026815260200180610e7b6026913960400191505060405180910390fd5b60035460005b818110156108d6576000600260006003848154811061086f57fe5b60009182526020808320919091015473ffffffffffffffffffffffffffffffffffffffff168352820192909252604001902080547fffffffffffffffffffffffffffffffffffffffffffffffffffffffffffffff0016911515919091179055600101610854565b5060005b82811015610958576001600260008686858181106108f457fe5b6020908102929092013573ffffffffffffffffffffffffffffffffffffffff1683525081019190915260400160002080547fffffffffffffffffffffffffffffffffffffffffffffffffffffffffffffff00169115159190911790556001016108da565b5061096560038484610ddd565b507ff263cfb3e4298332e776194610cf9fdc09ccb3ada8b9aa39764d882e11fbf0a083833360405180806020018373ffffffffffffffffffffffffffffffffffffffff1681526020018281038252858582818152602001925060200280828437600083820152604051601f9091017fffffffffffffffffffffffffffffffffffffffffffffffffffffffffffffffe016909201829003965090945050505050a1505050565b610a12610a49565b610a1b81610cdc565b50565b73ffffffffffffffffffffffffffffffffffffffff1660009081526002602052604090205460ff1690565b60005473ffffffffffffffffffffffffffffffffffffffff163314610acf57604080517f08c379a000000000000000000000000000000000000000000000000000000000815260206004820152601660248201527f4f6e6c792063616c6c61626c65206279206f776e657200000000000000000000604482015290519081900360640190fd5b565b610af08373ffffffffffffffffffffffffffffffffffffffff16610dd7565b610b5b57604080517f08c379a000000000000000000000000000000000000000000000000000000000815260206004820152601a60248201527f4d75737420666f727761726420746f206120636f6e7472616374000000000000604482015290519081900360640190fd5b60008373ffffffffffffffffffffffffffffffffffffffff168383604051808383808284376040519201945060009350909150508083038183865af19150503d8060008114610bc6576040519150601f19603f3d011682016040523d82523d6000602084013e610bcb565b606091505b5050905080610c3b57604080517f08c379a000000000000000000000000000000000000000000000000000000000815260206004820152601560248201527f466f727761726465642063616c6c206661696c65640000000000000000000000604482015290519081900360640190fd5b50505050565b610c4a33610a1e565b610acf57604080517f08c379a000000000000000000000000000000000000000000000000000000000815260206004820152601560248201527f4e6f7420617574686f72697a65642073656e6465720000000000000000000000604482015290519081900360640190fd5b600033610cc0610769565b73ffffffffffffffffffffffffffffffffffffffff1614905090565b73ffffffffffffffffffffffffffffffffffffffff8116331415610d6157604080517f08c379a000000000000000000000000000000000000000000000000000000000815260206004820152601760248201527f43616e6e6f74207472616e7366657220746f2073656c66000000000000000000604482015290519081900360640190fd5b600180547fffffffffffffffffffffffff00000000000000000000000000000000000000001673ffffffffffffffffffffffffffffffffffffffff83811691821790925560008054604051929316917fed8889f560326eb138920d842192f0eb3dd22b4f139c87a2c57538e05bae12789190a350565b3b151590565b828054828255906000526020600020908101928215610e55579160200282015b82811115610e555781547fffffffffffffffffffffffff00000000000000000000000000000000000000001673ffffffffffffffffffffffffffffffffffffffff843516178255602090920191600190910190610dfd565b50610e61929150610e65565b5090565b5b80821115610e615760008155600101610e6656fe4d7573742068617665206174206c65617374203120617574686f72697a65642073656e646572a164736f6c6343000706000a",
  "linkReferences": {},
  "deployedLinkReferences": {}
}