{
  "contractName": "LinkToken",
  "abi": [
    {
      "constant": true,
      "inputs": [],
      "name": "name",
      "outputs": [
        {
          "name": "",
          "type": "string"
        }
      ],
      "payable": false,
      "stateMutability": "view",
      "type": "function"
    },
    {
      "constant": true,
      "inputs": [],
      "name": "totalSupply",
      "outputs": [
        {
          "name": "",
          "type": "uint256"
        }
      ],
      "payable": false,
      "stateMutability": "view",
      "type": "function"
    },
    {
      "constant": true,
      "inputs": [],
      "name": "decimals",
      "outputs": [
        {
          "name": "",
          "type": "uint8"
        }
      ],
      "payable": false,
      "stateMutability": "view",
      "type": "function"
    },
    {
      "constant": false,
      "inputs": [
        {
          "name": "_spender",
          "type": "address"
        },
        {
          "name": "_subtractedValue",
          "type": "uint256"
        }
      ],
      "name": "decreaseApproval",
      "outputs": [
        {
          "name": "success",
          "type": "bool"
        }
      ],
      "payable": false,
      "stateMutability": "nonpayable",
      "type": "function"
    },
    {
      "constant": true,
      "inputs": [
        {
          "name": "_owner",
          "type": "address"
        }
      ],
      "name": "balanceOf",
      "outputs": [
        {
          "name": "balance",
          "type": "uint256"
        }
      ],
      "payable": false,
      "stateMutability": "view",
      "type": "function"
    },
    {
      "constant": true,
      "inputs": [],
      "name": "symbol",
      "outputs": [
        {
          "name": "",
          "type": "string"
        }
      ],
      "payable": false,
      "stateMutability": "view",
      "type": "function"
    },
    {
      "constant": false,
      "inputs": [
        {
          "name": "_spender",
          "type": "address"
        },
        {
          "name": "_addedValue",
          "type": "uint256"
        }
      ],
      "name": "increaseApproval",
      "outputs": [
        {
          "name": "success",
          "type": "bool"
        }
      ],
      "payable": false,
      "stateMutability": "nonpayable",
      "type": "function"
    },
    {
      "constant": false,
      "inputs": [
        {
          "name": "_owner",
          "type": "address"
        },
        {
          "name": "_spender",
          "type": "address"
        }
      ],
      "name": "allowance",
      "outputs": [
        {
          "name": "remaining",
          "type": "uint256"
        }
      ],
      "payable": false,
      "stateMutability": "nonpayable",
      "type": "function"
    },
    {
      "inputs": [],
      "payable": false,
      "stateMutability": "nonpayable",
      "type": "constructor"
    },
    {
      "anonymous": false,
      "inputs": [
        {
          "indexed": true,
          "name": "owner",
          "type": "address"
        },
        {
          "indexed": true,
          "name": "spender",
          "type": "address"
        },
        {
          "indexed": false,
          "name": "value",
          "type": "uint256"
        }
      ],
      "name": "Approval",
      "type": "event"
    },
    {
      "anonymous": false,
      "inputs": [
        {
          "indexed": true,
          "name": "from",
          "type": "address"
        },
        {
          "indexed": true,
          "name": "to",
          "type": "address"
        },
        {
          "indexed": false,
          "name": "value",
          "type": "uint256"
        }
      ],
      "name": "Transfer",
      "type": "event"
    },
    {
      "constant": false,
      "inputs": [
        {
          "name": "_to",
          "type": "address"
        },
        {
          "name": "_value",
          "type": "uint256"
        },
        {
          "name": "_data",
          "type": "bytes"
        }
      ],
      "name": "transferAndCall",
      "outputs": [
        {
          "name": "success",
          "type": "bool"
        }
      ],
      "payable": false,
      "stateMutability": "nonpayable",
      "type": "function"
    },
    {
      "constant": false,
      "inputs": [
        {
          "name": "_to",
          "type": "address"
        },
        {
          "name": "_value",
          "type": "uint256"
        }
      ],
      "name": "transfer",
      "outputs": [
        {
          "name": "success",
          "type": "bool"
        }
      ],
      "payable": false,
      "stateMutability": "nonpayable",
      "type": "function"
    },
    {
      "constant": false,
      "inputs": [
        {
          "name": "_spender",
          "type": "address"
        },
        {
          "name": "_value",
          "type": "uint256"
        }
      ],
      "name": "approve",
      "outputs": [
        {
          "name": "",
          "type": "bool"
        }
      ],
      "payable": false,
      "stateMutability": "nonpayable",
      "type": "function"
    },
    {
      "constant": false,
      "inputs": [
        {
          "name": "_from",
          "type": "address"
        },
        {
          "name": "_to",
          "type": "address"
        },
        {
          "name": "_value",
          "type": "uint256"
        }
      ],
      "name": "transferFrom",
      "outputs": [
        {
          "name": "",
          "type": "bool"
        }
      ],
      "payable": false,
      "stateMutability": "nonpayable",
      "type": "function"
    }
  ],
  "bytecode": "0x608060405234801561001057600080fd5b503360009081526001602052604090206b033b2e3c9fd0803ce80000009055610a188061003e6000396000f3006080604052600436106100b95763ffffffff7c010000000000000000000000000000000000000000000000000000000060003504166306fdde0381146100be578063095ea7b31461014857806318160ddd1461018057806323b872dd146101a7578063313ce567146101d15780634000aea0146101fc578063661884631461026557806370a082311461028957806395d89b41146102aa578063a9059cbb146102bf578063d73dd623146102e3578063dd62ed3e14610307575b600080fd5b3480156100ca57600080fd5b506100d361032e565b6040805160208082528351818301528351919283929083019185019080838360005b8381101561010d5781810151838201526020016100f5565b50505050905090810190601f16801561013a5780820380516001836020036101000a031916815260200191505b509250505060405180910390f35b34801561015457600080fd5b5061016c600160a060020a0360043516602435610365565b604080519115158252519081900360200190f35b34801561018c57600080fd5b506101956103a6565b60408051918252519081900360200190f35b3480156101b357600080fd5b5061016c600160a060020a03600435811690602435166044356103b6565b3480156101dd57600080fd5b506101e66103f9565b6040805160ff9092168252519081900360200190f35b34801561020857600080fd5b50604080516020600460443581810135601f810184900484028501840190955284845261016c948235600160a060020a03169460248035953695946064949201919081908401838280828437509497506103fe9650505050505050565b34801561027157600080fd5b5061016c600160a060020a0360043516602435610438565b34801561029557600080fd5b50610195600160a060020a0360043516610528565b3480156102b657600080fd5b506100d3610543565b3480156102cb57600080fd5b5061016c600160a060020a036004351660243561057a565b3480156102ef57600080fd5b5061016c600160a060020a03600435166024356105b3565b34801561031357600080fd5b50610195600160a060020a036004358116906024351661064c565b60408051808201909152600f81527f436861696e4c696e6b20546f6b656e0000000000000000000000000000000000602082015281565b600082600160a060020a038116158015906103895750600160a060020a0381163014155b151561039457600080fd5b61039e8484610677565b949350505050565b6b033b2e3c9fd0803ce800000081565b600082600160a060020a038116158015906103da5750600160a060020a0381163014155b15156103e557600080fd5b6103f08585856106dd565b95945050505050565b601281565b600083600160a060020a038116158015906104225750600160a060020a0381163014155b151561042d57600080fd5b6103f08585856107e9565b336000908152600260209081526040808320600160a060020a03861684529091528120548083111561048d57336000908152600260209081526040808320600160a060020a03881684529091528120556104c2565b61049d818463ffffffff61081916565b336000908152600260209081526040808320600160a060020a03891684529091529020555b336000818152600260209081526040808320600160a060020a0389168085529083529281902054815190815290519293927f8c5be1e5ebec7d5bd14f71427d1e84f3dd0314c0f7b2291e5b200ac8c7c3b925929181900390910190a35060019392505050565b600160a060020a031660009081526001602052604090205490565b60408051808201909152600481527f4c494e4b00000000000000000000000000000000000000000000000000000000602082015281565b600082600160a060020a0381161580159061059e5750600160a060020a0381163014155b15156105a957600080fd5b61039e848461082b565b336000908152600260209081526040808320600160a060020a03861684529091528120546105e7908363ffffffff6108db16565b336000818152600260209081526040808320600160a060020a0389168085529083529281902085905580519485525191937f8c5be1e5ebec7d5bd14f71427d1e84f3dd0314c0f7b2291e5b200ac8c7c3b925929081900390910190a350600192915050565b600160a060020a03918216600090815260026020908152604080832093909416825291909152205490565b336000818152600260209081526040808320600160a060020a038716808552908352818420869055815186815291519394909390927f8c5be1e5ebec7d5bd14f71427d1e84f3dd0314c0f7b2291e5b200ac8c7c3b925928290030190a350600192915050565b600160a060020a0383166000818152600260209081526040808320338452825280832054938352600190915281205490919061071f908463ffffffff61081916565b600160a060020a038087166000908152600160205260408082209390935590861681522054610754908463ffffffff6108db16565b600160a060020a03851660009081526001602052604090205561077d818463ffffffff61081916565b600160a060020a03808716600081815260026020908152604080832033845282529182902094909455805187815290519288169391927fddf252ad1be2c89b69c2b068fc378daa952ba7f163c4a11628f55a4df523b3ef929181900390910190a3506001949350505050565b60006107f5848461082b565b506107ff846108f1565b1561080f5761080f8484846108f9565b5060019392505050565b60008282111561082557fe5b50900390565b3360009081526001602052604081205461084b908363ffffffff61081916565b3360009081526001602052604080822092909255600160a060020a0385168152205461087d908363ffffffff6108db16565b600160a060020a0384166000818152600160209081526040918290209390935580518581529051919233927fddf252ad1be2c89b69c2b068fc378daa952ba7f163c4a11628f55a4df523b3ef9281900390910190a350600192915050565b6000828201838110156108ea57fe5b9392505050565b6000903b1190565b6040517fa4c0ed360000000000000000000000000000000000000000000000000000000081523360048201818152602483018590526060604484019081528451606485015284518794600160a060020a0386169463a4c0ed369490938993899360840190602085019080838360005b83811015610980578181015183820152602001610968565b50505050905090810190601f1680156109ad5780820380516001836020036101000a031916815260200191505b50945050505050600060405180830381600087803b1580156109ce57600080fd5b505af11580156109e2573d6000803e3d6000fd5b50505050505050505600a165627a7a72305820467ee6a9248c31730fe2df16bfdba2d62275c70ae5f7724b31bab7e6d6862a970029",
  "source": "pragma solidity ^0.4.23;\r\n\r\n/**\r\n    Copy of the LINK token to mock out transfers\r\n */\r\n\r\n/**\r\n * @title SafeMath\r\n * @dev Math operations with safety checks that throw on error\r\n */\r\nlibrary SafeMath {\r\n    function mul(uint256 a, uint256 b) internal pure returns (uint256) {\r\n        uint256 c = a * b;\r\n        assert(a == 0 || c / a == b);\r\n        return c;\r\n    }\r\n\r\n    function div(uint256 a, uint256 b) internal pure returns (uint256) {\r\n        // assert(b > 0); // Solidity automatically throws when dividing by 0\r\n        uint256 c = a / b;\r\n        // assert(a == b * c + a % b); // There is no case in which this doesn't hold\r\n        return c;\r\n    }\r\n\r\n    function sub(uint256 a, uint256 b) internal pure returns (uint256) {\r\n        assert(b <= a);\r\n        return a - b;\r\n    }\r\n\r\n    function add(uint256 a, uint256 b) internal pure returns (uint256) {\r\n        uint256 c = a + b;\r\n        assert(c >= a);\r\n        return c;\r\n    }\r\n}\r\n\r\n\r\n/**\r\n * @title ERC20Basic\r\n * @dev Simpler version of ERC20 interface\r\n * @dev see https://github.com/ethereum/EIPs/issues/179\r\n */\r\ncontract ERC20Basic {\r\n    uint256 public totalSupply;\r\n    function balanceOf(address who) public view returns (uint256);\r\n    function transfer(address to, uint256 value) public returns (bool);\r\n    event Transfer(address indexed from, address indexed to, uint256 value);\r\n}\r\n/**\r\n * @title ERC20 interface\r\n * @dev see https://github.com/ethereum/EIPs/issues/20\r\n */\r\ncontract ERC20 is ERC20Basic {\r\n    function allowance(address owner, address spender) public returns (uint256);\r\n    function transferFrom(address from, address to, uint256 value) public returns (bool);\r\n    function approve(address spender, uint256 value) public returns (bool);\r\n    event Approval(address indexed owner, address indexed spender, uint256 value);\r\n}\r\n\r\ncontract ERC677 is ERC20 {\r\n    function transferAndCall(address to, uint value, bytes data) public returns (bool success);\r\n\r\n    //event Transfer(address indexed from, address indexed to, uint value, bytes data); Removed due to double Transfer event, messes with the ABI\r\n}\r\n\r\ncontract ERC677Receiver {\r\n    function onTokenTransfer(address _sender, uint _value, bytes _data) public;\r\n}\r\n\r\n/**\r\n * @title Basic token\r\n * @dev Basic version of StandardToken, with no allowances. \r\n */\r\ncontract BasicToken is ERC20Basic {\r\n    using SafeMath for uint256;\r\n\r\n    mapping(address => uint256) balances;\r\n\r\n    /**\r\n    * @dev transfer token for a specified address\r\n    * @param _to The address to transfer to.\r\n    * @param _value The amount to be transferred.\r\n    */\r\n    function transfer(address _to, uint256 _value) public returns (bool) {\r\n        balances[msg.sender] = balances[msg.sender].sub(_value);\r\n        balances[_to] = balances[_to].add(_value);\r\n        emit Transfer(msg.sender, _to, _value);\r\n        return true;\r\n    }\r\n\r\n    /**\r\n    * @dev Gets the balance of the specified address.\r\n    * @param _owner The address to query the the balance of. \r\n    * @return An uint256 representing the amount owned by the passed address.\r\n    */\r\n    function balanceOf(address _owner) public view returns (uint256 balance) {\r\n        return balances[_owner];\r\n    }\r\n\r\n}\r\n\r\n\r\n/**\r\n * @title Standard ERC20 token\r\n *\r\n * @dev Implementation of the basic standard token.\r\n * @dev https://github.com/ethereum/EIPs/issues/20\r\n * @dev Based on code by FirstBlood: https://github.com/Firstbloodio/token/blob/master/smart_contract/FirstBloodToken.sol\r\n */\r\ncontract StandardToken is ERC20, BasicToken {\r\n\r\n    mapping (address => mapping (address => uint256)) allowed;\r\n\r\n\r\n    /**\r\n    * @dev Transfer tokens from one address to another\r\n    * @param _from address The address which you want to send tokens from\r\n    * @param _to address The address which you want to transfer to\r\n    * @param _value uint256 the amount of tokens to be transferred\r\n    */\r\n    function transferFrom(address _from, address _to, uint256 _value) public returns (bool) {\r\n        uint256 _allowance = allowed[_from][msg.sender];\r\n\r\n        // Check is not needed because sub(_allowance, _value) will already throw if this condition is not met\r\n        // require (_value <= _allowance);\r\n\r\n        balances[_from] = balances[_from].sub(_value);\r\n        balances[_to] = balances[_to].add(_value);\r\n        allowed[_from][msg.sender] = _allowance.sub(_value);\r\n        emit Transfer(_from, _to, _value);\r\n        return true;\r\n    }\r\n\r\n    /**\r\n    * @dev Approve the passed address to spend the specified amount of tokens on behalf of msg.sender.\r\n    * @param _spender The address which will spend the funds.\r\n    * @param _value The amount of tokens to be spent.\r\n    */\r\n    function approve(address _spender, uint256 _value) public returns (bool) {\r\n        allowed[msg.sender][_spender] = _value;\r\n        emit Approval(msg.sender, _spender, _value);\r\n        return true;\r\n    }\r\n\r\n    /**\r\n    * @dev Function to check the amount of tokens that an owner allowed to a spender.\r\n    * @param _owner address The address which owns the funds.\r\n    * @param _spender address The address which will spend the funds.\r\n    * @return A uint256 specifying the amount of tokens still available for the spender.\r\n    */\r\n    function allowance(address _owner, address _spender) public returns (uint256 remaining) {\r\n        return allowed[_owner][_spender];\r\n    }\r\n    \r\n      /*\r\n    * approve should be called when allowed[_spender] == 0. To increment\r\n    * allowed value is better to use this function to avoid 2 calls (and wait until \r\n    * the first transaction is mined)\r\n    * From MonolithDAO Token.sol\r\n    */\r\n    function increaseApproval (address _spender, uint _addedValue) public returns (bool success) {\r\n        allowed[msg.sender][_spender] = allowed[msg.sender][_spender].add(_addedValue);\r\n        emit Approval(msg.sender, _spender, allowed[msg.sender][_spender]);\r\n        return true;\r\n    }\r\n\r\n    function decreaseApproval (address _spender, uint _subtractedValue) public returns (bool success) {\r\n        uint oldValue = allowed[msg.sender][_spender];\r\n        if (_subtractedValue > oldValue) {\r\n            allowed[msg.sender][_spender] = 0;\r\n        } else {\r\n            allowed[msg.sender][_spender] = oldValue.sub(_subtractedValue);\r\n        }\r\n        emit Approval(msg.sender, _spender, allowed[msg.sender][_spender]);\r\n        return true;\r\n    }\r\n\r\n}\r\n\r\ncontract ERC677Token is ERC677 {\r\n\r\n    /**\r\n    * @dev transfer token to a contract address with additional data if the recipient is a contact.\r\n    * @param _to The address to transfer to.\r\n    * @param _value The amount to be transferred.\r\n    * @param _data The extra data to be passed to the receiving contract.\r\n    */\r\n    function transferAndCall(address _to, uint _value, bytes _data)\r\n      public\r\n      returns (bool success)\r\n    {\r\n        super.transfer(_to, _value);\r\n        //emit Transfer(msg.sender, _to, _value, _data);\r\n        if (isContract(_to)) {\r\n            contractFallback(_to, _value, _data);\r\n        }\r\n        return true;\r\n    }\r\n\r\n\r\n    // PRIVATE\r\n\r\n    function contractFallback(address _to, uint _value, bytes _data) private {\r\n        ERC677Receiver receiver = ERC677Receiver(_to);\r\n        receiver.onTokenTransfer(msg.sender, _value, _data);\r\n    }\r\n\r\n    function isContract(address _addr)\r\n      private\r\n      view\r\n      returns (bool hasCode)\r\n    {\r\n        uint length;\r\n        assembly { length := extcodesize(_addr) }\r\n        return length > 0;\r\n    }\r\n}\r\n\r\ncontract LinkToken is StandardToken, ERC677Token {\r\n\r\n    uint public constant totalSupply = 10**27;\r\n    string public constant name = \"ChainLink Token\";\r\n    uint8 public constant decimals = 18;\r\n    string public constant symbol = \"LINK\";\r\n\r\n    constructor() public {\r\n        balances[msg.sender] = totalSupply;\r\n    }\r\n\r\n    /**\r\n    * @dev transfer token to a specified address with additional data if the recipient is a contract.\r\n    * @param _to The address to transfer to.\r\n    * @param _value The amount to be transferred.\r\n    * @param _data The extra data to be passed to the receiving contract.\r\n    */\r\n    function transferAndCall(address _to, uint _value, bytes _data)\r\n      public\r\n      validRecipient(_to)\r\n      returns (bool success)\r\n    {\r\n        return super.transferAndCall(_to, _value, _data);\r\n    }\r\n\r\n    /**\r\n    * @dev transfer token to a specified address.\r\n    * @param _to The address to transfer to.\r\n    * @param _value The amount to be transferred.\r\n    */\r\n    function transfer(address _to, uint _value)\r\n      public\r\n      validRecipient(_to)\r\n      returns (bool success)\r\n    {\r\n        return super.transfer(_to, _value);\r\n    }\r\n\r\n    /**\r\n    * @dev Approve the passed address to spend the specified amount of tokens on behalf of msg.sender.\r\n    * @param _spender The address which will spend the funds.\r\n    * @param _value The amount of tokens to be spent.\r\n    */\r\n    function approve(address _spender, uint256 _value)\r\n      public\r\n      validRecipient(_spender)\r\n      returns (bool)\r\n    {\r\n        return super.approve(_spender,  _value);\r\n    }\r\n\r\n    /**\r\n    * @dev Transfer tokens from one address to another\r\n    * @param _from address The address which you want to send tokens from\r\n    * @param _to address The address which you want to transfer to\r\n    * @param _value uint256 the amount of tokens to be transferred\r\n    */\r\n    function transferFrom(address _from, address _to, uint256 _value)\r\n      public\r\n      validRecipient(_to)\r\n      returns (bool)\r\n    {\r\n        return super.transferFrom(_from, _to, _value);\r\n    }\r\n\r\n\r\n    // MODIFIERS\r\n\r\n    modifier validRecipient(address _recipient) {\r\n        require(_recipient != address(0) && _recipient != address(this));\r\n        _;\r\n    }\r\n\r\n}",
  "sourcePath": "/mnt/d/dev-gitlab/staking-dapp/contracts/LinkToken.sol",
  "compiler": {
    "name": "solc",
    "version": "0.4.24+commit.e67f0147.Emscripten.clang"
  },
  "schemaVersion": "2.0.1",
  "updatedAt": "2018-10-30T20:07:45.273Z"
}