{
  "_format": "hh-sol-artifact-1",
  "contractName": "MultiWordConsumer",
  "sourceName": "src/v0.6/tests/MultiWordConsumer.sol",
  "abi": [
    {
      "inputs": [
        {
          "internalType": "address",
          "name": "_link",
          "type": "address"
        },
        {
          "internalType": "address",
          "name": "_oracle",
          "type": "address"
        },
        {
          "internalType": "bytes32",
          "name": "_specId",
          "type": "bytes32"
        }
      ],
      "stateMutability": "nonpayable",
      "type": "constructor"
    },
    {
      "anonymous": false,
      "inputs": [
        {
          "indexed": true,
          "internalType": "bytes32",
          "name": "id",
          "type": "bytes32"
        }
      ],
      "name": "ChainlinkCancelled",
      "type": "event"
    },
    {
      "anonymous": false,
      "inputs": [
        {
          "indexed": true,
          "internalType": "bytes32",
          "name": "id",
          "type": "bytes32"
        }
      ],
      "name": "ChainlinkFulfilled",
      "type": "event"
    },
    {
      "anonymous": false,
      "inputs": [
        {
          "indexed": true,
          "internalType": "bytes32",
          "name": "id",
          "type": "bytes32"
        }
      ],
      "name": "ChainlinkRequested",
      "type": "event"
    },
    {
      "anonymous": false,
      "inputs": [
        {
          "indexed": true,
          "internalType": "bytes32",
          "name": "requestId",
          "type": "bytes32"
        },
        {
          "indexed": true,
          "internalType": "bytes",
          "name": "price",
          "type": "bytes"
        }
      ],
      "name": "RequestFulfilled",
      "type": "event"
    },
    {
      "anonymous": false,
      "inputs": [
        {
          "indexed": true,
          "internalType": "bytes32",
          "name": "requestId",
          "type": "bytes32"
        },
        {
          "indexed": true,
          "internalType": "bytes32",
          "name": "first",
          "type": "bytes32"
        },
        {
          "indexed": true,
          "internalType": "bytes32",
          "name": "second",
          "type": "bytes32"
        }
      ],
      "name": "RequestMultipleFulfilled",
      "type": "event"
    },
    {
      "inputs": [
        {
          "internalType": "address",
          "name": "_oracle",
          "type": "address"
        },
        {
          "internalType": "bytes32",
          "name": "_requestId",
          "type": "bytes32"
        }
      ],
      "name": "addExternalRequest",
      "outputs": [],
      "stateMutability": "nonpayable",
      "type": "function"
    },
    {
      "inputs": [
        {
          "internalType": "address",
          "name": "_oracle",
          "type": "address"
        },
        {
          "internalType": "bytes32",
          "name": "_requestId",
          "type": "bytes32"
        },
        {
          "internalType": "uint256",
          "name": "_payment",
          "type": "uint256"
        },
        {
          "internalType": "bytes4",
          "name": "_callbackFunctionId",
          "type": "bytes4"
        },
        {
          "internalType": "uint256",
          "name": "_expiration",
          "type": "uint256"
        }
      ],
      "name": "cancelRequest",
      "outputs": [],
      "stateMutability": "nonpayable",
      "type": "function"
    },
    {
      "inputs": [],
      "name": "currentPrice",
      "outputs": [
        {
          "internalType": "bytes",
          "name": "",
          "type": "bytes"
        }
      ],
      "stateMutability": "view",
      "type": "function"
    },
    {
      "inputs": [],
      "name": "first",
      "outputs": [
        {
          "internalType": "bytes32",
          "name": "",
          "type": "bytes32"
        }
      ],
      "stateMutability": "view",
      "type": "function"
    },
    {
      "inputs": [
        {
          "internalType": "bytes32",
          "name": "_requestId",
          "type": "bytes32"
        },
        {
          "internalType": "bytes",
          "name": "_price",
          "type": "bytes"
        }
      ],
      "name": "fulfillBytes",
      "outputs": [],
      "stateMutability": "nonpayable",
      "type": "function"
    },
    {
      "inputs": [
        {
          "internalType": "bytes32",
          "name": "_requestId",
          "type": "bytes32"
        },
        {
          "internalType": "bytes32",
          "name": "_first",
          "type": "bytes32"
        },
        {
          "internalType": "bytes32",
          "name": "_second",
          "type": "bytes32"
        }
      ],
      "name": "fulfillMultipleParameters",
      "outputs": [],
      "stateMutability": "nonpayable",
      "type": "function"
    },
    {
      "inputs": [
        {
          "internalType": "string",
          "name": "_currency",
          "type": "string"
        },
        {
          "internalType": "uint256",
          "name": "_payment",
          "type": "uint256"
        }
      ],
      "name": "requestEthereumPrice",
      "outputs": [],
      "stateMutability": "nonpayable",
      "type": "function"
    },
    {
      "inputs": [
        {
          "internalType": "string",
          "name": "_currency",
          "type": "string"
        },
        {
          "internalType": "uint256",
          "name": "_payment",
          "type": "uint256"
        },
        {
          "internalType": "address",
          "name": "_callback",
          "type": "address"
        }
      ],
      "name": "requestEthereumPriceByCallback",
      "outputs": [],
      "stateMutability": "nonpayable",
      "type": "function"
    },
    {
      "inputs": [
        {
          "internalType": "string",
          "name": "_currency",
          "type": "string"
        },
        {
          "internalType": "uint256",
          "name": "_payment",
          "type": "uint256"
        }
      ],
      "name": "requestMultipleParameters",
      "outputs": [],
      "stateMutability": "nonpayable",
      "type": "function"
    },
    {
      "inputs": [],
      "name": "second",
      "outputs": [
        {
          "internalType": "bytes32",
          "name": "",
          "type": "bytes32"
        }
      ],
      "stateMutability": "view",
      "type": "function"
    },
    {
      "inputs": [],
      "name": "withdrawLink",
      "outputs": [],
      "stateMutability": "nonpayable",
      "type": "function"
    }
  ],
  "bytecode": "0x6080604052600160045534801561001557600080fd5b50604051611a0e380380611a0e8339818101604052606081101561003857600080fd5b508051602082015160409092015190919061005b836001600160e01b0361007816565b61006d826001600160e01b0361009a16565b600655506100bc9050565b600280546001600160a01b0319166001600160a01b0392909216919091179055565b600380546001600160a01b0319166001600160a01b0392909216919091179055565b611943806100cb6000396000f3fe608060405234801561001057600080fd5b50600436106100c95760003560e01c806383db5cbc11610081578063c2fb85231161005b578063c2fb852314610376578063e89855ba14610423578063e8d5359d146104cb576100c9565b806383db5cbc146102495780638dc654a2146102f15780639d1b464a146102f9576100c9565b80635591a608116100b25780635591a608146101135780635a8ac02d1461018057806374961d4d14610188576100c9565b80633df4ddf4146100ce57806353389072146100e8575b600080fd5b6100d6610504565b60408051918252519081900360200190f35b610111600480360360608110156100fe57600080fd5b508035906020810135906040013561050a565b005b610111600480360360a081101561012957600080fd5b5073ffffffffffffffffffffffffffffffffffffffff813516906020810135906040810135907fffffffff00000000000000000000000000000000000000000000000000000000606082013516906080013561061f565b6100d66106e6565b6101116004803603606081101561019e57600080fd5b8101906020810181356401000000008111156101b957600080fd5b8201836020820111156101cb57600080fd5b803590602001918460018302840111640100000000831117156101ed57600080fd5b91908080601f016020809104026020016040519081016040528093929190818152602001838380828437600092019190915250929550508235935050506020013573ffffffffffffffffffffffffffffffffffffffff166106ec565b6101116004803603604081101561025f57600080fd5b81019060208101813564010000000081111561027a57600080fd5b82018360208201111561028c57600080fd5b803590602001918460018302840111640100000000831117156102ae57600080fd5b91908080601f0160208091040260200160405190810160405280939291908181526020018383808284376000920191909152509295505091359250610827915050565b610111610836565b6103016109f3565b6040805160208082528351818301528351919283929083019185019080838360005b8381101561033b578181015183820152602001610323565b50505050905090810190601f1680156103685780820380516001836020036101000a031916815260200191505b509250505060405180910390f35b6101116004803603604081101561038c57600080fd5b813591908101906040810160208201356401000000008111156103ae57600080fd5b8201836020820111156103c057600080fd5b803590602001918460018302840111640100000000831117156103e257600080fd5b91908080601f016020809104026020016040519081016040528093929190818152602001838380828437600092019190915250929550610a9f945050505050565b6101116004803603604081101561043957600080fd5b81019060208101813564010000000081111561045457600080fd5b82018360208201111561046657600080fd5b8035906020019184600183028401116401000000008311171561048857600080fd5b91908080601f0160208091040260200160405190810160405280939291908181526020018383808284376000920191909152509295505091359250610c51915050565b610111600480360360408110156104e157600080fd5b5073ffffffffffffffffffffffffffffffffffffffff8135169060200135610d8b565b60085481565b600083815260056020526040902054839073ffffffffffffffffffffffffffffffffffffffff163314610588576040517f08c379a00000000000000000000000000000000000000000000000000000000081526004018080602001828103825260288152602001806118c86028913960400191505060405180910390fd5b60008181526005602052604080822080547fffffffffffffffffffffffff00000000000000000000000000000000000000001690555182917f7cc135e0cebb02c3480ae5d74d377283180a2601f8f644edf7987b009316c63a91a28183857fd368a628c6f427add4c36c69828a9be4d937a803adfda79c1dbf7eb26cdf4bc460405160405180910390a45060089190915560095550565b604080517f6ee4d55300000000000000000000000000000000000000000000000000000000815260048101869052602481018590527fffffffff0000000000000000000000000000000000000000000000000000000084166044820152606481018390529051869173ffffffffffffffffffffffffffffffffffffffff831691636ee4d5539160848082019260009290919082900301818387803b1580156106c657600080fd5b505af11580156106da573d6000803e3d6000fd5b50505050505050505050565b60095481565b6106f46117bd565b60065461072290837fc2fb852300000000000000000000000000000000000000000000000000000000610d95565b90506107846040518060400160405280600381526020017f67657400000000000000000000000000000000000000000000000000000000008152506040518060800160405280604781526020016118f06047913983919063ffffffff610dc016565b604080516001808252818301909252606091816020015b606081526020019060019003908161079b57905050905084816000815181106107c057fe5b60200260200101819052506108156040518060400160405280600481526020017f70617468000000000000000000000000000000000000000000000000000000008152508284610def9092919063ffffffff16565b61081f8285610e5d565b505050505050565b6108328282306106ec565b5050565b6000610840610e8d565b604080517f70a08231000000000000000000000000000000000000000000000000000000008152306004820152905191925073ffffffffffffffffffffffffffffffffffffffff83169163a9059cbb91339184916370a08231916024808301926020929190829003018186803b1580156108b957600080fd5b505afa1580156108cd573d6000803e3d6000fd5b505050506040513d60208110156108e357600080fd5b5051604080517fffffffff0000000000000000000000000000000000000000000000000000000060e086901b16815273ffffffffffffffffffffffffffffffffffffffff909316600484015260248301919091525160448083019260209291908290030181600087803b15801561095957600080fd5b505af115801561096d573d6000803e3d6000fd5b505050506040513d602081101561098357600080fd5b50516109f057604080517f08c379a000000000000000000000000000000000000000000000000000000000815260206004820152601260248201527f556e61626c6520746f207472616e736665720000000000000000000000000000604482015290519081900360640190fd5b50565b6007805460408051602060026001851615610100027fffffffffffffffffffffffffffffffffffffffffffffffffffffffffffffffff0190941693909304601f81018490048402820184019092528181529291830182828015610a975780601f10610a6c57610100808354040283529160200191610a97565b820191906000526020600020905b815481529060010190602001808311610a7a57829003601f168201915b505050505081565b600082815260056020526040902054829073ffffffffffffffffffffffffffffffffffffffff163314610b1d576040517f08c379a00000000000000000000000000000000000000000000000000000000081526004018080602001828103825260288152602001806118c86028913960400191505060405180910390fd5b60008181526005602052604080822080547fffffffffffffffffffffffff00000000000000000000000000000000000000001690555182917f7cc135e0cebb02c3480ae5d74d377283180a2601f8f644edf7987b009316c63a91a2816040518082805190602001908083835b60208310610bc657805182527fffffffffffffffffffffffffffffffffffffffffffffffffffffffffffffffe09092019160209182019101610b89565b5181516020939093036101000a7fffffffffffffffffffffffffffffffffffffffffffffffffffffffffffffffff01801990911692169190911790526040519201829003822093508692507f1a111c5dcf9a71088bd5e1797fdfaf399fec2afbb24aca247e4e3e9f4b61df919160009150a38151610c4b9060079060208501906117f2565b50505050565b610c596117bd565b600654610c8790307f5338907200000000000000000000000000000000000000000000000000000000610d95565b9050610ce96040518060400160405280600381526020017f67657400000000000000000000000000000000000000000000000000000000008152506040518060800160405280604781526020016118f06047913983919063ffffffff610dc016565b604080516001808252818301909252606091816020015b6060815260200190600190039081610d005790505090508381600081518110610d2557fe5b6020026020010181905250610d7a6040518060400160405280600481526020017f70617468000000000000000000000000000000000000000000000000000000008152508284610def9092919063ffffffff16565b610d848284610e5d565b5050505050565b6108328282610eaa565b610d9d6117bd565b610da56117bd565b610db78186868663ffffffff610f9116565b95945050505050565b6080830151610dd5908363ffffffff610ff316565b6080830151610dea908263ffffffff610ff316565b505050565b6080830151610e04908363ffffffff610ff316565b610e118360800151611010565b60005b8151811015610e4f57610e47828281518110610e2c57fe5b60200260200101518560800151610ff390919063ffffffff16565b600101610e14565b50610dea836080015161101b565b600354600090610e849073ffffffffffffffffffffffffffffffffffffffff168484611026565b90505b92915050565b60025473ffffffffffffffffffffffffffffffffffffffff165b90565b600081815260056020526040902054819073ffffffffffffffffffffffffffffffffffffffff1615610f3d57604080517f08c379a000000000000000000000000000000000000000000000000000000000815260206004820152601a60248201527f5265717565737420697320616c72656164792070656e64696e67000000000000604482015290519081900360640190fd5b50600090815260056020526040902080547fffffffffffffffffffffffff00000000000000000000000000000000000000001673ffffffffffffffffffffffffffffffffffffffff92909216919091179055565b610f996117bd565b610fa98560800151610100611263565b505091835273ffffffffffffffffffffffffffffffffffffffff1660208301527fffffffff0000000000000000000000000000000000000000000000000000000016604082015290565b611000826003835161129d565b610dea828263ffffffff6113a716565b6109f08160046113c1565b6109f08160076113c1565b6004546040805130606090811b60208084019190915260348084018690528451808503909101815260549093018452825192810192909220908601939093526000838152600590915281812080547fffffffffffffffffffffffff00000000000000000000000000000000000000001673ffffffffffffffffffffffffffffffffffffffff8816179055905182917fb5e6e01e79f91267dc17b4e6314d5d4d03593d2ceee0fbb452b750bd70ea5af991a260025473ffffffffffffffffffffffffffffffffffffffff16634000aea08584611100876113dc565b6040518463ffffffff1660e01b8152600401808473ffffffffffffffffffffffffffffffffffffffff1673ffffffffffffffffffffffffffffffffffffffff16815260200183815260200180602001828103825283818151815260200191508051906020019080838360005b8381101561118457818101518382015260200161116c565b50505050905090810190601f1680156111b15780820380516001836020036101000a031916815260200191505b50945050505050602060405180830381600087803b1580156111d257600080fd5b505af11580156111e6573d6000803e3d6000fd5b505050506040513d60208110156111fc57600080fd5b5051611253576040517f08c379a00000000000000000000000000000000000000000000000000000000081526004018080602001828103825260238152602001806118a56023913960400191505060405180910390fd5b6004805460010190559392505050565b61126b611870565b60208206156112805760208206602003820191505b506020828101829052604080518085526000815290920101905290565b601781116112c4576112be8360e0600585901b16831763ffffffff6115c516565b50610dea565b60ff81116112fa576112e7836018611fe0600586901b161763ffffffff6115c516565b506112be8382600163ffffffff6115dd16565b61ffff81116113315761131e836019611fe0600586901b161763ffffffff6115c516565b506112be8382600263ffffffff6115dd16565b63ffffffff811161136a5761135783601a611fe0600586901b161763ffffffff6115c516565b506112be8382600463ffffffff6115dd16565b67ffffffffffffffff8111610dea5761139483601b611fe0600586901b161763ffffffff6115c516565b50610c4b8382600863ffffffff6115dd16565b6113af611870565b610e84838460000151518485516115fe565b610dea82601f611fe0600585901b161763ffffffff6115c516565b6060634042994660e01b60008084600001518560200151866040015187606001516001896080015160000151604051602401808973ffffffffffffffffffffffffffffffffffffffff1673ffffffffffffffffffffffffffffffffffffffff1681526020018881526020018781526020018673ffffffffffffffffffffffffffffffffffffffff1673ffffffffffffffffffffffffffffffffffffffff168152602001857bffffffffffffffffffffffffffffffffffffffffffffffffffffffff19167bffffffffffffffffffffffffffffffffffffffffffffffffffffffff1916815260200184815260200183815260200180602001828103825283818151815260200191508051906020019080838360005b838110156115085781810151838201526020016114f0565b50505050905090810190601f1680156115355780820380516001836020036101000a031916815260200191505b50604080517fffffffffffffffffffffffffffffffffffffffffffffffffffffffffffffffe08184030181529190526020810180517bffffffffffffffffffffffffffffffffffffffffffffffffffffffff167fffffffff00000000000000000000000000000000000000000000000000000000909d169c909c17909b5250989950505050505050505050919050565b6115cd611870565b610e8483846000015151846116e6565b6115e5611870565b6115f6848560000151518585611731565b949350505050565b611606611870565b825182111561161457600080fd5b8460200151828501111561163e5761163e85611636876020015187860161178f565b6002026117a6565b60008086518051876020830101935080888701111561165d5787860182525b505050602084015b602084106116a257805182527fffffffffffffffffffffffffffffffffffffffffffffffffffffffffffffffe09093019260209182019101611665565b5181517fffffffffffffffffffffffffffffffffffffffffffffffffffffffffffffffff60208690036101000a019081169019919091161790525083949350505050565b6116ee611870565b8360200151831061170a5761170a8485602001516002026117a6565b835180516020858301018481535080851415611727576001810182525b5093949350505050565b611739611870565b8460200151848301111561175657611756858584016002026117a6565b60006001836101000a0390508551838682010185831982511617815250805184870111156117845783860181525b509495945050505050565b6000818311156117a0575081610e87565b50919050565b81516117b28383611263565b50610c4b83826113a7565b6040805160a0810182526000808252602082018190529181018290526060810191909152608081016117ed611870565b905290565b828054600181600116156101000203166002900490600052602060002090601f016020900481019282601f1061183357805160ff1916838001178555611860565b82800160010185558215611860579182015b82811115611860578251825591602001919060010190611845565b5061186c92915061188a565b5090565b604051806040016040528060608152602001600081525090565b610ea791905b8082111561186c576000815560010161189056fe756e61626c6520746f207472616e73666572416e6443616c6c20746f206f7261636c65536f75726365206d75737420626520746865206f7261636c65206f6620746865207265717565737468747470733a2f2f6d696e2d6170692e63727970746f636f6d706172652e636f6d2f646174612f70726963653f6673796d3d455448267473796d733d5553442c4555522c4a5059a164736f6c6343000606000a",
  "linkReferences": {},
  "deployedLinkReferences": {}
}