{
  "_format": "hh-sol-artifact-1",
  "contractName": "MockOracle",
  "sourceName": "src/v0.6/tests/MockOracle.sol",
  "abi": [
    {
      "inputs": [
        {
          "internalType": "address",
          "name": "_link",
          "type": "address"
        }
      ],
      "stateMutability": "nonpayable",
      "type": "constructor"
    },
    {
      "anonymous": false,
      "inputs": [
        {
          "indexed": true,
          "internalType": "bytes32",
          "name": "requestId",
          "type": "bytes32"
        }
      ],
      "name": "CancelOracleRequest",
      "type": "event"
    },
    {
      "anonymous": false,
      "inputs": [
        {
          "indexed": true,
          "internalType": "bytes32",
          "name": "specId",
          "type": "bytes32"
        },
        {
          "indexed": false,
          "internalType": "address",
          "name": "requester",
          "type": "address"
        },
        {
          "indexed": false,
          "internalType": "bytes32",
          "name": "requestId",
          "type": "bytes32"
        },
        {
          "indexed": false,
          "internalType": "uint256",
          "name": "payment",
          "type": "uint256"
        },
        {
          "indexed": false,
          "internalType": "address",
          "name": "callbackAddr",
          "type": "address"
        },
        {
          "indexed": false,
          "internalType": "bytes4",
          "name": "callbackFunctionId",
          "type": "bytes4"
        },
        {
          "indexed": false,
          "internalType": "uint256",
          "name": "cancelExpiration",
          "type": "uint256"
        },
        {
          "indexed": false,
          "internalType": "uint256",
          "name": "dataVersion",
          "type": "uint256"
        },
        {
          "indexed": false,
          "internalType": "bytes",
          "name": "data",
          "type": "bytes"
        }
      ],
      "name": "OracleRequest",
      "type": "event"
    },
    {
      "inputs": [],
      "name": "EXPIRY_TIME",
      "outputs": [
        {
          "internalType": "uint256",
          "name": "",
          "type": "uint256"
        }
      ],
      "stateMutability": "view",
      "type": "function"
    },
    {
      "inputs": [
        {
          "internalType": "bytes32",
          "name": "_requestId",
          "type": "bytes32"
        },
        {
          "internalType": "uint256",
          "name": "_payment",
          "type": "uint256"
        },
        {
          "internalType": "bytes4",
          "name": "",
          "type": "bytes4"
        },
        {
          "internalType": "uint256",
          "name": "_expiration",
          "type": "uint256"
        }
      ],
      "name": "cancelOracleRequest",
      "outputs": [],
      "stateMutability": "nonpayable",
      "type": "function"
    },
    {
      "inputs": [
        {
          "internalType": "bytes32",
          "name": "_requestId",
          "type": "bytes32"
        },
        {
          "internalType": "bytes32",
          "name": "_data",
          "type": "bytes32"
        }
      ],
      "name": "fulfillOracleRequest",
      "outputs": [
        {
          "internalType": "bool",
          "name": "",
          "type": "bool"
        }
      ],
      "stateMutability": "nonpayable",
      "type": "function"
    },
    {
      "inputs": [],
      "name": "getChainlinkToken",
      "outputs": [
        {
          "internalType": "address",
          "name": "",
          "type": "address"
        }
      ],
      "stateMutability": "view",
      "type": "function"
    },
    {
      "inputs": [
        {
          "internalType": "address",
          "name": "_sender",
          "type": "address"
        },
        {
          "internalType": "uint256",
          "name": "_amount",
          "type": "uint256"
        },
        {
          "internalType": "bytes",
          "name": "_data",
          "type": "bytes"
        }
      ],
      "name": "onTokenTransfer",
      "outputs": [],
      "stateMutability": "nonpayable",
      "type": "function"
    },
    {
      "inputs": [
        {
          "internalType": "address",
          "name": "_sender",
          "type": "address"
        },
        {
          "internalType": "uint256",
          "name": "_payment",
          "type": "uint256"
        },
        {
          "internalType": "bytes32",
          "name": "_specId",
          "type": "bytes32"
        },
        {
          "internalType": "address",
          "name": "_callbackAddress",
          "type": "address"
        },
        {
          "internalType": "bytes4",
          "name": "_callbackFunctionId",
          "type": "bytes4"
        },
        {
          "internalType": "uint256",
          "name": "_nonce",
          "type": "uint256"
        },
        {
          "internalType": "uint256",
          "name": "_dataVersion",
          "type": "uint256"
        },
        {
          "internalType": "bytes",
          "name": "_data",
          "type": "bytes"
        }
      ],
      "name": "oracleRequest",
      "outputs": [],
      "stateMutability": "nonpayable",
      "type": "function"
    }
  ],
  "bytecode": "0x608060405234801561001057600080fd5b506040516110863803806110868339818101604052602081101561003357600080fd5b5051600080546001600160a01b039092166001600160a01b0319909216919091179055611021806100656000396000f3fe608060405234801561001057600080fd5b50600436106100725760003560e01c80634b602282116100505780634b602282146101b75780636ee4d553146101d1578063a4c0ed361461022257610072565b8063165d35e1146100775780631f8f238c146100a857806340429946146100df575b600080fd5b61007f6102ea565b6040805173ffffffffffffffffffffffffffffffffffffffff9092168252519081900360200190f35b6100cb600480360360408110156100be57600080fd5b5080359060200135610306565b604080519115158252519081900360200190f35b6101b560048036036101008110156100f657600080fd5b73ffffffffffffffffffffffffffffffffffffffff8235811692602081013592604082013592606083013516917fffffffff000000000000000000000000000000000000000000000000000000006080820135169160a08201359160c081013591810190610100810160e082013564010000000081111561017657600080fd5b82018360208201111561018857600080fd5b803590602001918460018302840111640100000000831117156101aa57600080fd5b509092509050610604565b005b6101bf610a53565b60408051918252519081900360200190f35b6101b5600480360360808110156101e757600080fd5b508035906020810135907fffffffff000000000000000000000000000000000000000000000000000000006040820135169060600135610a59565b6101b56004803603606081101561023857600080fd5b73ffffffffffffffffffffffffffffffffffffffff8235169160208101359181019060608101604082013564010000000081111561027557600080fd5b82018360208201111561028757600080fd5b803590602001918460018302840111640100000000831117156102a957600080fd5b91908080601f016020809104026020016040519081016040528093929190818152602001838380828437600092019190915250929550610c66945050505050565b60005473ffffffffffffffffffffffffffffffffffffffff1690565b600082815260016020526040812054839073ffffffffffffffffffffffffffffffffffffffff1661039857604080517f08c379a000000000000000000000000000000000000000000000000000000000815260206004820152601b60248201527f4d757374206861766520612076616c6964207265717565737449640000000000604482015290519081900360640190fd5b6103a0610ffd565b5060008481526001602081815260408084208151808301909252805473ffffffffffffffffffffffffffffffffffffffff811683527fffffffff0000000000000000000000000000000000000000000000000000000074010000000000000000000000000000000000000000820460e01b168385015294899052929091527fffffffffffffffff000000000000000000000000000000000000000000000000909216905562061a805a10156104b657604080517f08c379a000000000000000000000000000000000000000000000000000000000815260206004820181905260248201527f4d7573742070726f7669646520636f6e73756d657220656e6f75676820676173604482015290519081900360640190fd5b805160208083015160408051602481018a905260448082018a9052825180830390910181526064909101825292830180517bffffffffffffffffffffffffffffffffffffffffffffffffffffffff167fffffffff0000000000000000000000000000000000000000000000000000000090931692909217825251825160009473ffffffffffffffffffffffffffffffffffffffff16939282918083835b6020831061059057805182527fffffffffffffffffffffffffffffffffffffffffffffffffffffffffffffffe09092019160209182019101610553565b6001836020036101000a0380198251168184511680821785525050505050509050019150506000604051808303816000865af19150503d80600081146105f2576040519150601f19603f3d011682016040523d82523d6000602084013e6105f7565b606091505b5090979650505050505050565b61060c6102ea565b73ffffffffffffffffffffffffffffffffffffffff163373ffffffffffffffffffffffffffffffffffffffff16146106a557604080517f08c379a000000000000000000000000000000000000000000000000000000000815260206004820152601360248201527f4d75737420757365204c494e4b20746f6b656e00000000000000000000000000604482015290519081900360640190fd5b600054869073ffffffffffffffffffffffffffffffffffffffff8083169116141561073157604080517f08c379a000000000000000000000000000000000000000000000000000000000815260206004820152601760248201527f43616e6e6f742063616c6c6261636b20746f204c494e4b000000000000000000604482015290519081900360640190fd5b604080517fffffffffffffffffffffffffffffffffffffffff00000000000000000000000060608d901b1660208083019190915260348083018990528351808403909101815260549092018352815191810191909120600081815260019092529190205473ffffffffffffffffffffffffffffffffffffffff161561081757604080517f08c379a000000000000000000000000000000000000000000000000000000000815260206004820152601460248201527f4d75737420757365206120756e69717565204944000000000000000000000000604482015290519081900360640190fd5b600061082b4261012c63ffffffff610f8216565b905060405180604001604052808a73ffffffffffffffffffffffffffffffffffffffff168152602001897bffffffffffffffffffffffffffffffffffffffffffffffffffffffff19168152506001600084815260200190815260200160002060008201518160000160006101000a81548173ffffffffffffffffffffffffffffffffffffffff021916908373ffffffffffffffffffffffffffffffffffffffff16021790555060208201518160000160146101000a81548163ffffffff021916908360e01c0217905550905050897fd8d7ecc4800d25fa53ce0372f13a416d98907a7ef3d8d3bdd79cf4fe75529c658d848e8d8d878d8d8d604051808a73ffffffffffffffffffffffffffffffffffffffff1673ffffffffffffffffffffffffffffffffffffffff1681526020018981526020018881526020018773ffffffffffffffffffffffffffffffffffffffff1673ffffffffffffffffffffffffffffffffffffffff168152602001867bffffffffffffffffffffffffffffffffffffffffffffffffffffffff19167bffffffffffffffffffffffffffffffffffffffffffffffffffffffff19168152602001858152602001848152602001806020018281038252848482818152602001925080828437600083820152604051601f9091017fffffffffffffffffffffffffffffffffffffffffffffffffffffffffffffffe0169092018290039c50909a5050505050505050505050a2505050505050505050505050565b61012c81565b60008481526001602052604090205473ffffffffffffffffffffffffffffffffffffffff16610ae957604080517f08c379a000000000000000000000000000000000000000000000000000000000815260206004820152601460248201527f4d75737420757365206120756e69717565204944000000000000000000000000604482015290519081900360640190fd5b42811115610b5857604080517f08c379a000000000000000000000000000000000000000000000000000000000815260206004820152601660248201527f52657175657374206973206e6f74206578706972656400000000000000000000604482015290519081900360640190fd5b60008481526001602052604080822080547fffffffffffffffff0000000000000000000000000000000000000000000000001690555185917fa7842b9ec549398102c0d91b1b9919b2f20558aefdadf57528a95c6cd3292e9391a260008054604080517fa9059cbb00000000000000000000000000000000000000000000000000000000815233600482015260248101879052905173ffffffffffffffffffffffffffffffffffffffff9092169263a9059cbb926044808401936020939083900390910190829087803b158015610c2e57600080fd5b505af1158015610c42573d6000803e3d6000fd5b505050506040513d6020811015610c5857600080fd5b5051610c6057fe5b50505050565b610c6e6102ea565b73ffffffffffffffffffffffffffffffffffffffff163373ffffffffffffffffffffffffffffffffffffffff1614610d0757604080517f08c379a000000000000000000000000000000000000000000000000000000000815260206004820152601360248201527f4d75737420757365204c494e4b20746f6b656e00000000000000000000000000604482015290519081900360640190fd5b8051819060441115610d7a57604080517f08c379a000000000000000000000000000000000000000000000000000000000815260206004820152601660248201527f496e76616c69642072657175657374206c656e67746800000000000000000000604482015290519081900360640190fd5b602082015182907fffffffff0000000000000000000000000000000000000000000000000000000081167f404299460000000000000000000000000000000000000000000000000000000014610e3157604080517f08c379a000000000000000000000000000000000000000000000000000000000815260206004820152601e60248201527f4d757374207573652077686974656c69737465642066756e6374696f6e730000604482015290519081900360640190fd5b85602485015284604485015260003073ffffffffffffffffffffffffffffffffffffffff16856040518082805190602001908083835b60208310610ea457805182527fffffffffffffffffffffffffffffffffffffffffffffffffffffffffffffffe09092019160209182019101610e67565b6001836020036101000a038019825116818451168082178552505050505050905001915050600060405180830381855af49150503d8060008114610f04576040519150601f19603f3d011682016040523d82523d6000602084013e610f09565b606091505b5050905080610f7957604080517f08c379a000000000000000000000000000000000000000000000000000000000815260206004820152601860248201527f556e61626c6520746f2063726561746520726571756573740000000000000000604482015290519081900360640190fd5b50505050505050565b600082820183811015610ff657604080517f08c379a000000000000000000000000000000000000000000000000000000000815260206004820152601b60248201527f536166654d6174683a206164646974696f6e206f766572666c6f770000000000604482015290519081900360640190fd5b9392505050565b60408051808201909152600080825260208201529056fea164736f6c6343000606000a",
  "linkReferences": {},
  "deployedLinkReferences": {}
}