{
  "_format": "hh-sol-artifact-1",
  "contractName": "ChainlinkTestHelper",
  "sourceName": "src/v0.6/tests/ChainlinkTestHelper.sol",
  "abi": [
    {
      "anonymous": false,
      "inputs": [
        {
          "indexed": false,
          "internalType": "bytes",
          "name": "payload",
          "type": "bytes"
        }
      ],
      "name": "RequestData",
      "type": "event"
    },
    {
      "inputs": [
        {
          "internalType": "string",
          "name": "_key",
          "type": "string"
        },
        {
          "internalType": "string",
          "name": "_value",
          "type": "string"
        }
      ],
      "name": "add",
      "outputs": [],
      "stateMutability": "nonpayable",
      "type": "function"
    },
    {
      "inputs": [
        {
          "internalType": "string",
          "name": "_key",
          "type": "string"
        },
        {
          "internalType": "bytes",
          "name": "_value",
          "type": "bytes"
        }
      ],
      "name": "addBytes",
      "outputs": [],
      "stateMutability": "nonpayable",
      "type": "function"
    },
    {
      "inputs": [
        {
          "internalType": "string",
          "name": "_key",
          "type": "string"
        },
        {
          "internalType": "int256",
          "name": "_value",
          "type": "int256"
        }
      ],
      "name": "addInt",
      "outputs": [],
      "stateMutability": "nonpayable",
      "type": "function"
    },
    {
      "inputs": [
        {
          "internalType": "string",
          "name": "_key",
          "type": "string"
        },
        {
          "internalType": "bytes32[]",
          "name": "_values",
          "type": "bytes32[]"
        }
      ],
      "name": "addStringArray",
      "outputs": [],
      "stateMutability": "nonpayable",
      "type": "function"
    },
    {
      "inputs": [
        {
          "internalType": "string",
          "name": "_key",
          "type": "string"
        },
        {
          "internalType": "uint256",
          "name": "_value",
          "type": "uint256"
        }
      ],
      "name": "addUint",
      "outputs": [],
      "stateMutability": "nonpayable",
      "type": "function"
    },
    {
      "inputs": [],
      "name": "closeEvent",
      "outputs": [],
      "stateMutability": "nonpayable",
      "type": "function"
    },
    {
      "inputs": [
        {
          "internalType": "bytes",
          "name": "data",
          "type": "bytes"
        }
      ],
      "name": "setBuffer",
      "outputs": [],
      "stateMutability": "nonpayable",
      "type": "function"
    }
  ],
  "bytecode": "0x608060405234801561001057600080fd5b50611ad5806100206000396000f3fe608060405234801561001057600080fd5b506004361061007d5760003560e01c806347655b1b1161005b57806347655b1b146102615780635e31692e1461038b578063cc39406f14610433578063ebdf86ca146104d95761007d565b806303dc5326146100825780630e734a581461008c5780632255beb014610134575b600080fd5b61008a610606565b005b61008a600480360360408110156100a257600080fd5b8101906020810181356401000000008111156100bd57600080fd5b8201836020820111156100cf57600080fd5b803590602001918460018302840111640100000000831117156100f157600080fd5b91908080601f01602080910402602001604051908101604052809392919081815260200183838082843760009201919091525092955050913592506106d3915050565b61008a6004803603604081101561014a57600080fd5b81019060208101813564010000000081111561016557600080fd5b82018360208201111561017757600080fd5b8035906020019184600183028401116401000000008311171561019957600080fd5b91908080601f01602080910402602001604051908101604052809392919081815260200183838082843760009201919091525092959493602081019350359150506401000000008111156101ec57600080fd5b8201836020820111156101fe57600080fd5b8035906020019184600183028401116401000000008311171561022057600080fd5b91908080601f016020809104026020016040519081016040528093929190818152602001838380828437600092019190915250929550610912945050505050565b61008a6004803603604081101561027757600080fd5b81019060208101813564010000000081111561029257600080fd5b8201836020820111156102a457600080fd5b803590602001918460018302840111640100000000831117156102c657600080fd5b91908080601f016020809104026020016040519081016040528093929190818152602001838380828437600092019190915250929594936020810193503591505064010000000081111561031957600080fd5b82018360208201111561032b57600080fd5b8035906020019184602083028401116401000000008311171561034d57600080fd5b919080806020026020016040519081016040528093929190818152602001838360200280828437600092019190915250929550610a7a945050505050565b61008a600480360360408110156103a157600080fd5b8101906020810181356401000000008111156103bc57600080fd5b8201836020820111156103ce57600080fd5b803590602001918460018302840111640100000000831117156103f057600080fd5b91908080601f0160208091040260200160405190810160405280939291908181526020018383808284376000920191909152509295505091359250610d53915050565b61008a6004803603602081101561044957600080fd5b81019060208101813564010000000081111561046457600080fd5b82018360208201111561047657600080fd5b8035906020019184600183028401116401000000008311171561049857600080fd5b91908080601f016020809104026020016040519081016040528093929190818152602001838380828437600092019190915250929550610ebb945050505050565b61008a600480360360408110156104ef57600080fd5b81019060208101813564010000000081111561050a57600080fd5b82018360208201111561051c57600080fd5b8035906020019184600183028401116401000000008311171561053e57600080fd5b91908080601f016020809104026020016040519081016040528093929190818152602001838380828437600092019190915250929594936020810193503591505064010000000081111561059157600080fd5b8201836020820111156105a357600080fd5b803590602001918460018302840111640100000000831117156105c557600080fd5b91908080601f0160208091040260200160405190810160405280939291908181526020018383808284376000920191909152509295506110f8945050505050565b6040805160208082526003805460027fffffffffffffffffffffffffffffffffffffffffffffffffffffffffffffffff61010060018416150201909116049183018290527f84485ae823e5c366e9581c146349e23f73b2f459d9eee1b9f15f36aac3b3145a939092918291820190849080156106c35780601f10610698576101008083540402835291602001916106c3565b820191906000526020600020905b8154815290600101906020018083116106a657829003601f168201915b50509250505060405180910390a1565b6106db6119de565b6040805160a0810182526000805482526001805473ffffffffffffffffffffffffffffffffffffffff81166020808601919091527401000000000000000000000000000000000000000090910460e01b7fffffffff0000000000000000000000000000000000000000000000000000000016848601526002805460608087019190915286516003805461010096811615969096027fffffffffffffffffffffffffffffffffffffffffffffffffffffffffffffffff0190951692909204601f810184900490930282018101875295810182815294959394608087019491939284928491908401828280156108105780601f106107e557610100808354040283529160200191610810565b820191906000526020600020905b8154815290600101906020018083116107f357829003601f168201915b505050918352505060019190910154602090910152905250905061083b81848463ffffffff61126016565b8051600090815560208083015160018054604086015160e01c74010000000000000000000000000000000000000000027fffffffffffffffff00000000ffffffffffffffffffffffffffffffffffffffff73ffffffffffffffffffffffffffffffffffffffff9094167fffffffffffffffffffffffff0000000000000000000000000000000000000000909216919091179290921691909117905560608301516002556080830151805180518594936003926108fd9284929190910190611a13565b50602082015181600101555050905050505050565b61091a6119de565b6040805160a0810182526000805482526001805473ffffffffffffffffffffffffffffffffffffffff81166020808601919091527401000000000000000000000000000000000000000090910460e01b7fffffffff0000000000000000000000000000000000000000000000000000000016848601526002805460608087019190915286516003805461010096811615969096027fffffffffffffffffffffffffffffffffffffffffffffffffffffffffffffffff0190951692909204601f81018490049093028201810187529581018281529495939460808701949193928492849190840182828015610a4f5780601f10610a2457610100808354040283529160200191610a4f565b820191906000526020600020905b815481529060010190602001808311610a3257829003601f168201915b505050918352505060019190910154602090910152905250905061083b81848463ffffffff61128f16565b6060815167ffffffffffffffff81118015610a9457600080fd5b50604051908082528060200260200182016040528015610ac857816020015b6060815260200190600190039081610ab35790505b50905060005b8251811015610b1257610af3838281518110610ae657fe5b60200260200101516112b9565b828281518110610aff57fe5b6020908102919091010152600101610ace565b50610b1b6119de565b6040805160a0810182526000805482526001805473ffffffffffffffffffffffffffffffffffffffff81166020808601919091527401000000000000000000000000000000000000000090910460e01b7fffffffff0000000000000000000000000000000000000000000000000000000016848601526002805460608087019190915286516003805461010096811615969096027fffffffffffffffffffffffffffffffffffffffffffffffffffffffffffffffff0190951692909204601f81018490049093028201810187529581018281529495939460808701949193928492849190840182828015610c505780601f10610c2557610100808354040283529160200191610c50565b820191906000526020600020905b815481529060010190602001808311610c3357829003601f168201915b5050509183525050600191909101546020909101529052509050610c7b81858463ffffffff61141d16565b8051600090815560208083015160018054604086015160e01c74010000000000000000000000000000000000000000027fffffffffffffffff00000000ffffffffffffffffffffffffffffffffffffffff73ffffffffffffffffffffffffffffffffffffffff9094167fffffffffffffffffffffffff000000000000000000000000000000000000000090921691909117929092169190911790556060830151600255608083015180518051859493600392610d3d9284929190910190611a13565b5060208201518160010155505090505050505050565b610d5b6119de565b6040805160a0810182526000805482526001805473ffffffffffffffffffffffffffffffffffffffff81166020808601919091527401000000000000000000000000000000000000000090910460e01b7fffffffff0000000000000000000000000000000000000000000000000000000016848601526002805460608087019190915286516003805461010096811615969096027fffffffffffffffffffffffffffffffffffffffffffffffffffffffffffffffff0190951692909204601f81018490049093028201810187529581018281529495939460808701949193928492849190840182828015610e905780601f10610e6557610100808354040283529160200191610e90565b820191906000526020600020905b815481529060010190602001808311610e7357829003601f168201915b505050918352505060019190910154602090910152905250905061083b81848463ffffffff61148b16565b610ec36119de565b6040805160a0810182526000805482526001805473ffffffffffffffffffffffffffffffffffffffff81166020808601919091527401000000000000000000000000000000000000000090910460e01b7fffffffff0000000000000000000000000000000000000000000000000000000016848601526002805460608087019190915286516003805461010096811615969096027fffffffffffffffffffffffffffffffffffffffffffffffffffffffffffffffff0190951692909204601f81018490049093028201810187529581018281529495939460808701949193928492849190840182828015610ff85780601f10610fcd57610100808354040283529160200191610ff8565b820191906000526020600020905b815481529060010190602001808311610fdb57829003601f168201915b5050509183525050600191909101546020909101529052509050611022818363ffffffff6114b516565b8051600090815560208083015160018054604086015160e01c74010000000000000000000000000000000000000000027fffffffffffffffff00000000ffffffffffffffffffffffffffffffffffffffff73ffffffffffffffffffffffffffffffffffffffff9094167fffffffffffffffffffffffff0000000000000000000000000000000000000000909216919091179290921691909117905560608301516002556080830151805180518594936003926110e49284929190910190611a13565b506020820151816001015550509050505050565b6111006119de565b6040805160a0810182526000805482526001805473ffffffffffffffffffffffffffffffffffffffff81166020808601919091527401000000000000000000000000000000000000000090910460e01b7fffffffff0000000000000000000000000000000000000000000000000000000016848601526002805460608087019190915286516003805461010096811615969096027fffffffffffffffffffffffffffffffffffffffffffffffffffffffffffffffff0190951692909204601f810184900490930282018101875295810182815294959394608087019491939284928491908401828280156112355780601f1061120a57610100808354040283529160200191611235565b820191906000526020600020905b81548152906001019060200180831161121857829003601f168201915b505050918352505060019190910154602090910152905250905061083b81848463ffffffff6114d316565b6080830151611275908363ffffffff6114fd16565b608083015161128a908263ffffffff61151a16565b505050565b60808301516112a4908363ffffffff6114fd16565b608083015161128a908263ffffffff61152a16565b6040805160208082528183019092526060918291906020820181803683370190505090506000805b6020811015611367576008810260020a85027fff0000000000000000000000000000000000000000000000000000000000000081161561135e578084848151811061132857fe5b60200101907effffffffffffffffffffffffffffffffffffffffffffffffffffffffffffff1916908160001a9053506001909201915b506001016112e1565b5060608167ffffffffffffffff8111801561138157600080fd5b506040519080825280601f01601f1916602001820160405280156113ac576020820181803683370190505b50905060005b82811015611414578381815181106113c657fe5b602001015160f81c60f81b8282815181106113dd57fe5b60200101907effffffffffffffffffffffffffffffffffffffffffffffffffffffffffffff1916908160001a9053506001016113b2565b50949350505050565b6080830151611432908363ffffffff6114fd16565b61143f8360800151611537565b60005b815181101561147d5761147582828151811061145a57fe5b602002602001015185608001516114fd90919063ffffffff16565b600101611442565b5061128a8360800151611545565b60808301516114a0908363ffffffff6114fd16565b608083015161128a908263ffffffff61155016565b6114c4826080015182516115c2565b5061128a826080015182611602565b60808301516114e8908363ffffffff6114fd16565b608083015161128a908263ffffffff6114fd16565b61150a8260038351611623565b61128a828263ffffffff61160216565b61152682600083611623565b5050565b61150a8260028351611623565b611542816004611733565b50565b611542816007611733565b7fffffffffffffffffffffffffffffffffffffffffffffffff000000000000000081121561158757611582828261174e565b611526565b67ffffffffffffffff8113156115a15761158282826117ab565b600081126115b55761158282600083611623565b6115268260018319611623565b6115ca611a91565b60208206156115df5760208206602003820191505b506020808301829052604080518085526000815283019091019052815b92915050565b61160a611a91565b61161c838460000151518485516117e6565b9392505050565b6017811161164a576116448360e0600585901b16831763ffffffff6118ce16565b5061128a565b60ff81116116805761166d836018611fe0600586901b161763ffffffff6118ce16565b506116448382600163ffffffff6118e616565b61ffff81116116b7576116a4836019611fe0600586901b161763ffffffff6118ce16565b506116448382600263ffffffff6118e616565b63ffffffff81116116f0576116dd83601a611fe0600586901b161763ffffffff6118ce16565b506116448382600463ffffffff6118e616565b67ffffffffffffffff811161128a5761171a83601b611fe0600586901b161763ffffffff6118ce16565b5061172d8382600863ffffffff6118e616565b50505050565b61128a82601f611fe0600585901b161763ffffffff6118ce16565b61175f8260c363ffffffff6118ce16565b5061152682827fffffffffffffffffffffffffffffffffffffffffffffffffffffffffffffffff036040516020018082815260200191505060405160208183030381529060405261152a565b6117bc8260c263ffffffff6118ce16565b5061152682826040516020018082815260200191505060405160208183030381529060405261152a565b6117ee611a91565b82518211156117fc57600080fd5b84602001518285011115611826576118268561181e8760200151878601611907565b60020261191e565b6000808651805187602083010193508088870111156118455787860182525b505050602084015b6020841061188a57805182527fffffffffffffffffffffffffffffffffffffffffffffffffffffffffffffffe0909301926020918201910161184d565b5181517fffffffffffffffffffffffffffffffffffffffffffffffffffffffffffffffff60208690036101000a019081169019919091161790525083949350505050565b6118d6611a91565b61161c8384600001515184611935565b6118ee611a91565b6118ff848560000151518585611980565b949350505050565b6000818311156119185750816115fc565b50919050565b815161192a83836115c2565b5061172d8382611602565b61193d611a91565b836020015183106119595761195984856020015160020261191e565b835180516020858301018481535080851415611976576001810182525b5093949350505050565b611988611a91565b846020015184830111156119a5576119a58585840160020261191e565b60006001836101000a0390508551838682010185831982511617815250805184870111156119d35783860181525b509495945050505050565b6040805160a081018252600080825260208201819052918101829052606081019190915260808101611a0e611a91565b905290565b828054600181600116156101000203166002900490600052602060002090601f016020900481019282601f10611a5457805160ff1916838001178555611a81565b82800160010185558215611a81579182015b82811115611a81578251825591602001919060010190611a66565b50611a8d929150611aab565b5090565b604051806040016040528060608152602001600081525090565b611ac591905b80821115611a8d5760008155600101611ab1565b9056fea164736f6c6343000606000a",
  "linkReferences": {},
  "deployedLinkReferences": {}
}