{
  "contractName": "EthLog",
  "abi": [
    {
      "anonymous": false,
      "inputs": [
        {
          "indexed": true,
          "name": "jobId",
          "type": "bytes32"
        }
      ],
      "name": "LogEvent",
      "type": "event"
    },
    {
      "constant": false,
      "inputs": [],
      "name": "logEvent",
      "outputs": [],
      "payable": false,
      "stateMutability": "nonpayable",
      "type": "function"
    }
  ],
  "bytecode": "0x60606040523415600e57600080fd5b60d18061001c6000396000f300606060405260043610603f576000357c0100000000000000000000000000000000000000000000000000000000900463ffffffff168063a5fe0872146044575b600080fd5b3415604e57600080fd5b60546056565b005b7f68656c6c6f5f636861696e6c696e6b00000000000000000000000000000000007fd226ed2bc8a4081ee6d62540525cd9a44aa022eca68e344a7f7b924a75faeed560405160405180910390a25600a165627a7a723058205073c815507fb89bd3c4ef30b0375a5aa90f9413001e2a4a3ce4c37a9e6e01a40029",
  "source": "pragma solidity ^0.4.18;\n\ncontract EthLog {\n  event LogEvent(bytes32 indexed jobId);\n\n  function logEvent() public {\n    LogEvent(\"hello_chainlink\");\n  }\n}\n",
  "sourcePath": "/home/thomas/go/src/github.com/smartcontractkit/chainlink/solidity/contracts/examples/echo_server/contracts/EthLog.sol",
  "compiler": {
    "name": "solc",
    "version": "0.4.19+commit.c4cbbb05.Emscripten.clang"
  },
  "schemaVersion": "2.0.0",
  "updatedAt": "2018-04-03T20:34:44.454Z"
}