{
  "contractName": "Oracle",
  "abi": [
    {
      "constant": true,
      "inputs": [],
      "name": "owner",
      "outputs": [
        {
          "name": "",
          "type": "address"
        }
      ],
      "payable": false,
      "stateMutability": "view",
      "type": "function"
    },
    {
      "constant": false,
      "inputs": [
        {
          "name": "newOwner",
          "type": "address"
        }
      ],
      "name": "transferOwnership",
      "outputs": [],
      "payable": false,
      "stateMutability": "nonpayable",
      "type": "function"
    },
    {
      "anonymous": false,
      "inputs": [
        {
          "indexed": true,
          "name": "id",
          "type": "uint256"
        },
        {
          "indexed": true,
          "name": "jobId",
          "type": "bytes32"
        },
        {
          "indexed": false,
          "name": "data",
          "type": "string"
        }
      ],
      "name": "Request",
      "type": "event"
    },
    {
      "anonymous": false,
      "inputs": [
        {
          "indexed": true,
          "name": "previousOwner",
          "type": "address"
        },
        {
          "indexed": true,
          "name": "newOwner",
          "type": "address"
        }
      ],
      "name": "OwnershipTransferred",
      "type": "event"
    },
    {
      "constant": false,
      "inputs": [
        {
          "name": "_jobId",
          "type": "bytes32"
        },
        {
          "name": "_callbackAddress",
          "type": "address"
        },
        {
          "name": "_callbackFID",
          "type": "bytes4"
        },
        {
          "name": "_data",
          "type": "string"
        }
      ],
      "name": "requestData",
      "outputs": [
        {
          "name": "",
          "type": "uint256"
        }
      ],
      "payable": false,
      "stateMutability": "nonpayable",
      "type": "function"
    },
    {
      "constant": false,
      "inputs": [
        {
          "name": "_requestId",
          "type": "uint256"
        },
        {
          "name": "_data",
          "type": "bytes32"
        }
      ],
      "name": "fulfillData",
      "outputs": [],
      "payable": false,
      "stateMutability": "nonpayable",
      "type": "function"
    }
  ],
  "bytecode": "0x6060604052336000806101000a81548173ffffffffffffffffffffffffffffffffffffffff021916908373ffffffffffffffffffffffffffffffffffffffff160217905550610855806100536000396000f300606060405260043610610062576000357c0100000000000000000000000000000000000000000000000000000000900463ffffffff1680637549a09e1461006757806376005c261461012c5780638da5cb5b1461015c578063f2fde38b146101b1575b600080fd5b341561007257600080fd5b61011660048080356000191690602001909190803573ffffffffffffffffffffffffffffffffffffffff169060200190919080357bffffffffffffffffffffffffffffffffffffffffffffffffffffffff191690602001909190803590602001908201803590602001908080601f016020809104026020016040519081016040528093929190818152602001838380828437820191505050505050919050506101ea565b6040518082815260200191505060405180910390f35b341561013757600080fd5b61015a6004808035906020019091908035600019169060200190919050506103a3565b005b341561016757600080fd5b61016f610660565b604051808273ffffffffffffffffffffffffffffffffffffffff1673ffffffffffffffffffffffffffffffffffffffff16815260200191505060405180910390f35b34156101bc57600080fd5b6101e8600480803573ffffffffffffffffffffffffffffffffffffffff16906020019091905050610685565b005b60006101f46107da565b6001806000828254019250508190555060408051908101604052808673ffffffffffffffffffffffffffffffffffffffff168152602001857bffffffffffffffffffffffffffffffffffffffffffffffffffffffff191681525090508060026000600154815260200190815260200160002060008201518160000160006101000a81548173ffffffffffffffffffffffffffffffffffffffff021916908373ffffffffffffffffffffffffffffffffffffffff16021790555060208201518160000160146101000a81548163ffffffff02191690837c01000000000000000000000000000000000000000000000000000000009004021790555090505085600019166001547f06f4bf36b4e011a5c499cef1113c2d166800ce4013f6c2509cab1a0e92b83fb2856040518080602001828103825283818151815260200191508051906020019080838360005b8381101561035b578082015181840152602081019050610340565b50505050905090810190601f1680156103885780820380516001836020036101000a031916815260200191505b509250505060405180910390a3600154915050949350505050565b6103ab6107da565b6000809054906101000a900473ffffffffffffffffffffffffffffffffffffffff1673ffffffffffffffffffffffffffffffffffffffff163373ffffffffffffffffffffffffffffffffffffffff1614151561040657600080fd5b82600073ffffffffffffffffffffffffffffffffffffffff166002600083815260200190815260200160002060000160009054906101000a900473ffffffffffffffffffffffffffffffffffffffff1673ffffffffffffffffffffffffffffffffffffffff161415151561047957600080fd5b600260008581526020019081526020016000206040805190810160405290816000820160009054906101000a900473ffffffffffffffffffffffffffffffffffffffff1673ffffffffffffffffffffffffffffffffffffffff1673ffffffffffffffffffffffffffffffffffffffff1681526020016000820160149054906101000a90047c0100000000000000000000000000000000000000000000000000000000027bffffffffffffffffffffffffffffffffffffffffffffffffffffffff19167bffffffffffffffffffffffffffffffffffffffffffffffffffffffff1916815250509150816000015173ffffffffffffffffffffffffffffffffffffffff1682602001517c0100000000000000000000000000000000000000000000000000000000900485856040518363ffffffff167c0100000000000000000000000000000000000000000000000000000000028152600401808381526020018260001916600019168152602001925050506000604051808303816000875af192505050151561060657600080fd5b60026000858152602001908152602001600020600080820160006101000a81549073ffffffffffffffffffffffffffffffffffffffff02191690556000820160146101000a81549063ffffffff0219169055505050505050565b6000809054906101000a900473ffffffffffffffffffffffffffffffffffffffff1681565b6000809054906101000a900473ffffffffffffffffffffffffffffffffffffffff1673ffffffffffffffffffffffffffffffffffffffff163373ffffffffffffffffffffffffffffffffffffffff161415156106e057600080fd5b600073ffffffffffffffffffffffffffffffffffffffff168173ffffffffffffffffffffffffffffffffffffffff161415151561071c57600080fd5b8073ffffffffffffffffffffffffffffffffffffffff166000809054906101000a900473ffffffffffffffffffffffffffffffffffffffff1673ffffffffffffffffffffffffffffffffffffffff167f8be0079c531659141344cd1fd0a4f28419497f9722a3daafe3b4186f6b6457e060405160405180910390a3806000806101000a81548173ffffffffffffffffffffffffffffffffffffffff021916908373ffffffffffffffffffffffffffffffffffffffff16021790555050565b6040805190810160405280600073ffffffffffffffffffffffffffffffffffffffff16815260200160007bffffffffffffffffffffffffffffffffffffffffffffffffffffffff1916815250905600a165627a7a7230582057915cdb2e03dffa4f19c9c38d1fdc523645ae946a438a058a0055a4426fde960029",
  "source": "pragma solidity ^0.4.18;\n\nimport \"zeppelin-solidity/contracts/ownership/Ownable.sol\";\n\ncontract Oracle is Ownable {\n\n  struct Callback {\n    address addr;\n    bytes4 fid;\n  }\n\n  uint256 private requestId;\n  mapping(uint256 => Callback) private callbacks;\n\n  event Request(\n    uint256 indexed id,\n    bytes32 indexed jobId,\n    string data\n  );\n\n  function requestData(\n    bytes32 _jobId,\n    address _callbackAddress,\n    bytes4 _callbackFID,\n    string _data\n  )\n    public\n    returns (uint256)\n  {\n    requestId += 1;\n    Callback memory cb = Callback(_callbackAddress, _callbackFID);\n    callbacks[requestId] = cb;\n    Request(requestId, _jobId, _data);\n    return requestId;\n  }\n\n  function fulfillData(uint256 _requestId, bytes32 _data)\n    public\n    onlyOwner\n    hasRequestId(_requestId)\n  {\n    Callback memory cb = callbacks[_requestId];\n    require(cb.addr.call(cb.fid, _requestId, _data));\n    delete callbacks[_requestId];\n  }\n\n  modifier hasRequestId(uint256 _requestId) {\n    require(callbacks[_requestId].addr != address(0));\n    _;\n  }\n}\n",
  "sourcePath": "/home/thomas/go/src/github.com/smartcontractkit/chainlink/examples/echo_server/node_modules/chainlink/solidity/contracts/Oracle.sol",
  "compiler": {
    "name": "solc",
    "version": "0.4.21+commit.dfe3193c.Emscripten.clang"
  },
  "schemaVersion": "2.0.0",
  "updatedAt": "2018-04-04T17:26:26.446Z"
}