{
  "contractName": "RunLog",
  "abi": [
    {
      "inputs": [
        {
          "name": "_oracle",
          "type": "address"
        }
      ],
      "payable": false,
      "stateMutability": "nonpayable",
      "type": "constructor"
    },
    {
      "constant": false,
      "inputs": [],
      "name": "request",
      "outputs": [],
      "payable": false,
      "stateMutability": "nonpayable",
      "type": "function"
    },
    {
      "constant": false,
      "inputs": [
        {
          "name": "_requestId",
          "type": "uint256"
        },
        {
          "name": "_data",
          "type": "bytes32"
        }
      ],
      "name": "fulfill",
      "outputs": [],
      "payable": false,
      "stateMutability": "nonpayable",
      "type": "function"
    }
  ],
  "bytecode": "0x6060604052341561000f57600080fd5b60405160208061045a833981016040528080519060200190919050506100478161004d6401000000000261034c176401000000009004565b50610090565b806000806101000a81548173ffffffffffffffffffffffffffffffffffffffff021916908373ffffffffffffffffffffffffffffffffffffffff16021790555050565b6103bb8061009f6000396000f30060606040526004361061004c576000357c0100000000000000000000000000000000000000000000000000000000900463ffffffff168063338cdca114610051578063944b8aa214610066575b600080fd5b341561005c57600080fd5b610064610096565b005b341561007157600080fd5b6100946004808035906020019091908035600019169060200190919050506102c7565b005b60006100a0610338565b60405180807f66756c66696c6c2875696e743235362c627974657333322900000000000000008152506018019050604051809103902091506040805190810160405280601981526020017f7b226d7367223a2268656c6c6f5f636861696e6c696e6b227d0000000000000081525090506000809054906101000a900473ffffffffffffffffffffffffffffffffffffffff1673ffffffffffffffffffffffffffffffffffffffff16637549a09e3084846040518463ffffffff167c010000000000000000000000000000000000000000000000000000000002815260040180807f4d595f4a4f425f494400000000000000000000000000000000000000000000008152506020018473ffffffffffffffffffffffffffffffffffffffff1673ffffffffffffffffffffffffffffffffffffffff168152602001837bffffffffffffffffffffffffffffffffffffffffffffffffffffffff19167bffffffffffffffffffffffffffffffffffffffffffffffffffffffff1916815260200180602001828103825283818151815260200191508051906020019080838360005b8381101561025957808201518184015260208101905061023e565b50505050905090810190601f1680156102865780820380516001836020036101000a031916815260200191505b50945050505050602060405180830381600087803b15156102a657600080fd5b5af115156102b357600080fd5b505050604051805190506001819055505050565b6000809054906101000a900473ffffffffffffffffffffffffffffffffffffffff1673ffffffffffffffffffffffffffffffffffffffff163373ffffffffffffffffffffffffffffffffffffffff1614151561032257600080fd5b818060015414151561033357600080fd5b505050565b602060405190810160405280600081525090565b806000806101000a81548173ffffffffffffffffffffffffffffffffffffffff021916908373ffffffffffffffffffffffffffffffffffffffff160217905550505600a165627a7a72305820927da195ea3b70fa0cfaaa681a624f5366345c7fbac4a83742f258e9d9021c7f0029",
  "source": "pragma solidity ^0.4.18;\n\nimport \"../node_modules/chainlink/solidity/contracts/Chainlinked.sol\";\n\ncontract RunLog is Chainlinked {\n  uint256 private requestId;\n\n  function RunLog(address _oracle) public {\n    setOracle(_oracle);\n  }\n\n  function request() public {\n    var fid = bytes4(keccak256(\"fulfill(uint256,bytes32)\"));\n    var data = '{\"msg\":\"hello_chainlink\"}';\n    requestId = oracle.requestData(\"MY_JOB_ID\", this, fid, data);\n  }\n\n  function fulfill(uint256 _requestId, bytes32 _data)\n    public\n    onlyOracle\n    checkRequestId(_requestId)\n  {\n  }\n\n  modifier checkRequestId(uint256 _requestId) {\n    require(requestId == _requestId);\n    _;\n  }\n}\n",
  "sourcePath": "/home/thomas/go/src/github.com/smartcontractkit/chainlink/examples/echo_server/contracts/RunLog.sol",
  "compiler": {
    "name": "solc",
    "version": "0.4.21+commit.dfe3193c.Emscripten.clang"
  },
  "schemaVersion": "2.0.0",
  "updatedAt": "2018-04-04T17:26:26.445Z"
}