{
  "contractName": "RunLog",
  "abi": [
    {
      "inputs": [
        {
          "name": "_oracle",
          "type": "address"
        }
      ],
      "payable": false,
      "stateMutability": "nonpayable",
      "type": "constructor"
    },
    {
      "constant": false,
      "inputs": [],
      "name": "request",
      "outputs": [],
      "payable": false,
      "stateMutability": "nonpayable",
      "type": "function"
    },
    {
      "constant": false,
      "inputs": [
        {
          "name": "_requestId",
          "type": "uint256"
        },
        {
          "name": "_data",
          "type": "bytes32"
        }
      ],
      "name": "fulfill",
      "outputs": [],
      "payable": false,
      "stateMutability": "nonpayable",
      "type": "function"
    }
  ],
  "bytecode": "0x6060604052341561000f57600080fd5b604051602080610467833981016040528080519060200190919050506100478161004d64010000000002610359176401000000009004565b50610090565b806000806101000a81548173ffffffffffffffffffffffffffffffffffffffff021916908373ffffffffffffffffffffffffffffffffffffffff16021790555050565b6103c88061009f6000396000f30060606040526004361061004c576000357c0100000000000000000000000000000000000000000000000000000000900463ffffffff168063338cdca114610051578063944b8aa214610066575b600080fd5b341561005c57600080fd5b610064610096565b005b341561007157600080fd5b6100946004808035906020019091908035600019169060200190919050506102d4565b005b60006100a0610345565b60405180807f66756c66696c6c2875696e743235362c627974657333322900000000000000008152506018019050604051809103902091506040805190810160405280601981526020017f7b226d7367223a2268656c6c6f5f636861696e6c696e6b227d0000000000000081525090506000809054906101000a900473ffffffffffffffffffffffffffffffffffffffff1673ffffffffffffffffffffffffffffffffffffffff16637549a09e3084846000604051602001526040518463ffffffff167c010000000000000000000000000000000000000000000000000000000002815260040180807f4d595f4a4f425f494400000000000000000000000000000000000000000000008152506020018473ffffffffffffffffffffffffffffffffffffffff1673ffffffffffffffffffffffffffffffffffffffff168152602001837bffffffffffffffffffffffffffffffffffffffffffffffffffffffff19167bffffffffffffffffffffffffffffffffffffffffffffffffffffffff1916815260200180602001828103825283818151815260200191508051906020019080838360005b83811015610262578082015181840152602081019050610247565b50505050905090810190601f16801561028f5780820380516001836020036101000a031916815260200191505b50945050505050602060405180830381600087803b15156102af57600080fd5b6102c65a03f115156102c057600080fd5b505050604051805190506001819055505050565b6000809054906101000a900473ffffffffffffffffffffffffffffffffffffffff1673ffffffffffffffffffffffffffffffffffffffff163373ffffffffffffffffffffffffffffffffffffffff1614151561032f57600080fd5b818060015414151561034057600080fd5b505050565b602060405190810160405280600081525090565b806000806101000a81548173ffffffffffffffffffffffffffffffffffffffff021916908373ffffffffffffffffffffffffffffffffffffffff160217905550505600a165627a7a723058209ca60d6cde9f8d3ba038960865981234f9c5702c40d6001a604dc2a8a0b71d910029",
  "source": "pragma solidity ^0.4.18;\n\nimport \"../../../Chainlinked.sol\";\n\ncontract RunLog is Chainlinked {\n  uint256 private requestId;\n\n  function RunLog(address _oracle) public {\n    setOracle(_oracle);\n  }\n\n  function request() public {\n    var fid = bytes4(keccak256(\"fulfill(uint256,bytes32)\"));\n    var data = '{\"msg\":\"hello_chainlink\"}';\n    requestId = oracle.requestData(\"MY_JOB_ID\", this, fid, data);\n  }\n\n  function fulfill(uint256 _requestId, bytes32 _data)\n    public\n    onlyOracle\n    checkRequestId(_requestId)\n  {\n  }\n\n  modifier checkRequestId(uint256 _requestId) {\n    require(requestId == _requestId);\n    _;\n  }\n}\n",
  "sourcePath": "/home/thomas/go/src/github.com/smartcontractkit/chainlink/solidity/contracts/examples/echo_server/contracts/RunLog.sol",
  "compiler": {
    "name": "solc",
    "version": "0.4.19+commit.c4cbbb05.Emscripten.clang"
  },
  "schemaVersion": "2.0.0",
  "updatedAt": "2018-04-03T19:26:35.392Z"
}