{
  "_format": "hh-sol-artifact-1",
  "contractName": "VRFCoordinatorMock",
  "sourceName": "src/v0.6/tests/VRFCoordinatorMock.sol",
  "abi": [
    {
      "inputs": [
        {
          "internalType": "address",
          "name": "linkAddress",
          "type": "address"
        }
      ],
      "stateMutability": "nonpayable",
      "type": "constructor"
    },
    {
      "anonymous": false,
      "inputs": [
        {
          "indexed": true,
          "internalType": "address",
          "name": "sender",
          "type": "address"
        },
        {
          "indexed": true,
          "internalType": "bytes32",
          "name": "keyHash",
          "type": "bytes32"
        },
        {
          "indexed": true,
          "internalType": "uint256",
          "name": "seed",
          "type": "uint256"
        }
      ],
      "name": "RandomnessRequest",
      "type": "event"
    },
    {
      "inputs": [],
      "name": "LINK",
      "outputs": [
        {
          "internalType": "contract LinkTokenInterface",
          "name": "",
          "type": "address"
        }
      ],
      "stateMutability": "view",
      "type": "function"
    },
    {
      "inputs": [
        {
          "internalType": "bytes32",
          "name": "requestId",
          "type": "bytes32"
        },
        {
          "internalType": "uint256",
          "name": "randomness",
          "type": "uint256"
        },
        {
          "internalType": "address",
          "name": "consumerContract",
          "type": "address"
        }
      ],
      "name": "callBackWithRandomness",
      "outputs": [],
      "stateMutability": "nonpayable",
      "type": "function"
    },
    {
      "inputs": [
        {
          "internalType": "address",
          "name": "sender",
          "type": "address"
        },
        {
          "internalType": "uint256",
          "name": "fee",
          "type": "uint256"
        },
        {
          "internalType": "bytes",
          "name": "_data",
          "type": "bytes"
        }
      ],
      "name": "onTokenTransfer",
      "outputs": [],
      "stateMutability": "nonpayable",
      "type": "function"
    }
  ],
  "bytecode": "0x608060405234801561001057600080fd5b506040516104c33803806104c38339818101604052602081101561003357600080fd5b5051600080546001600160a01b039092166001600160a01b031990921691909117905561045e806100656000396000f3fe608060405234801561001057600080fd5b50600436106100415760003560e01c80631b6b6d2314610046578063a4c0ed3614610077578063cf55fe9714610141575b600080fd5b61004e610180565b6040805173ffffffffffffffffffffffffffffffffffffffff9092168252519081900360200190f35b61013f6004803603606081101561008d57600080fd5b73ffffffffffffffffffffffffffffffffffffffff823516916020810135918101906060810160408201356401000000008111156100ca57600080fd5b8201836020820111156100dc57600080fd5b803590602001918460018302840111640100000000831117156100fe57600080fd5b91908080601f01602080910402602001604051908101604052809392919081815260200183838082843760009201919091525092955061019c945050505050565b005b61013f6004803603606081101561015757600080fd5b508035906020810135906040013573ffffffffffffffffffffffffffffffffffffffff16610294565b60005473ffffffffffffffffffffffffffffffffffffffff1681565b60005473ffffffffffffffffffffffffffffffffffffffff16331461022257604080517f08c379a000000000000000000000000000000000000000000000000000000000815260206004820152601360248201527f4d75737420757365204c494e4b20746f6b656e00000000000000000000000000604482015290519081900360640190fd5b60008082806020019051604081101561023a57600080fd5b50805160209091015160405191935091508190839073ffffffffffffffffffffffffffffffffffffffff8816907f7a9a0a6960d95b32cded93c30e63e7c2eb9e877230813c172110ea54dc1c915c90600090a45050505050565b604080516024810185905260448082018590528251808303909101815260649091019091526020810180517bffffffffffffffffffffffffffffffffffffffffffffffffffffffff167f94985ddd00000000000000000000000000000000000000000000000000000000179052600090620324b0805a101561037757604080517f08c379a000000000000000000000000000000000000000000000000000000000815260206004820152601b60248201527f6e6f7420656e6f7567682067617320666f7220636f6e73756d65720000000000604482015290519081900360640190fd5b60008473ffffffffffffffffffffffffffffffffffffffff16836040518082805190602001908083835b602083106103de57805182527fffffffffffffffffffffffffffffffffffffffffffffffffffffffffffffffe090920191602091820191016103a1565b6001836020036101000a0380198251168184511680821785525050505050509050019150506000604051808303816000865af19150503d8060008114610440576040519150601f19603f3d011682016040523d82523d6000602084013e610445565b606091505b5050505050505050505056fea164736f6c6343000606000a",
  "linkReferences": {},
  "deployedLinkReferences": {}
}