{
  "_format": "hh-sol-artifact-1",
  "contractName": "VRFTestHelper",
  "sourceName": "src/v0.8/tests/VRFTestHelper.sol",
  "abi": [
    {
      "inputs": [
        {
          "internalType": "uint256[2]",
          "name": "p1",
          "type": "uint256[2]"
        },
        {
          "internalType": "uint256[2]",
          "name": "p2",
          "type": "uint256[2]"
        },
        {
          "internalType": "uint256",
          "name": "invZ",
          "type": "uint256"
        }
      ],
      "name": "affineECAdd_",
      "outputs": [
        {
          "internalType": "uint256[2]",
          "name": "",
          "type": "uint256[2]"
        }
      ],
      "stateMutability": "pure",
      "type": "function"
    },
    {
      "inputs": [
        {
          "internalType": "uint256",
          "name": "base",
          "type": "uint256"
        },
        {
          "internalType": "uint256",
          "name": "exponent",
          "type": "uint256"
        }
      ],
      "name": "bigModExp_",
      "outputs": [
        {
          "internalType": "uint256",
          "name": "",
          "type": "uint256"
        }
      ],
      "stateMutability": "view",
      "type": "function"
    },
    {
      "inputs": [
        {
          "internalType": "uint256[2]",
          "name": "x",
          "type": "uint256[2]"
        },
        {
          "internalType": "uint256",
          "name": "scalar",
          "type": "uint256"
        },
        {
          "internalType": "uint256[2]",
          "name": "q",
          "type": "uint256[2]"
        }
      ],
      "name": "ecmulVerify_",
      "outputs": [
        {
          "internalType": "bool",
          "name": "",
          "type": "bool"
        }
      ],
      "stateMutability": "pure",
      "type": "function"
    },
    {
      "inputs": [
        {
          "internalType": "bytes",
          "name": "b",
          "type": "bytes"
        }
      ],
      "name": "fieldHash_",
      "outputs": [
        {
          "internalType": "uint256",
          "name": "",
          "type": "uint256"
        }
      ],
      "stateMutability": "pure",
      "type": "function"
    },
    {
      "inputs": [
        {
          "internalType": "uint256[2]",
          "name": "pk",
          "type": "uint256[2]"
        },
        {
          "internalType": "uint256",
          "name": "x",
          "type": "uint256"
        }
      ],
      "name": "hashToCurve_",
      "outputs": [
        {
          "internalType": "uint256[2]",
          "name": "",
          "type": "uint256[2]"
        }
      ],
      "stateMutability": "view",
      "type": "function"
    },
    {
      "inputs": [
        {
          "internalType": "uint256[2]",
          "name": "p",
          "type": "uint256[2]"
        }
      ],
      "name": "isOnCurve_",
      "outputs": [
        {
          "internalType": "bool",
          "name": "",
          "type": "bool"
        }
      ],
      "stateMutability": "pure",
      "type": "function"
    },
    {
      "inputs": [
        {
          "internalType": "uint256",
          "name": "c",
          "type": "uint256"
        },
        {
          "internalType": "uint256[2]",
          "name": "p1",
          "type": "uint256[2]"
        },
        {
          "internalType": "uint256[2]",
          "name": "cp1Witness",
          "type": "uint256[2]"
        },
        {
          "internalType": "uint256",
          "name": "s",
          "type": "uint256"
        },
        {
          "internalType": "uint256[2]",
          "name": "p2",
          "type": "uint256[2]"
        },
        {
          "internalType": "uint256[2]",
          "name": "sp2Witness",
          "type": "uint256[2]"
        },
        {
          "internalType": "uint256",
          "name": "zInv",
          "type": "uint256"
        }
      ],
      "name": "linearCombination_",
      "outputs": [
        {
          "internalType": "uint256[2]",
          "name": "",
          "type": "uint256[2]"
        }
      ],
      "stateMutability": "pure",
      "type": "function"
    },
    {
      "inputs": [
        {
          "internalType": "uint256",
          "name": "px",
          "type": "uint256"
        },
        {
          "internalType": "uint256",
          "name": "py",
          "type": "uint256"
        },
        {
          "internalType": "uint256",
          "name": "qx",
          "type": "uint256"
        },
        {
          "internalType": "uint256",
          "name": "qy",
          "type": "uint256"
        }
      ],
      "name": "projectiveECAdd_",
      "outputs": [
        {
          "internalType": "uint256",
          "name": "",
          "type": "uint256"
        },
        {
          "internalType": "uint256",
          "name": "",
          "type": "uint256"
        },
        {
          "internalType": "uint256",
          "name": "",
          "type": "uint256"
        }
      ],
      "stateMutability": "pure",
      "type": "function"
    },
    {
      "inputs": [
        {
          "components": [
            {
              "internalType": "uint256[2]",
              "name": "pk",
              "type": "uint256[2]"
            },
            {
              "internalType": "uint256[2]",
              "name": "gamma",
              "type": "uint256[2]"
            },
            {
              "internalType": "uint256",
              "name": "c",
              "type": "uint256"
            },
            {
              "internalType": "uint256",
              "name": "s",
              "type": "uint256"
            },
            {
              "internalType": "uint256",
              "name": "seed",
              "type": "uint256"
            },
            {
              "internalType": "address",
              "name": "uWitness",
              "type": "address"
            },
            {
              "internalType": "uint256[2]",
              "name": "cGammaWitness",
              "type": "uint256[2]"
            },
            {
              "internalType": "uint256[2]",
              "name": "sHashWitness",
              "type": "uint256[2]"
            },
            {
              "internalType": "uint256",
              "name": "zInv",
              "type": "uint256"
            }
          ],
          "internalType": "struct VRF.Proof",
          "name": "proof",
          "type": "tuple"
        },
        {
          "internalType": "uint256",
          "name": "seed",
          "type": "uint256"
        }
      ],
      "name": "randomValueFromVRFProof_",
      "outputs": [
        {
          "internalType": "uint256",
          "name": "output",
          "type": "uint256"
        }
      ],
      "stateMutability": "view",
      "type": "function"
    },
    {
      "inputs": [
        {
          "internalType": "uint256[2]",
          "name": "hash",
          "type": "uint256[2]"
        },
        {
          "internalType": "uint256[2]",
          "name": "pk",
          "type": "uint256[2]"
        },
        {
          "internalType": "uint256[2]",
          "name": "gamma",
          "type": "uint256[2]"
        },
        {
          "internalType": "address",
          "name": "uWitness",
          "type": "address"
        },
        {
          "internalType": "uint256[2]",
          "name": "v",
          "type": "uint256[2]"
        }
      ],
      "name": "scalarFromCurvePoints_",
      "outputs": [
        {
          "internalType": "uint256",
          "name": "",
          "type": "uint256"
        }
      ],
      "stateMutability": "pure",
      "type": "function"
    },
    {
      "inputs": [
        {
          "internalType": "uint256",
          "name": "x",
          "type": "uint256"
        }
      ],
      "name": "squareRoot_",
      "outputs": [
        {
          "internalType": "uint256",
          "name": "",
          "type": "uint256"
        }
      ],
      "stateMutability": "view",
      "type": "function"
    },
    {
      "inputs": [
        {
          "internalType": "uint256",
          "name": "c",
          "type": "uint256"
        },
        {
          "internalType": "uint256[2]",
          "name": "p",
          "type": "uint256[2]"
        },
        {
          "internalType": "uint256",
          "name": "s",
          "type": "uint256"
        },
        {
          "internalType": "address",
          "name": "lcWitness",
          "type": "address"
        }
      ],
      "name": "verifyLinearCombinationWithGenerator_",
      "outputs": [
        {
          "internalType": "bool",
          "name": "",
          "type": "bool"
        }
      ],
      "stateMutability": "pure",
      "type": "function"
    },
    {
      "inputs": [
        {
          "internalType": "uint256[2]",
          "name": "pk",
          "type": "uint256[2]"
        },
        {
          "internalType": "uint256[2]",
          "name": "gamma",
          "type": "uint256[2]"
        },
        {
          "internalType": "uint256",
          "name": "c",
          "type": "uint256"
        },
        {
          "internalType": "uint256",
          "name": "s",
          "type": "uint256"
        },
        {
          "internalType": "uint256",
          "name": "seed",
          "type": "uint256"
        },
        {
          "internalType": "address",
          "name": "uWitness",
          "type": "address"
        },
        {
          "internalType": "uint256[2]",
          "name": "cGammaWitness",
          "type": "uint256[2]"
        },
        {
          "internalType": "uint256[2]",
          "name": "sHashWitness",
          "type": "uint256[2]"
        },
        {
          "internalType": "uint256",
          "name": "zInv",
          "type": "uint256"
        }
      ],
      "name": "verifyVRFProof_",
      "outputs": [],
      "stateMutability": "view",
      "type": "function"
    },
    {
      "inputs": [
        {
          "internalType": "uint256",
          "name": "x",
          "type": "uint256"
        }
      ],
      "name": "ySquared_",
      "outputs": [
        {
          "internalType": "uint256",
          "name": "",
          "type": "uint256"
        }
      ],
      "stateMutability": "pure",
      "type": "function"
    }
  ],
  "bytecode": "0x608060405234801561001057600080fd5b50611b30806100206000396000f3fe608060405234801561001057600080fd5b50600436106100ea5760003560e01c80639d6f03371161008c578063b481e26011610066578063b481e260146101fc578063ef3b10ec1461020f578063fd7e4af914610224578063fe54f2a21461023757600080fd5b80639d6f0337146101c3578063a5e9508f146101d6578063aa7b2fbb146101e957600080fd5b80637f8f50a8116100c85780637f8f50a81461014c5780638af046ea1461015f57806391d5f6911461017257806395e6ee921461019557600080fd5b8063244f896d146100ef57806335452450146101185780635de600421461012b575b600080fd5b6101026100fd366004611545565b61024a565b60405161010f91906119ff565b60405180910390f35b610102610126366004611615565b610267565b61013e6101393660046118dd565b610282565b60405190815260200161010f565b61013e61015a3660046114db565b61028e565b61013e61016d366004611805565b6102a7565b610185610180366004611896565b6102b2565b604051901515815260200161010f565b6101a86101a33660046118ff565b6102c9565b6040805193845260208401929092529082015260600161010f565b61013e6101d1366004611805565b6102ea565b61013e6101e436600461174d565b6102f5565b6101856101f7366004611640565b610301565b61013e61020a36600461167e565b61030e565b61022261021d366004611583565b610319565b005b6101856102323660046114bf565b610335565b61010261024536600461181e565b610340565b6102526113c9565b61025d848484610363565b90505b9392505050565b61026f6113c9565b6102798383610497565b90505b92915050565b600061027983836104fb565b600061029d86868686866105ef565b9695505050505050565b600061027c8261064d565b60006102c085858585610687565b95945050505050565b60008060006102da8787878761082a565b9250925092509450945094915050565b600061027c826109c0565b60006102798383610a18565b600061025d848484610aa1565b600061027c82610c2e565b61032a898989898989898989610c88565b505050505050505050565b600061027c82610f5f565b6103486113c9565b610357888888888888886110ba565b98975050505050505050565b61036b6113c9565b83516020808601518551918601516000938493849361038c9390919061082a565b919450925090507ffffffffffffffffffffffffffffffffffffffffffffffffffffffffefffffc2f858209600114610425576040517f08c379a000000000000000000000000000000000000000000000000000000000815260206004820152601960248201527f696e765a206d75737420626520696e7665727365206f66207a0000000000000060448201526064015b60405180910390fd5b60405180604001604052807ffffffffffffffffffffffffffffffffffffffffffffffffffffffffefffffc2f8061045e5761045e611ac5565b87860981526020017ffffffffffffffffffffffffffffffffffffffffffffffffffffffffefffffc2f8785099052979650505050505050565b61049f6113c9565b6104cc600184846040516020016104b8939291906119de565b60405160208183030381529060405261123e565b90505b6104d881610f5f565b61027c5780516040805160208101929092526104f491016104b8565b90506104cf565b6000806105066113e7565b6020808252818101819052604082015260608101859052608081018490527ffffffffffffffffffffffffffffffffffffffffffffffffffffffffefffffc2f60a0820152610552611405565b60208160c08460057ffffffffffffffffffffffffffffffffffffffffffffffffffffffffffffffffffa9250826105e5576040517f08c379a000000000000000000000000000000000000000000000000000000000815260206004820152601260248201527f6269674d6f64457870206661696c757265210000000000000000000000000000604482015260640161041c565b5195945050505050565b60006002868686858760405160200161060d9695949392919061196c565b604080517fffffffffffffffffffffffffffffffffffffffffffffffffffffffffffffffe081840301815291905280516020909101209695505050505050565b600061027c8260026106807ffffffffffffffffffffffffffffffffffffffffffffffffffffffffefffffc2f6001611a4b565b901c6104fb565b600073ffffffffffffffffffffffffffffffffffffffff8216610706576040517f08c379a000000000000000000000000000000000000000000000000000000000815260206004820152600b60248201527f626164207769746e657373000000000000000000000000000000000000000000604482015260640161041c565b60208401516000906001161561071d57601c610720565b601b5b905060007ffffffffffffffffffffffffffffffffebaaedce6af48a03bbfd25e8cd03641418587600060200201510986517ffffffffffffffffffffffffffffffffebaaedce6af48a03bbfd25e8cd0364141918203925060009190890987516040805160008082526020820180845287905260ff88169282019290925260608101929092526080820183905291925060019060a0016020604051602081039080840390855afa1580156107d7573d6000803e3d6000fd5b50506040517fffffffffffffffffffffffffffffffffffffffffffffffffffffffffffffffe0015173ffffffffffffffffffffffffffffffffffffffff9081169088161495505050505050949350505050565b60008080600180827ffffffffffffffffffffffffffffffffffffffffffffffffffffffffefffffc2f897ffffffffffffffffffffffffffffffffffffffffffffffffffffffffefffffc2f038808905060007ffffffffffffffffffffffffffffffffffffffffffffffffffffffffefffffc2f8b7ffffffffffffffffffffffffffffffffffffffffffffffffffffffffefffffc2f038a08905060006108d2838385856112a6565b90985090506108e388828e886112fe565b90985090506108f488828c876112fe565b909850905060006109078d878b856112fe565b9098509050610918888286866112a6565b909850905061092988828e896112fe565b90985090508181146109ac577ffffffffffffffffffffffffffffffffffffffffffffffffffffffffefffffc2f818a0998507ffffffffffffffffffffffffffffffffffffffffffffffffffffffffefffffc2f82890997507ffffffffffffffffffffffffffffffffffffffffffffffffffffffffefffffc2f81830996506109b0565b8196505b5050505050509450945094915050565b6000807ffffffffffffffffffffffffffffffffffffffffffffffffffffffffefffffc2f80848509840990507ffffffffffffffffffffffffffffffffffffffffffffffffffffffffefffffc2f600782089392505050565b6000610a4c8360000151846020015185604001518660600151868860a001518960c001518a60e001518b6101000151610c88565b60038360200151604051602001610a64929190611a0d565b604080517fffffffffffffffffffffffffffffffffffffffffffffffffffffffffffffffe081840301815291905280516020909101209392505050565b600082610b0a576040517f08c379a000000000000000000000000000000000000000000000000000000000815260206004820152600b60248201527f7a65726f207363616c6172000000000000000000000000000000000000000000604482015260640161041c565b83516020850151600090610b2090600290611a8a565b15610b2c57601c610b2f565b601b5b905060007ffffffffffffffffffffffffffffffffebaaedce6af48a03bbfd25e8cd03641418387096040805160008082526020820180845281905260ff86169282019290925260608101869052608081018390529192509060019060a0016020604051602081039080840390855afa158015610baf573d6000803e3d6000fd5b505050602060405103519050600086604051602001610bce919061195a565b604080517fffffffffffffffffffffffffffffffffffffffffffffffffffffffffffffffe0818403018152919052805160209091012073ffffffffffffffffffffffffffffffffffffffff92831692169190911498975050505050505050565b805160208201205b7ffffffffffffffffffffffffffffffffffffffffffffffffffffffffefffffc2f8110610c8357604080516020808201939093528151808203840181529082019091528051910120610c36565b919050565b610c9189610f5f565b610cf7576040517f08c379a000000000000000000000000000000000000000000000000000000000815260206004820152601a60248201527f7075626c6963206b6579206973206e6f74206f6e206375727665000000000000604482015260640161041c565b610d0088610f5f565b610d66576040517f08c379a000000000000000000000000000000000000000000000000000000000815260206004820152601560248201527f67616d6d61206973206e6f74206f6e2063757276650000000000000000000000604482015260640161041c565b610d6f83610f5f565b610dd5576040517f08c379a000000000000000000000000000000000000000000000000000000000815260206004820152601d60248201527f6347616d6d615769746e657373206973206e6f74206f6e206375727665000000604482015260640161041c565b610dde82610f5f565b610e44576040517f08c379a000000000000000000000000000000000000000000000000000000000815260206004820152601c60248201527f73486173685769746e657373206973206e6f74206f6e20637572766500000000604482015260640161041c565b610e50878a8887610687565b610eb6576040517f08c379a000000000000000000000000000000000000000000000000000000000815260206004820152601960248201527f6164647228632a706b2b732a6729213d5f755769746e65737300000000000000604482015260640161041c565b6000610ec28a87610497565b90506000610ed5898b878b8689896110ba565b90506000610ee6838d8d8a866105ef565b9050808a14610f51576040517f08c379a000000000000000000000000000000000000000000000000000000000815260206004820152600d60248201527f696e76616c69642070726f6f6600000000000000000000000000000000000000604482015260640161041c565b505050505050505050505050565b80516000907ffffffffffffffffffffffffffffffffffffffffffffffffffffffffefffffc2f11610fec576040517f08c379a000000000000000000000000000000000000000000000000000000000815260206004820152601260248201527f696e76616c696420782d6f7264696e6174650000000000000000000000000000604482015260640161041c565b60208201517ffffffffffffffffffffffffffffffffffffffffffffffffffffffffefffffc2f11611079576040517f08c379a000000000000000000000000000000000000000000000000000000000815260206004820152601260248201527f696e76616c696420792d6f7264696e6174650000000000000000000000000000604482015260640161041c565b60208201517ffffffffffffffffffffffffffffffffffffffffffffffffffffffffefffffc2f9080096110b38360005b60200201516109c0565b1492915050565b6110c26113c9565b825186517ffffffffffffffffffffffffffffffffffffffffffffffffffffffffefffffc2f91900306611151576040517f08c379a000000000000000000000000000000000000000000000000000000000815260206004820152601e60248201527f706f696e747320696e2073756d206d7573742062652064697374696e63740000604482015260640161041c565b61115c878988610aa1565b6111c2576040517f08c379a000000000000000000000000000000000000000000000000000000000815260206004820152601660248201527f4669727374206d756c20636865636b206661696c656400000000000000000000604482015260640161041c565b6111cd848685610aa1565b611233576040517f08c379a000000000000000000000000000000000000000000000000000000000815260206004820152601760248201527f5365636f6e64206d756c20636865636b206661696c6564000000000000000000604482015260640161041c565b610357868484610363565b6112466113c9565b61124f82610c2e565b815261126461125f8260006110a9565b61064d565b602082018190526002900660011415610c83576020810180517ffffffffffffffffffffffffffffffffffffffffffffffffffffffffefffffc2f039052919050565b6000807ffffffffffffffffffffffffffffffffffffffffffffffffffffffffefffffc2f8487097ffffffffffffffffffffffffffffffffffffffffffffffffffffffffefffffc2f8487099097909650945050505050565b600080807ffffffffffffffffffffffffffffffffffffffffffffffffffffffffefffffc2f878509905060007ffffffffffffffffffffffffffffffffffffffffffffffffffffffffefffffc2f87877ffffffffffffffffffffffffffffffffffffffffffffffffffffffffefffffc2f030990507ffffffffffffffffffffffffffffffffffffffffffffffffffffffffefffffc2f8183087ffffffffffffffffffffffffffffffffffffffffffffffffffffffffefffffc2f86890990999098509650505050505050565b60405180604001604052806002906020820280368337509192915050565b6040518060c001604052806006906020820280368337509192915050565b60405180602001604052806001906020820280368337509192915050565b803573ffffffffffffffffffffffffffffffffffffffff81168114610c8357600080fd5b600082601f83011261145857600080fd5b6040516040810181811067ffffffffffffffff8211171561147b5761147b611af4565b806040525080838560408601111561149257600080fd5b60005b60028110156114b4578135835260209283019290910190600101611495565b509195945050505050565b6000604082840312156114d157600080fd5b6102798383611447565b600080600080600061012086880312156114f457600080fd5b6114fe8787611447565b945061150d8760408801611447565b935061151c8760808801611447565b925061152a60c08701611423565b91506115398760e08801611447565b90509295509295909350565b600080600060a0848603121561155a57600080fd5b6115648585611447565b92506115738560408601611447565b9150608084013590509250925092565b60008060008060008060008060006101a08a8c0312156115a257600080fd5b6115ac8b8b611447565b98506115bb8b60408c01611447565b975060808a0135965060a08a0135955060c08a013594506115de60e08b01611423565b93506115ee8b6101008c01611447565b92506115fe8b6101408c01611447565b91506101808a013590509295985092959850929598565b6000806060838503121561162857600080fd5b6116328484611447565b946040939093013593505050565b600080600060a0848603121561165557600080fd5b61165f8585611447565b9250604084013591506116758560608601611447565b90509250925092565b60006020828403121561169057600080fd5b813567ffffffffffffffff808211156116a857600080fd5b818401915084601f8301126116bc57600080fd5b8135818111156116ce576116ce611af4565b604051601f82017fffffffffffffffffffffffffffffffffffffffffffffffffffffffffffffffe0908116603f0116810190838211818310171561171457611714611af4565b8160405282815287602084870101111561172d57600080fd5b826020860160208301376000928101602001929092525095945050505050565b6000808284036101c081121561176257600080fd5b6101a08082121561177257600080fd5b61177a611a21565b91506117868686611447565b82526117958660408701611447565b60208301526080850135604083015260a0850135606083015260c085013560808301526117c460e08601611423565b60a08301526101006117d887828801611447565b60c08401526117eb876101408801611447565b60e084015261018086013590830152909593013593505050565b60006020828403121561181757600080fd5b5035919050565b6000806000806000806000610160888a03121561183a57600080fd5b8735965061184b8960208a01611447565b955061185a8960608a01611447565b945060a088013593506118708960c08a01611447565b9250611880896101008a01611447565b9150610140880135905092959891949750929550565b60008060008060a085870312156118ac57600080fd5b843593506118bd8660208701611447565b9250606085013591506118d260808601611423565b905092959194509250565b600080604083850312156118f057600080fd5b50508035926020909101359150565b6000806000806080858703121561191557600080fd5b5050823594602084013594506040840135936060013592509050565b8060005b6002811015611954578151845260209384019390910190600101611935565b50505050565b6119648183611931565b604001919050565b86815261197c6020820187611931565b6119896060820186611931565b61199660a0820185611931565b6119a360e0820184611931565b60609190911b7fffffffffffffffffffffffffffffffffffffffff000000000000000000000000166101208201526101340195945050505050565b8381526119ee6020820184611931565b606081019190915260800192915050565b6040810161027c8284611931565b828152606081016102606020830184611931565b604051610120810167ffffffffffffffff81118282101715611a4557611a45611af4565b60405290565b60008219821115611a85577f4e487b7100000000000000000000000000000000000000000000000000000000600052601160045260246000fd5b500190565b600082611ac0577f4e487b7100000000000000000000000000000000000000000000000000000000600052601260045260246000fd5b500690565b7f4e487b7100000000000000000000000000000000000000000000000000000000600052601260045260246000fd5b7f4e487b7100000000000000000000000000000000000000000000000000000000600052604160045260246000fdfea164736f6c6343000806000a",
  "linkReferences": {},
  "deployedLinkReferences": {}
}