{
  "_format": "hh-sol-artifact-1",
  "contractName": "VRF",
  "sourceName": "src/v0.6/VRF.sol",
  "abi": [
    {
      "inputs": [],
      "name": "PROOF_LENGTH",
      "outputs": [
        {
          "internalType": "uint256",
          "name": "",
          "type": "uint256"
        }
      ],
      "stateMutability": "view",
      "type": "function"
    }
  ],
  "bytecode": "0x6080604052348015600f57600080fd5b5060588061001e6000396000f3fe6080604052348015600f57600080fd5b506004361060285760003560e01c8063e911439c14602d575b600080fd5b60336045565b60408051918252519081900360200190f35b6101a08156fea164736f6c6343000606000a",
  "deployedBytecode": "0x6080604052348015600f57600080fd5b506004361060285760003560e01c8063e911439c14602d575b600080fd5b60336045565b60408051918252519081900360200190f35b6101a08156fea164736f6c6343000606000a",
  "linkReferences": {},
  "deployedLinkReferences": {}
}