{
  "_format": "hh-sol-artifact-1",
  "contractName": "BasicConsumer",
  "sourceName": "src/v0.6/tests/BasicConsumer.sol",
  "abi": [
    {
      "inputs": [
        {
          "internalType": "address",
          "name": "_link",
          "type": "address"
        },
        {
          "internalType": "address",
          "name": "_oracle",
          "type": "address"
        },
        {
          "internalType": "bytes32",
          "name": "_specId",
          "type": "bytes32"
        }
      ],
      "stateMutability": "nonpayable",
      "type": "constructor"
    },
    {
      "anonymous": false,
      "inputs": [
        {
          "indexed": true,
          "internalType": "bytes32",
          "name": "id",
          "type": "bytes32"
        }
      ],
      "name": "ChainlinkCancelled",
      "type": "event"
    },
    {
      "anonymous": false,
      "inputs": [
        {
          "indexed": true,
          "internalType": "bytes32",
          "name": "id",
          "type": "bytes32"
        }
      ],
      "name": "ChainlinkFulfilled",
      "type": "event"
    },
    {
      "anonymous": false,
      "inputs": [
        {
          "indexed": true,
          "internalType": "bytes32",
          "name": "id",
          "type": "bytes32"
        }
      ],
      "name": "ChainlinkRequested",
      "type": "event"
    },
    {
      "anonymous": false,
      "inputs": [
        {
          "indexed": true,
          "internalType": "bytes32",
          "name": "requestId",
          "type": "bytes32"
        },
        {
          "indexed": true,
          "internalType": "bytes32",
          "name": "price",
          "type": "bytes32"
        }
      ],
      "name": "RequestFulfilled",
      "type": "event"
    },
    {
      "inputs": [
        {
          "internalType": "address",
          "name": "_oracle",
          "type": "address"
        },
        {
          "internalType": "bytes32",
          "name": "_requestId",
          "type": "bytes32"
        }
      ],
      "name": "addExternalRequest",
      "outputs": [],
      "stateMutability": "nonpayable",
      "type": "function"
    },
    {
      "inputs": [
        {
          "internalType": "address",
          "name": "_oracle",
          "type": "address"
        },
        {
          "internalType": "bytes32",
          "name": "_requestId",
          "type": "bytes32"
        },
        {
          "internalType": "uint256",
          "name": "_payment",
          "type": "uint256"
        },
        {
          "internalType": "bytes4",
          "name": "_callbackFunctionId",
          "type": "bytes4"
        },
        {
          "internalType": "uint256",
          "name": "_expiration",
          "type": "uint256"
        }
      ],
      "name": "cancelRequest",
      "outputs": [],
      "stateMutability": "nonpayable",
      "type": "function"
    },
    {
      "inputs": [],
      "name": "currentPrice",
      "outputs": [
        {
          "internalType": "bytes32",
          "name": "",
          "type": "bytes32"
        }
      ],
      "stateMutability": "view",
      "type": "function"
    },
    {
      "inputs": [
        {
          "internalType": "bytes32",
          "name": "_requestId",
          "type": "bytes32"
        },
        {
          "internalType": "bytes32",
          "name": "_price",
          "type": "bytes32"
        }
      ],
      "name": "fulfill",
      "outputs": [],
      "stateMutability": "nonpayable",
      "type": "function"
    },
    {
      "inputs": [
        {
          "internalType": "string",
          "name": "_currency",
          "type": "string"
        },
        {
          "internalType": "uint256",
          "name": "_payment",
          "type": "uint256"
        }
      ],
      "name": "requestEthereumPrice",
      "outputs": [],
      "stateMutability": "nonpayable",
      "type": "function"
    },
    {
      "inputs": [
        {
          "internalType": "string",
          "name": "_currency",
          "type": "string"
        },
        {
          "internalType": "uint256",
          "name": "_payment",
          "type": "uint256"
        },
        {
          "internalType": "address",
          "name": "_callback",
          "type": "address"
        }
      ],
      "name": "requestEthereumPriceByCallback",
      "outputs": [],
      "stateMutability": "nonpayable",
      "type": "function"
    },
    {
      "inputs": [],
      "name": "withdrawLink",
      "outputs": [],
      "stateMutability": "nonpayable",
      "type": "function"
    }
  ],
  "bytecode": "0x6080604052600160045534801561001557600080fd5b506040516113a93803806113a98339818101604052606081101561003857600080fd5b508051602082015160409092015190919061005b836001600160e01b0361007816565b61006d826001600160e01b0361009a16565b600655506100bc9050565b600280546001600160a01b0319166001600160a01b0392909216919091179055565b600380546001600160a01b0319166001600160a01b0392909216919091179055565b6112de806100cb6000396000f3fe608060405234801561001057600080fd5b506004361061007d5760003560e01c806383db5cbc1161005b57806383db5cbc146101d55780638dc654a21461027d5780639d1b464a14610285578063e8d5359d1461029f5761007d565b8063042f2b65146100825780635591a608146100a757806374961d4d14610114575b600080fd5b6100a56004803603604081101561009857600080fd5b50803590602001356102d8565b005b6100a5600480360360a08110156100bd57600080fd5b5073ffffffffffffffffffffffffffffffffffffffff813516906020810135906040810135907fffffffff0000000000000000000000000000000000000000000000000000000060608201351690608001356103e5565b6100a56004803603606081101561012a57600080fd5b81019060208101813564010000000081111561014557600080fd5b82018360208201111561015757600080fd5b8035906020019184600183028401116401000000008311171561017957600080fd5b91908080601f016020809104026020016040519081016040528093929190818152602001838380828437600092019190915250929550508235935050506020013573ffffffffffffffffffffffffffffffffffffffff166104ac565b6100a5600480360360408110156101eb57600080fd5b81019060208101813564010000000081111561020657600080fd5b82018360208201111561021857600080fd5b8035906020019184600183028401116401000000008311171561023a57600080fd5b91908080601f01602080910402602001604051908101604052809392919081815260200183838082843760009201919091525092955050913592506105e7915050565b6100a56105f6565b61028d6107b3565b60408051918252519081900360200190f35b6100a5600480360360408110156102b557600080fd5b5073ffffffffffffffffffffffffffffffffffffffff81351690602001356107b9565b600082815260056020526040902054829073ffffffffffffffffffffffffffffffffffffffff163314610356576040517f08c379a00000000000000000000000000000000000000000000000000000000081526004018080602001828103825260288152602001806112636028913960400191505060405180910390fd5b60008181526005602052604080822080547fffffffffffffffffffffffff00000000000000000000000000000000000000001690555182917f7cc135e0cebb02c3480ae5d74d377283180a2601f8f644edf7987b009316c63a91a2604051829084907f0c2366233f634048c0f0458060d1228fab36d00f7c0ecf6bdf2d9c458503631190600090a35060075550565b604080517f6ee4d55300000000000000000000000000000000000000000000000000000000815260048101869052602481018590527fffffffff0000000000000000000000000000000000000000000000000000000084166044820152606481018390529051869173ffffffffffffffffffffffffffffffffffffffff831691636ee4d5539160848082019260009290919082900301818387803b15801561048c57600080fd5b505af11580156104a0573d6000803e3d6000fd5b50505050505050505050565b6104b46111f0565b6006546104e290837f042f2b65000000000000000000000000000000000000000000000000000000006107c3565b90506105446040518060400160405280600381526020017f676574000000000000000000000000000000000000000000000000000000000081525060405180608001604052806047815260200161128b6047913983919063ffffffff6107ee16565b604080516001808252818301909252606091816020015b606081526020019060019003908161055b579050509050848160008151811061058057fe5b60200260200101819052506105d56040518060400160405280600481526020017f7061746800000000000000000000000000000000000000000000000000000000815250828461081d9092919063ffffffff16565b6105df828561088b565b505050505050565b6105f28282306104ac565b5050565b60006106006108bb565b604080517f70a08231000000000000000000000000000000000000000000000000000000008152306004820152905191925073ffffffffffffffffffffffffffffffffffffffff83169163a9059cbb91339184916370a08231916024808301926020929190829003018186803b15801561067957600080fd5b505afa15801561068d573d6000803e3d6000fd5b505050506040513d60208110156106a357600080fd5b5051604080517fffffffff0000000000000000000000000000000000000000000000000000000060e086901b16815273ffffffffffffffffffffffffffffffffffffffff909316600484015260248301919091525160448083019260209291908290030181600087803b15801561071957600080fd5b505af115801561072d573d6000803e3d6000fd5b505050506040513d602081101561074357600080fd5b50516107b057604080517f08c379a000000000000000000000000000000000000000000000000000000000815260206004820152601260248201527f556e61626c6520746f207472616e736665720000000000000000000000000000604482015290519081900360640190fd5b50565b60075481565b6105f282826108d7565b6107cb6111f0565b6107d36111f0565b6107e58186868663ffffffff6109be16565b95945050505050565b6080830151610803908363ffffffff610a2016565b6080830151610818908263ffffffff610a2016565b505050565b6080830151610832908363ffffffff610a2016565b61083f8360800151610a3d565b60005b815181101561087d5761087582828151811061085a57fe5b60200260200101518560800151610a2090919063ffffffff16565b600101610842565b506108188360800151610a48565b6003546000906108b29073ffffffffffffffffffffffffffffffffffffffff168484610a53565b90505b92915050565b60025473ffffffffffffffffffffffffffffffffffffffff1690565b600081815260056020526040902054819073ffffffffffffffffffffffffffffffffffffffff161561096a57604080517f08c379a000000000000000000000000000000000000000000000000000000000815260206004820152601a60248201527f5265717565737420697320616c72656164792070656e64696e67000000000000604482015290519081900360640190fd5b50600090815260056020526040902080547fffffffffffffffffffffffff00000000000000000000000000000000000000001673ffffffffffffffffffffffffffffffffffffffff92909216919091179055565b6109c66111f0565b6109d68560800151610100610c90565b505091835273ffffffffffffffffffffffffffffffffffffffff1660208301527fffffffff0000000000000000000000000000000000000000000000000000000016604082015290565b610a2d8260038351610cca565b610818828263ffffffff610dda16565b6107b0816004610df4565b6107b0816007610df4565b6004546040805130606090811b60208084019190915260348084018690528451808503909101815260549093018452825192810192909220908601939093526000838152600590915281812080547fffffffffffffffffffffffff00000000000000000000000000000000000000001673ffffffffffffffffffffffffffffffffffffffff8816179055905182917fb5e6e01e79f91267dc17b4e6314d5d4d03593d2ceee0fbb452b750bd70ea5af991a260025473ffffffffffffffffffffffffffffffffffffffff16634000aea08584610b2d87610e0f565b6040518463ffffffff1660e01b8152600401808473ffffffffffffffffffffffffffffffffffffffff1673ffffffffffffffffffffffffffffffffffffffff16815260200183815260200180602001828103825283818151815260200191508051906020019080838360005b83811015610bb1578181015183820152602001610b99565b50505050905090810190601f168015610bde5780820380516001836020036101000a031916815260200191505b50945050505050602060405180830381600087803b158015610bff57600080fd5b505af1158015610c13573d6000803e3d6000fd5b505050506040513d6020811015610c2957600080fd5b5051610c80576040517f08c379a00000000000000000000000000000000000000000000000000000000081526004018080602001828103825260238152602001806112406023913960400191505060405180910390fd5b6004805460010190559392505050565b610c98611225565b6020820615610cad5760208206602003820191505b506020828101829052604080518085526000815290920101905290565b60178111610cf157610ceb8360e0600585901b16831763ffffffff610ff816565b50610818565b60ff8111610d2757610d14836018611fe0600586901b161763ffffffff610ff816565b50610ceb8382600163ffffffff61101016565b61ffff8111610d5e57610d4b836019611fe0600586901b161763ffffffff610ff816565b50610ceb8382600263ffffffff61101016565b63ffffffff8111610d9757610d8483601a611fe0600586901b161763ffffffff610ff816565b50610ceb8382600463ffffffff61101016565b67ffffffffffffffff811161081857610dc183601b611fe0600586901b161763ffffffff610ff816565b50610dd48382600863ffffffff61101016565b50505050565b610de2611225565b6108b283846000015151848551611031565b61081882601f611fe0600585901b161763ffffffff610ff816565b6060634042994660e01b60008084600001518560200151866040015187606001516001896080015160000151604051602401808973ffffffffffffffffffffffffffffffffffffffff1673ffffffffffffffffffffffffffffffffffffffff1681526020018881526020018781526020018673ffffffffffffffffffffffffffffffffffffffff1673ffffffffffffffffffffffffffffffffffffffff168152602001857bffffffffffffffffffffffffffffffffffffffffffffffffffffffff19167bffffffffffffffffffffffffffffffffffffffffffffffffffffffff1916815260200184815260200183815260200180602001828103825283818151815260200191508051906020019080838360005b83811015610f3b578181015183820152602001610f23565b50505050905090810190601f168015610f685780820380516001836020036101000a031916815260200191505b50604080517fffffffffffffffffffffffffffffffffffffffffffffffffffffffffffffffe08184030181529190526020810180517bffffffffffffffffffffffffffffffffffffffffffffffffffffffff167fffffffff00000000000000000000000000000000000000000000000000000000909d169c909c17909b5250989950505050505050505050919050565b611000611225565b6108b28384600001515184611119565b611018611225565b611029848560000151518585611164565b949350505050565b611039611225565b825182111561104757600080fd5b84602001518285011115611071576110718561106987602001518786016111c2565b6002026111d9565b6000808651805187602083010193508088870111156110905787860182525b505050602084015b602084106110d557805182527fffffffffffffffffffffffffffffffffffffffffffffffffffffffffffffffe09093019260209182019101611098565b5181517fffffffffffffffffffffffffffffffffffffffffffffffffffffffffffffffff60208690036101000a019081169019919091161790525083949350505050565b611121611225565b8360200151831061113d5761113d8485602001516002026111d9565b83518051602085830101848153508085141561115a576001810182525b5093949350505050565b61116c611225565b8460200151848301111561118957611189858584016002026111d9565b60006001836101000a0390508551838682010185831982511617815250805184870111156111b75783860181525b509495945050505050565b6000818311156111d35750816108b5565b50919050565b81516111e58383610c90565b50610dd48382610dda565b6040805160a081018252600080825260208201819052918101829052606081019190915260808101611220611225565b905290565b60405180604001604052806060815260200160008152509056fe756e61626c6520746f207472616e73666572416e6443616c6c20746f206f7261636c65536f75726365206d75737420626520746865206f7261636c65206f6620746865207265717565737468747470733a2f2f6d696e2d6170692e63727970746f636f6d706172652e636f6d2f646174612f70726963653f6673796d3d455448267473796d733d5553442c4555522c4a5059a164736f6c6343000606000a",
  "linkReferences": {},
  "deployedLinkReferences": {}
}