{
  "_format": "hh-sol-artifact-1",
  "contractName": "Flags",
  "sourceName": "src/v0.8/Flags.sol",
  "abi": [
    {
      "inputs": [
        {
          "internalType": "address",
          "name": "racAddress",
          "type": "address"
        }
      ],
      "stateMutability": "nonpayable",
      "type": "constructor"
    },
    {
      "anonymous": false,
      "inputs": [
        {
          "indexed": false,
          "internalType": "address",
          "name": "user",
          "type": "address"
        }
      ],
      "name": "AddedAccess",
      "type": "event"
    },
    {
      "anonymous": false,
      "inputs": [],
      "name": "CheckAccessDisabled",
      "type": "event"
    },
    {
      "anonymous": false,
      "inputs": [],
      "name": "CheckAccessEnabled",
      "type": "event"
    },
    {
      "anonymous": false,
      "inputs": [
        {
          "indexed": true,
          "internalType": "address",
          "name": "subject",
          "type": "address"
        }
      ],
      "name": "FlagLowered",
      "type": "event"
    },
    {
      "anonymous": false,
      "inputs": [
        {
          "indexed": true,
          "internalType": "address",
          "name": "subject",
          "type": "address"
        }
      ],
      "name": "FlagRaised",
      "type": "event"
    },
    {
      "anonymous": false,
      "inputs": [
        {
          "indexed": true,
          "internalType": "address",
          "name": "from",
          "type": "address"
        },
        {
          "indexed": true,
          "internalType": "address",
          "name": "to",
          "type": "address"
        }
      ],
      "name": "OwnershipTransferRequested",
      "type": "event"
    },
    {
      "anonymous": false,
      "inputs": [
        {
          "indexed": true,
          "internalType": "address",
          "name": "from",
          "type": "address"
        },
        {
          "indexed": true,
          "internalType": "address",
          "name": "to",
          "type": "address"
        }
      ],
      "name": "OwnershipTransferred",
      "type": "event"
    },
    {
      "anonymous": false,
      "inputs": [
        {
          "indexed": true,
          "internalType": "address",
          "name": "previous",
          "type": "address"
        },
        {
          "indexed": true,
          "internalType": "address",
          "name": "current",
          "type": "address"
        }
      ],
      "name": "RaisingAccessControllerUpdated",
      "type": "event"
    },
    {
      "anonymous": false,
      "inputs": [
        {
          "indexed": false,
          "internalType": "address",
          "name": "user",
          "type": "address"
        }
      ],
      "name": "RemovedAccess",
      "type": "event"
    },
    {
      "inputs": [],
      "name": "acceptOwnership",
      "outputs": [],
      "stateMutability": "nonpayable",
      "type": "function"
    },
    {
      "inputs": [
        {
          "internalType": "address",
          "name": "_user",
          "type": "address"
        }
      ],
      "name": "addAccess",
      "outputs": [],
      "stateMutability": "nonpayable",
      "type": "function"
    },
    {
      "inputs": [],
      "name": "checkEnabled",
      "outputs": [
        {
          "internalType": "bool",
          "name": "",
          "type": "bool"
        }
      ],
      "stateMutability": "view",
      "type": "function"
    },
    {
      "inputs": [],
      "name": "disableAccessCheck",
      "outputs": [],
      "stateMutability": "nonpayable",
      "type": "function"
    },
    {
      "inputs": [],
      "name": "enableAccessCheck",
      "outputs": [],
      "stateMutability": "nonpayable",
      "type": "function"
    },
    {
      "inputs": [
        {
          "internalType": "address",
          "name": "subject",
          "type": "address"
        }
      ],
      "name": "getFlag",
      "outputs": [
        {
          "internalType": "bool",
          "name": "",
          "type": "bool"
        }
      ],
      "stateMutability": "view",
      "type": "function"
    },
    {
      "inputs": [
        {
          "internalType": "address[]",
          "name": "subjects",
          "type": "address[]"
        }
      ],
      "name": "getFlags",
      "outputs": [
        {
          "internalType": "bool[]",
          "name": "",
          "type": "bool[]"
        }
      ],
      "stateMutability": "view",
      "type": "function"
    },
    {
      "inputs": [
        {
          "internalType": "address",
          "name": "_user",
          "type": "address"
        },
        {
          "internalType": "bytes",
          "name": "_calldata",
          "type": "bytes"
        }
      ],
      "name": "hasAccess",
      "outputs": [
        {
          "internalType": "bool",
          "name": "",
          "type": "bool"
        }
      ],
      "stateMutability": "view",
      "type": "function"
    },
    {
      "inputs": [
        {
          "internalType": "address[]",
          "name": "subjects",
          "type": "address[]"
        }
      ],
      "name": "lowerFlags",
      "outputs": [],
      "stateMutability": "nonpayable",
      "type": "function"
    },
    {
      "inputs": [],
      "name": "owner",
      "outputs": [
        {
          "internalType": "address",
          "name": "",
          "type": "address"
        }
      ],
      "stateMutability": "view",
      "type": "function"
    },
    {
      "inputs": [
        {
          "internalType": "address",
          "name": "subject",
          "type": "address"
        }
      ],
      "name": "raiseFlag",
      "outputs": [],
      "stateMutability": "nonpayable",
      "type": "function"
    },
    {
      "inputs": [
        {
          "internalType": "address[]",
          "name": "subjects",
          "type": "address[]"
        }
      ],
      "name": "raiseFlags",
      "outputs": [],
      "stateMutability": "nonpayable",
      "type": "function"
    },
    {
      "inputs": [],
      "name": "raisingAccessController",
      "outputs": [
        {
          "internalType": "contract AccessControllerInterface",
          "name": "",
          "type": "address"
        }
      ],
      "stateMutability": "view",
      "type": "function"
    },
    {
      "inputs": [
        {
          "internalType": "address",
          "name": "_user",
          "type": "address"
        }
      ],
      "name": "removeAccess",
      "outputs": [],
      "stateMutability": "nonpayable",
      "type": "function"
    },
    {
      "inputs": [
        {
          "internalType": "address",
          "name": "racAddress",
          "type": "address"
        }
      ],
      "name": "setRaisingAccessController",
      "outputs": [],
      "stateMutability": "nonpayable",
      "type": "function"
    },
    {
      "inputs": [
        {
          "internalType": "address",
          "name": "to",
          "type": "address"
        }
      ],
      "name": "transferOwnership",
      "outputs": [],
      "stateMutability": "nonpayable",
      "type": "function"
    }
  ],
  "bytecode": "0x60806040523480156200001157600080fd5b506040516200149c3803806200149c833981016040819052620000349162000264565b33806000816200008b5760405162461bcd60e51b815260206004820152601860248201527f43616e6e6f7420736574206f776e657220746f207a65726f000000000000000060448201526064015b60405180910390fd5b600080546001600160a01b0319166001600160a01b0384811691909117909155811615620000be57620000be81620000e6565b50506001805460ff60a01b1916600160a01b17905550620000df8162000192565b5062000296565b6001600160a01b038116331415620001415760405162461bcd60e51b815260206004820152601760248201527f43616e6e6f74207472616e7366657220746f2073656c66000000000000000000604482015260640162000082565b600180546001600160a01b0319166001600160a01b0383811691821790925560008054604051929316917fed8889f560326eb138920d842192f0eb3dd22b4f139c87a2c57538e05bae12789190a350565b6200019c62000206565b6003546001600160a01b0390811690821681146200020257600380546001600160a01b0319166001600160a01b0384811691821790925560405190918316907fbaf9ea078655a4fffefd08f9435677bbc91e457a6d015fe7de1d0e68b8802cac90600090a35b5050565b6000546001600160a01b03163314620002625760405162461bcd60e51b815260206004820152601660248201527f4f6e6c792063616c6c61626c65206279206f776e657200000000000000000000604482015260640162000082565b565b6000602082840312156200027757600080fd5b81516001600160a01b03811681146200028f57600080fd5b9392505050565b6111f680620002a66000396000f3fe608060405234801561001057600080fd5b50600436106101005760003560e01c80637d723cac11610097578063a118f24911610066578063a118f24914610229578063d74af2631461023c578063dc7f01241461024f578063f2fde38b1461027457600080fd5b80637d723cac146101d05780638038e4a1146101f05780638823da6c146101f85780638da5cb5b1461020b57600080fd5b8063517e89fe116100d3578063517e89fe1461018f5780636b14daf8146101a2578063760bc82d146101b557806379ba5097146101c857600080fd5b80630a75698314610105578063282865961461010f5780632e1d859c14610122578063357e47fe1461016c575b600080fd5b61010d610287565b005b61010d61011d366004610fe4565b610306565b6003546101429073ffffffffffffffffffffffffffffffffffffffff1681565b60405173ffffffffffffffffffffffffffffffffffffffff90911681526020015b60405180910390f35b61017f61017a366004610ee9565b6103fd565b6040519015158152602001610163565b61010d61019d366004610ee9565b6104db565b61017f6101b0366004610f04565b61057e565b61010d6101c3366004610fe4565b6105b1565b61010d61066b565b6101e36101de366004610fe4565b610768565b60405161016391906110e5565b61010d6108f9565b61010d610206366004610ee9565b61098d565b60005473ffffffffffffffffffffffffffffffffffffffff16610142565b61010d610237366004610ee9565b610a47565b61010d61024a366004610ee9565b610afb565b60015461017f9074010000000000000000000000000000000000000000900460ff1681565b61010d610282366004610ee9565b610b72565b61028f610b83565b60015474010000000000000000000000000000000000000000900460ff161561030457600180547fffffffffffffffffffffff00ffffffffffffffffffffffffffffffffffffffff1690556040517f3be8a977a014527b50ae38adda80b56911c267328965c98ddc385d248f53963890600090a15b565b61030e610b83565b60005b818110156103f857600083838381811061032d5761032d61118b565b90506020020160208101906103429190610ee9565b73ffffffffffffffffffffffffffffffffffffffff811660009081526004602052604090205490915060ff16156103e55773ffffffffffffffffffffffffffffffffffffffff811660008181526004602052604080822080547fffffffffffffffffffffffffffffffffffffffffffffffffffffffffffffff00169055517fd86728e2e5cbaa28c1d357b5fbccc9c1ab0add09950eb7cac42df9acb24c4bc89190a25b50806103f08161112b565b915050610311565b505050565b6000610440336000368080601f01602080910402602001604051908101604052809392919081815260200183838082843760009201919091525061057e92505050565b6104ab576040517f08c379a000000000000000000000000000000000000000000000000000000000815260206004820152600960248201527f4e6f20616363657373000000000000000000000000000000000000000000000060448201526064015b60405180910390fd5b5073ffffffffffffffffffffffffffffffffffffffff811660009081526004602052604090205460ff165b919050565b6104e3610b83565b60035473ffffffffffffffffffffffffffffffffffffffff908116908216811461057a57600380547fffffffffffffffffffffffff00000000000000000000000000000000000000001673ffffffffffffffffffffffffffffffffffffffff84811691821790925560405190918316907fbaf9ea078655a4fffefd08f9435677bbc91e457a6d015fe7de1d0e68b8802cac90600090a35b5050565b600061058a8383610c04565b806105aa575073ffffffffffffffffffffffffffffffffffffffff831632145b9392505050565b6105b9610c59565b61061f576040517f08c379a000000000000000000000000000000000000000000000000000000000815260206004820152601a60248201527f4e6f7420616c6c6f77656420746f20726169736520666c61677300000000000060448201526064016104a2565b60005b818110156103f85761065983838381811061063f5761063f61118b565b90506020020160208101906106549190610ee9565b610d2b565b806106638161112b565b915050610622565b60015473ffffffffffffffffffffffffffffffffffffffff1633146106ec576040517f08c379a000000000000000000000000000000000000000000000000000000000815260206004820152601660248201527f4d7573742062652070726f706f736564206f776e65720000000000000000000060448201526064016104a2565b60008054337fffffffffffffffffffffffff00000000000000000000000000000000000000008083168217845560018054909116905560405173ffffffffffffffffffffffffffffffffffffffff90921692909183917f8be0079c531659141344cd1fd0a4f28419497f9722a3daafe3b4186f6b6457e091a350565b60606107ab336000368080601f01602080910402602001604051908101604052809392919081815260200183838082843760009201919091525061057e92505050565b610811576040517f08c379a000000000000000000000000000000000000000000000000000000000815260206004820152600960248201527f4e6f20616363657373000000000000000000000000000000000000000000000060448201526064016104a2565b60008267ffffffffffffffff81111561082c5761082c6111ba565b604051908082528060200260200182016040528015610855578160200160208202803683370190505b50905060005b838110156108f157600460008686848181106108795761087961118b565b905060200201602081019061088e9190610ee9565b73ffffffffffffffffffffffffffffffffffffffff168152602081019190915260400160002054825160ff909116908390839081106108cf576108cf61118b565b91151560209283029190910190910152806108e98161112b565b91505061085b565b509392505050565b610901610b83565b60015474010000000000000000000000000000000000000000900460ff1661030457600180547fffffffffffffffffffffff00ffffffffffffffffffffffffffffffffffffffff16740100000000000000000000000000000000000000001790556040517faebf329500988c6488a0074e5a0a9ff304561fc5c6fc877aeb1d59c8282c348090600090a1565b610995610b83565b73ffffffffffffffffffffffffffffffffffffffff811660009081526002602052604090205460ff1615610a445773ffffffffffffffffffffffffffffffffffffffff811660008181526002602090815260409182902080547fffffffffffffffffffffffffffffffffffffffffffffffffffffffffffffff0016905590519182527f3d68a6fce901d20453d1a7aa06bf3950302a735948037deb182a8db66df2a0d191015b60405180910390a15b50565b610a4f610b83565b73ffffffffffffffffffffffffffffffffffffffff811660009081526002602052604090205460ff16610a445773ffffffffffffffffffffffffffffffffffffffff811660008181526002602090815260409182902080547fffffffffffffffffffffffffffffffffffffffffffffffffffffffffffffff0016600117905590519182527f87286ad1f399c8e82bf0c4ef4fcdc570ea2e1e92176e5c848b6413545b885db49101610a3b565b610b03610c59565b610b69576040517f08c379a000000000000000000000000000000000000000000000000000000000815260206004820152601a60248201527f4e6f7420616c6c6f77656420746f20726169736520666c61677300000000000060448201526064016104a2565b610a4481610d2b565b610b7a610b83565b610a4481610dcf565b60005473ffffffffffffffffffffffffffffffffffffffff163314610304576040517f08c379a000000000000000000000000000000000000000000000000000000000815260206004820152601660248201527f4f6e6c792063616c6c61626c65206279206f776e65720000000000000000000060448201526064016104a2565b73ffffffffffffffffffffffffffffffffffffffff821660009081526002602052604081205460ff16806105aa57505060015474010000000000000000000000000000000000000000900460ff161592915050565b6000805473ffffffffffffffffffffffffffffffffffffffff16331480610d2657506003546040517f6b14daf800000000000000000000000000000000000000000000000000000000815273ffffffffffffffffffffffffffffffffffffffff90911690636b14daf890610cd6903390600090369060040161107b565b60206040518083038186803b158015610cee57600080fd5b505afa158015610d02573d6000803e3d6000fd5b505050506040513d601f19601f82011682018060405250810190610d269190611059565b905090565b73ffffffffffffffffffffffffffffffffffffffff811660009081526004602052604090205460ff16610a445773ffffffffffffffffffffffffffffffffffffffff811660008181526004602052604080822080547fffffffffffffffffffffffffffffffffffffffffffffffffffffffffffffff00166001179055517f881febd4cd194dd4ace637642862aef1fb59a65c7e5551a5d9208f268d11c0069190a250565b73ffffffffffffffffffffffffffffffffffffffff8116331415610e4f576040517f08c379a000000000000000000000000000000000000000000000000000000000815260206004820152601760248201527f43616e6e6f74207472616e7366657220746f2073656c6600000000000000000060448201526064016104a2565b600180547fffffffffffffffffffffffff00000000000000000000000000000000000000001673ffffffffffffffffffffffffffffffffffffffff83811691821790925560008054604051929316917fed8889f560326eb138920d842192f0eb3dd22b4f139c87a2c57538e05bae12789190a350565b803573ffffffffffffffffffffffffffffffffffffffff811681146104d657600080fd5b600060208284031215610efb57600080fd5b6105aa82610ec5565b60008060408385031215610f1757600080fd5b610f2083610ec5565b9150602083013567ffffffffffffffff80821115610f3d57600080fd5b818501915085601f830112610f5157600080fd5b813581811115610f6357610f636111ba565b604051601f82017fffffffffffffffffffffffffffffffffffffffffffffffffffffffffffffffe0908116603f01168101908382118183101715610fa957610fa96111ba565b81604052828152886020848701011115610fc257600080fd5b8260208601602083013760006020848301015280955050505050509250929050565b60008060208385031215610ff757600080fd5b823567ffffffffffffffff8082111561100f57600080fd5b818501915085601f83011261102357600080fd5b81358181111561103257600080fd5b8660208260051b850101111561104757600080fd5b60209290920196919550909350505050565b60006020828403121561106b57600080fd5b815180151581146105aa57600080fd5b73ffffffffffffffffffffffffffffffffffffffff8416815260406020820152816040820152818360608301376000818301606090810191909152601f9092017fffffffffffffffffffffffffffffffffffffffffffffffffffffffffffffffe016010192915050565b6020808252825182820181905260009190848201906040850190845b8181101561111f578351151583529284019291840191600101611101565b50909695505050505050565b60007fffffffffffffffffffffffffffffffffffffffffffffffffffffffffffffffff821415611184577f4e487b7100000000000000000000000000000000000000000000000000000000600052601160045260246000fd5b5060010190565b7f4e487b7100000000000000000000000000000000000000000000000000000000600052603260045260246000fd5b7f4e487b7100000000000000000000000000000000000000000000000000000000600052604160045260246000fdfea164736f6c6343000806000a",
  "linkReferences": {},
  "deployedLinkReferences": {}
}