{
  "_format": "hh-sol-artifact-1",
  "contractName": "ChainlinkClientTestHelper",
  "sourceName": "src/v0.8/tests/ChainlinkClientTestHelper.sol",
  "abi": [
    {
      "inputs": [
        {
          "internalType": "address",
          "name": "_link",
          "type": "address"
        },
        {
          "internalType": "address",
          "name": "_oracle",
          "type": "address"
        }
      ],
      "stateMutability": "nonpayable",
      "type": "constructor"
    },
    {
      "anonymous": false,
      "inputs": [
        {
          "indexed": true,
          "internalType": "bytes32",
          "name": "id",
          "type": "bytes32"
        }
      ],
      "name": "ChainlinkCancelled",
      "type": "event"
    },
    {
      "anonymous": false,
      "inputs": [
        {
          "indexed": true,
          "internalType": "bytes32",
          "name": "id",
          "type": "bytes32"
        }
      ],
      "name": "ChainlinkFulfilled",
      "type": "event"
    },
    {
      "anonymous": false,
      "inputs": [
        {
          "indexed": true,
          "internalType": "bytes32",
          "name": "id",
          "type": "bytes32"
        }
      ],
      "name": "ChainlinkRequested",
      "type": "event"
    },
    {
      "anonymous": false,
      "inputs": [
        {
          "indexed": false,
          "internalType": "uint256",
          "name": "amount",
          "type": "uint256"
        }
      ],
      "name": "LinkAmount",
      "type": "event"
    },
    {
      "anonymous": false,
      "inputs": [
        {
          "indexed": false,
          "internalType": "bytes32",
          "name": "id",
          "type": "bytes32"
        },
        {
          "indexed": false,
          "internalType": "address",
          "name": "callbackAddress",
          "type": "address"
        },
        {
          "indexed": false,
          "internalType": "bytes4",
          "name": "callbackfunctionSelector",
          "type": "bytes4"
        },
        {
          "indexed": false,
          "internalType": "bytes",
          "name": "data",
          "type": "bytes"
        }
      ],
      "name": "Request",
      "type": "event"
    },
    {
      "inputs": [
        {
          "internalType": "bytes32",
          "name": "_requestId",
          "type": "bytes32"
        },
        {
          "internalType": "bytes32",
          "name": "",
          "type": "bytes32"
        }
      ],
      "name": "fulfillRequest",
      "outputs": [],
      "stateMutability": "nonpayable",
      "type": "function"
    },
    {
      "inputs": [
        {
          "internalType": "address",
          "name": "_oracle",
          "type": "address"
        },
        {
          "internalType": "bytes32",
          "name": "_requestId",
          "type": "bytes32"
        }
      ],
      "name": "publicAddExternalRequest",
      "outputs": [],
      "stateMutability": "nonpayable",
      "type": "function"
    },
    {
      "inputs": [
        {
          "internalType": "bytes32",
          "name": "_requestId",
          "type": "bytes32"
        },
        {
          "internalType": "uint256",
          "name": "_payment",
          "type": "uint256"
        },
        {
          "internalType": "bytes4",
          "name": "_callbackFunctionId",
          "type": "bytes4"
        },
        {
          "internalType": "uint256",
          "name": "_expiration",
          "type": "uint256"
        }
      ],
      "name": "publicCancelRequest",
      "outputs": [],
      "stateMutability": "nonpayable",
      "type": "function"
    },
    {
      "inputs": [],
      "name": "publicChainlinkToken",
      "outputs": [
        {
          "internalType": "address",
          "name": "",
          "type": "address"
        }
      ],
      "stateMutability": "view",
      "type": "function"
    },
    {
      "inputs": [
        {
          "internalType": "bytes32",
          "name": "_requestId",
          "type": "bytes32"
        },
        {
          "internalType": "bytes32",
          "name": "",
          "type": "bytes32"
        }
      ],
      "name": "publicFulfillChainlinkRequest",
      "outputs": [],
      "stateMutability": "nonpayable",
      "type": "function"
    },
    {
      "inputs": [
        {
          "internalType": "uint256",
          "name": "_amount",
          "type": "uint256"
        }
      ],
      "name": "publicLINK",
      "outputs": [],
      "stateMutability": "nonpayable",
      "type": "function"
    },
    {
      "inputs": [
        {
          "internalType": "bytes32",
          "name": "_id",
          "type": "bytes32"
        },
        {
          "internalType": "address",
          "name": "_address",
          "type": "address"
        },
        {
          "internalType": "bytes",
          "name": "_fulfillmentSignature",
          "type": "bytes"
        }
      ],
      "name": "publicNewRequest",
      "outputs": [],
      "stateMutability": "nonpayable",
      "type": "function"
    },
    {
      "inputs": [],
      "name": "publicOracleAddress",
      "outputs": [
        {
          "internalType": "address",
          "name": "",
          "type": "address"
        }
      ],
      "stateMutability": "view",
      "type": "function"
    },
    {
      "inputs": [
        {
          "internalType": "bytes32",
          "name": "_id",
          "type": "bytes32"
        },
        {
          "internalType": "address",
          "name": "_address",
          "type": "address"
        },
        {
          "internalType": "bytes",
          "name": "_fulfillmentSignature",
          "type": "bytes"
        },
        {
          "internalType": "uint256",
          "name": "_wei",
          "type": "uint256"
        }
      ],
      "name": "publicRequest",
      "outputs": [],
      "stateMutability": "nonpayable",
      "type": "function"
    },
    {
      "inputs": [
        {
          "internalType": "bytes32",
          "name": "_id",
          "type": "bytes32"
        },
        {
          "internalType": "address",
          "name": "_address",
          "type": "address"
        },
        {
          "internalType": "bytes",
          "name": "_fulfillmentSignature",
          "type": "bytes"
        },
        {
          "internalType": "uint256",
          "name": "_wei",
          "type": "uint256"
        }
      ],
      "name": "publicRequestOracleData",
      "outputs": [],
      "stateMutability": "nonpayable",
      "type": "function"
    },
    {
      "inputs": [
        {
          "internalType": "address",
          "name": "_oracle",
          "type": "address"
        },
        {
          "internalType": "bytes32",
          "name": "_id",
          "type": "bytes32"
        },
        {
          "internalType": "address",
          "name": "_address",
          "type": "address"
        },
        {
          "internalType": "bytes",
          "name": "_fulfillmentSignature",
          "type": "bytes"
        },
        {
          "internalType": "uint256",
          "name": "_wei",
          "type": "uint256"
        }
      ],
      "name": "publicRequestOracleDataFrom",
      "outputs": [],
      "stateMutability": "nonpayable",
      "type": "function"
    },
    {
      "inputs": [
        {
          "internalType": "address",
          "name": "_oracle",
          "type": "address"
        },
        {
          "internalType": "bytes32",
          "name": "_id",
          "type": "bytes32"
        },
        {
          "internalType": "address",
          "name": "_address",
          "type": "address"
        },
        {
          "internalType": "bytes",
          "name": "_fulfillmentSignature",
          "type": "bytes"
        },
        {
          "internalType": "uint256",
          "name": "_wei",
          "type": "uint256"
        }
      ],
      "name": "publicRequestRunTo",
      "outputs": [],
      "stateMutability": "nonpayable",
      "type": "function"
    }
  ],
  "bytecode": "0x6080604052600160045534801561001557600080fd5b506040516112673803806112678339810160408190526100349161008d565b600280546001600160a01b0319166001600160a01b038416179055600380546001600160a01b0319166001600160a01b03831617905550506100c0565b80516001600160a01b038116811461008857600080fd5b919050565b600080604083850312156100a057600080fd5b6100a983610071565b91506100b760208401610071565b90509250929050565b611198806100cf6000396000f3fe608060405234801561001057600080fd5b50600436106100d45760003560e01c8063898d49aa11610081578063ad7e401c1161005b578063ad7e401c146101a4578063d9a26716146101b7578063f7ea03ff146101ca57600080fd5b8063898d49aa1461014d57806398bb2b2d14610160578063a1179a271461019157600080fd5b80635d64e310116100b25780635d64e3101461011457806366a4f350146101275780636aab346d1461013a57600080fd5b80633f14df82146100d9578063448d6c10146100ee5780635491ec6a14610101575b600080fd5b6100ec6100e7366004610edd565b6101d2565b005b6100ec6100fc366004610e79565b610219565b6100ec61010f366004610ce5565b61022b565b6100ec610122366004610e57565b610239565b6100ec610135366004610df8565b610242565b6100ec610148366004610d0f565b61026a565b6100ec61015b366004610df8565b610294565b6101686102b4565b60405173ffffffffffffffffffffffffffffffffffffffff909116815260200160405180910390f35b6100ec61019f366004610d0f565b6102da565b6100ec6101b2366004610e57565b6102fb565b6100ec6101c5366004610da1565b610306565b61016861036e565b7f81c82a6ea1ed1cf28a5376c6d13caab9047c853ec5107907ec9431c50ec1a85c61020582670de0b6b3a764000061109e565b60405190815260200160405180910390a150565b6102258484848461038f565b50505050565b61023582826104c4565b5050565b610235826105ab565b6000610256858585805190602001206106bf565b90506102628183610750565b505050505050565b600061027e858585805190602001206106bf565b905061028b86828461077e565b50505050505050565b60006102a8858585805190602001206106bf565b905061026281836107b6565b60006102d560025473ffffffffffffffffffffffffffffffffffffffff1690565b905090565b60006102ee858585805190602001206106bf565b905061028b8682846107dd565b610235826000610239565b600061031a848484805190602001206106bf565b8051602082015160408084015160808501515191519495507f6ae3654efc50e419eaebe21a0569020545587e83c4409cfb1d3a4217cbed8a21946103609493929061101f565b60405180910390a150505050565b60006102d560035473ffffffffffffffffffffffffffffffffffffffff1690565b60008481526005602052604080822080547fffffffffffffffffffffffff00000000000000000000000000000000000000008116909155905173ffffffffffffffffffffffffffffffffffffffff9091169186917fe1fe3afa0f7f761ff0a8b89086790efd5140d2907ebd5b7ff6bfcb5e075fd4c59190a26040517f6ee4d55300000000000000000000000000000000000000000000000000000000815260048101869052602481018590527fffffffff00000000000000000000000000000000000000000000000000000000841660448201526064810183905273ffffffffffffffffffffffffffffffffffffffff821690636ee4d55390608401600060405180830381600087803b1580156104a557600080fd5b505af11580156104b9573d6000803e3d6000fd5b505050505050505050565b600081815260056020526040902054819073ffffffffffffffffffffffffffffffffffffffff1615610557576040517f08c379a000000000000000000000000000000000000000000000000000000000815260206004820152601a60248201527f5265717565737420697320616c72656164792070656e64696e6700000000000060448201526064015b60405180910390fd5b50600090815260056020526040902080547fffffffffffffffffffffffff00000000000000000000000000000000000000001673ffffffffffffffffffffffffffffffffffffffff92909216919091179055565b600081815260056020526040902054819073ffffffffffffffffffffffffffffffffffffffff163314610660576040517f08c379a000000000000000000000000000000000000000000000000000000000815260206004820152602860248201527f536f75726365206d75737420626520746865206f7261636c65206f662074686560448201527f2072657175657374000000000000000000000000000000000000000000000000606482015260840161054e565b60008181526005602052604080822080547fffffffffffffffffffffffff00000000000000000000000000000000000000001690555182917f7cc135e0cebb02c3480ae5d74d377283180a2601f8f644edf7987b009316c63a91a25050565b6106fd6040805160a0810182526000808252602080830182905282840182905260608084018390528451808601909552845283015290608082015290565b61073b6040805160a0810182526000808252602080830182905282840182905260608084018390528451808601909552845283015290608082015290565b6107478186868661080d565b95945050505050565b6003546000906107779073ffffffffffffffffffffffffffffffffffffffff1684846107dd565b9392505050565b60006107ae84848460027f6de879d6000000000000000000000000000000000000000000000000000000006108a5565b949350505050565b6003546000906107779073ffffffffffffffffffffffffffffffffffffffff16848461077e565b60006107ae84848460017f40429946000000000000000000000000000000000000000000000000000000006108a5565b61084b6040805160a0810182526000808252602080830182905282840182905260608084018390528451808601909552845283015290608082015290565b61085b8560800151610100610bac565b505091835273ffffffffffffffffffffffffffffffffffffffff1660208301527fffffffff0000000000000000000000000000000000000000000000000000000016604082015290565b6004546040517fffffffffffffffffffffffffffffffffffffffff0000000000000000000000003060601b1660208201526034810191909152600090605401604080518083037fffffffffffffffffffffffffffffffffffffffffffffffffffffffffffffffe0018152918152815160209283012060045460608901526000818152600590935281832080547fffffffffffffffffffffffff00000000000000000000000000000000000000001673ffffffffffffffffffffffffffffffffffffffff8b16179055905190925082917fb5e6e01e79f91267dc17b4e6314d5d4d03593d2ceee0fbb452b750bd70ea5af991a2600082600080886000015189602001518a604001518b606001518a8d60800151600001516040516024016109d2989796959493929190610f61565b604080517fffffffffffffffffffffffffffffffffffffffffffffffffffffffffffffffe08184030181529181526020820180517bffffffffffffffffffffffffffffffffffffffffffffffffffffffff167fffffffff000000000000000000000000000000000000000000000000000000009094169390931790925260025491517f4000aea000000000000000000000000000000000000000000000000000000000815290925073ffffffffffffffffffffffffffffffffffffffff90911690634000aea090610aab908a9089908690600401610fea565b602060405180830381600087803b158015610ac557600080fd5b505af1158015610ad9573d6000803e3d6000fd5b505050506040513d601f19601f82011682018060405250810190610afd9190610d7f565b610b89576040517f08c379a000000000000000000000000000000000000000000000000000000000815260206004820152602360248201527f756e61626c6520746f207472616e73666572416e6443616c6c20746f206f726160448201527f636c650000000000000000000000000000000000000000000000000000000000606482015260840161054e565b600160046000828254610b9c9190611086565b9091555091979650505050505050565b604080518082019091526060815260006020820152610bcc6020836110f2565b15610bf457610bdc6020836110f2565b610be79060206110db565b610bf19083611086565b91505b506020828101829052604080518085526000815290920101905290565b803573ffffffffffffffffffffffffffffffffffffffff81168114610c3557600080fd5b919050565b600082601f830112610c4b57600080fd5b813567ffffffffffffffff80821115610c6657610c6661115c565b604051601f83017fffffffffffffffffffffffffffffffffffffffffffffffffffffffffffffffe0908116603f01168101908282118183101715610cac57610cac61115c565b81604052838152866020858801011115610cc557600080fd5b836020870160208301376000602085830101528094505050505092915050565b60008060408385031215610cf857600080fd5b610d0183610c11565b946020939093013593505050565b600080600080600060a08688031215610d2757600080fd5b610d3086610c11565b945060208601359350610d4560408701610c11565b9250606086013567ffffffffffffffff811115610d6157600080fd5b610d6d88828901610c3a565b95989497509295608001359392505050565b600060208284031215610d9157600080fd5b8151801515811461077757600080fd5b600080600060608486031215610db657600080fd5b83359250610dc660208501610c11565b9150604084013567ffffffffffffffff811115610de257600080fd5b610dee86828701610c3a565b9150509250925092565b60008060008060808587031215610e0e57600080fd5b84359350610e1e60208601610c11565b9250604085013567ffffffffffffffff811115610e3a57600080fd5b610e4687828801610c3a565b949793965093946060013593505050565b60008060408385031215610e6a57600080fd5b50508035926020909101359150565b60008060008060808587031215610e8f57600080fd5b843593506020850135925060408501357fffffffff0000000000000000000000000000000000000000000000000000000081168114610ecd57600080fd5b9396929550929360600135925050565b600060208284031215610eef57600080fd5b5035919050565b6000815180845260005b81811015610f1c57602081850181015186830182015201610f00565b81811115610f2e576000602083870101525b50601f017fffffffffffffffffffffffffffffffffffffffffffffffffffffffffffffffe0169290920160200192915050565b600061010073ffffffffffffffffffffffffffffffffffffffff808c1684528a60208501528960408501528089166060850152507fffffffff00000000000000000000000000000000000000000000000000000000871660808401528560a08401528460c08401528060e0840152610fdb81840185610ef6565b9b9a5050505050505050505050565b73ffffffffffffffffffffffffffffffffffffffff841681528260208201526060604082015260006107476060830184610ef6565b84815273ffffffffffffffffffffffffffffffffffffffff841660208201527fffffffff000000000000000000000000000000000000000000000000000000008316604082015260806060820152600061107c6080830184610ef6565b9695505050505050565b600082198211156110995761109961112d565b500190565b6000817fffffffffffffffffffffffffffffffffffffffffffffffffffffffffffffffff04831182151516156110d6576110d661112d565b500290565b6000828210156110ed576110ed61112d565b500390565b600082611128577f4e487b7100000000000000000000000000000000000000000000000000000000600052601260045260246000fd5b500690565b7f4e487b7100000000000000000000000000000000000000000000000000000000600052601160045260246000fd5b7f4e487b7100000000000000000000000000000000000000000000000000000000600052604160045260246000fdfea164736f6c6343000806000a",
  "linkReferences": {},
  "deployedLinkReferences": {}
}