{
  "_format": "hh-sol-artifact-1",
  "contractName": "AggregatorFacade",
  "sourceName": "src/v0.6/AggregatorFacade.sol",
  "abi": [
    {
      "inputs": [
        {
          "internalType": "address",
          "name": "_aggregator",
          "type": "address"
        },
        {
          "internalType": "uint8",
          "name": "_decimals",
          "type": "uint8"
        },
        {
          "internalType": "string",
          "name": "_description",
          "type": "string"
        }
      ],
      "stateMutability": "nonpayable",
      "type": "constructor"
    },
    {
      "anonymous": false,
      "inputs": [
        {
          "indexed": true,
          "internalType": "int256",
          "name": "current",
          "type": "int256"
        },
        {
          "indexed": true,
          "internalType": "uint256",
          "name": "roundId",
          "type": "uint256"
        },
        {
          "indexed": false,
          "internalType": "uint256",
          "name": "updatedAt",
          "type": "uint256"
        }
      ],
      "name": "AnswerUpdated",
      "type": "event"
    },
    {
      "anonymous": false,
      "inputs": [
        {
          "indexed": true,
          "internalType": "uint256",
          "name": "roundId",
          "type": "uint256"
        },
        {
          "indexed": true,
          "internalType": "address",
          "name": "startedBy",
          "type": "address"
        },
        {
          "indexed": false,
          "internalType": "uint256",
          "name": "startedAt",
          "type": "uint256"
        }
      ],
      "name": "NewRound",
      "type": "event"
    },
    {
      "inputs": [],
      "name": "aggregator",
      "outputs": [
        {
          "internalType": "contract AggregatorInterface",
          "name": "",
          "type": "address"
        }
      ],
      "stateMutability": "view",
      "type": "function"
    },
    {
      "inputs": [],
      "name": "decimals",
      "outputs": [
        {
          "internalType": "uint8",
          "name": "",
          "type": "uint8"
        }
      ],
      "stateMutability": "view",
      "type": "function"
    },
    {
      "inputs": [],
      "name": "description",
      "outputs": [
        {
          "internalType": "string",
          "name": "",
          "type": "string"
        }
      ],
      "stateMutability": "view",
      "type": "function"
    },
    {
      "inputs": [
        {
          "internalType": "uint256",
          "name": "_roundId",
          "type": "uint256"
        }
      ],
      "name": "getAnswer",
      "outputs": [
        {
          "internalType": "int256",
          "name": "",
          "type": "int256"
        }
      ],
      "stateMutability": "view",
      "type": "function"
    },
    {
      "inputs": [
        {
          "internalType": "uint80",
          "name": "_roundId",
          "type": "uint80"
        }
      ],
      "name": "getRoundData",
      "outputs": [
        {
          "internalType": "uint80",
          "name": "roundId",
          "type": "uint80"
        },
        {
          "internalType": "int256",
          "name": "answer",
          "type": "int256"
        },
        {
          "internalType": "uint256",
          "name": "startedAt",
          "type": "uint256"
        },
        {
          "internalType": "uint256",
          "name": "updatedAt",
          "type": "uint256"
        },
        {
          "internalType": "uint80",
          "name": "answeredInRound",
          "type": "uint80"
        }
      ],
      "stateMutability": "view",
      "type": "function"
    },
    {
      "inputs": [
        {
          "internalType": "uint256",
          "name": "_roundId",
          "type": "uint256"
        }
      ],
      "name": "getTimestamp",
      "outputs": [
        {
          "internalType": "uint256",
          "name": "",
          "type": "uint256"
        }
      ],
      "stateMutability": "view",
      "type": "function"
    },
    {
      "inputs": [],
      "name": "latestAnswer",
      "outputs": [
        {
          "internalType": "int256",
          "name": "",
          "type": "int256"
        }
      ],
      "stateMutability": "view",
      "type": "function"
    },
    {
      "inputs": [],
      "name": "latestRound",
      "outputs": [
        {
          "internalType": "uint256",
          "name": "",
          "type": "uint256"
        }
      ],
      "stateMutability": "view",
      "type": "function"
    },
    {
      "inputs": [],
      "name": "latestRoundData",
      "outputs": [
        {
          "internalType": "uint80",
          "name": "roundId",
          "type": "uint80"
        },
        {
          "internalType": "int256",
          "name": "answer",
          "type": "int256"
        },
        {
          "internalType": "uint256",
          "name": "startedAt",
          "type": "uint256"
        },
        {
          "internalType": "uint256",
          "name": "updatedAt",
          "type": "uint256"
        },
        {
          "internalType": "uint80",
          "name": "answeredInRound",
          "type": "uint80"
        }
      ],
      "stateMutability": "view",
      "type": "function"
    },
    {
      "inputs": [],
      "name": "latestTimestamp",
      "outputs": [
        {
          "internalType": "uint256",
          "name": "",
          "type": "uint256"
        }
      ],
      "stateMutability": "view",
      "type": "function"
    },
    {
      "inputs": [],
      "name": "version",
      "outputs": [
        {
          "internalType": "uint256",
          "name": "",
          "type": "uint256"
        }
      ],
      "stateMutability": "view",
      "type": "function"
    }
  ],
  "bytecode": "0x608060405234801561001057600080fd5b50604051610afb380380610afb8339818101604052606081101561003357600080fd5b8151602083015160408085018051915193959294830192918464010000000082111561005e57600080fd5b90830190602082018581111561007357600080fd5b825164010000000081118282018810171561008d57600080fd5b82525081516020918201929091019080838360005b838110156100ba5781810151838201526020016100a2565b50505050905090810190601f1680156100e75780820380516001836020036101000a031916815260200191505b506040525050600080546001600160a01b0319166001600160a01b0386161760ff60a01b1916600160a01b60ff86160217905550805161012e906001906020840190610137565b505050506101d2565b828054600181600116156101000203166002900490600052602060002090601f016020900481019282601f1061017857805160ff19168380011785556101a5565b828001600101855582156101a5579182015b828111156101a557825182559160200191906001019061018a565b506101b19291506101b5565b5090565b6101cf91905b808211156101b157600081556001016101bb565b90565b61091a806101e16000396000f3fe608060405234801561001057600080fd5b50600436106100c95760003560e01c80637284e41611610081578063b5ab58dc1161005b578063b5ab58dc14610234578063b633620c14610251578063feaf968c1461026e576100c9565b80637284e416146101475780638205bf6a146101c45780639a6fc8f5146101cc576100c9565b806350d25bcd116100b257806350d25bcd1461011d57806354fd4d5014610137578063668a0f021461013f576100c9565b8063245a7bfc146100ce578063313ce567146100ff575b600080fd5b6100d6610276565b6040805173ffffffffffffffffffffffffffffffffffffffff9092168252519081900360200190f35b610107610292565b6040805160ff9092168252519081900360200190f35b6101256102b3565b60408051918252519081900360200190f35b61012561034d565b610125610352565b61014f6103bb565b6040805160208082528351818301528351919283929083019185019080838360005b83811015610189578181015183820152602001610171565b50505050905090810190601f1680156101b65780820380516001836020036101000a031916815260200191505b509250505060405180910390f35b610125610466565b6101f5600480360360208110156101e257600080fd5b503569ffffffffffffffffffff166104cf565b6040805169ffffffffffffffffffff96871681526020810195909552848101939093526060840191909152909216608082015290519081900360a00190f35b6101256004803603602081101561024a57600080fd5b50356104f2565b6101256004803603602081101561026757600080fd5b5035610597565b6101f561060a565b60005473ffffffffffffffffffffffffffffffffffffffff1681565b60005474010000000000000000000000000000000000000000900460ff1681565b60008060009054906101000a900473ffffffffffffffffffffffffffffffffffffffff1673ffffffffffffffffffffffffffffffffffffffff166350d25bcd6040518163ffffffff1660e01b815260040160206040518083038186803b15801561031c57600080fd5b505afa158015610330573d6000803e3d6000fd5b505050506040513d602081101561034657600080fd5b5051905090565b600281565b60008060009054906101000a900473ffffffffffffffffffffffffffffffffffffffff1673ffffffffffffffffffffffffffffffffffffffff1663668a0f026040518163ffffffff1660e01b815260040160206040518083038186803b15801561031c57600080fd5b60018054604080516020600284861615610100027fffffffffffffffffffffffffffffffffffffffffffffffffffffffffffffffff0190941693909304601f8101849004840282018401909252818152929183018282801561045e5780601f106104335761010080835404028352916020019161045e565b820191906000526020600020905b81548152906001019060200180831161044157829003601f168201915b505050505081565b60008060009054906101000a900473ffffffffffffffffffffffffffffffffffffffff1673ffffffffffffffffffffffffffffffffffffffff16638205bf6a6040518163ffffffff1660e01b815260040160206040518083038186803b15801561031c57600080fd5b60008060008060006104e0866106be565b939a9299509097509550909350915050565b60008054604080517fb5ab58dc00000000000000000000000000000000000000000000000000000000815260048101859052905173ffffffffffffffffffffffffffffffffffffffff9092169163b5ab58dc91602480820192602092909190829003018186803b15801561056557600080fd5b505afa158015610579573d6000803e3d6000fd5b505050506040513d602081101561058f57600080fd5b505192915050565b60008054604080517fb633620c00000000000000000000000000000000000000000000000000000000815260048101859052905173ffffffffffffffffffffffffffffffffffffffff9092169163b633620c91602480820192602092909190829003018186803b15801561056557600080fd5b60008060008060006106ad6000809054906101000a900473ffffffffffffffffffffffffffffffffffffffff1673ffffffffffffffffffffffffffffffffffffffff1663668a0f026040518163ffffffff1660e01b815260040160206040518083038186803b15801561067c57600080fd5b505afa158015610690573d6000803e3d6000fd5b505050506040513d60208110156106a657600080fd5b50516106be565b945094509450945094509091929394565b60008054604080517fb5ab58dc00000000000000000000000000000000000000000000000000000000815269ffffffffffffffffffff851660048201529051839283928392839273ffffffffffffffffffffffffffffffffffffffff169163b5ab58dc916024808301926020929190829003018186803b15801561074157600080fd5b505afa158015610755573d6000803e3d6000fd5b505050506040513d602081101561076b57600080fd5b5051600054604080517fb633620c00000000000000000000000000000000000000000000000000000000815269ffffffffffffffffffff8a166004820152905192965073ffffffffffffffffffffffffffffffffffffffff9091169163b633620c91602480820192602092909190829003018186803b1580156107ed57600080fd5b505afa158015610801573d6000803e3d6000fd5b505050506040513d602081101561081757600080fd5b505160408051808201909152600f81527f4e6f20646174612070726573656e740000000000000000000000000000000000602082015267ffffffffffffffff9091169250826108fe576040517f08c379a00000000000000000000000000000000000000000000000000000000081526004018080602001828103825283818151815260200191508051906020019080838360005b838110156108c35781810151838201526020016108ab565b50505050905090810190601f1680156108f05780820380516001836020036101000a031916815260200191505b509250505060405180910390fd5b5094959294509250829185915056fea164736f6c6343000606000a",
  "linkReferences": {},
  "deployedLinkReferences": {}
}