{
  "_format": "hh-sol-artifact-1",
  "contractName": "Oracle",
  "sourceName": "src/v0.4/Oracle.sol",
  "abi": [
    {
      "constant": false,
      "inputs": [
        {
          "name": "_sender",
          "type": "address"
        },
        {
          "name": "_payment",
          "type": "uint256"
        },
        {
          "name": "_specId",
          "type": "bytes32"
        },
        {
          "name": "_callbackAddress",
          "type": "address"
        },
        {
          "name": "_callbackFunctionId",
          "type": "bytes4"
        },
        {
          "name": "_nonce",
          "type": "uint256"
        },
        {
          "name": "_dataVersion",
          "type": "uint256"
        },
        {
          "name": "_data",
          "type": "bytes"
        }
      ],
      "name": "oracleRequest",
      "outputs": [],
      "payable": false,
      "stateMutability": "nonpayable",
      "type": "function"
    },
    {
      "constant": false,
      "inputs": [
        {
          "name": "_requestId",
          "type": "bytes32"
        },
        {
          "name": "_payment",
          "type": "uint256"
        },
        {
          "name": "_callbackAddress",
          "type": "address"
        },
        {
          "name": "_callbackFunctionId",
          "type": "bytes4"
        },
        {
          "name": "_expiration",
          "type": "uint256"
        },
        {
          "name": "_data",
          "type": "bytes32"
        }
      ],
      "name": "fulfillOracleRequest",
      "outputs": [
        {
          "name": "",
          "type": "bool"
        }
      ],
      "payable": false,
      "stateMutability": "nonpayable",
      "type": "function"
    },
    {
      "constant": true,
      "inputs": [],
      "name": "EXPIRY_TIME",
      "outputs": [
        {
          "name": "",
          "type": "uint256"
        }
      ],
      "payable": false,
      "stateMutability": "view",
      "type": "function"
    },
    {
      "constant": true,
      "inputs": [],
      "name": "withdrawable",
      "outputs": [
        {
          "name": "",
          "type": "uint256"
        }
      ],
      "payable": false,
      "stateMutability": "view",
      "type": "function"
    },
    {
      "constant": false,
      "inputs": [
        {
          "name": "_requestId",
          "type": "bytes32"
        },
        {
          "name": "_payment",
          "type": "uint256"
        },
        {
          "name": "_callbackFunc",
          "type": "bytes4"
        },
        {
          "name": "_expiration",
          "type": "uint256"
        }
      ],
      "name": "cancelOracleRequest",
      "outputs": [],
      "payable": false,
      "stateMutability": "nonpayable",
      "type": "function"
    },
    {
      "constant": false,
      "inputs": [],
      "name": "renounceOwnership",
      "outputs": [],
      "payable": false,
      "stateMutability": "nonpayable",
      "type": "function"
    },
    {
      "constant": false,
      "inputs": [
        {
          "name": "_node",
          "type": "address"
        },
        {
          "name": "_allowed",
          "type": "bool"
        }
      ],
      "name": "setFulfillmentPermission",
      "outputs": [],
      "payable": false,
      "stateMutability": "nonpayable",
      "type": "function"
    },
    {
      "constant": true,
      "inputs": [],
      "name": "owner",
      "outputs": [
        {
          "name": "",
          "type": "address"
        }
      ],
      "payable": false,
      "stateMutability": "view",
      "type": "function"
    },
    {
      "constant": false,
      "inputs": [
        {
          "name": "_sender",
          "type": "address"
        },
        {
          "name": "_amount",
          "type": "uint256"
        },
        {
          "name": "_data",
          "type": "bytes"
        }
      ],
      "name": "onTokenTransfer",
      "outputs": [],
      "payable": false,
      "stateMutability": "nonpayable",
      "type": "function"
    },
    {
      "constant": true,
      "inputs": [
        {
          "name": "_node",
          "type": "address"
        }
      ],
      "name": "getAuthorizationStatus",
      "outputs": [
        {
          "name": "",
          "type": "bool"
        }
      ],
      "payable": false,
      "stateMutability": "view",
      "type": "function"
    },
    {
      "constant": false,
      "inputs": [
        {
          "name": "_newOwner",
          "type": "address"
        }
      ],
      "name": "transferOwnership",
      "outputs": [],
      "payable": false,
      "stateMutability": "nonpayable",
      "type": "function"
    },
    {
      "constant": false,
      "inputs": [
        {
          "name": "_recipient",
          "type": "address"
        },
        {
          "name": "_amount",
          "type": "uint256"
        }
      ],
      "name": "withdraw",
      "outputs": [],
      "payable": false,
      "stateMutability": "nonpayable",
      "type": "function"
    },
    {
      "inputs": [
        {
          "name": "_link",
          "type": "address"
        }
      ],
      "payable": false,
      "stateMutability": "nonpayable",
      "type": "constructor"
    },
    {
      "anonymous": false,
      "inputs": [
        {
          "indexed": true,
          "name": "specId",
          "type": "bytes32"
        },
        {
          "indexed": false,
          "name": "requester",
          "type": "address"
        },
        {
          "indexed": false,
          "name": "requestId",
          "type": "bytes32"
        },
        {
          "indexed": false,
          "name": "payment",
          "type": "uint256"
        },
        {
          "indexed": false,
          "name": "callbackAddr",
          "type": "address"
        },
        {
          "indexed": false,
          "name": "callbackFunctionId",
          "type": "bytes4"
        },
        {
          "indexed": false,
          "name": "cancelExpiration",
          "type": "uint256"
        },
        {
          "indexed": false,
          "name": "dataVersion",
          "type": "uint256"
        },
        {
          "indexed": false,
          "name": "data",
          "type": "bytes"
        }
      ],
      "name": "OracleRequest",
      "type": "event"
    },
    {
      "anonymous": false,
      "inputs": [
        {
          "indexed": true,
          "name": "requestId",
          "type": "bytes32"
        }
      ],
      "name": "CancelOracleRequest",
      "type": "event"
    },
    {
      "anonymous": false,
      "inputs": [
        {
          "indexed": true,
          "name": "previousOwner",
          "type": "address"
        }
      ],
      "name": "OwnershipRenounced",
      "type": "event"
    },
    {
      "anonymous": false,
      "inputs": [
        {
          "indexed": true,
          "name": "previousOwner",
          "type": "address"
        },
        {
          "indexed": true,
          "name": "newOwner",
          "type": "address"
        }
      ],
      "name": "OwnershipTransferred",
      "type": "event"
    }
  ],
  "bytecode": "0x6080604052600160045534801561001557600080fd5b506040516020806116d9833981016040525160008054600160a060020a0319908116331790915560018054600160a060020a0390931692909116919091179055611675806100646000396000f3006080604052600436106100b95763ffffffff7c01000000000000000000000000000000000000000000000000000000006000350416634042994681146100be5780634ab0d190146101365780634b602282146101a957806350188301146101d05780636ee4d553146101e5578063715018a6146102285780637fcd56db1461023d5780638da5cb5b14610270578063a4c0ed36146102ae578063d3e9c31414610324578063f2fde38b14610352578063f3fef3a314610380575b600080fd5b3480156100ca57600080fd5b5061013473ffffffffffffffffffffffffffffffffffffffff6004803582169160248035926044359260643516917fffffffff00000000000000000000000000000000000000000000000000000000608435169160a4359160c4359160e4359182019101356103b1565b005b34801561014257600080fd5b5061019560043560243573ffffffffffffffffffffffffffffffffffffffff604435167fffffffff000000000000000000000000000000000000000000000000000000006064351660843560a4356108a1565b604080519115158252519081900360200190f35b3480156101b557600080fd5b506101be610c8b565b60408051918252519081900360200190f35b3480156101dc57600080fd5b506101be610c91565b3480156101f157600080fd5b506101346004356024357fffffffff0000000000000000000000000000000000000000000000000000000060443516606435610ccf565b34801561023457600080fd5b50610134610fa4565b34801561024957600080fd5b5061013473ffffffffffffffffffffffffffffffffffffffff600435166024351515611035565b34801561027c57600080fd5b506102856110af565b6040805173ffffffffffffffffffffffffffffffffffffffff9092168252519081900360200190f35b3480156102ba57600080fd5b50604080516020600460443581810135601f810184900484028501840190955284845261013494823573ffffffffffffffffffffffffffffffffffffffff169460248035953695946064949201919081908401838280828437509497506110cb9650505050505050565b34801561033057600080fd5b5061019573ffffffffffffffffffffffffffffffffffffffff6004351661137e565b34801561035e57600080fd5b5061013473ffffffffffffffffffffffffffffffffffffffff600435166113a9565b34801561038c57600080fd5b5061013473ffffffffffffffffffffffffffffffffffffffff600435166024356113d9565b600154600090819073ffffffffffffffffffffffffffffffffffffffff16331461043c57604080517f08c379a000000000000000000000000000000000000000000000000000000000815260206004820152601360248201527f4d75737420757365204c494e4b20746f6b656e00000000000000000000000000604482015290519081900360640190fd5b600154889073ffffffffffffffffffffffffffffffffffffffff808316911614156104c857604080517f08c379a000000000000000000000000000000000000000000000000000000000815260206004820152601760248201527f43616e6e6f742063616c6c6261636b20746f204c494e4b000000000000000000604482015290519081900360640190fd5b8b87604051602001808373ffffffffffffffffffffffffffffffffffffffff1673ffffffffffffffffffffffffffffffffffffffff166c01000000000000000000000000028152601401828152602001925050506040516020818303038152906040526040518082805190602001908083835b6020831061057857805182527fffffffffffffffffffffffffffffffffffffffffffffffffffffffffffffffe0909201916020918201910161053b565b51815160209384036101000a7fffffffffffffffffffffffffffffffffffffffffffffffffffffffffffffffff01801990921691161790526040805192909401829003909120600081815260029092529290205491965050159150610640905057604080517f08c379a000000000000000000000000000000000000000000000000000000000815260206004820152601460248201527f4d75737420757365206120756e69717565204944000000000000000000000000604482015290519081900360640190fd5b6106524261012c63ffffffff61157516565b6040805160208082018f90526c0100000000000000000000000073ffffffffffffffffffffffffffffffffffffffff8e1602828401527fffffffff000000000000000000000000000000000000000000000000000000008c1660548301526058808301859052835180840390910181526078909201928390528151939550909282918401908083835b6020831061071857805182527fffffffffffffffffffffffffffffffffffffffffffffffffffffffffffffffe090920191602091820191016106db565b6001836020036101000a0380198251168184511680821785525050505050509050019150506040518091039020600260008560001916600019168152602001908152602001600020816000191690555089600019167fd8d7ecc4800d25fa53ce0372f13a416d98907a7ef3d8d3bdd79cf4fe75529c658d858e8d8d888d8d8d604051808a73ffffffffffffffffffffffffffffffffffffffff1673ffffffffffffffffffffffffffffffffffffffff16815260200189600019166000191681526020018881526020018773ffffffffffffffffffffffffffffffffffffffff1673ffffffffffffffffffffffffffffffffffffffff168152602001867bffffffffffffffffffffffffffffffffffffffffffffffffffffffff19167bffffffffffffffffffffffffffffffffffffffffffffffffffffffff1916815260200185815260200184815260200180602001828103825284848281815260200192508082843760405192018290039c50909a5050505050505050505050a2505050505050505050505050565b33600090815260036020526040812054819060ff16806108d8575060005473ffffffffffffffffffffffffffffffffffffffff1633145b151561096b57604080517f08c379a000000000000000000000000000000000000000000000000000000000815260206004820152602a60248201527f4e6f7420616e20617574686f72697a6564206e6f646520746f2066756c66696c60448201527f6c20726571756573747300000000000000000000000000000000000000000000606482015290519081900360840190fd5b600088815260026020526040902054889015156109e957604080517f08c379a000000000000000000000000000000000000000000000000000000000815260206004820152601b60248201527f4d757374206861766520612076616c6964207265717565737449640000000000604482015290519081900360640190fd5b6040805160208082018b90526c0100000000000000000000000073ffffffffffffffffffffffffffffffffffffffff8b1602828401527fffffffff0000000000000000000000000000000000000000000000000000000089166054830152605880830189905283518084039091018152607890920192839052815191929182918401908083835b60208310610aad57805182527fffffffffffffffffffffffffffffffffffffffffffffffffffffffffffffffe09092019160209182019101610a70565b51815160209384036101000a7fffffffffffffffffffffffffffffffffffffffffffffffffffffffffffffffff0180199092169116179052604080519290940182900390912060008f81526002909252929020549195505084149150610b76905057604080517f08c379a000000000000000000000000000000000000000000000000000000000815260206004820152601e60248201527f506172616d7320646f206e6f74206d6174636820726571756573742049440000604482015290519081900360640190fd5b600454610b89908963ffffffff61157516565b60045560008981526002602052604081205562061a805a1015610c0d57604080517f08c379a000000000000000000000000000000000000000000000000000000000815260206004820181905260248201527f4d7573742070726f7669646520636f6e73756d657220656e6f75676820676173604482015290519081900360640190fd5b6040805163ffffffff7c0100000000000000000000000000000000000000000000000000000000808a04918216028252600482018c905260248201879052915173ffffffffffffffffffffffffffffffffffffffff8a169291604480820192600092909190829003018183875af19c9b505050505050505050505050565b61012c81565b6000805473ffffffffffffffffffffffffffffffffffffffff163314610cb657600080fd5b600454610cca90600163ffffffff61158816565b905090565b6040805160208082018690526c010000000000000000000000003302828401527fffffffff00000000000000000000000000000000000000000000000000000000851660548301526058808301859052835180840390910181526078909201928390528151600093918291908401908083835b60208310610d7f57805182527fffffffffffffffffffffffffffffffffffffffffffffffffffffffffffffffe09092019160209182019101610d42565b51815160209384036101000a7fffffffffffffffffffffffffffffffffffffffffffffffffffffffffffffffff0180199092169116179052604080519290940182900390912060008b81526002909252929020549194505083149150610e48905057604080517f08c379a000000000000000000000000000000000000000000000000000000000815260206004820152601e60248201527f506172616d7320646f206e6f74206d6174636820726571756573742049440000604482015290519081900360640190fd5b42821115610eb757604080517f08c379a000000000000000000000000000000000000000000000000000000000815260206004820152601660248201527f52657175657374206973206e6f74206578706972656400000000000000000000604482015290519081900360640190fd5b6000858152600260205260408082208290555186917fa7842b9ec549398102c0d91b1b9919b2f20558aefdadf57528a95c6cd3292e9391a2600154604080517fa9059cbb00000000000000000000000000000000000000000000000000000000815233600482015260248101879052905173ffffffffffffffffffffffffffffffffffffffff9092169163a9059cbb916044808201926020929091908290030181600087803b158015610f6957600080fd5b505af1158015610f7d573d6000803e3d6000fd5b505050506040513d6020811015610f9357600080fd5b50511515610f9d57fe5b5050505050565b60005473ffffffffffffffffffffffffffffffffffffffff163314610fc857600080fd5b6000805460405173ffffffffffffffffffffffffffffffffffffffff909116917ff8df31144d9c2f0f6b59d69b8b98abd5459d07f2742c4df920b25aae33c6482091a2600080547fffffffffffffffffffffffff0000000000000000000000000000000000000000169055565b60005473ffffffffffffffffffffffffffffffffffffffff16331461105957600080fd5b73ffffffffffffffffffffffffffffffffffffffff91909116600090815260036020526040902080547fffffffffffffffffffffffffffffffffffffffffffffffffffffffffffffff0016911515919091179055565b60005473ffffffffffffffffffffffffffffffffffffffff1681565b60015473ffffffffffffffffffffffffffffffffffffffff16331461115157604080517f08c379a000000000000000000000000000000000000000000000000000000000815260206004820152601360248201527f4d75737420757365204c494e4b20746f6b656e00000000000000000000000000604482015290519081900360640190fd5b80518190604411156111c457604080517f08c379a000000000000000000000000000000000000000000000000000000000815260206004820152601660248201527f496e76616c69642072657175657374206c656e67746800000000000000000000604482015290519081900360640190fd5b602082015182907fffffffff0000000000000000000000000000000000000000000000000000000081167f40429946000000000000000000000000000000000000000000000000000000001461127b57604080517f08c379a000000000000000000000000000000000000000000000000000000000815260206004820152601e60248201527f4d757374207573652077686974656c69737465642066756e6374696f6e730000604482015290519081900360640190fd5b8560248501528460448501523073ffffffffffffffffffffffffffffffffffffffff168460405180828051906020019080838360005b838110156112c95781810151838201526020016112b1565b50505050905090810190601f1680156112f65780820380516001836020036101000a031916815260200191505b50915050600060405180830381855af4915050151561137657604080517f08c379a000000000000000000000000000000000000000000000000000000000815260206004820152601860248201527f556e61626c6520746f2063726561746520726571756573740000000000000000604482015290519081900360640190fd5b505050505050565b73ffffffffffffffffffffffffffffffffffffffff1660009081526003602052604090205460ff1690565b60005473ffffffffffffffffffffffffffffffffffffffff1633146113cd57600080fd5b6113d68161159a565b50565b60005473ffffffffffffffffffffffffffffffffffffffff1633146113fd57600080fd5b8061140f81600163ffffffff61157516565b60045410156114a557604080517f08c379a000000000000000000000000000000000000000000000000000000000815260206004820152603560248201527f416d6f756e74207265717565737465642069732067726561746572207468616e60448201527f20776974686472617761626c652062616c616e63650000000000000000000000606482015290519081900360840190fd5b6004546114b8908363ffffffff61158816565b6004908155600154604080517fa9059cbb00000000000000000000000000000000000000000000000000000000815273ffffffffffffffffffffffffffffffffffffffff87811694820194909452602481018690529051929091169163a9059cbb916044808201926020929091908290030181600087803b15801561153c57600080fd5b505af1158015611550573d6000803e3d6000fd5b505050506040513d602081101561156657600080fd5b5051151561157057fe5b505050565b8181018281101561158257fe5b92915050565b60008282111561159457fe5b50900390565b73ffffffffffffffffffffffffffffffffffffffff811615156115bc57600080fd5b6000805460405173ffffffffffffffffffffffffffffffffffffffff808516939216917f8be0079c531659141344cd1fd0a4f28419497f9722a3daafe3b4186f6b6457e091a3600080547fffffffffffffffffffffffff00000000000000000000000000000000000000001673ffffffffffffffffffffffffffffffffffffffff929092169190911790555600a165627a7a723058209fe9b21853e98841186a9702b7b7b9e016e4f3f4f0db29fbbdde56026d2e34830029",
  "linkReferences": {},
  "deployedLinkReferences": {}
}