{
  "_format": "hh-sol-artifact-1",
  "contractName": "VRFCoordinatorV2TestHelper",
  "sourceName": "src/v0.8/tests/VRFCoordinatorV2TestHelper.sol",
  "abi": [
    {
      "inputs": [
        {
          "internalType": "address",
          "name": "link",
          "type": "address"
        },
        {
          "internalType": "address",
          "name": "blockhashStore",
          "type": "address"
        },
        {
          "internalType": "address",
          "name": "linkEthFeed",
          "type": "address"
        }
      ],
      "stateMutability": "nonpayable",
      "type": "constructor"
    },
    {
      "inputs": [
        {
          "internalType": "uint256",
          "name": "internalBalance",
          "type": "uint256"
        },
        {
          "internalType": "uint256",
          "name": "externalBalance",
          "type": "uint256"
        }
      ],
      "name": "BalanceInvariantViolated",
      "type": "error"
    },
    {
      "inputs": [
        {
          "internalType": "uint256",
          "name": "blockNum",
          "type": "uint256"
        }
      ],
      "name": "BlockhashNotInStore",
      "type": "error"
    },
    {
      "inputs": [
        {
          "internalType": "uint32",
          "name": "have",
          "type": "uint32"
        },
        {
          "internalType": "uint32",
          "name": "want",
          "type": "uint32"
        }
      ],
      "name": "GasLimitTooBig",
      "type": "error"
    },
    {
      "inputs": [],
      "name": "IncorrectCommitment",
      "type": "error"
    },
    {
      "inputs": [],
      "name": "InsufficientBalance",
      "type": "error"
    },
    {
      "inputs": [
        {
          "internalType": "uint256",
          "name": "have",
          "type": "uint256"
        },
        {
          "internalType": "uint256",
          "name": "want",
          "type": "uint256"
        }
      ],
      "name": "InsufficientGasForConsumer",
      "type": "error"
    },
    {
      "inputs": [],
      "name": "InvalidCalldata",
      "type": "error"
    },
    {
      "inputs": [
        {
          "internalType": "uint64",
          "name": "subId",
          "type": "uint64"
        },
        {
          "internalType": "address",
          "name": "consumer",
          "type": "address"
        }
      ],
      "name": "InvalidConsumer",
      "type": "error"
    },
    {
      "inputs": [
        {
          "internalType": "int256",
          "name": "linkWei",
          "type": "int256"
        }
      ],
      "name": "InvalidLinkWeiPrice",
      "type": "error"
    },
    {
      "inputs": [
        {
          "internalType": "uint16",
          "name": "have",
          "type": "uint16"
        },
        {
          "internalType": "uint16",
          "name": "min",
          "type": "uint16"
        },
        {
          "internalType": "uint16",
          "name": "max",
          "type": "uint16"
        }
      ],
      "name": "InvalidRequestConfirmations",
      "type": "error"
    },
    {
      "inputs": [],
      "name": "InvalidSubscription",
      "type": "error"
    },
    {
      "inputs": [
        {
          "internalType": "address",
          "name": "proposedOwner",
          "type": "address"
        }
      ],
      "name": "MustBeRequestedOwner",
      "type": "error"
    },
    {
      "inputs": [
        {
          "internalType": "address",
          "name": "owner",
          "type": "address"
        }
      ],
      "name": "MustBeSubOwner",
      "type": "error"
    },
    {
      "inputs": [],
      "name": "NoCorrespondingRequest",
      "type": "error"
    },
    {
      "inputs": [
        {
          "internalType": "bytes32",
          "name": "keyHash",
          "type": "bytes32"
        }
      ],
      "name": "NoSuchProvingKey",
      "type": "error"
    },
    {
      "inputs": [
        {
          "internalType": "uint32",
          "name": "have",
          "type": "uint32"
        },
        {
          "internalType": "uint32",
          "name": "want",
          "type": "uint32"
        }
      ],
      "name": "NumWordsTooBig",
      "type": "error"
    },
    {
      "inputs": [],
      "name": "OnlyCallableFromLink",
      "type": "error"
    },
    {
      "inputs": [],
      "name": "PaymentTooLarge",
      "type": "error"
    },
    {
      "inputs": [
        {
          "internalType": "bytes32",
          "name": "keyHash",
          "type": "bytes32"
        }
      ],
      "name": "ProvingKeyAlreadyRegistered",
      "type": "error"
    },
    {
      "inputs": [],
      "name": "Reentrant",
      "type": "error"
    },
    {
      "inputs": [],
      "name": "TooManyConsumers",
      "type": "error"
    },
    {
      "anonymous": false,
      "inputs": [
        {
          "indexed": false,
          "internalType": "uint16",
          "name": "minimumRequestConfirmations",
          "type": "uint16"
        },
        {
          "indexed": false,
          "internalType": "uint32",
          "name": "fulfillmentFlatFeeLinkPPM",
          "type": "uint32"
        },
        {
          "indexed": false,
          "internalType": "uint32",
          "name": "maxGasLimit",
          "type": "uint32"
        },
        {
          "indexed": false,
          "internalType": "uint32",
          "name": "stalenessSeconds",
          "type": "uint32"
        },
        {
          "indexed": false,
          "internalType": "uint32",
          "name": "gasAfterPaymentCalculation",
          "type": "uint32"
        },
        {
          "indexed": false,
          "internalType": "uint96",
          "name": "minimumSubscriptionBalance",
          "type": "uint96"
        },
        {
          "indexed": false,
          "internalType": "int256",
          "name": "fallbackWeiPerUnitLink",
          "type": "int256"
        }
      ],
      "name": "ConfigSet",
      "type": "event"
    },
    {
      "anonymous": false,
      "inputs": [
        {
          "indexed": false,
          "internalType": "address",
          "name": "to",
          "type": "address"
        },
        {
          "indexed": false,
          "internalType": "uint256",
          "name": "amount",
          "type": "uint256"
        }
      ],
      "name": "FundsRecovered",
      "type": "event"
    },
    {
      "anonymous": false,
      "inputs": [
        {
          "indexed": true,
          "internalType": "address",
          "name": "from",
          "type": "address"
        },
        {
          "indexed": true,
          "internalType": "address",
          "name": "to",
          "type": "address"
        }
      ],
      "name": "OwnershipTransferRequested",
      "type": "event"
    },
    {
      "anonymous": false,
      "inputs": [
        {
          "indexed": true,
          "internalType": "address",
          "name": "from",
          "type": "address"
        },
        {
          "indexed": true,
          "internalType": "address",
          "name": "to",
          "type": "address"
        }
      ],
      "name": "OwnershipTransferred",
      "type": "event"
    },
    {
      "anonymous": false,
      "inputs": [
        {
          "indexed": false,
          "internalType": "bytes32",
          "name": "keyHash",
          "type": "bytes32"
        },
        {
          "indexed": true,
          "internalType": "address",
          "name": "oracle",
          "type": "address"
        }
      ],
      "name": "ProvingKeyDeregistered",
      "type": "event"
    },
    {
      "anonymous": false,
      "inputs": [
        {
          "indexed": false,
          "internalType": "bytes32",
          "name": "keyHash",
          "type": "bytes32"
        },
        {
          "indexed": true,
          "internalType": "address",
          "name": "oracle",
          "type": "address"
        }
      ],
      "name": "ProvingKeyRegistered",
      "type": "event"
    },
    {
      "anonymous": false,
      "inputs": [
        {
          "indexed": true,
          "internalType": "uint256",
          "name": "requestId",
          "type": "uint256"
        },
        {
          "indexed": false,
          "internalType": "uint256[]",
          "name": "output",
          "type": "uint256[]"
        },
        {
          "indexed": false,
          "internalType": "bool",
          "name": "success",
          "type": "bool"
        }
      ],
      "name": "RandomWordsFulfilled",
      "type": "event"
    },
    {
      "anonymous": false,
      "inputs": [
        {
          "indexed": true,
          "internalType": "bytes32",
          "name": "keyHash",
          "type": "bytes32"
        },
        {
          "indexed": false,
          "internalType": "uint256",
          "name": "requestId",
          "type": "uint256"
        },
        {
          "indexed": false,
          "internalType": "uint256",
          "name": "preSeed",
          "type": "uint256"
        },
        {
          "indexed": false,
          "internalType": "uint64",
          "name": "subId",
          "type": "uint64"
        },
        {
          "indexed": false,
          "internalType": "uint16",
          "name": "minimumRequestConfirmations",
          "type": "uint16"
        },
        {
          "indexed": false,
          "internalType": "uint32",
          "name": "callbackGasLimit",
          "type": "uint32"
        },
        {
          "indexed": false,
          "internalType": "uint32",
          "name": "numWords",
          "type": "uint32"
        },
        {
          "indexed": true,
          "internalType": "address",
          "name": "sender",
          "type": "address"
        }
      ],
      "name": "RandomWordsRequested",
      "type": "event"
    },
    {
      "anonymous": false,
      "inputs": [
        {
          "indexed": true,
          "internalType": "uint64",
          "name": "subId",
          "type": "uint64"
        },
        {
          "indexed": false,
          "internalType": "address",
          "name": "to",
          "type": "address"
        },
        {
          "indexed": false,
          "internalType": "uint256",
          "name": "amount",
          "type": "uint256"
        }
      ],
      "name": "SubscriptionCanceled",
      "type": "event"
    },
    {
      "anonymous": false,
      "inputs": [
        {
          "indexed": true,
          "internalType": "uint64",
          "name": "subId",
          "type": "uint64"
        },
        {
          "indexed": false,
          "internalType": "address",
          "name": "consumer",
          "type": "address"
        }
      ],
      "name": "SubscriptionConsumerAdded",
      "type": "event"
    },
    {
      "anonymous": false,
      "inputs": [
        {
          "indexed": true,
          "internalType": "uint64",
          "name": "subId",
          "type": "uint64"
        },
        {
          "indexed": false,
          "internalType": "address",
          "name": "consumer",
          "type": "address"
        }
      ],
      "name": "SubscriptionConsumerRemoved",
      "type": "event"
    },
    {
      "anonymous": false,
      "inputs": [
        {
          "indexed": true,
          "internalType": "uint64",
          "name": "subId",
          "type": "uint64"
        },
        {
          "indexed": false,
          "internalType": "address",
          "name": "owner",
          "type": "address"
        }
      ],
      "name": "SubscriptionCreated",
      "type": "event"
    },
    {
      "anonymous": false,
      "inputs": [
        {
          "indexed": true,
          "internalType": "uint64",
          "name": "subId",
          "type": "uint64"
        },
        {
          "indexed": false,
          "internalType": "uint256",
          "name": "oldBalance",
          "type": "uint256"
        },
        {
          "indexed": false,
          "internalType": "uint256",
          "name": "newBalance",
          "type": "uint256"
        }
      ],
      "name": "SubscriptionDefunded",
      "type": "event"
    },
    {
      "anonymous": false,
      "inputs": [
        {
          "indexed": true,
          "internalType": "uint64",
          "name": "subId",
          "type": "uint64"
        },
        {
          "indexed": false,
          "internalType": "uint256",
          "name": "oldBalance",
          "type": "uint256"
        },
        {
          "indexed": false,
          "internalType": "uint256",
          "name": "newBalance",
          "type": "uint256"
        }
      ],
      "name": "SubscriptionFunded",
      "type": "event"
    },
    {
      "anonymous": false,
      "inputs": [
        {
          "indexed": true,
          "internalType": "uint64",
          "name": "subId",
          "type": "uint64"
        },
        {
          "indexed": false,
          "internalType": "address",
          "name": "from",
          "type": "address"
        },
        {
          "indexed": false,
          "internalType": "address",
          "name": "to",
          "type": "address"
        }
      ],
      "name": "SubscriptionOwnerTransferRequested",
      "type": "event"
    },
    {
      "anonymous": false,
      "inputs": [
        {
          "indexed": true,
          "internalType": "uint64",
          "name": "subId",
          "type": "uint64"
        },
        {
          "indexed": false,
          "internalType": "address",
          "name": "from",
          "type": "address"
        },
        {
          "indexed": false,
          "internalType": "address",
          "name": "to",
          "type": "address"
        }
      ],
      "name": "SubscriptionOwnerTransferred",
      "type": "event"
    },
    {
      "inputs": [],
      "name": "BLOCKHASH_STORE",
      "outputs": [
        {
          "internalType": "contract BlockhashStoreInterface",
          "name": "",
          "type": "address"
        }
      ],
      "stateMutability": "view",
      "type": "function"
    },
    {
      "inputs": [],
      "name": "LINK",
      "outputs": [
        {
          "internalType": "contract LinkTokenInterface",
          "name": "",
          "type": "address"
        }
      ],
      "stateMutability": "view",
      "type": "function"
    },
    {
      "inputs": [],
      "name": "LINK_ETH_FEED",
      "outputs": [
        {
          "internalType": "contract AggregatorV3Interface",
          "name": "",
          "type": "address"
        }
      ],
      "stateMutability": "view",
      "type": "function"
    },
    {
      "inputs": [],
      "name": "MAX_CONSUMERS",
      "outputs": [
        {
          "internalType": "uint16",
          "name": "",
          "type": "uint16"
        }
      ],
      "stateMutability": "view",
      "type": "function"
    },
    {
      "inputs": [],
      "name": "MAX_NUM_WORDS",
      "outputs": [
        {
          "internalType": "uint32",
          "name": "",
          "type": "uint32"
        }
      ],
      "stateMutability": "view",
      "type": "function"
    },
    {
      "inputs": [],
      "name": "MAX_REQUEST_CONFIRMATIONS",
      "outputs": [
        {
          "internalType": "uint16",
          "name": "",
          "type": "uint16"
        }
      ],
      "stateMutability": "view",
      "type": "function"
    },
    {
      "inputs": [],
      "name": "MIN_GAS_LIMIT",
      "outputs": [
        {
          "internalType": "uint256",
          "name": "",
          "type": "uint256"
        }
      ],
      "stateMutability": "view",
      "type": "function"
    },
    {
      "inputs": [],
      "name": "acceptOwnership",
      "outputs": [],
      "stateMutability": "nonpayable",
      "type": "function"
    },
    {
      "inputs": [
        {
          "internalType": "uint64",
          "name": "subId",
          "type": "uint64"
        }
      ],
      "name": "acceptSubscriptionOwnerTransfer",
      "outputs": [],
      "stateMutability": "nonpayable",
      "type": "function"
    },
    {
      "inputs": [
        {
          "internalType": "uint64",
          "name": "subId",
          "type": "uint64"
        },
        {
          "internalType": "address",
          "name": "consumer",
          "type": "address"
        }
      ],
      "name": "addConsumer",
      "outputs": [],
      "stateMutability": "nonpayable",
      "type": "function"
    },
    {
      "inputs": [
        {
          "internalType": "uint256",
          "name": "gasAfterPaymentCalculation",
          "type": "uint256"
        },
        {
          "internalType": "uint32",
          "name": "fulfillmentFlatFeeLinkPPM",
          "type": "uint32"
        },
        {
          "internalType": "uint256",
          "name": "weiPerUnitGas",
          "type": "uint256"
        }
      ],
      "name": "calculatePaymentAmountTest",
      "outputs": [],
      "stateMutability": "nonpayable",
      "type": "function"
    },
    {
      "inputs": [
        {
          "internalType": "uint64",
          "name": "subId",
          "type": "uint64"
        },
        {
          "internalType": "address",
          "name": "to",
          "type": "address"
        }
      ],
      "name": "cancelSubscription",
      "outputs": [],
      "stateMutability": "nonpayable",
      "type": "function"
    },
    {
      "inputs": [],
      "name": "createSubscription",
      "outputs": [
        {
          "internalType": "uint64",
          "name": "",
          "type": "uint64"
        }
      ],
      "stateMutability": "nonpayable",
      "type": "function"
    },
    {
      "inputs": [
        {
          "internalType": "uint64",
          "name": "subId",
          "type": "uint64"
        },
        {
          "internalType": "address",
          "name": "to",
          "type": "address"
        },
        {
          "internalType": "uint96",
          "name": "amount",
          "type": "uint96"
        }
      ],
      "name": "defundSubscription",
      "outputs": [],
      "stateMutability": "nonpayable",
      "type": "function"
    },
    {
      "inputs": [
        {
          "internalType": "uint256[2]",
          "name": "publicProvingKey",
          "type": "uint256[2]"
        }
      ],
      "name": "deregisterProvingKey",
      "outputs": [],
      "stateMutability": "nonpayable",
      "type": "function"
    },
    {
      "inputs": [
        {
          "components": [
            {
              "internalType": "uint256[2]",
              "name": "pk",
              "type": "uint256[2]"
            },
            {
              "internalType": "uint256[2]",
              "name": "gamma",
              "type": "uint256[2]"
            },
            {
              "internalType": "uint256",
              "name": "c",
              "type": "uint256"
            },
            {
              "internalType": "uint256",
              "name": "s",
              "type": "uint256"
            },
            {
              "internalType": "uint256",
              "name": "seed",
              "type": "uint256"
            },
            {
              "internalType": "address",
              "name": "uWitness",
              "type": "address"
            },
            {
              "internalType": "uint256[2]",
              "name": "cGammaWitness",
              "type": "uint256[2]"
            },
            {
              "internalType": "uint256[2]",
              "name": "sHashWitness",
              "type": "uint256[2]"
            },
            {
              "internalType": "uint256",
              "name": "zInv",
              "type": "uint256"
            }
          ],
          "internalType": "struct VRF.Proof",
          "name": "proof",
          "type": "tuple"
        },
        {
          "components": [
            {
              "internalType": "uint64",
              "name": "blockNum",
              "type": "uint64"
            },
            {
              "internalType": "uint64",
              "name": "subId",
              "type": "uint64"
            },
            {
              "internalType": "uint32",
              "name": "callbackGasLimit",
              "type": "uint32"
            },
            {
              "internalType": "uint32",
              "name": "numWords",
              "type": "uint32"
            },
            {
              "internalType": "address",
              "name": "sender",
              "type": "address"
            }
          ],
          "internalType": "struct VRFCoordinatorV2.RequestCommitment",
          "name": "rc",
          "type": "tuple"
        }
      ],
      "name": "fulfillRandomWords",
      "outputs": [],
      "stateMutability": "nonpayable",
      "type": "function"
    },
    {
      "inputs": [
        {
          "internalType": "uint256",
          "name": "requestId",
          "type": "uint256"
        }
      ],
      "name": "getCommitment",
      "outputs": [
        {
          "internalType": "bytes32",
          "name": "",
          "type": "bytes32"
        }
      ],
      "stateMutability": "view",
      "type": "function"
    },
    {
      "inputs": [],
      "name": "getConfig",
      "outputs": [
        {
          "internalType": "uint16",
          "name": "minimumRequestConfirmations",
          "type": "uint16"
        },
        {
          "internalType": "uint32",
          "name": "fulfillmentFlatFeeLinkPPM",
          "type": "uint32"
        },
        {
          "internalType": "uint32",
          "name": "maxGasLimit",
          "type": "uint32"
        },
        {
          "internalType": "uint32",
          "name": "stalenessSeconds",
          "type": "uint32"
        },
        {
          "internalType": "uint32",
          "name": "gasAfterPaymentCalculation",
          "type": "uint32"
        },
        {
          "internalType": "uint96",
          "name": "minimumSubscriptionBalance",
          "type": "uint96"
        },
        {
          "internalType": "int256",
          "name": "fallbackWeiPerUnitLink",
          "type": "int256"
        }
      ],
      "stateMutability": "view",
      "type": "function"
    },
    {
      "inputs": [],
      "name": "getGasStart",
      "outputs": [
        {
          "internalType": "uint256",
          "name": "",
          "type": "uint256"
        }
      ],
      "stateMutability": "view",
      "type": "function"
    },
    {
      "inputs": [],
      "name": "getPaymentAmount",
      "outputs": [
        {
          "internalType": "uint96",
          "name": "",
          "type": "uint96"
        }
      ],
      "stateMutability": "view",
      "type": "function"
    },
    {
      "inputs": [
        {
          "internalType": "uint64",
          "name": "subId",
          "type": "uint64"
        }
      ],
      "name": "getSubscription",
      "outputs": [
        {
          "internalType": "uint96",
          "name": "balance",
          "type": "uint96"
        },
        {
          "internalType": "address",
          "name": "owner",
          "type": "address"
        },
        {
          "internalType": "address[]",
          "name": "consumers",
          "type": "address[]"
        }
      ],
      "stateMutability": "view",
      "type": "function"
    },
    {
      "inputs": [
        {
          "internalType": "uint256[2]",
          "name": "publicKey",
          "type": "uint256[2]"
        }
      ],
      "name": "hashOfKey",
      "outputs": [
        {
          "internalType": "bytes32",
          "name": "",
          "type": "bytes32"
        }
      ],
      "stateMutability": "pure",
      "type": "function"
    },
    {
      "inputs": [
        {
          "internalType": "address",
          "name": "sender",
          "type": "address"
        },
        {
          "internalType": "uint256",
          "name": "amount",
          "type": "uint256"
        },
        {
          "internalType": "bytes",
          "name": "data",
          "type": "bytes"
        }
      ],
      "name": "onTokenTransfer",
      "outputs": [],
      "stateMutability": "nonpayable",
      "type": "function"
    },
    {
      "inputs": [
        {
          "internalType": "address",
          "name": "recipient",
          "type": "address"
        },
        {
          "internalType": "uint96",
          "name": "amount",
          "type": "uint96"
        }
      ],
      "name": "oracleWithdraw",
      "outputs": [],
      "stateMutability": "nonpayable",
      "type": "function"
    },
    {
      "inputs": [],
      "name": "owner",
      "outputs": [
        {
          "internalType": "address",
          "name": "",
          "type": "address"
        }
      ],
      "stateMutability": "view",
      "type": "function"
    },
    {
      "inputs": [
        {
          "internalType": "address",
          "name": "to",
          "type": "address"
        }
      ],
      "name": "recoverFunds",
      "outputs": [],
      "stateMutability": "nonpayable",
      "type": "function"
    },
    {
      "inputs": [
        {
          "internalType": "address",
          "name": "oracle",
          "type": "address"
        },
        {
          "internalType": "uint256[2]",
          "name": "publicProvingKey",
          "type": "uint256[2]"
        }
      ],
      "name": "registerProvingKey",
      "outputs": [],
      "stateMutability": "nonpayable",
      "type": "function"
    },
    {
      "inputs": [
        {
          "internalType": "uint64",
          "name": "subId",
          "type": "uint64"
        },
        {
          "internalType": "address",
          "name": "consumer",
          "type": "address"
        }
      ],
      "name": "removeConsumer",
      "outputs": [],
      "stateMutability": "nonpayable",
      "type": "function"
    },
    {
      "inputs": [
        {
          "internalType": "bytes32",
          "name": "keyHash",
          "type": "bytes32"
        },
        {
          "internalType": "uint64",
          "name": "subId",
          "type": "uint64"
        },
        {
          "internalType": "uint16",
          "name": "requestConfirmations",
          "type": "uint16"
        },
        {
          "internalType": "uint32",
          "name": "callbackGasLimit",
          "type": "uint32"
        },
        {
          "internalType": "uint32",
          "name": "numWords",
          "type": "uint32"
        }
      ],
      "name": "requestRandomWords",
      "outputs": [
        {
          "internalType": "uint256",
          "name": "",
          "type": "uint256"
        }
      ],
      "stateMutability": "nonpayable",
      "type": "function"
    },
    {
      "inputs": [
        {
          "internalType": "uint64",
          "name": "subId",
          "type": "uint64"
        },
        {
          "internalType": "address",
          "name": "newOwner",
          "type": "address"
        }
      ],
      "name": "requestSubscriptionOwnerTransfer",
      "outputs": [],
      "stateMutability": "nonpayable",
      "type": "function"
    },
    {
      "inputs": [],
      "name": "s_totalBalance",
      "outputs": [
        {
          "internalType": "uint96",
          "name": "",
          "type": "uint96"
        }
      ],
      "stateMutability": "view",
      "type": "function"
    },
    {
      "inputs": [
        {
          "internalType": "uint16",
          "name": "minimumRequestConfirmations",
          "type": "uint16"
        },
        {
          "internalType": "uint32",
          "name": "fulfillmentFlatFeeLinkPPM",
          "type": "uint32"
        },
        {
          "internalType": "uint32",
          "name": "maxGasLimit",
          "type": "uint32"
        },
        {
          "internalType": "uint32",
          "name": "stalenessSeconds",
          "type": "uint32"
        },
        {
          "internalType": "uint32",
          "name": "gasAfterPaymentCalculation",
          "type": "uint32"
        },
        {
          "internalType": "uint96",
          "name": "minimumSubscriptionBalance",
          "type": "uint96"
        },
        {
          "internalType": "int256",
          "name": "fallbackWeiPerUnitLink",
          "type": "int256"
        }
      ],
      "name": "setConfig",
      "outputs": [],
      "stateMutability": "nonpayable",
      "type": "function"
    },
    {
      "inputs": [
        {
          "internalType": "address",
          "name": "to",
          "type": "address"
        }
      ],
      "name": "transferOwnership",
      "outputs": [],
      "stateMutability": "nonpayable",
      "type": "function"
    },
    {
      "inputs": [],
      "name": "typeAndVersion",
      "outputs": [
        {
          "internalType": "string",
          "name": "",
          "type": "string"
        }
      ],
      "stateMutability": "pure",
      "type": "function"
    }
  ],
  "bytecode": "0x60e06040523480156200001157600080fd5b5060405162005cc038038062005cc08339810160408190526200003491620001b8565b82828233806000816200008e5760405162461bcd60e51b815260206004820152601860248201527f43616e6e6f7420736574206f776e657220746f207a65726f000000000000000060448201526064015b60405180910390fd5b600080546001600160a01b0319166001600160a01b0384811691909117909155811615620000c157620000c181620000ef565b5050506001600160601b0319606093841b811660805290831b811660a052911b1660c0525062000202915050565b6001600160a01b0381163314156200014a5760405162461bcd60e51b815260206004820152601760248201527f43616e6e6f74207472616e7366657220746f2073656c66000000000000000000604482015260640162000085565b600180546001600160a01b0319166001600160a01b0383811691821790925560008054604051929316917fed8889f560326eb138920d842192f0eb3dd22b4f139c87a2c57538e05bae12789190a350565b80516001600160a01b0381168114620001b357600080fd5b919050565b600080600060608486031215620001ce57600080fd5b620001d9846200019b565b9250620001e9602085016200019b565b9150620001f9604085016200019b565b90509250925092565b60805160601c60a05160601c60c05160601c615a4d620002736000396000818161039f0152613a800152600081816105090152613d3d0152600081816102b701528181610c5f0152818161147a015281816127c4015281816132e40152818161349201526135e80152615a4d6000f3fe608060405234801561001057600080fd5b50600436106102265760003560e01c806379ba50971161012a578063a47c7696116100bd578063c3f909d41161008c578063d7ae1d3011610071578063d7ae1d3014610684578063e72f6e3014610697578063f2fde38b146106aa57600080fd5b8063c3f909d41461053e578063caf70c4a1461067157600080fd5b8063a47c7696146104cf578063a4c0ed36146104f1578063ad17836114610504578063af198b971461052b57600080fd5b806386fe91c7116100f957806386fe91c7146104595780638da5cb5b1461047d5780639f87fad71461049b578063a21a23e4146104ae57600080fd5b806379ba5097146104225780637ce1ffeb1461042a5780638235974014610433578063862545d11461044657600080fd5b80635d3b1d30116101bd57806369bcdb7d1161018c5780637341c10c116101715780637341c10c146103f45780637697bc1814610407578063775de59d1461040f57600080fd5b806369bcdb7d146103c15780636f64f03f146103e157600080fd5b80635d3b1d301461035e57806364d51a2a1461037f57806366316d8d14610387578063689c45171461039a57600080fd5b80631b6b6d23116101f95780631b6b6d23146102b25780633e8817aa146102fe57806340d6bb821461032d57806344380d1f1461034b57600080fd5b806304c357cb1461022b57806308821d581461024057806315c48b8414610253578063181f5a7714610273575b600080fd5b61023e6102393660046154b3565b6106bd565b005b61023e61024e366004615232565b6108da565b61025b60c881565b60405161ffff90911681526020015b60405180910390f35b604080518082018252601681527f565246436f6f7264696e61746f72563220312e302e30000000000000000000006020820152905161026a9190615699565b6102d97f000000000000000000000000000000000000000000000000000000000000000081565b60405173ffffffffffffffffffffffffffffffffffffffff909116815260200161026a565b600a546bffffffffffffffffffffffff165b6040516bffffffffffffffffffffffff909116815260200161026a565b6103366101f481565b60405163ffffffff909116815260200161026a565b61023e6103593660046154dd565b6109fe565b61037161036c3660046152a5565b610ddd565b60405190815260200161026a565b61025b606481565b61023e610395366004615208565b61130d565b6102d97f000000000000000000000000000000000000000000000000000000000000000081565b6103716103cf36600461544a565b60009081526007602052604090205490565b61023e6103ef36600461514d565b61158e565b61023e6104023660046154b3565b6116a7565b600b54610371565b61023e61041d366004615463565b611983565b61023e6119d1565b61037161138881565b61023e610441366004615498565b611ace565b61023e6104543660046153cb565b611d0b565b600454610310906801000000000000000090046bffffffffffffffffffffffff1681565b60005473ffffffffffffffffffffffffffffffffffffffff166102d9565b61023e6104a93660046154b3565b611f8a565b6104b6612427565b60405167ffffffffffffffff909116815260200161026a565b6104e26104dd366004615498565b612605565b60405161026a93929190615739565b61023e6104ff366004615181565b61274d565b6102d97f000000000000000000000000000000000000000000000000000000000000000081565b61023e610539366004615303565b612a87565b61061b6040805160e08101825260095461ffff811680835262010000820463ffffffff908116602085018190526601000000000000840482169585018690526a010000000000000000000084048216606086018190526e010000000000000000000000000000850490921660808601819052720100000000000000000000000000000000000085046bffffffffffffffffffffffff1660a087018190527e0100000000000000000000000000000000000000000000000000000000000090950460ff16151560c09096019590955260085492969095949193919290565b6040805161ffff909816885263ffffffff96871660208901529486169487019490945291841660608601529290921660808401526bffffffffffffffffffffffff90911660a083015260c082015260e00161026a565b61037161067f36600461524e565b612f38565b61023e6106923660046154b3565b612f68565b61023e6106a5366004615132565b613459565b61023e6106b8366004615132565b6136bd565b67ffffffffffffffff821660009081526003602052604090205482906c01000000000000000000000000900473ffffffffffffffffffffffffffffffffffffffff1680610736576040517f1f6a65b600000000000000000000000000000000000000000000000000000000815260040160405180910390fd5b3373ffffffffffffffffffffffffffffffffffffffff8216146107a2576040517fd8a3fb5200000000000000000000000000000000000000000000000000000000815273ffffffffffffffffffffffffffffffffffffffff821660048201526024015b60405180910390fd5b6009547e01000000000000000000000000000000000000000000000000000000000000900460ff1615610801576040517fed3ba6a600000000000000000000000000000000000000000000000000000000815260040160405180910390fd5b67ffffffffffffffff841660009081526003602052604090206001015473ffffffffffffffffffffffffffffffffffffffff8481169116146108d45767ffffffffffffffff841660008181526003602090815260409182902060010180547fffffffffffffffffffffffff00000000000000000000000000000000000000001673ffffffffffffffffffffffffffffffffffffffff88169081179091558251338152918201527f69436ea6df009049404f564eff6622cd00522b0bd6a89efd9e52a355c4a879be91015b60405180910390a25b50505050565b6108e26136d1565b604080518082018252600091610911919084906002908390839080828437600092019190915250612f38915050565b60008181526005602052604090205490915073ffffffffffffffffffffffffffffffffffffffff1680610973576040517f77f5b84c00000000000000000000000000000000000000000000000000000000815260048101839052602401610799565b6000828152600560205260409081902080547fffffffffffffffffffffffff00000000000000000000000000000000000000001690555173ffffffffffffffffffffffffffffffffffffffff8216907f72be339577868f868798bac2c93e52d6f034fef4689a9848996c14ebb7416c0d906109f19085815260200190565b60405180910390a2505050565b67ffffffffffffffff831660009081526003602052604090205483906c01000000000000000000000000900473ffffffffffffffffffffffffffffffffffffffff1680610a77576040517f1f6a65b600000000000000000000000000000000000000000000000000000000815260040160405180910390fd5b3373ffffffffffffffffffffffffffffffffffffffff821614610ade576040517fd8a3fb5200000000000000000000000000000000000000000000000000000000815273ffffffffffffffffffffffffffffffffffffffff82166004820152602401610799565b6009547e01000000000000000000000000000000000000000000000000000000000000900460ff1615610b3d576040517fed3ba6a600000000000000000000000000000000000000000000000000000000815260040160405180910390fd5b67ffffffffffffffff85166000908152600360205260409020546bffffffffffffffffffffffff80851691161015610ba1576040517ff4d678b800000000000000000000000000000000000000000000000000000000815260040160405180910390fd5b67ffffffffffffffff8516600090815260036020526040812080546bffffffffffffffffffffffff1691859190610bd883856158b3565b92506101000a8154816bffffffffffffffffffffffff02191690836bffffffffffffffffffffffff16021790555083600460088282829054906101000a90046bffffffffffffffffffffffff16610c2f91906158b3565b92506101000a8154816bffffffffffffffffffffffff02191690836bffffffffffffffffffffffff1602179055507f000000000000000000000000000000000000000000000000000000000000000073ffffffffffffffffffffffffffffffffffffffff1663a9059cbb86866040518363ffffffff1660e01b8152600401610ce792919073ffffffffffffffffffffffffffffffffffffffff9290921682526bffffffffffffffffffffffff16602082015260400190565b602060405180830381600087803b158015610d0157600080fd5b505af1158015610d15573d6000803e3d6000fd5b505050506040513d601f19601f82011682018060405250810190610d39919061526a565b610d6f576040517ff4d678b800000000000000000000000000000000000000000000000000000000815260040160405180910390fd5b67ffffffffffffffff86166000818152600360209081526040918290205482518581526bffffffffffffffffffffffff909116918101919091527ffd47f8dea665a4ba9fd5ac2d5d60d09da40628a32c3e5b3ee970f0a36b43dd3291015b60405180910390a2505050505050565b6009546000907e01000000000000000000000000000000000000000000000000000000000000900460ff1615610e3f576040517fed3ba6a600000000000000000000000000000000000000000000000000000000815260040160405180910390fd5b67ffffffffffffffff85166000908152600360205260409020546c01000000000000000000000000900473ffffffffffffffffffffffffffffffffffffffff16610eb5576040517f1f6a65b600000000000000000000000000000000000000000000000000000000815260040160405180910390fd5b33600090815260026020908152604080832067ffffffffffffffff808a16855290835292819020815180830190925254808416808352680100000000000000009091049093169181019190915290610f4b576040517ff0019fe600000000000000000000000000000000000000000000000000000000815267ffffffffffffffff87166004820152336024820152604401610799565b60095461ffff9081169086161080610f67575060c861ffff8616115b15610fb7576009546040517fa738697600000000000000000000000000000000000000000000000000000000815261ffff8088166004830152909116602482015260c86044820152606401610799565b60095467ffffffffffffffff87166000908152600360205260409020546bffffffffffffffffffffffff7201000000000000000000000000000000000000909204821691161015611034576040517ff4d678b800000000000000000000000000000000000000000000000000000000815260040160405180910390fd5b60095463ffffffff6601000000000000909104811690851611156110a3576009546040517ff5d7e01e00000000000000000000000000000000000000000000000000000000815263ffffffff808716600483015266010000000000009092049091166024820152604401610799565b6101f463ffffffff841611156110f5576040517f47386bec00000000000000000000000000000000000000000000000000000000815263ffffffff841660048201526101f46024820152604401610799565b60008160200151600161110891906157f8565b60408051602081018b9052339181019190915267ffffffffffffffff808a1660608301528216608082015290915060009060a001604080518083037fffffffffffffffffffffffffffffffffffffffffffffffffffffffffffffffe001815282825280516020918201209083018c90529082018190529150600090606001604080518083037fffffffffffffffffffffffffffffffffffffffffffffffffffffffffffffffe00181528282528051602091820120908301819052439183019190915267ffffffffffffffff8b16606083015263ffffffff808a166080840152881660a08301523360c0830152915060e001604080518083037fffffffffffffffffffffffffffffffffffffffffffffffffffffffffffffffe0018152828252805160209182012060008581526007835283902055838352820184905267ffffffffffffffff8b169082015261ffff8916606082015263ffffffff8089166080830152871660a082015233908b907f63373d1c4696214b898952999c9aaec57dac1ee2723cec59bea6888f489a97729060c00160405180910390a333600090815260026020908152604080832067ffffffffffffffff808e168552925290912080549190941668010000000000000000027fffffffffffffffffffffffffffffffff0000000000000000ffffffffffffffff909116179092555091505095945050505050565b6009547e01000000000000000000000000000000000000000000000000000000000000900460ff161561136c576040517fed3ba6a600000000000000000000000000000000000000000000000000000000815260040160405180910390fd5b336000908152600660205260409020546bffffffffffffffffffffffff808316911610156113c6576040517ff4d678b800000000000000000000000000000000000000000000000000000000815260040160405180910390fd5b33600090815260066020526040812080548392906113f39084906bffffffffffffffffffffffff166158b3565b92506101000a8154816bffffffffffffffffffffffff02191690836bffffffffffffffffffffffff16021790555080600460088282829054906101000a90046bffffffffffffffffffffffff1661144a91906158b3565b92506101000a8154816bffffffffffffffffffffffff02191690836bffffffffffffffffffffffff1602179055507f000000000000000000000000000000000000000000000000000000000000000073ffffffffffffffffffffffffffffffffffffffff1663a9059cbb83836040518363ffffffff1660e01b815260040161150292919073ffffffffffffffffffffffffffffffffffffffff9290921682526bffffffffffffffffffffffff16602082015260400190565b602060405180830381600087803b15801561151c57600080fd5b505af1158015611530573d6000803e3d6000fd5b505050506040513d601f19601f82011682018060405250810190611554919061526a565b61158a576040517ff4d678b800000000000000000000000000000000000000000000000000000000815260040160405180910390fd5b5050565b6115966136d1565b6040805180820182526000916115c5919084906002908390839080828437600092019190915250612f38915050565b60008181526005602052604090205490915073ffffffffffffffffffffffffffffffffffffffff1615611627576040517f4a0b8fa700000000000000000000000000000000000000000000000000000000815260048101829052602401610799565b60008181526005602090815260409182902080547fffffffffffffffffffffffff00000000000000000000000000000000000000001673ffffffffffffffffffffffffffffffffffffffff871690811790915591518381527fe729ae16526293f74ade739043022254f1489f616295a25bf72dfb4511ed73b891016109f1565b67ffffffffffffffff821660009081526003602052604090205482906c01000000000000000000000000900473ffffffffffffffffffffffffffffffffffffffff1680611720576040517f1f6a65b600000000000000000000000000000000000000000000000000000000815260040160405180910390fd5b3373ffffffffffffffffffffffffffffffffffffffff821614611787576040517fd8a3fb5200000000000000000000000000000000000000000000000000000000815273ffffffffffffffffffffffffffffffffffffffff82166004820152602401610799565b6009547e01000000000000000000000000000000000000000000000000000000000000900460ff16156117e6576040517fed3ba6a600000000000000000000000000000000000000000000000000000000815260040160405180910390fd5b67ffffffffffffffff84166000908152600360205260409020600201546064141561183d576040517f05a48e0f00000000000000000000000000000000000000000000000000000000815260040160405180910390fd5b73ffffffffffffffffffffffffffffffffffffffff8316600090815260026020908152604080832067ffffffffffffffff80891685529252909120541615611884576108d4565b60408051808201825267ffffffffffffffff8681168083526000602080850182815273ffffffffffffffffffffffffffffffffffffffff8a1680845260028084528885208686528452888520975188549351881668010000000000000000027fffffffffffffffffffffffffffffffff0000000000000000000000000000000090941697169690961791909117909555600381528582209093018054600181018255908252908390200180547fffffffffffffffffffffffff0000000000000000000000000000000000000000168417905592519182527f43dc749a04ac8fb825cbd514f7c0e13f13bc6f2ee66043b76629d51776cff8e091016108cb565b61198f5a848484613754565b600a80547fffffffffffffffffffffffffffffffffffffffff000000000000000000000000166bffffffffffffffffffffffff92909216919091179055505050565b60015473ffffffffffffffffffffffffffffffffffffffff163314611a52576040517f08c379a000000000000000000000000000000000000000000000000000000000815260206004820152601660248201527f4d7573742062652070726f706f736564206f776e6572000000000000000000006044820152606401610799565b60008054337fffffffffffffffffffffffff00000000000000000000000000000000000000008083168217845560018054909116905560405173ffffffffffffffffffffffffffffffffffffffff90921692909183917f8be0079c531659141344cd1fd0a4f28419497f9722a3daafe3b4186f6b6457e091a350565b6009547e01000000000000000000000000000000000000000000000000000000000000900460ff1615611b2d576040517fed3ba6a600000000000000000000000000000000000000000000000000000000815260040160405180910390fd5b67ffffffffffffffff81166000908152600360205260409020546c01000000000000000000000000900473ffffffffffffffffffffffffffffffffffffffff16611ba3576040517f1f6a65b600000000000000000000000000000000000000000000000000000000815260040160405180910390fd5b67ffffffffffffffff811660009081526003602052604090206001015473ffffffffffffffffffffffffffffffffffffffff163314611c455767ffffffffffffffff8116600090815260036020526040908190206001015490517fd084e97500000000000000000000000000000000000000000000000000000000815273ffffffffffffffffffffffffffffffffffffffff9091166004820152602401610799565b67ffffffffffffffff811660008181526003602090815260409182902080546bffffffffffffffffffffffff81166c0100000000000000000000000033818102929092178455600190930180547fffffffffffffffffffffffff000000000000000000000000000000000000000016905584519290910473ffffffffffffffffffffffffffffffffffffffff16808352928201529092917f6f1dc65165ffffedfd8e507b4a0f1fcfdada045ed11f6c26ba27cedfe87802f0910160405180910390a25050565b611d136136d1565b60c861ffff88161115611d66576040517fa738697600000000000000000000000000000000000000000000000000000000815261ffff881660048201819052602482015260c86044820152606401610799565b60008113611da3576040517f43d4cf6600000000000000000000000000000000000000000000000000000000815260048101829052602401610799565b6040805160e0808201835261ffff8a1680835263ffffffff8a811660208086018290528b83168688018190528b84166060808901829052948c166080808a018290526bffffffffffffffffffffffff8d1660a0808c01829052600060c09c8d0152600980547fffffffffffffffffffffffffffffffffffffffffffffffffffff000000000000168b17620100008a02177fffffffffffffffffffffffffffffffffffff0000000000000000ffffffffffff16660100000000000088027fffffffffffffffffffffffffffffffffffff00000000ffffffffffffffffffff16176a01000000000000000000008702177fffff00000000000000000000000000000000ffffffffffffffffffffffffffff166e01000000000000000000000000000086027fffff000000000000000000000000ffffffffffffffffffffffffffffffffffff161772010000000000000000000000000000000000008402177fff00ffffffffffffffffffffffffffffffffffffffffffffffffffffffffffff16905560088e90558c51998a5295890196909652998701929092529385019390935295830191909152938101939093529082018390527f56583fc0e609f432152501e64e8a4aaf7ecc715b33697f1cacb307f4b562d2c4910160405180910390a150505050505050565b67ffffffffffffffff821660009081526003602052604090205482906c01000000000000000000000000900473ffffffffffffffffffffffffffffffffffffffff1680612003576040517f1f6a65b600000000000000000000000000000000000000000000000000000000815260040160405180910390fd5b3373ffffffffffffffffffffffffffffffffffffffff82161461206a576040517fd8a3fb5200000000000000000000000000000000000000000000000000000000815273ffffffffffffffffffffffffffffffffffffffff82166004820152602401610799565b6009547e01000000000000000000000000000000000000000000000000000000000000900460ff16156120c9576040517fed3ba6a600000000000000000000000000000000000000000000000000000000815260040160405180910390fd5b73ffffffffffffffffffffffffffffffffffffffff8316600090815260026020908152604080832067ffffffffffffffff808916855292529091205416612164576040517ff0019fe600000000000000000000000000000000000000000000000000000000815267ffffffffffffffff8516600482015273ffffffffffffffffffffffffffffffffffffffff84166024820152604401610799565b67ffffffffffffffff84166000908152600360209081526040808320600201805482518185028101850190935280835291929091908301828280156121df57602002820191906000526020600020905b815473ffffffffffffffffffffffffffffffffffffffff1681526001909101906020018083116121b4575b505050505090506000600182516121f6919061589c565b905060005b8251811015612395578573ffffffffffffffffffffffffffffffffffffffff1683828151811061222d5761222d6159e2565b602002602001015173ffffffffffffffffffffffffffffffffffffffff161415612383576000838381518110612265576122656159e2565b6020026020010151905080600360008a67ffffffffffffffff1667ffffffffffffffff16815260200190815260200160002060020183815481106122ab576122ab6159e2565b600091825260208083209190910180547fffffffffffffffffffffffff00000000000000000000000000000000000000001673ffffffffffffffffffffffffffffffffffffffff949094169390931790925567ffffffffffffffff8a168152600390915260409020600201805480612325576123256159b3565b60008281526020902081017fffffffffffffffffffffffffffffffffffffffffffffffffffffffffffffffff90810180547fffffffffffffffffffffffff000000000000000000000000000000000000000016905501905550612395565b8061238d816158e0565b9150506121fb565b5073ffffffffffffffffffffffffffffffffffffffff8516600081815260026020908152604080832067ffffffffffffffff8b168085529083529281902080547fffffffffffffffffffffffffffffffff000000000000000000000000000000001690555192835290917f182bff9831466789164ca77075fffd84916d35a8180ba73c27e45634549b445b9101610dcd565b6009546000907e01000000000000000000000000000000000000000000000000000000000000900460ff1615612489576040517fed3ba6a600000000000000000000000000000000000000000000000000000000815260040160405180910390fd5b6004805467ffffffffffffffff169060006124a383615919565b82546101009290920a67ffffffffffffffff8181021990931691831602179091556004541690506000806040519080825280602002602001820160405280156124f6578160200160208202803683370190505b506040805160808101825260008082523360208084019182528385018381526060850187815267ffffffffffffffff8a1685526003835295909320845192516bffffffffffffffffffffffff9093166c0100000000000000000000000073ffffffffffffffffffffffffffffffffffffffff9485160217815592516001840180547fffffffffffffffffffffffff000000000000000000000000000000000000000016919093161790915592518051949550919390926125bd926002850192910190614e69565b505060405133815267ffffffffffffffff841691507f464722b4166576d3dcbba877b999bc35cf911f4eaf434b7eba68fa113951d0bf9060200160405180910390a250905090565b67ffffffffffffffff811660009081526003602052604081205481906060906c01000000000000000000000000900473ffffffffffffffffffffffffffffffffffffffff16612680576040517f1f6a65b600000000000000000000000000000000000000000000000000000000815260040160405180910390fd5b67ffffffffffffffff84166000908152600360209081526040918290208054600290910180548451818502810185019095528085526bffffffffffffffffffffffff8316946c0100000000000000000000000090930473ffffffffffffffffffffffffffffffffffffffff169391929183919083018282801561273957602002820191906000526020600020905b815473ffffffffffffffffffffffffffffffffffffffff16815260019091019060200180831161270e575b505050505090509250925092509193909250565b6009547e01000000000000000000000000000000000000000000000000000000000000900460ff16156127ac576040517fed3ba6a600000000000000000000000000000000000000000000000000000000815260040160405180910390fd5b3373ffffffffffffffffffffffffffffffffffffffff7f0000000000000000000000000000000000000000000000000000000000000000161461281b576040517f44b0e3c300000000000000000000000000000000000000000000000000000000815260040160405180910390fd5b60208114612855576040517f8129bbcd00000000000000000000000000000000000000000000000000000000815260040160405180910390fd5b600061286382840184615498565b67ffffffffffffffff81166000908152600360205260409020549091506c01000000000000000000000000900473ffffffffffffffffffffffffffffffffffffffff166128dc576040517f1f6a65b600000000000000000000000000000000000000000000000000000000815260040160405180910390fd5b67ffffffffffffffff811660009081526003602052604090205473ffffffffffffffffffffffffffffffffffffffff6c0100000000000000000000000090910481169086168114612971576040517fd8a3fb5200000000000000000000000000000000000000000000000000000000815273ffffffffffffffffffffffffffffffffffffffff82166004820152602401610799565b67ffffffffffffffff8216600090815260036020526040812080546bffffffffffffffffffffffff16918791906129a88385615824565b92506101000a8154816bffffffffffffffffffffffff02191690836bffffffffffffffffffffffff16021790555085600460088282829054906101000a90046bffffffffffffffffffffffff166129ff9190615824565b92506101000a8154816bffffffffffffffffffffffff02191690836bffffffffffffffffffffffff1602179055508267ffffffffffffffff167fd39ec07f4e209f627a4c427971473820dc129761ba28de8906bd56f57101d4f8828884612a6691906157e0565b6040805192835260208301919091520160405180910390a250505050505050565b6009547e01000000000000000000000000000000000000000000000000000000000000900460ff1615612ae6576040517fed3ba6a600000000000000000000000000000000000000000000000000000000815260040160405180910390fd5b60005a90506000806000612afa868661385c565b9250925092506000856060015163ffffffff1667ffffffffffffffff811115612b2557612b25615a11565b604051908082528060200260200182016040528015612b4e578160200160208202803683370190505b50905060005b866060015163ffffffff16811015612bc25760408051602081018590529081018290526060016040516020818303038152906040528051906020012060001c828281518110612ba557612ba56159e2565b602090810291909101015280612bba816158e0565b915050612b54565b506000838152600760205260408082208290556080890151905182917f1fe543e30000000000000000000000000000000000000000000000000000000091612c0f91908690602401615720565b604080517fffffffffffffffffffffffffffffffffffffffffffffffffffffffffffffffe08184030181529190526020810180517bffffffffffffffffffffffffffffffffffffffffffffffffffffffff167fffffffff0000000000000000000000000000000000000000000000000000000090931692909217909152905060005a9050886040015163ffffffff16811015612cec576040808a015190517fd17e76640000000000000000000000000000000000000000000000000000000081526004810183905263ffffffff9091166024820152604401610799565b600980547fff00ffffffffffffffffffffffffffffffffffffffffffffffffffffffffffff167e01000000000000000000000000000000000000000000000000000000000000179055604089015160808a0151600091612d559163ffffffff9091169085613bab565b9050867f969e72fbacf24da85b4bce2a3cef3d8dc2497b1750c4cc5a06b52c10413383378683604051612d89929190615675565b60405180910390a2600980547fff00ffffffffffffffffffffffffffffffffffffffffffffffffffffffffffff1690819055600090612deb908b9063ffffffff6e0100000000000000000000000000008204811691620100009004163a613754565b6020808d015167ffffffffffffffff166000908152600390915260409020549091506bffffffffffffffffffffffff80831691161015612e57576040517ff4d678b800000000000000000000000000000000000000000000000000000000815260040160405180910390fd5b6020808c015167ffffffffffffffff1660009081526003909152604081208054839290612e939084906bffffffffffffffffffffffff166158b3565b82546101009290920a6bffffffffffffffffffffffff81810219909316918316021790915560008b81526005602090815260408083205473ffffffffffffffffffffffffffffffffffffffff1683526006909152812080548594509092612efc91859116615824565b92506101000a8154816bffffffffffffffffffffffff02191690836bffffffffffffffffffffffff160217905550505050505050505050505050565b600081604051602001612f4b9190615667565b604051602081830303815290604052805190602001209050919050565b67ffffffffffffffff821660009081526003602052604090205482906c01000000000000000000000000900473ffffffffffffffffffffffffffffffffffffffff1680612fe1576040517f1f6a65b600000000000000000000000000000000000000000000000000000000815260040160405180910390fd5b3373ffffffffffffffffffffffffffffffffffffffff821614613048576040517fd8a3fb5200000000000000000000000000000000000000000000000000000000815273ffffffffffffffffffffffffffffffffffffffff82166004820152602401610799565b6009547e01000000000000000000000000000000000000000000000000000000000000900460ff16156130a7576040517fed3ba6a600000000000000000000000000000000000000000000000000000000815260040160405180910390fd5b67ffffffffffffffff84166000908152600360209081526040808320815160808101835281546bffffffffffffffffffffffff8116825273ffffffffffffffffffffffffffffffffffffffff6c010000000000000000000000009091048116828601526001830154168184015260028201805484518187028101870190955280855291949293606086019390929083018282801561317b57602002820191906000526020600020905b815473ffffffffffffffffffffffffffffffffffffffff168152600190910190602001808311613150575b5050509190925250508151919250600090505b8260600151518110156132345760026000846060015183815181106131b5576131b56159e2565b60209081029190910181015173ffffffffffffffffffffffffffffffffffffffff168252818101929092526040908101600090812067ffffffffffffffff8b168252909252902080547fffffffffffffffffffffffffffffffff000000000000000000000000000000001690558061322c816158e0565b91505061318e565b5067ffffffffffffffff861660009081526003602052604081208181556001810180547fffffffffffffffffffffffff0000000000000000000000000000000000000000169055906132896002830182614ef3565b505080600460088282829054906101000a90046bffffffffffffffffffffffff166132b491906158b3565b92506101000a8154816bffffffffffffffffffffffff02191690836bffffffffffffffffffffffff1602179055507f000000000000000000000000000000000000000000000000000000000000000073ffffffffffffffffffffffffffffffffffffffff1663a9059cbb86836bffffffffffffffffffffffff166040518363ffffffff1660e01b815260040161336c92919073ffffffffffffffffffffffffffffffffffffffff929092168252602082015260400190565b602060405180830381600087803b15801561338657600080fd5b505af115801561339a573d6000803e3d6000fd5b505050506040513d601f19601f820116820180604052508101906133be919061526a565b6133f4576040517ff4d678b800000000000000000000000000000000000000000000000000000000815260040160405180910390fd5b6040805173ffffffffffffffffffffffffffffffffffffffff871681526bffffffffffffffffffffffff8316602082015267ffffffffffffffff8816917fe8ed5b475a5b5987aa9165e8731bb78043f39eee32ec5a1169a89e27fcd498159101610dcd565b6134616136d1565b6040517f70a082310000000000000000000000000000000000000000000000000000000081523060048201526000907f000000000000000000000000000000000000000000000000000000000000000073ffffffffffffffffffffffffffffffffffffffff16906370a082319060240160206040518083038186803b1580156134e957600080fd5b505afa1580156134fd573d6000803e3d6000fd5b505050506040513d601f19601f82011682018060405250810190613521919061528c565b6004549091506801000000000000000090046bffffffffffffffffffffffff1681811115613585576040517fa99da3020000000000000000000000000000000000000000000000000000000081526004810182905260248101839052604401610799565b818110156136b8576000613599828461589c565b6040517fa9059cbb00000000000000000000000000000000000000000000000000000000815273ffffffffffffffffffffffffffffffffffffffff8681166004830152602482018390529192507f00000000000000000000000000000000000000000000000000000000000000009091169063a9059cbb90604401602060405180830381600087803b15801561362e57600080fd5b505af1158015613642573d6000803e3d6000fd5b505050506040513d601f19601f82011682018060405250810190613666919061526a565b506040805173ffffffffffffffffffffffffffffffffffffffff86168152602081018390527f59bfc682b673f8cbf945f1e454df9334834abf7dfe7f92237ca29ecb9b436600910160405180910390a1505b505050565b6136c56136d1565b6136ce81613bf9565b50565b60005473ffffffffffffffffffffffffffffffffffffffff163314613752576040517f08c379a000000000000000000000000000000000000000000000000000000000815260206004820152601660248201527f4f6e6c792063616c6c61626c65206279206f776e6572000000000000000000006044820152606401610799565b565b60008061375f613cef565b90506000811361379e576040517f43d4cf6600000000000000000000000000000000000000000000000000000000815260048101829052602401610799565b6000815a6137ac89896157e0565b6137b6919061589c565b6137c886670de0b6b3a764000061585f565b6137d2919061585f565b6137dc919061584b565b905060006137f563ffffffff871664e8d4a5100061585f565b905061380d816b033b2e3c9fd0803ce800000061589c565b821115613846576040517fe80fa38100000000000000000000000000000000000000000000000000000000815260040160405180910390fd5b61385081836157e0565b98975050505050505050565b600080600061386e8560000151612f38565b60008181526005602052604090205490935073ffffffffffffffffffffffffffffffffffffffff16806138d0576040517f77f5b84c00000000000000000000000000000000000000000000000000000000815260048101859052602401610799565b60808601516040516138ef918691602001918252602082015260400190565b604080517fffffffffffffffffffffffffffffffffffffffffffffffffffffffffffffffe08184030181529181528151602092830120600081815260079093529120549093508061396c576040517f3688124a00000000000000000000000000000000000000000000000000000000815260040160405180910390fd5b85516020808801516040808a015160608b015160808c015192516139e5968b96909594910195865267ffffffffffffffff948516602087015292909316604085015263ffffffff908116606085015291909116608083015273ffffffffffffffffffffffffffffffffffffffff1660a082015260c00190565b604051602081830303815290604052805190602001208114613a33576040517fd529142c00000000000000000000000000000000000000000000000000000000815260040160405180910390fd5b855167ffffffffffffffff164080613b575786516040517fe9413d3800000000000000000000000000000000000000000000000000000000815267ffffffffffffffff90911660048201527f000000000000000000000000000000000000000000000000000000000000000073ffffffffffffffffffffffffffffffffffffffff169063e9413d389060240160206040518083038186803b158015613ad757600080fd5b505afa158015613aeb573d6000803e3d6000fd5b505050506040513d601f19601f82011682018060405250810190613b0f919061528c565b905080613b575786516040517f175dadad00000000000000000000000000000000000000000000000000000000815267ffffffffffffffff9091166004820152602401610799565b6000886080015182604051602001613b79929190918252602082015260400190565b6040516020818303038152906040528051906020012060001c9050613b9e8982613e06565b9450505050509250925092565b60005a611388811015613bbd57600080fd5b611388810390508460408204820311613bd557600080fd5b50823b613be157600080fd5b60008083516020850160008789f190505b9392505050565b73ffffffffffffffffffffffffffffffffffffffff8116331415613c79576040517f08c379a000000000000000000000000000000000000000000000000000000000815260206004820152601760248201527f43616e6e6f74207472616e7366657220746f2073656c660000000000000000006044820152606401610799565b600180547fffffffffffffffffffffffff00000000000000000000000000000000000000001673ffffffffffffffffffffffffffffffffffffffff83811691821790925560008054604051929316917fed8889f560326eb138920d842192f0eb3dd22b4f139c87a2c57538e05bae12789190a350565b600954604080517ffeaf968c00000000000000000000000000000000000000000000000000000000815290516000926a0100000000000000000000900463ffffffff169182151591849182917f000000000000000000000000000000000000000000000000000000000000000073ffffffffffffffffffffffffffffffffffffffff169163feaf968c9160048083019260a0929190829003018186803b158015613d9857600080fd5b505afa158015613dac573d6000803e3d6000fd5b505050506040513d601f19601f82011682018060405250810190613dd09190615520565b509450909250849150508015613df45750613deb824261589c565b8463ffffffff16105b15613dfe57506008545b949350505050565b6000613e3a8360000151846020015185604001518660600151868860a001518960c001518a60e001518b6101000151613e8f565b60038360200151604051602001613e5292919061570c565b604080517fffffffffffffffffffffffffffffffffffffffffffffffffffffffffffffffe081840301815291905280516020909101209392505050565b613e9889614166565b613efe576040517f08c379a000000000000000000000000000000000000000000000000000000000815260206004820152601a60248201527f7075626c6963206b6579206973206e6f74206f6e2063757276650000000000006044820152606401610799565b613f0788614166565b613f6d576040517f08c379a000000000000000000000000000000000000000000000000000000000815260206004820152601560248201527f67616d6d61206973206e6f74206f6e20637572766500000000000000000000006044820152606401610799565b613f7683614166565b613fdc576040517f08c379a000000000000000000000000000000000000000000000000000000000815260206004820152601d60248201527f6347616d6d615769746e657373206973206e6f74206f6e2063757276650000006044820152606401610799565b613fe582614166565b61404b576040517f08c379a000000000000000000000000000000000000000000000000000000000815260206004820152601c60248201527f73486173685769746e657373206973206e6f74206f6e206375727665000000006044820152606401610799565b614057878a88876142c1565b6140bd576040517f08c379a000000000000000000000000000000000000000000000000000000000815260206004820152601960248201527f6164647228632a706b2b732a6729213d5f755769746e657373000000000000006044820152606401610799565b60006140c98a87614464565b905060006140dc898b878b8689896144ce565b905060006140ed838d8d8a86614652565b9050808a14614158576040517f08c379a000000000000000000000000000000000000000000000000000000000815260206004820152600d60248201527f696e76616c69642070726f6f66000000000000000000000000000000000000006044820152606401610799565b505050505050505050505050565b80516000907ffffffffffffffffffffffffffffffffffffffffffffffffffffffffefffffc2f116141f3576040517f08c379a000000000000000000000000000000000000000000000000000000000815260206004820152601260248201527f696e76616c696420782d6f7264696e61746500000000000000000000000000006044820152606401610799565b60208201517ffffffffffffffffffffffffffffffffffffffffffffffffffffffffefffffc2f11614280576040517f08c379a000000000000000000000000000000000000000000000000000000000815260206004820152601260248201527f696e76616c696420792d6f7264696e61746500000000000000000000000000006044820152606401610799565b60208201517ffffffffffffffffffffffffffffffffffffffffffffffffffffffffefffffc2f9080096142ba8360005b60200201516146b0565b1492915050565b600073ffffffffffffffffffffffffffffffffffffffff8216614340576040517f08c379a000000000000000000000000000000000000000000000000000000000815260206004820152600b60248201527f626164207769746e6573730000000000000000000000000000000000000000006044820152606401610799565b60208401516000906001161561435757601c61435a565b601b5b905060007ffffffffffffffffffffffffffffffffebaaedce6af48a03bbfd25e8cd03641418587600060200201510986517ffffffffffffffffffffffffffffffffebaaedce6af48a03bbfd25e8cd0364141918203925060009190890987516040805160008082526020820180845287905260ff88169282019290925260608101929092526080820183905291925060019060a0016020604051602081039080840390855afa158015614411573d6000803e3d6000fd5b50506040517fffffffffffffffffffffffffffffffffffffffffffffffffffffffffffffffe0015173ffffffffffffffffffffffffffffffffffffffff9081169088161495505050505050949350505050565b61446c614f11565b6144996001848460405160200161448593929190615646565b604051602081830303815290604052614708565b90505b6144a581614166565b6144c85780516040805160208101929092526144c19101614485565b905061449c565b92915050565b6144d6614f11565b825186517ffffffffffffffffffffffffffffffffffffffffffffffffffffffffefffffc2f91900306614565576040517f08c379a000000000000000000000000000000000000000000000000000000000815260206004820152601e60248201527f706f696e747320696e2073756d206d7573742062652064697374696e637400006044820152606401610799565b614570878988614771565b6145d6576040517f08c379a000000000000000000000000000000000000000000000000000000000815260206004820152601660248201527f4669727374206d756c20636865636b206661696c6564000000000000000000006044820152606401610799565b6145e1848685614771565b614647576040517f08c379a000000000000000000000000000000000000000000000000000000000815260206004820152601760248201527f5365636f6e64206d756c20636865636b206661696c65640000000000000000006044820152606401610799565b6138508684846148fe565b600060028686868587604051602001614670969594939291906155d4565b604080517fffffffffffffffffffffffffffffffffffffffffffffffffffffffffffffffe081840301815291905280516020909101209695505050505050565b6000807ffffffffffffffffffffffffffffffffffffffffffffffffffffffffefffffc2f80848509840990507ffffffffffffffffffffffffffffffffffffffffffffffffffffffffefffffc2f600782089392505050565b614710614f11565b61471982614a2d565b815261472e6147298260006142b0565b614a82565b60208201819052600290066001141561476c576020810180517ffffffffffffffffffffffffffffffffffffffffffffffffffffffffefffffc2f0390525b919050565b6000826147da576040517f08c379a000000000000000000000000000000000000000000000000000000000815260206004820152600b60248201527f7a65726f207363616c61720000000000000000000000000000000000000000006044820152606401610799565b835160208501516000906147f090600290615941565b156147fc57601c6147ff565b601b5b905060007ffffffffffffffffffffffffffffffffebaaedce6af48a03bbfd25e8cd03641418387096040805160008082526020820180845281905260ff86169282019290925260608101869052608081018390529192509060019060a0016020604051602081039080840390855afa15801561487f573d6000803e3d6000fd5b50505060206040510351905060008660405160200161489e91906155c2565b604080517fffffffffffffffffffffffffffffffffffffffffffffffffffffffffffffffe0818403018152919052805160209091012073ffffffffffffffffffffffffffffffffffffffff92831692169190911498975050505050505050565b614906614f11565b83516020808601518551918601516000938493849361492793909190614abc565b919450925090507ffffffffffffffffffffffffffffffffffffffffffffffffffffffffefffffc2f8582096001146149bb576040517f08c379a000000000000000000000000000000000000000000000000000000000815260206004820152601960248201527f696e765a206d75737420626520696e7665727365206f66207a000000000000006044820152606401610799565b60405180604001604052807ffffffffffffffffffffffffffffffffffffffffffffffffffffffffefffffc2f806149f4576149f4615984565b87860981526020017ffffffffffffffffffffffffffffffffffffffffffffffffffffffffefffffc2f8785099052979650505050505050565b805160208201205b7ffffffffffffffffffffffffffffffffffffffffffffffffffffffffefffffc2f811061476c57604080516020808201939093528151808203840181529082019091528051910120614a35565b60006144c8826002614ab57ffffffffffffffffffffffffffffffffffffffffffffffffffffffffefffffc2f60016157e0565b901c614c52565b60008080600180827ffffffffffffffffffffffffffffffffffffffffffffffffffffffffefffffc2f897ffffffffffffffffffffffffffffffffffffffffffffffffffffffffefffffc2f038808905060007ffffffffffffffffffffffffffffffffffffffffffffffffffffffffefffffc2f8b7ffffffffffffffffffffffffffffffffffffffffffffffffffffffffefffffc2f038a0890506000614b6483838585614d46565b9098509050614b7588828e88614d9e565b9098509050614b8688828c87614d9e565b90985090506000614b998d878b85614d9e565b9098509050614baa88828686614d46565b9098509050614bbb88828e89614d9e565b9098509050818114614c3e577ffffffffffffffffffffffffffffffffffffffffffffffffffffffffefffffc2f818a0998507ffffffffffffffffffffffffffffffffffffffffffffffffffffffffefffffc2f82890997507ffffffffffffffffffffffffffffffffffffffffffffffffffffffffefffffc2f8183099650614c42565b8196505b5050505050509450945094915050565b600080614c5d614f2f565b6020808252818101819052604082015260608101859052608081018490527ffffffffffffffffffffffffffffffffffffffffffffffffffffffffefffffc2f60a0820152614ca9614f4d565b60208160c08460057ffffffffffffffffffffffffffffffffffffffffffffffffffffffffffffffffffa925082614d3c576040517f08c379a000000000000000000000000000000000000000000000000000000000815260206004820152601260248201527f6269674d6f64457870206661696c7572652100000000000000000000000000006044820152606401610799565b5195945050505050565b6000807ffffffffffffffffffffffffffffffffffffffffffffffffffffffffefffffc2f8487097ffffffffffffffffffffffffffffffffffffffffffffffffffffffffefffffc2f8487099097909650945050505050565b600080807ffffffffffffffffffffffffffffffffffffffffffffffffffffffffefffffc2f878509905060007ffffffffffffffffffffffffffffffffffffffffffffffffffffffffefffffc2f87877ffffffffffffffffffffffffffffffffffffffffffffffffffffffffefffffc2f030990507ffffffffffffffffffffffffffffffffffffffffffffffffffffffffefffffc2f8183087ffffffffffffffffffffffffffffffffffffffffffffffffffffffffefffffc2f86890990999098509650505050505050565b828054828255906000526020600020908101928215614ee3579160200282015b82811115614ee357825182547fffffffffffffffffffffffff00000000000000000000000000000000000000001673ffffffffffffffffffffffffffffffffffffffff909116178255602090920191600190910190614e89565b50614eef929150614f6b565b5090565b50805460008255906000526020600020908101906136ce9190614f6b565b60405180604001604052806002906020820280368337509192915050565b6040518060c001604052806006906020820280368337509192915050565b60405180602001604052806001906020820280368337509192915050565b5b80821115614eef5760008155600101614f6c565b803573ffffffffffffffffffffffffffffffffffffffff8116811461476c57600080fd5b80604081018310156144c857600080fd5b600082601f830112614fc657600080fd5b6040516040810181811067ffffffffffffffff82111715614fe957614fe9615a11565b806040525080838560408601111561500057600080fd5b60005b6002811015615022578135835260209283019290910190600101615003565b509195945050505050565b600060a0828403121561503f57600080fd5b60405160a0810181811067ffffffffffffffff8211171561506257615062615a11565b604052905080615071836150e4565b815261507f602084016150e4565b6020820152615090604084016150d0565b60408201526150a1606084016150d0565b60608201526150b260808401614f80565b60808201525092915050565b803561ffff8116811461476c57600080fd5b803563ffffffff8116811461476c57600080fd5b803567ffffffffffffffff8116811461476c57600080fd5b805169ffffffffffffffffffff8116811461476c57600080fd5b80356bffffffffffffffffffffffff8116811461476c57600080fd5b60006020828403121561514457600080fd5b613bf282614f80565b6000806060838503121561516057600080fd5b61516983614f80565b91506151788460208501614fa4565b90509250929050565b6000806000806060858703121561519757600080fd5b6151a085614f80565b935060208501359250604085013567ffffffffffffffff808211156151c457600080fd5b818701915087601f8301126151d857600080fd5b8135818111156151e757600080fd5b8860208285010111156151f957600080fd5b95989497505060200194505050565b6000806040838503121561521b57600080fd5b61522483614f80565b915061517860208401615116565b60006040828403121561524457600080fd5b613bf28383614fa4565b60006040828403121561526057600080fd5b613bf28383614fb5565b60006020828403121561527c57600080fd5b81518015158114613bf257600080fd5b60006020828403121561529e57600080fd5b5051919050565b600080600080600060a086880312156152bd57600080fd5b853594506152cd602087016150e4565b93506152db604087016150be565b92506152e9606087016150d0565b91506152f7608087016150d0565b90509295509295909350565b60008082840361024081121561531857600080fd5b6101a08082121561532857600080fd5b6153306157b6565b915061533c8686614fb5565b825261534b8660408701614fb5565b60208301526080850135604083015260a0850135606083015260c0850135608083015261537a60e08601614f80565b60a083015261010061538e87828801614fb5565b60c08401526153a1876101408801614fb5565b60e084015261018086013581840152508193506153c08682870161502d565b925050509250929050565b600080600080600080600060e0888a0312156153e657600080fd5b6153ef886150be565b96506153fd602089016150d0565b955061540b604089016150d0565b9450615419606089016150d0565b9350615427608089016150d0565b925061543560a08901615116565b915060c0880135905092959891949750929550565b60006020828403121561545c57600080fd5b5035919050565b60008060006060848603121561547857600080fd5b83359250615488602085016150d0565b9150604084013590509250925092565b6000602082840312156154aa57600080fd5b613bf2826150e4565b600080604083850312156154c657600080fd5b6154cf836150e4565b915061517860208401614f80565b6000806000606084860312156154f257600080fd5b6154fb846150e4565b925061550960208501614f80565b915061551760408501615116565b90509250925092565b600080600080600060a0868803121561553857600080fd5b615541866150fc565b94506020860151935060408601519250606086015191506152f7608087016150fc565b8060005b60028110156108d4578151845260209384019390910190600101615568565b600081518084526020808501945080840160005b838110156155b75781518752958201959082019060010161559b565b509495945050505050565b6155cc8183615564565b604001919050565b8681526155e46020820187615564565b6155f16060820186615564565b6155fe60a0820185615564565b61560b60e0820184615564565b60609190911b7fffffffffffffffffffffffffffffffffffffffff000000000000000000000000166101208201526101340195945050505050565b8381526156566020820184615564565b606081019190915260800192915050565b604081016144c88284615564565b6040815260006156886040830185615587565b905082151560208301529392505050565b600060208083528351808285015260005b818110156156c6578581018301518582016040015282016156aa565b818111156156d8576000604083870101525b50601f017fffffffffffffffffffffffffffffffffffffffffffffffffffffffffffffffe016929092016040019392505050565b82815260608101613bf26020830184615564565b828152604060208201526000613dfe6040830184615587565b6000606082016bffffffffffffffffffffffff86168352602073ffffffffffffffffffffffffffffffffffffffff8087168286015260606040860152828651808552608087019150838801945060005b818110156157a7578551841683529484019491840191600101615789565b50909998505050505050505050565b604051610120810167ffffffffffffffff811182821017156157da576157da615a11565b60405290565b600082198211156157f3576157f3615955565b500190565b600067ffffffffffffffff80831681851680830382111561581b5761581b615955565b01949350505050565b60006bffffffffffffffffffffffff80831681851680830382111561581b5761581b615955565b60008261585a5761585a615984565b500490565b6000817fffffffffffffffffffffffffffffffffffffffffffffffffffffffffffffffff048311821515161561589757615897615955565b500290565b6000828210156158ae576158ae615955565b500390565b60006bffffffffffffffffffffffff838116908316818110156158d8576158d8615955565b039392505050565b60007fffffffffffffffffffffffffffffffffffffffffffffffffffffffffffffffff82141561591257615912615955565b5060010190565b600067ffffffffffffffff8083168181141561593757615937615955565b6001019392505050565b60008261595057615950615984565b500690565b7f4e487b7100000000000000000000000000000000000000000000000000000000600052601160045260246000fd5b7f4e487b7100000000000000000000000000000000000000000000000000000000600052601260045260246000fd5b7f4e487b7100000000000000000000000000000000000000000000000000000000600052603160045260246000fd5b7f4e487b7100000000000000000000000000000000000000000000000000000000600052603260045260246000fd5b7f4e487b7100000000000000000000000000000000000000000000000000000000600052604160045260246000fdfea164736f6c6343000806000a",
  "linkReferences": {},
  "deployedLinkReferences": {}
}