{
  "_format": "hh-sol-artifact-1",
  "contractName": "VRFSingleConsumerExample",
  "sourceName": "src/v0.8/tests/VRFSingleConsumerExample.sol",
  "abi": [
    {
      "inputs": [
        {
          "internalType": "address",
          "name": "vrfCoordinator",
          "type": "address"
        },
        {
          "internalType": "address",
          "name": "link",
          "type": "address"
        },
        {
          "internalType": "uint32",
          "name": "callbackGasLimit",
          "type": "uint32"
        },
        {
          "internalType": "uint16",
          "name": "requestConfirmations",
          "type": "uint16"
        },
        {
          "internalType": "uint32",
          "name": "numWords",
          "type": "uint32"
        },
        {
          "internalType": "bytes32",
          "name": "keyHash",
          "type": "bytes32"
        }
      ],
      "stateMutability": "nonpayable",
      "type": "constructor"
    },
    {
      "inputs": [
        {
          "internalType": "address",
          "name": "have",
          "type": "address"
        },
        {
          "internalType": "address",
          "name": "want",
          "type": "address"
        }
      ],
      "name": "OnlyCoordinatorCanFulfill",
      "type": "error"
    },
    {
      "inputs": [
        {
          "internalType": "uint256",
          "name": "requestId",
          "type": "uint256"
        },
        {
          "internalType": "uint256[]",
          "name": "randomWords",
          "type": "uint256[]"
        }
      ],
      "name": "rawFulfillRandomWords",
      "outputs": [],
      "stateMutability": "nonpayable",
      "type": "function"
    },
    {
      "inputs": [],
      "name": "requestRandomWords",
      "outputs": [],
      "stateMutability": "nonpayable",
      "type": "function"
    },
    {
      "inputs": [],
      "name": "subscribe",
      "outputs": [],
      "stateMutability": "nonpayable",
      "type": "function"
    },
    {
      "inputs": [
        {
          "internalType": "uint256",
          "name": "amount",
          "type": "uint256"
        }
      ],
      "name": "topUpSubscription",
      "outputs": [],
      "stateMutability": "nonpayable",
      "type": "function"
    },
    {
      "inputs": [],
      "name": "unsubscribe",
      "outputs": [],
      "stateMutability": "nonpayable",
      "type": "function"
    }
  ],
  "bytecode": "0x60a060405234801561001057600080fd5b50604051610aed380380610aed83398101604081905261002f91610137565b606086811b6001600160601b0319166080908152600080546001600160a01b03998a166001600160a01b03199182161782556001805490911698909916979097179097556040805160a08101825296875263ffffffff9586166020880181905261ffff959095169087018190529290941693850184905293909401839052600280546001600160701b0319166801000000000000000090920261ffff60601b1916919091176c010000000000000000000000009094029390931763ffffffff60701b1916600160701b909102179091556003556101ad565b80516001600160a01b038116811461011e57600080fd5b919050565b805163ffffffff8116811461011e57600080fd5b60008060008060008060c0878903121561015057600080fd5b61015987610107565b955061016760208801610107565b945061017560408801610123565b9350606087015161ffff8116811461018c57600080fd5b925061019a60808801610123565b915060a087015190509295509295509295565b60805160601c61091c6101d16000396000818160c4015261012c015261091c6000f3fe608060405234801561001057600080fd5b50600436106100675760003560e01c80638f449a05116100505780638f449a0514610094578063e0c862891461009c578063fcae4484146100a457600080fd5b80631fe543e31461006c57806386850e9314610081575b600080fd5b61007f61007a366004610700565b6100ac565b005b61007f61008f3660046106ce565b61016b565b61007f61022c565b61007f61042f565b61007f61056c565b3373ffffffffffffffffffffffffffffffffffffffff7f0000000000000000000000000000000000000000000000000000000000000000161461015d576040517f1cf993f400000000000000000000000000000000000000000000000000000000815233600482015273ffffffffffffffffffffffffffffffffffffffff7f000000000000000000000000000000000000000000000000000000000000000016602482015260440160405180910390fd5b610167828261062d565b5050565b6001546000546002546040805167ffffffffffffffff909216602083015273ffffffffffffffffffffffffffffffffffffffff93841693634000aea09316918591016040516020818303038152906040526040518463ffffffff1660e01b81526004016101da93929190610819565b602060405180830381600087803b1580156101f457600080fd5b505af1158015610208573d6000803e3d6000fd5b505050506040513d601f19601f8201168201806040525081019061016791906106a5565b604080516001808252818301909252600091602080830190803683370190505090503081600081518110610262576102626108b1565b602002602001019073ffffffffffffffffffffffffffffffffffffffff16908173ffffffffffffffffffffffffffffffffffffffff168152505060008054906101000a900473ffffffffffffffffffffffffffffffffffffffff1673ffffffffffffffffffffffffffffffffffffffff1663a21a23e46040518163ffffffff1660e01b8152600401602060405180830381600087803b15801561030457600080fd5b505af1158015610318573d6000803e3d6000fd5b505050506040513d601f19601f8201168201806040525081019061033c91906107ef565b600280547fffffffffffffffffffffffffffffffffffffffffffffffff00000000000000001667ffffffffffffffff92909216918217905560008054835173ffffffffffffffffffffffffffffffffffffffff90911692637341c10c9290918591906103aa576103aa6108b1565b60200260200101516040518363ffffffff1660e01b81526004016103fa92919067ffffffffffffffff92909216825273ffffffffffffffffffffffffffffffffffffffff16602082015260400190565b600060405180830381600087803b15801561041457600080fd5b505af1158015610428573d6000803e3d6000fd5b5050505050565b6040805160a08101825260025467ffffffffffffffff811680835263ffffffff68010000000000000000830481166020850181905261ffff6c010000000000000000000000008504168587018190526e010000000000000000000000000000909404909116606085018190526003546080860181905260005496517f5d3b1d3000000000000000000000000000000000000000000000000000000000815260048101919091526024810193909352604483019390935260648201526084810191909152909173ffffffffffffffffffffffffffffffffffffffff1690635d3b1d309060a401602060405180830381600087803b15801561052e57600080fd5b505af1158015610542573d6000803e3d6000fd5b505050506040513d601f19601f8201168201806040525081019061056691906106e7565b60055550565b6000546002546040517fd7ae1d3000000000000000000000000000000000000000000000000000000000815267ffffffffffffffff909116600482015230602482015273ffffffffffffffffffffffffffffffffffffffff9091169063d7ae1d3090604401600060405180830381600087803b1580156105eb57600080fd5b505af11580156105ff573d6000803e3d6000fd5b5050600280547fffffffffffffffffffffffffffffffffffffffffffffffff00000000000000001690555050565b8051610640906004906020840190610645565b505050565b828054828255906000526020600020908101928215610680579160200282015b82811115610680578251825591602001919060010190610665565b5061068c929150610690565b5090565b5b8082111561068c5760008155600101610691565b6000602082840312156106b757600080fd5b815180151581146106c757600080fd5b9392505050565b6000602082840312156106e057600080fd5b5035919050565b6000602082840312156106f957600080fd5b5051919050565b6000806040838503121561071357600080fd5b8235915060208084013567ffffffffffffffff8082111561073357600080fd5b818601915086601f83011261074757600080fd5b813581811115610759576107596108e0565b8060051b6040517fffffffffffffffffffffffffffffffffffffffffffffffffffffffffffffffe0603f8301168101818110858211171561079c5761079c6108e0565b604052828152858101935084860182860187018b10156107bb57600080fd5b600095505b838610156107de5780358552600195909501949386019386016107c0565b508096505050505050509250929050565b60006020828403121561080157600080fd5b815167ffffffffffffffff811681146106c757600080fd5b73ffffffffffffffffffffffffffffffffffffffff8416815260006020848184015260606040840152835180606085015260005b818110156108695785810183015185820160800152820161084d565b8181111561087b576000608083870101525b50601f017fffffffffffffffffffffffffffffffffffffffffffffffffffffffffffffffe0169290920160800195945050505050565b7f4e487b7100000000000000000000000000000000000000000000000000000000600052603260045260246000fd5b7f4e487b7100000000000000000000000000000000000000000000000000000000600052604160045260246000fdfea164736f6c6343000806000a",
  "linkReferences": {},
  "deployedLinkReferences": {}
}