{
  "_format": "hh-sol-artifact-1",
  "contractName": "MinimalForwarder",
  "sourceName": "contracts/metatx/MinimalForwarder.sol",
  "abi": [
    {
      "inputs": [],
      "stateMutability": "nonpayable",
      "type": "constructor"
    },
    {
      "inputs": [],
      "name": "InvalidShortString",
      "type": "error"
    },
    {
      "inputs": [
        {
          "internalType": "string",
          "name": "str",
          "type": "string"
        }
      ],
      "name": "StringTooLong",
      "type": "error"
    },
    {
      "anonymous": false,
      "inputs": [],
      "name": "EIP712DomainChanged",
      "type": "event"
    },
    {
      "inputs": [],
      "name": "eip712Domain",
      "outputs": [
        {
          "internalType": "bytes1",
          "name": "fields",
          "type": "bytes1"
        },
        {
          "internalType": "string",
          "name": "name",
          "type": "string"
        },
        {
          "internalType": "string",
          "name": "version",
          "type": "string"
        },
        {
          "internalType": "uint256",
          "name": "chainId",
          "type": "uint256"
        },
        {
          "internalType": "address",
          "name": "verifyingContract",
          "type": "address"
        },
        {
          "internalType": "bytes32",
          "name": "salt",
          "type": "bytes32"
        },
        {
          "internalType": "uint256[]",
          "name": "extensions",
          "type": "uint256[]"
        }
      ],
      "stateMutability": "view",
      "type": "function"
    },
    {
      "inputs": [
        {
          "components": [
            {
              "internalType": "address",
              "name": "from",
              "type": "address"
            },
            {
              "internalType": "address",
              "name": "to",
              "type": "address"
            },
            {
              "internalType": "uint256",
              "name": "value",
              "type": "uint256"
            },
            {
              "internalType": "uint256",
              "name": "gas",
              "type": "uint256"
            },
            {
              "internalType": "uint256",
              "name": "nonce",
              "type": "uint256"
            },
            {
              "internalType": "bytes",
              "name": "data",
              "type": "bytes"
            }
          ],
          "internalType": "struct MinimalForwarder.ForwardRequest",
          "name": "req",
          "type": "tuple"
        },
        {
          "internalType": "bytes",
          "name": "signature",
          "type": "bytes"
        }
      ],
      "name": "execute",
      "outputs": [
        {
          "internalType": "bool",
          "name": "",
          "type": "bool"
        },
        {
          "internalType": "bytes",
          "name": "",
          "type": "bytes"
        }
      ],
      "stateMutability": "payable",
      "type": "function"
    },
    {
      "inputs": [
        {
          "internalType": "address",
          "name": "from",
          "type": "address"
        }
      ],
      "name": "getNonce",
      "outputs": [
        {
          "internalType": "uint256",
          "name": "",
          "type": "uint256"
        }
      ],
      "stateMutability": "view",
      "type": "function"
    },
    {
      "inputs": [
        {
          "components": [
            {
              "internalType": "address",
              "name": "from",
              "type": "address"
            },
            {
              "internalType": "address",
              "name": "to",
              "type": "address"
            },
            {
              "internalType": "uint256",
              "name": "value",
              "type": "uint256"
            },
            {
              "internalType": "uint256",
              "name": "gas",
              "type": "uint256"
            },
            {
              "internalType": "uint256",
              "name": "nonce",
              "type": "uint256"
            },
            {
              "internalType": "bytes",
              "name": "data",
              "type": "bytes"
            }
          ],
          "internalType": "struct MinimalForwarder.ForwardRequest",
          "name": "req",
          "type": "tuple"
        },
        {
          "internalType": "bytes",
          "name": "signature",
          "type": "bytes"
        }
      ],
      "name": "verify",
      "outputs": [
        {
          "internalType": "bool",
          "name": "",
          "type": "bool"
        }
      ],
      "stateMutability": "view",
      "type": "function"
    }
  ],
  "bytecode": "0x6101606040523480156200001257600080fd5b506040518060400160405280601081526020016f26b4b734b6b0b62337b93bb0b93232b960811b81525060405180604001604052806005815260200164302e302e3160d81b815250620000756000836200012f60201b620004a71790919060201c565b61012052620000928160016200012f602090811b620004a717901c565b61014052815160208084019190912060e052815190820120610100524660a0526200012060e05161010051604080517f8b73c3c69bb8fe3d512ecc4cf759cc79239f7b179b0ffacaa9a75d522b39400f60208201529081019290925260608201524660808201523060a082015260009060c00160405160208183030381529060405280519060200120905090565b60805250503060c0526200032e565b60006020835110156200014f57620001478362000183565b90506200017d565b826200016683620001cf60201b620004e01760201c565b8151620001779260200190620001d2565b5060ff90505b92915050565b600080829050601f81511115620001ba578260405163305a27a960e01b8152600401620001b1919062000278565b60405180910390fd5b8051620001c782620002d0565b179392505050565b90565b828054620001e090620002f8565b90600052602060002090601f0160209004810192826200020457600085556200024f565b82601f106200021f57805160ff19168380011785556200024f565b828001600101855582156200024f579182015b828111156200024f57825182559160200191906001019062000232565b506200025d92915062000261565b5090565b5b808211156200025d576000815560010162000262565b600060208083528351808285015260005b81811015620002a75785810183015185820160400152820162000289565b81811115620002ba576000604083870101525b50601f01601f1916929092016040019392505050565b80516020808301519190811015620002f2576000198160200360031b1b821691505b50919050565b600181811c908216806200030d57607f821691505b602082108103620002f257634e487b7160e01b600052602260045260246000fd5b60805160a05160c05160e051610100516101205161014051610e1e6200038960003960006102d8015260006102ae0152600061072f01526000610707015260006106620152600061068c015260006106b60152610e1e6000f3fe60806040526004361061003f5760003560e01c80632d0335ab1461004457806347153f821461008d57806384b0196e146100ae578063bf5d3bdb146100d6575b600080fd5b34801561005057600080fd5b5061007a61005f366004610a9c565b6001600160a01b031660009081526002602052604090205490565b6040519081526020015b60405180910390f35b6100a061009b366004610acc565b610106565b604051610084929190610bc7565b3480156100ba57600080fd5b506100c36102a0565b6040516100849796959493929190610bea565b3480156100e257600080fd5b506100f66100f1366004610acc565b610328565b6040519015158152602001610084565b60006060610115858585610328565b6101815760405162461bcd60e51b815260206004820152603260248201527f4d696e696d616c466f727761726465723a207369676e617475726520646f6573604482015271081b9bdd081b585d18da081c995c5d595cdd60721b60648201526084015b60405180910390fd5b61019060808601356001610c80565b600260006101a16020890189610a9c565b6001600160a01b03166001600160a01b03168152602001908152602001600020819055506000808660200160208101906101db9190610a9c565b6001600160a01b0316606088013560408901356101fb60a08b018b610ca6565b61020860208d018d610a9c565b60405160200161021a93929190610ced565b60408051601f198184030181529082905261023491610d13565b600060405180830381858888f193505050503d8060008114610272576040519150601f19603f3d011682016040523d82523d6000602084013e610277565b606091505b50909250905061028c603f6060890135610d2f565b5a1161029457fe5b90969095509350505050565b6000606080828080836102d37f0000000000000000000000000000000000000000000000000000000000000000836104e3565b6102fe7f000000000000000000000000000000000000000000000000000000000000000060016104e3565b60408051600080825260208201909252600f60f81b9b939a50919850469750309650945092509050565b60008061043b84848080601f01602080910402602001604051908101604052809392919081815260200183838082843760009201919091525061043592507fdd8f4b70b0f4393e889bd39128a30628a78b61816a9eb8199759e7a349657e489150610398905060208a018a610a9c565b6103a860408b0160208c01610a9c565b60408b013560608c013560808d01356103c460a08f018f610ca6565b6040516103d2929190610d51565b6040805191829003822060208301989098526001600160a01b0396871690820152949093166060850152608084019190915260a083015260c082015260e08101919091526101000160405160208183030381529060405280519060200120610587565b906105b4565b90506080850135600260006104536020890189610a9c565b6001600160a01b03166001600160a01b031681526020019081526020016000205414801561049e57506104896020860186610a9c565b6001600160a01b0316816001600160a01b0316145b95945050505050565b60006020835110156104c3576104bc836105d8565b90506104da565b828281516104d49260200190610a03565b5060ff90505b92915050565b90565b606060ff83146104f6576104bc83610616565b81805461050290610d61565b80601f016020809104026020016040519081016040528092919081815260200182805461052e90610d61565b801561057b5780601f106105505761010080835404028352916020019161057b565b820191906000526020600020905b81548152906001019060200180831161055e57829003601f168201915b505050505090506104da565b60006104da610594610655565b8360405161190160f01b8152600281019290925260228201526042902090565b60008060006105c38585610785565b915091506105d0816107ca565b509392505050565b600080829050601f81511115610603578260405163305a27a960e01b81526004016101789190610d9b565b805161060e82610dae565b179392505050565b6060600061062383610917565b604080516020808252818301909252919250600091906020820181803683375050509182525060208101929092525090565b6000306001600160a01b037f0000000000000000000000000000000000000000000000000000000000000000161480156106ae57507f000000000000000000000000000000000000000000000000000000000000000046145b156106d857507f000000000000000000000000000000000000000000000000000000000000000090565b610780604080517f8b73c3c69bb8fe3d512ecc4cf759cc79239f7b179b0ffacaa9a75d522b39400f60208201527f0000000000000000000000000000000000000000000000000000000000000000918101919091527f000000000000000000000000000000000000000000000000000000000000000060608201524660808201523060a082015260009060c00160405160208183030381529060405280519060200120905090565b905090565b60008082516041036107bb5760208301516040840151606085015160001a6107af8782858561093f565b945094505050506107c3565b506000905060025b9250929050565b60008160048111156107de576107de610dd2565b036107e65750565b60018160048111156107fa576107fa610dd2565b036108475760405162461bcd60e51b815260206004820152601860248201527f45434453413a20696e76616c6964207369676e617475726500000000000000006044820152606401610178565b600281600481111561085b5761085b610dd2565b036108a85760405162461bcd60e51b815260206004820152601f60248201527f45434453413a20696e76616c6964207369676e6174757265206c656e677468006044820152606401610178565b60038160048111156108bc576108bc610dd2565b036109145760405162461bcd60e51b815260206004820152602260248201527f45434453413a20696e76616c6964207369676e6174757265202773272076616c604482015261756560f01b6064820152608401610178565b50565b600060ff8216601f8111156104da57604051632cd44ac360e21b815260040160405180910390fd5b6000807f7fffffffffffffffffffffffffffffff5d576e7357a4501ddfe92f46681b20a083111561097657506000905060036109fa565b6040805160008082526020820180845289905260ff881692820192909252606081018690526080810185905260019060a0016020604051602081039080840390855afa1580156109ca573d6000803e3d6000fd5b5050604051601f1901519150506001600160a01b0381166109f3576000600192509250506109fa565b9150600090505b94509492505050565b828054610a0f90610d61565b90600052602060002090601f016020900481019282610a315760008555610a77565b82601f10610a4a57805160ff1916838001178555610a77565b82800160010185558215610a77579182015b82811115610a77578251825591602001919060010190610a5c565b50610a83929150610a87565b5090565b5b80821115610a835760008155600101610a88565b600060208284031215610aae57600080fd5b81356001600160a01b0381168114610ac557600080fd5b9392505050565b600080600060408486031215610ae157600080fd5b833567ffffffffffffffff80821115610af957600080fd5b9085019060c08288031215610b0d57600080fd5b90935060208501359080821115610b2357600080fd5b818601915086601f830112610b3757600080fd5b813581811115610b4657600080fd5b876020828501011115610b5857600080fd5b6020830194508093505050509250925092565b60005b83811015610b86578181015183820152602001610b6e565b83811115610b95576000848401525b50505050565b60008151808452610bb3816020860160208601610b6b565b601f01601f19169290920160200192915050565b8215158152604060208201526000610be26040830184610b9b565b949350505050565b60ff60f81b881681526000602060e081840152610c0a60e084018a610b9b565b8381036040850152610c1c818a610b9b565b606085018990526001600160a01b038816608086015260a0850187905284810360c0860152855180825283870192509083019060005b81811015610c6e57835183529284019291840191600101610c52565b50909c9b505050505050505050505050565b60008219821115610ca157634e487b7160e01b600052601160045260246000fd5b500190565b6000808335601e19843603018112610cbd57600080fd5b83018035915067ffffffffffffffff821115610cd857600080fd5b6020019150368190038213156107c357600080fd5b8284823760609190911b6bffffffffffffffffffffffff19169101908152601401919050565b60008251610d25818460208701610b6b565b9190910192915050565b600082610d4c57634e487b7160e01b600052601260045260246000fd5b500490565b8183823760009101908152919050565b600181811c90821680610d7557607f821691505b602082108103610d9557634e487b7160e01b600052602260045260246000fd5b50919050565b602081526000610ac56020830184610b9b565b80516020808301519190811015610d955760001960209190910360031b1b16919050565b634e487b7160e01b600052602160045260246000fdfea26469706673582212206fe5ed5ceb0154292fd4bec46d808cd37f1bb24363f695e1a84a3f4f9c71b78164736f6c634300080d0033",
  "linkReferences": {},
  "deployedLinkReferences": {}
}