{
  "_format": "hh-sol-artifact-1",
  "contractName": "EmptyOracle",
  "sourceName": "src/v0.6/tests/EmptyOracle.sol",
  "abi": [
    {
      "inputs": [
        {
          "internalType": "bytes32",
          "name": "",
          "type": "bytes32"
        },
        {
          "internalType": "uint256",
          "name": "",
          "type": "uint256"
        },
        {
          "internalType": "bytes4",
          "name": "",
          "type": "bytes4"
        },
        {
          "internalType": "uint256",
          "name": "",
          "type": "uint256"
        }
      ],
      "name": "cancelOracleRequest",
      "outputs": [],
      "stateMutability": "nonpayable",
      "type": "function"
    },
    {
      "inputs": [
        {
          "internalType": "bytes32",
          "name": "",
          "type": "bytes32"
        },
        {
          "internalType": "uint256",
          "name": "",
          "type": "uint256"
        },
        {
          "internalType": "address",
          "name": "",
          "type": "address"
        },
        {
          "internalType": "bytes4",
          "name": "",
          "type": "bytes4"
        },
        {
          "internalType": "uint256",
          "name": "",
          "type": "uint256"
        },
        {
          "internalType": "bytes32",
          "name": "",
          "type": "bytes32"
        }
      ],
      "name": "fulfillOracleRequest",
      "outputs": [
        {
          "internalType": "bool",
          "name": "",
          "type": "bool"
        }
      ],
      "stateMutability": "nonpayable",
      "type": "function"
    },
    {
      "inputs": [
        {
          "internalType": "address",
          "name": "",
          "type": "address"
        }
      ],
      "name": "getAuthorizationStatus",
      "outputs": [
        {
          "internalType": "bool",
          "name": "",
          "type": "bool"
        }
      ],
      "stateMutability": "view",
      "type": "function"
    },
    {
      "inputs": [
        {
          "internalType": "address",
          "name": "",
          "type": "address"
        },
        {
          "internalType": "uint256",
          "name": "",
          "type": "uint256"
        },
        {
          "internalType": "bytes",
          "name": "",
          "type": "bytes"
        }
      ],
      "name": "onTokenTransfer",
      "outputs": [],
      "stateMutability": "pure",
      "type": "function"
    },
    {
      "inputs": [
        {
          "internalType": "address",
          "name": "",
          "type": "address"
        },
        {
          "internalType": "uint256",
          "name": "",
          "type": "uint256"
        },
        {
          "internalType": "bytes32",
          "name": "",
          "type": "bytes32"
        },
        {
          "internalType": "address",
          "name": "",
          "type": "address"
        },
        {
          "internalType": "bytes4",
          "name": "",
          "type": "bytes4"
        },
        {
          "internalType": "uint256",
          "name": "",
          "type": "uint256"
        },
        {
          "internalType": "uint256",
          "name": "",
          "type": "uint256"
        },
        {
          "internalType": "bytes",
          "name": "",
          "type": "bytes"
        }
      ],
      "name": "oracleRequest",
      "outputs": [],
      "stateMutability": "nonpayable",
      "type": "function"
    },
    {
      "inputs": [
        {
          "internalType": "address",
          "name": "",
          "type": "address"
        },
        {
          "internalType": "bool",
          "name": "",
          "type": "bool"
        }
      ],
      "name": "setFulfillmentPermission",
      "outputs": [],
      "stateMutability": "nonpayable",
      "type": "function"
    },
    {
      "inputs": [
        {
          "internalType": "address",
          "name": "",
          "type": "address"
        },
        {
          "internalType": "uint256",
          "name": "",
          "type": "uint256"
        }
      ],
      "name": "withdraw",
      "outputs": [],
      "stateMutability": "nonpayable",
      "type": "function"
    },
    {
      "inputs": [],
      "name": "withdrawable",
      "outputs": [
        {
          "internalType": "uint256",
          "name": "",
          "type": "uint256"
        }
      ],
      "stateMutability": "view",
      "type": "function"
    }
  ],
  "bytecode": "0x608060405234801561001057600080fd5b506103c9806100206000396000f3fe608060405234801561001057600080fd5b50600436106100885760003560e01c80637fcd56db1161005b5780637fcd56db14610257578063a4c0ed3614610292578063d3e9c31414610324578063f3fef3a31461035757610088565b8063404299461461008d5780634ab0d1901461016557806350188301146101ec5780636ee4d55314610206575b600080fd5b61016360048036036101008110156100a457600080fd5b73ffffffffffffffffffffffffffffffffffffffff8235811692602081013592604082013592606083013516917fffffffff000000000000000000000000000000000000000000000000000000006080820135169160a08201359160c081013591810190610100810160e082013564010000000081111561012457600080fd5b82018360208201111561013657600080fd5b8035906020019184600183028401116401000000008311171561015857600080fd5b509092509050610390565b005b6101d8600480360360c081101561017b57600080fd5b5080359060208101359073ffffffffffffffffffffffffffffffffffffffff604082013516907fffffffff000000000000000000000000000000000000000000000000000000006060820135169060808101359060a0013561039b565b604080519115158252519081900360200190f35b6101f46103a7565b60408051918252519081900360200190f35b6101636004803603608081101561021c57600080fd5b508035906020810135907fffffffff0000000000000000000000000000000000000000000000000000000060408201351690606001356103ac565b6101636004803603604081101561026d57600080fd5b5073ffffffffffffffffffffffffffffffffffffffff813516906020013515156103b2565b610163600480360360608110156102a857600080fd5b73ffffffffffffffffffffffffffffffffffffffff823516916020810135918101906060810160408201356401000000008111156102e557600080fd5b8201836020820111156102f757600080fd5b8035906020019184600183028401116401000000008311171561031957600080fd5b5090925090506103ac565b6101d86004803603602081101561033a57600080fd5b503573ffffffffffffffffffffffffffffffffffffffff166103b6565b6101636004803603604081101561036d57600080fd5b5073ffffffffffffffffffffffffffffffffffffffff81351690602001356103b2565b505050505050505050565b60009695505050505050565b600090565b50505050565b5050565b5060009056fea164736f6c6343000606000a",
  "linkReferences": {},
  "deployedLinkReferences": {}
}