{
  "_format": "hh-sol-artifact-1",
  "contractName": "ArbitrumValidator",
  "sourceName": "src/v0.8/dev/ArbitrumValidator.sol",
  "abi": [
    {
      "inputs": [
        {
          "internalType": "address",
          "name": "crossDomainMessengerAddr",
          "type": "address"
        },
        {
          "internalType": "address",
          "name": "l2CrossDomainForwarderAddr",
          "type": "address"
        },
        {
          "internalType": "address",
          "name": "l2FlagsAddr",
          "type": "address"
        },
        {
          "internalType": "address",
          "name": "configACAddr",
          "type": "address"
        },
        {
          "internalType": "uint256",
          "name": "maxGas",
          "type": "uint256"
        },
        {
          "internalType": "uint256",
          "name": "gasPriceBid",
          "type": "uint256"
        },
        {
          "internalType": "address",
          "name": "gasPriceL1FeedAddr",
          "type": "address"
        },
        {
          "internalType": "enum ArbitrumValidator.PaymentStrategy",
          "name": "paymentStrategy",
          "type": "uint8"
        }
      ],
      "stateMutability": "nonpayable",
      "type": "constructor"
    },
    {
      "anonymous": false,
      "inputs": [
        {
          "indexed": false,
          "internalType": "address",
          "name": "user",
          "type": "address"
        }
      ],
      "name": "AddedAccess",
      "type": "event"
    },
    {
      "anonymous": false,
      "inputs": [],
      "name": "CheckAccessDisabled",
      "type": "event"
    },
    {
      "anonymous": false,
      "inputs": [],
      "name": "CheckAccessEnabled",
      "type": "event"
    },
    {
      "anonymous": false,
      "inputs": [
        {
          "indexed": true,
          "internalType": "address",
          "name": "previous",
          "type": "address"
        },
        {
          "indexed": true,
          "internalType": "address",
          "name": "current",
          "type": "address"
        }
      ],
      "name": "ConfigACSet",
      "type": "event"
    },
    {
      "anonymous": false,
      "inputs": [
        {
          "indexed": false,
          "internalType": "uint256",
          "name": "maxGas",
          "type": "uint256"
        },
        {
          "indexed": false,
          "internalType": "uint256",
          "name": "gasPriceBid",
          "type": "uint256"
        },
        {
          "indexed": true,
          "internalType": "address",
          "name": "gasPriceL1FeedAddr",
          "type": "address"
        }
      ],
      "name": "GasConfigSet",
      "type": "event"
    },
    {
      "anonymous": false,
      "inputs": [
        {
          "indexed": true,
          "internalType": "uint256",
          "name": "id",
          "type": "uint256"
        },
        {
          "indexed": false,
          "internalType": "uint256",
          "name": "amount",
          "type": "uint256"
        },
        {
          "indexed": true,
          "internalType": "address",
          "name": "refundAddr",
          "type": "address"
        }
      ],
      "name": "L2WithdrawalRequested",
      "type": "event"
    },
    {
      "anonymous": false,
      "inputs": [
        {
          "indexed": true,
          "internalType": "address",
          "name": "from",
          "type": "address"
        },
        {
          "indexed": true,
          "internalType": "address",
          "name": "to",
          "type": "address"
        }
      ],
      "name": "OwnershipTransferRequested",
      "type": "event"
    },
    {
      "anonymous": false,
      "inputs": [
        {
          "indexed": true,
          "internalType": "address",
          "name": "from",
          "type": "address"
        },
        {
          "indexed": true,
          "internalType": "address",
          "name": "to",
          "type": "address"
        }
      ],
      "name": "OwnershipTransferred",
      "type": "event"
    },
    {
      "anonymous": false,
      "inputs": [
        {
          "indexed": true,
          "internalType": "enum ArbitrumValidator.PaymentStrategy",
          "name": "paymentStrategy",
          "type": "uint8"
        }
      ],
      "name": "PaymentStrategySet",
      "type": "event"
    },
    {
      "anonymous": false,
      "inputs": [
        {
          "indexed": false,
          "internalType": "address",
          "name": "user",
          "type": "address"
        }
      ],
      "name": "RemovedAccess",
      "type": "event"
    },
    {
      "inputs": [],
      "name": "CROSS_DOMAIN_MESSENGER",
      "outputs": [
        {
          "internalType": "address",
          "name": "",
          "type": "address"
        }
      ],
      "stateMutability": "view",
      "type": "function"
    },
    {
      "inputs": [],
      "name": "L2_ALIAS",
      "outputs": [
        {
          "internalType": "address",
          "name": "",
          "type": "address"
        }
      ],
      "stateMutability": "view",
      "type": "function"
    },
    {
      "inputs": [],
      "name": "L2_CROSS_DOMAIN_FORWARDER",
      "outputs": [
        {
          "internalType": "address",
          "name": "",
          "type": "address"
        }
      ],
      "stateMutability": "view",
      "type": "function"
    },
    {
      "inputs": [],
      "name": "L2_FLAGS",
      "outputs": [
        {
          "internalType": "address",
          "name": "",
          "type": "address"
        }
      ],
      "stateMutability": "view",
      "type": "function"
    },
    {
      "inputs": [],
      "name": "acceptOwnership",
      "outputs": [],
      "stateMutability": "nonpayable",
      "type": "function"
    },
    {
      "inputs": [
        {
          "internalType": "address",
          "name": "_user",
          "type": "address"
        }
      ],
      "name": "addAccess",
      "outputs": [],
      "stateMutability": "nonpayable",
      "type": "function"
    },
    {
      "inputs": [],
      "name": "checkEnabled",
      "outputs": [
        {
          "internalType": "bool",
          "name": "",
          "type": "bool"
        }
      ],
      "stateMutability": "view",
      "type": "function"
    },
    {
      "inputs": [],
      "name": "configAC",
      "outputs": [
        {
          "internalType": "address",
          "name": "",
          "type": "address"
        }
      ],
      "stateMutability": "view",
      "type": "function"
    },
    {
      "inputs": [],
      "name": "disableAccessCheck",
      "outputs": [],
      "stateMutability": "nonpayable",
      "type": "function"
    },
    {
      "inputs": [],
      "name": "enableAccessCheck",
      "outputs": [],
      "stateMutability": "nonpayable",
      "type": "function"
    },
    {
      "inputs": [],
      "name": "gasConfig",
      "outputs": [
        {
          "components": [
            {
              "internalType": "uint256",
              "name": "maxGas",
              "type": "uint256"
            },
            {
              "internalType": "uint256",
              "name": "gasPriceBid",
              "type": "uint256"
            },
            {
              "internalType": "address",
              "name": "gasPriceL1FeedAddr",
              "type": "address"
            }
          ],
          "internalType": "struct ArbitrumValidator.GasConfig",
          "name": "",
          "type": "tuple"
        }
      ],
      "stateMutability": "view",
      "type": "function"
    },
    {
      "inputs": [
        {
          "internalType": "address",
          "name": "_user",
          "type": "address"
        },
        {
          "internalType": "bytes",
          "name": "",
          "type": "bytes"
        }
      ],
      "name": "hasAccess",
      "outputs": [
        {
          "internalType": "bool",
          "name": "",
          "type": "bool"
        }
      ],
      "stateMutability": "view",
      "type": "function"
    },
    {
      "inputs": [],
      "name": "owner",
      "outputs": [
        {
          "internalType": "address",
          "name": "",
          "type": "address"
        }
      ],
      "stateMutability": "view",
      "type": "function"
    },
    {
      "inputs": [],
      "name": "paymentStrategy",
      "outputs": [
        {
          "internalType": "enum ArbitrumValidator.PaymentStrategy",
          "name": "",
          "type": "uint8"
        }
      ],
      "stateMutability": "view",
      "type": "function"
    },
    {
      "inputs": [
        {
          "internalType": "address",
          "name": "_user",
          "type": "address"
        }
      ],
      "name": "removeAccess",
      "outputs": [],
      "stateMutability": "nonpayable",
      "type": "function"
    },
    {
      "inputs": [
        {
          "internalType": "address",
          "name": "accessController",
          "type": "address"
        }
      ],
      "name": "setConfigAC",
      "outputs": [],
      "stateMutability": "nonpayable",
      "type": "function"
    },
    {
      "inputs": [
        {
          "internalType": "uint256",
          "name": "maxGas",
          "type": "uint256"
        },
        {
          "internalType": "uint256",
          "name": "gasPriceBid",
          "type": "uint256"
        },
        {
          "internalType": "address",
          "name": "gasPriceL1FeedAddr",
          "type": "address"
        }
      ],
      "name": "setGasConfig",
      "outputs": [],
      "stateMutability": "nonpayable",
      "type": "function"
    },
    {
      "inputs": [
        {
          "internalType": "enum ArbitrumValidator.PaymentStrategy",
          "name": "paymentStrategy",
          "type": "uint8"
        }
      ],
      "name": "setPaymentStrategy",
      "outputs": [],
      "stateMutability": "nonpayable",
      "type": "function"
    },
    {
      "inputs": [
        {
          "internalType": "address",
          "name": "to",
          "type": "address"
        }
      ],
      "name": "transferOwnership",
      "outputs": [],
      "stateMutability": "nonpayable",
      "type": "function"
    },
    {
      "inputs": [],
      "name": "typeAndVersion",
      "outputs": [
        {
          "internalType": "string",
          "name": "",
          "type": "string"
        }
      ],
      "stateMutability": "pure",
      "type": "function"
    },
    {
      "inputs": [
        {
          "internalType": "uint256",
          "name": "",
          "type": "uint256"
        },
        {
          "internalType": "int256",
          "name": "previousAnswer",
          "type": "int256"
        },
        {
          "internalType": "uint256",
          "name": "",
          "type": "uint256"
        },
        {
          "internalType": "int256",
          "name": "currentAnswer",
          "type": "int256"
        }
      ],
      "name": "validate",
      "outputs": [
        {
          "internalType": "bool",
          "name": "",
          "type": "bool"
        }
      ],
      "stateMutability": "nonpayable",
      "type": "function"
    },
    {
      "inputs": [],
      "name": "withdrawFunds",
      "outputs": [],
      "stateMutability": "nonpayable",
      "type": "function"
    },
    {
      "inputs": [
        {
          "internalType": "uint256",
          "name": "amount",
          "type": "uint256"
        },
        {
          "internalType": "address",
          "name": "refundAddr",
          "type": "address"
        }
      ],
      "name": "withdrawFundsFromL2",
      "outputs": [
        {
          "internalType": "uint256",
          "name": "id",
          "type": "uint256"
        }
      ],
      "stateMutability": "nonpayable",
      "type": "function"
    },
    {
      "inputs": [
        {
          "internalType": "address payable",
          "name": "recipient",
          "type": "address"
        }
      ],
      "name": "withdrawFundsTo",
      "outputs": [],
      "stateMutability": "nonpayable",
      "type": "function"
    },
    {
      "stateMutability": "payable",
      "type": "receive"
    }
  ],
  "bytecode": "0x6101006040526200001b306200026c60201b620013511760201c565b60601b6001600160601b03191660e0523480156200003857600080fd5b506040516200269e3803806200269e8339810160408190526200005b9162000597565b3380600081620000b25760405162461bcd60e51b815260206004820152601860248201527f43616e6e6f7420736574206f776e657220746f207a65726f000000000000000060448201526064015b60405180910390fd5b600080546001600160a01b0319166001600160a01b0384811691909117909155811615620000e557620000e58162000285565b50506001805460ff60a01b1916600160a01b179055506001600160a01b0388166200015d5760405162461bcd60e51b815260206004820152602160248201527f496e76616c69642078446f6d61696e204d657373656e676572206164647265736044820152607360f81b6064820152608401620000a9565b6001600160a01b038716620001c15760405162461bcd60e51b8152602060048201526024808201527f496e76616c6964204c322078446f6d61696e20466f72776172646572206164646044820152637265737360e01b6064820152608401620000a9565b6001600160a01b038616620002195760405162461bcd60e51b815260206004820152601e60248201527f496e76616c696420466c61677320636f6e7472616374206164647265737300006044820152606401620000a9565b6001600160601b0319606089811b821660805288811b821660a05287901b1660c052620002468562000331565b620002538484846200039b565b6200025e8162000513565b50505050505050506200064a565b7311110000000000000000000000000000000011110190565b6001600160a01b038116331415620002e05760405162461bcd60e51b815260206004820152601760248201527f43616e6e6f74207472616e7366657220746f2073656c660000000000000000006044820152606401620000a9565b600180546001600160a01b0319166001600160a01b0383811691821790925560008054604051929316917fed8889f560326eb138920d842192f0eb3dd22b4f139c87a2c57538e05bae12789190a350565b6007546001600160a01b0390811690821681146200039757600780546001600160a01b0319166001600160a01b0384811691821790925560405190918316907f6b0ce63879b19fa36f93da30a36f44140d8c3c727b6c75a16165c2017037d2cc90600090a35b5050565b60008311620003df5760405162461bcd60e51b815260206004820152600f60248201526e4d617820676173206973207a65726f60881b6044820152606401620000a9565b60008211620004315760405162461bcd60e51b815260206004820152601560248201527f47617320707269636520626964206973207a65726f00000000000000000000006044820152606401620000a9565b6001600160a01b038116620004955760405162461bcd60e51b8152602060048201526024808201527f4761732070726963652041676772656761746f72206973207a65726f206164646044820152637265737360e01b6064820152608401620000a9565b6040805160608101825284815260208082018590526001600160a01b03841691830182905260048690556005859055600680546001600160a01b03191683179055825186815290810185905290917f35674f8e28e701bef8f072d1034d588998f6966a59806b4299f6749c86b269e3910160405180910390a2505050565b6003805482919060ff19166001838181111562000534576200053462000634565b02179055508060018111156200054e576200054e62000634565b6040517fcc19f6868f2a8f851b1b59973487a53f0ac827f88698345b1529ef7c77b22bb590600090a250565b80516001600160a01b03811681146200059257600080fd5b919050565b600080600080600080600080610100898b031215620005b557600080fd5b620005c0896200057a565b9750620005d060208a016200057a565b9650620005e060408a016200057a565b9550620005f060608a016200057a565b94506080890151935060a089015192506200060e60c08a016200057a565b915060e0890151600281106200062357600080fd5b809150509295985092959890939650565b634e487b7160e01b600052602160045260246000fd5b60805160601c60a05160601c60c05160601c60e05160601c611feb620006b3600039600081816103020152610f690152600081816102ce0152610fab0152600081816104f6015261128d0152600081816101e4015281816106f501526112500152611feb6000f3fe60806040526004361061018f5760003560e01c80636b14daf8116100d6578063a118f2491161007f578063beed9b5111610059578063beed9b5114610518578063dc7f012414610538578063f2fde38b1461056a57600080fd5b8063a118f249146104a4578063a2e6e0eb146104c4578063a975f942146104e457600080fd5b80638823da6c116100b05780638823da6c146104395780638a67ad0f146104595780638da5cb5b1461047957600080fd5b80636b14daf8146103df57806379ba50971461040f5780638038e4a11461042457600080fd5b80632b62c33a11610138578063490a443211610112578063490a4432146103525780635def6ea71461039f5780635e521eca146103bf57600080fd5b80632b62c33a146102bc5780633e48f015146102f057806344c2fa0c1461032457600080fd5b8063181f5a7711610169578063181f5a771461023057806324600fc31461027c578063276bf08f1461029157600080fd5b806302163e6c1461019b5780630a756983146101bd57806316be836c146101d257600080fd5b3661019657005b600080fd5b3480156101a757600080fd5b506101bb6101b6366004611a81565b61058a565b005b3480156101c957600080fd5b506101bb61059e565b3480156101de57600080fd5b506102067f000000000000000000000000000000000000000000000000000000000000000081565b60405173ffffffffffffffffffffffffffffffffffffffff90911681526020015b60405180910390f35b34801561023c57600080fd5b50604080518082018252601781527f417262697472756d56616c696461746f7220302e322e30000000000000000000602082015290516102279190611e75565b34801561028857600080fd5b506101bb61061d565b34801561029d57600080fd5b5060075473ffffffffffffffffffffffffffffffffffffffff16610206565b3480156102c857600080fd5b506102067f000000000000000000000000000000000000000000000000000000000000000081565b3480156102fc57600080fd5b506102067f000000000000000000000000000000000000000000000000000000000000000081565b34801561033057600080fd5b5061034461033f366004611bdc565b610635565b604051908152602001610227565b34801561035e57600080fd5b5061036761080c565b6040805182518152602080840151908201529181015173ffffffffffffffffffffffffffffffffffffffff1690820152606001610227565b3480156103ab57600080fd5b506101bb6103ba366004611c3e565b610881565b3480156103cb57600080fd5b5060035460ff166040516102279190611e34565b3480156103eb57600080fd5b506103ff6103fa366004611a9e565b6109ea565b6040519015158152602001610227565b34801561041b57600080fd5b506101bb610a40565b34801561043057600080fd5b506101bb610b3d565b34801561044557600080fd5b506101bb610454366004611a81565b610bd1565b34801561046557600080fd5b506101bb610474366004611ba2565b610c8a565b34801561048557600080fd5b5060005473ffffffffffffffffffffffffffffffffffffffff16610206565b3480156104b057600080fd5b506101bb6104bf366004611a81565b610de7565b3480156104d057600080fd5b506101bb6104df366004611a81565b610e9b565b3480156104f057600080fd5b506102067f000000000000000000000000000000000000000000000000000000000000000081565b34801561052457600080fd5b506103ff610533366004611c0c565b610eae565b34801561054457600080fd5b506001546103ff9074010000000000000000000000000000000000000000900460ff1681565b34801561057657600080fd5b506101bb610585366004611a81565b611340565b61059261136a565b61059b816113eb565b50565b6105a661136a565b60015474010000000000000000000000000000000000000000900460ff161561061b57600180547fffffffffffffffffffffff00ffffffffffffffffffffffffffffffffffffffff1690556040517f3be8a977a014527b50ae38adda80b56911c267328965c98ddc385d248f53963890600090a15b565b61062561136a565b33476106318282611485565b5050565b600061063f61136a565b60408051306024808301919091528251808303909101815260449091019091526020810180517bffffffffffffffffffffffffffffffffffffffffffffffffffffffff167f928c169a0000000000000000000000000000000000000000000000000000000017905280516000906106b5906115df565b600554909150620186a09060008060035460ff1660018111156106da576106da611f5e565b146106e65760006106f1565b6106f18484846116be565b90507f000000000000000000000000000000000000000000000000000000000000000073ffffffffffffffffffffffffffffffffffffffff16631b871c8d8260648b888c8d8a8a8e6040518a63ffffffff1660e01b815260040161075c989796959493929190611dcb565b6020604051808303818588803b15801561077557600080fd5b505af1158015610789573d6000803e3d6000fd5b50505050506040513d601f19601f820116820180604052508101906107ae9190611bc3565b95508673ffffffffffffffffffffffffffffffffffffffff16867f06f76b16d832d9e442e96306c36f3f2a819b64bd28441aa14fef67308a95c7168a6040516107f991815260200190565b60405180910390a3505050505092915050565b61084660405180606001604052806000815260200160008152602001600073ffffffffffffffffffffffffffffffffffffffff1681525090565b50604080516060810182526004548152600554602082015260065473ffffffffffffffffffffffffffffffffffffffff169181019190915290565b60005473ffffffffffffffffffffffffffffffffffffffff1633148061096f575060075473ffffffffffffffffffffffffffffffffffffffff161580159061096f57506007546040517f6b14daf800000000000000000000000000000000000000000000000000000000815273ffffffffffffffffffffffffffffffffffffffff90911690636b14daf89061091f9033906000903690600401611d32565b60206040518083038186803b15801561093757600080fd5b505afa15801561094b573d6000803e3d6000fd5b505050506040513d601f19601f8201168201806040525081019061096f9190611b80565b6109da576040517f08c379a000000000000000000000000000000000000000000000000000000000815260206004820152600960248201527f4e6f20616363657373000000000000000000000000000000000000000000000060448201526064015b60405180910390fd5b6109e58383836116d4565b505050565b73ffffffffffffffffffffffffffffffffffffffff821660009081526002602052604081205460ff1680610a39575060015474010000000000000000000000000000000000000000900460ff16155b9392505050565b60015473ffffffffffffffffffffffffffffffffffffffff163314610ac1576040517f08c379a000000000000000000000000000000000000000000000000000000000815260206004820152601660248201527f4d7573742062652070726f706f736564206f776e65720000000000000000000060448201526064016109d1565b60008054337fffffffffffffffffffffffff00000000000000000000000000000000000000008083168217845560018054909116905560405173ffffffffffffffffffffffffffffffffffffffff90921692909183917f8be0079c531659141344cd1fd0a4f28419497f9722a3daafe3b4186f6b6457e091a350565b610b4561136a565b60015474010000000000000000000000000000000000000000900460ff1661061b57600180547fffffffffffffffffffffff00ffffffffffffffffffffffffffffffffffffffff16740100000000000000000000000000000000000000001790556040517faebf329500988c6488a0074e5a0a9ff304561fc5c6fc877aeb1d59c8282c348090600090a1565b610bd961136a565b73ffffffffffffffffffffffffffffffffffffffff811660009081526002602052604090205460ff161561059b5773ffffffffffffffffffffffffffffffffffffffff811660008181526002602090815260409182902080547fffffffffffffffffffffffffffffffffffffffffffffffffffffffffffffff0016905590519182527f3d68a6fce901d20453d1a7aa06bf3950302a735948037deb182a8db66df2a0d191015b60405180910390a150565b60005473ffffffffffffffffffffffffffffffffffffffff16331480610d78575060075473ffffffffffffffffffffffffffffffffffffffff1615801590610d7857506007546040517f6b14daf800000000000000000000000000000000000000000000000000000000815273ffffffffffffffffffffffffffffffffffffffff90911690636b14daf890610d289033906000903690600401611d32565b60206040518083038186803b158015610d4057600080fd5b505afa158015610d54573d6000803e3d6000fd5b505050506040513d601f19601f82011682018060405250810190610d789190611b80565b610dde576040517f08c379a000000000000000000000000000000000000000000000000000000000815260206004820152600960248201527f4e6f20616363657373000000000000000000000000000000000000000000000060448201526064016109d1565b61059b816118ed565b610def61136a565b73ffffffffffffffffffffffffffffffffffffffff811660009081526002602052604090205460ff1661059b5773ffffffffffffffffffffffffffffffffffffffff811660008181526002602090815260409182902080547fffffffffffffffffffffffffffffffffffffffffffffffffffffffffffffff0016600117905590519182527f87286ad1f399c8e82bf0c4ef4fcdc570ea2e1e92176e5c848b6413545b885db49101610c7f565b610ea361136a565b476106318282611485565b6000610ef1336000368080601f0160208091040260200160405190810160405280939291908181526020018383808284376000920191909152506109ea92505050565b610f57576040517f08c379a000000000000000000000000000000000000000000000000000000000815260206004820152600960248201527f4e6f20616363657373000000000000000000000000000000000000000000000060448201526064016109d1565b81841415610f6757506001611338565b7f00000000000000000000000000000000000000000000000000000000000000007f6fadcf72000000000000000000000000000000000000000000000000000000007f00000000000000000000000000000000000000000000000000000000000000006000600186146110b3577fe37a83660000000000000000000000000000000000000000000000000000000061102060017fa438451d6458044c3c8cd2f6f31c91ac882a6d917fa1d50c2bc3074c4524952d611f18565b60405160609190911c6024820152604401604080517fffffffffffffffffffffffffffffffffffffffffffffffffffffffffffffffe08184030181529190526020810180517bffffffffffffffffffffffffffffffffffffffffffffffffffffffff167fffffffff000000000000000000000000000000000000000000000000000000009093169290921790915261118e565b7fd74af263000000000000000000000000000000000000000000000000000000006110ff60017fa438451d6458044c3c8cd2f6f31c91ac882a6d917fa1d50c2bc3074c4524952d611f18565b60405160609190911c6024820152604401604080517fffffffffffffffffffffffffffffffffffffffffffffffffffffffffffffffe08184030181529190526020810180517bffffffffffffffffffffffffffffffffffffffffffffffffffffffff167fffffffff00000000000000000000000000000000000000000000000000000000909316929092179091525b905060008383836040516024016111a6929190611d9c565b604051602081830303815290604052907bffffffffffffffffffffffffffffffffffffffffffffffffffffffff19166020820180517bffffffffffffffffffffffffffffffffffffffffffffffffffffffff83818316178352505050509050600061121182516115df565b6004546005549192509060008060035460ff16600181111561123557611235611f5e565b1461124157600061124c565b61124c8484846116be565b90507f000000000000000000000000000000000000000000000000000000000000000073ffffffffffffffffffffffffffffffffffffffff16631b871c8d827f00000000000000000000000000000000000000000000000000000000000000006000888e8f8a8a8e6040518a63ffffffff1660e01b81526004016112d7989796959493929190611dcb565b6020604051808303818588803b1580156112f057600080fd5b505af1158015611304573d6000803e3d6000fd5b50505050506040513d601f19601f820116820180604052508101906113299190611bc3565b50600199505050505050505050505b949350505050565b61134861136a565b61059b8161196c565b7311110000000000000000000000000000000011110190565b60005473ffffffffffffffffffffffffffffffffffffffff16331461061b576040517f08c379a000000000000000000000000000000000000000000000000000000000815260206004820152601660248201527f4f6e6c792063616c6c61626c65206279206f776e65720000000000000000000060448201526064016109d1565b60075473ffffffffffffffffffffffffffffffffffffffff908116908216811461063157600780547fffffffffffffffffffffffff00000000000000000000000000000000000000001673ffffffffffffffffffffffffffffffffffffffff84811691821790925560405190918316907f6b0ce63879b19fa36f93da30a36f44140d8c3c727b6c75a16165c2017037d2cc90600090a35050565b804710156114ef576040517f08c379a000000000000000000000000000000000000000000000000000000000815260206004820152601d60248201527f416464726573733a20696e73756666696369656e742062616c616e636500000060448201526064016109d1565b60008273ffffffffffffffffffffffffffffffffffffffff168260405160006040518083038185875af1925050503d8060008114611549576040519150601f19603f3d011682016040523d82523d6000602084013e61154e565b606091505b50509050806109e5576040517f08c379a000000000000000000000000000000000000000000000000000000000815260206004820152603a60248201527f416464726573733a20756e61626c6520746f2073656e642076616c75652c207260448201527f6563697069656e74206d6179206861766520726576657274656400000000000060648201526084016109d1565b600080600460020160009054906101000a900473ffffffffffffffffffffffffffffffffffffffff1673ffffffffffffffffffffffffffffffffffffffff1663feaf968c6040518163ffffffff1660e01b815260040160a06040518083038186803b15801561164d57600080fd5b505afa158015611661573d6000803e3d6000fd5b505050506040513d601f19601f820116820180604052508101906116859190611c77565b505050915050600081600361169a9190611edb565b9050806101006116aa8683611edb565b6116b49190611ea0565b6113389190611e88565b60006116ca8284611edb565b6113389085611e88565b6000831161173e576040517f08c379a000000000000000000000000000000000000000000000000000000000815260206004820152600f60248201527f4d617820676173206973207a65726f000000000000000000000000000000000060448201526064016109d1565b600082116117a8576040517f08c379a000000000000000000000000000000000000000000000000000000000815260206004820152601560248201527f47617320707269636520626964206973207a65726f000000000000000000000060448201526064016109d1565b73ffffffffffffffffffffffffffffffffffffffff811661184a576040517f08c379a0000000000000000000000000000000000000000000000000000000008152602060048201526024808201527f4761732070726963652041676772656761746f72206973207a65726f2061646460448201527f726573730000000000000000000000000000000000000000000000000000000060648201526084016109d1565b60408051606081018252848152602080820185905273ffffffffffffffffffffffffffffffffffffffff841691830182905260048690556005859055600680547fffffffffffffffffffffffff00000000000000000000000000000000000000001683179055825186815290810185905290917f35674f8e28e701bef8f072d1034d588998f6966a59806b4299f6749c86b269e3910160405180910390a2505050565b600380548291907fffffffffffffffffffffffffffffffffffffffffffffffffffffffffffffff00166001838181111561192957611929611f5e565b021790555080600181111561194057611940611f5e565b6040517fcc19f6868f2a8f851b1b59973487a53f0ac827f88698345b1529ef7c77b22bb590600090a250565b73ffffffffffffffffffffffffffffffffffffffff81163314156119ec576040517f08c379a000000000000000000000000000000000000000000000000000000000815260206004820152601760248201527f43616e6e6f74207472616e7366657220746f2073656c6600000000000000000060448201526064016109d1565b600180547fffffffffffffffffffffffff00000000000000000000000000000000000000001673ffffffffffffffffffffffffffffffffffffffff83811691821790925560008054604051929316917fed8889f560326eb138920d842192f0eb3dd22b4f139c87a2c57538e05bae12789190a350565b805169ffffffffffffffffffff81168114611a7c57600080fd5b919050565b600060208284031215611a9357600080fd5b8135610a3981611fbc565b60008060408385031215611ab157600080fd5b8235611abc81611fbc565b9150602083013567ffffffffffffffff80821115611ad957600080fd5b818501915085601f830112611aed57600080fd5b813581811115611aff57611aff611f8d565b604051601f82017fffffffffffffffffffffffffffffffffffffffffffffffffffffffffffffffe0908116603f01168101908382118183101715611b4557611b45611f8d565b81604052828152886020848701011115611b5e57600080fd5b8260208601602083013760006020848301015280955050505050509250929050565b600060208284031215611b9257600080fd5b81518015158114610a3957600080fd5b600060208284031215611bb457600080fd5b813560028110610a3957600080fd5b600060208284031215611bd557600080fd5b5051919050565b60008060408385031215611bef57600080fd5b823591506020830135611c0181611fbc565b809150509250929050565b60008060008060808587031215611c2257600080fd5b5050823594602084013594506040840135936060013592509050565b600080600060608486031215611c5357600080fd5b83359250602084013591506040840135611c6c81611fbc565b809150509250925092565b600080600080600060a08688031215611c8f57600080fd5b611c9886611a62565b9450602086015193506040860151925060608601519150611cbb60808701611a62565b90509295509295909350565b6000815180845260005b81811015611ced57602081850181015186830182015201611cd1565b81811115611cff576000602083870101525b50601f017fffffffffffffffffffffffffffffffffffffffffffffffffffffffffffffffe0169290920160200192915050565b73ffffffffffffffffffffffffffffffffffffffff8416815260406020820152816040820152818360608301376000818301606090810191909152601f9092017fffffffffffffffffffffffffffffffffffffffffffffffffffffffffffffffe016010192915050565b73ffffffffffffffffffffffffffffffffffffffff831681526040602082015260006113386040830184611cc7565b600061010073ffffffffffffffffffffffffffffffffffffffff808c1684528a602085015289604085015280891660608501528088166080850152508560a08401528460c08401528060e0840152611e2581840185611cc7565b9b9a5050505050505050505050565b6020810160028310611e6f577f4e487b7100000000000000000000000000000000000000000000000000000000600052602160045260246000fd5b91905290565b602081526000610a396020830184611cc7565b60008219821115611e9b57611e9b611f2f565b500190565b600082611ed6577f4e487b7100000000000000000000000000000000000000000000000000000000600052601260045260246000fd5b500490565b6000817fffffffffffffffffffffffffffffffffffffffffffffffffffffffffffffffff0483118215151615611f1357611f13611f2f565b500290565b600082821015611f2a57611f2a611f2f565b500390565b7f4e487b7100000000000000000000000000000000000000000000000000000000600052601160045260246000fd5b7f4e487b7100000000000000000000000000000000000000000000000000000000600052602160045260246000fd5b7f4e487b7100000000000000000000000000000000000000000000000000000000600052604160045260246000fd5b73ffffffffffffffffffffffffffffffffffffffff8116811461059b57600080fdfea164736f6c6343000806000a",
  "linkReferences": {},
  "deployedLinkReferences": {}
}