{
  "_format": "hh-sol-artifact-1",
  "contractName": "Flags",
  "sourceName": "src/v0.6/Flags.sol",
  "abi": [
    {
      "inputs": [
        {
          "internalType": "address",
          "name": "racAddress",
          "type": "address"
        }
      ],
      "stateMutability": "nonpayable",
      "type": "constructor"
    },
    {
      "anonymous": false,
      "inputs": [
        {
          "indexed": false,
          "internalType": "address",
          "name": "user",
          "type": "address"
        }
      ],
      "name": "AddedAccess",
      "type": "event"
    },
    {
      "anonymous": false,
      "inputs": [],
      "name": "CheckAccessDisabled",
      "type": "event"
    },
    {
      "anonymous": false,
      "inputs": [],
      "name": "CheckAccessEnabled",
      "type": "event"
    },
    {
      "anonymous": false,
      "inputs": [
        {
          "indexed": true,
          "internalType": "address",
          "name": "subject",
          "type": "address"
        }
      ],
      "name": "FlagLowered",
      "type": "event"
    },
    {
      "anonymous": false,
      "inputs": [
        {
          "indexed": true,
          "internalType": "address",
          "name": "subject",
          "type": "address"
        }
      ],
      "name": "FlagRaised",
      "type": "event"
    },
    {
      "anonymous": false,
      "inputs": [
        {
          "indexed": true,
          "internalType": "address",
          "name": "from",
          "type": "address"
        },
        {
          "indexed": true,
          "internalType": "address",
          "name": "to",
          "type": "address"
        }
      ],
      "name": "OwnershipTransferRequested",
      "type": "event"
    },
    {
      "anonymous": false,
      "inputs": [
        {
          "indexed": true,
          "internalType": "address",
          "name": "from",
          "type": "address"
        },
        {
          "indexed": true,
          "internalType": "address",
          "name": "to",
          "type": "address"
        }
      ],
      "name": "OwnershipTransferred",
      "type": "event"
    },
    {
      "anonymous": false,
      "inputs": [
        {
          "indexed": true,
          "internalType": "address",
          "name": "previous",
          "type": "address"
        },
        {
          "indexed": true,
          "internalType": "address",
          "name": "current",
          "type": "address"
        }
      ],
      "name": "RaisingAccessControllerUpdated",
      "type": "event"
    },
    {
      "anonymous": false,
      "inputs": [
        {
          "indexed": false,
          "internalType": "address",
          "name": "user",
          "type": "address"
        }
      ],
      "name": "RemovedAccess",
      "type": "event"
    },
    {
      "inputs": [],
      "name": "acceptOwnership",
      "outputs": [],
      "stateMutability": "nonpayable",
      "type": "function"
    },
    {
      "inputs": [
        {
          "internalType": "address",
          "name": "_user",
          "type": "address"
        }
      ],
      "name": "addAccess",
      "outputs": [],
      "stateMutability": "nonpayable",
      "type": "function"
    },
    {
      "inputs": [],
      "name": "checkEnabled",
      "outputs": [
        {
          "internalType": "bool",
          "name": "",
          "type": "bool"
        }
      ],
      "stateMutability": "view",
      "type": "function"
    },
    {
      "inputs": [],
      "name": "disableAccessCheck",
      "outputs": [],
      "stateMutability": "nonpayable",
      "type": "function"
    },
    {
      "inputs": [],
      "name": "enableAccessCheck",
      "outputs": [],
      "stateMutability": "nonpayable",
      "type": "function"
    },
    {
      "inputs": [
        {
          "internalType": "address",
          "name": "subject",
          "type": "address"
        }
      ],
      "name": "getFlag",
      "outputs": [
        {
          "internalType": "bool",
          "name": "",
          "type": "bool"
        }
      ],
      "stateMutability": "view",
      "type": "function"
    },
    {
      "inputs": [
        {
          "internalType": "address[]",
          "name": "subjects",
          "type": "address[]"
        }
      ],
      "name": "getFlags",
      "outputs": [
        {
          "internalType": "bool[]",
          "name": "",
          "type": "bool[]"
        }
      ],
      "stateMutability": "view",
      "type": "function"
    },
    {
      "inputs": [
        {
          "internalType": "address",
          "name": "_user",
          "type": "address"
        },
        {
          "internalType": "bytes",
          "name": "_calldata",
          "type": "bytes"
        }
      ],
      "name": "hasAccess",
      "outputs": [
        {
          "internalType": "bool",
          "name": "",
          "type": "bool"
        }
      ],
      "stateMutability": "view",
      "type": "function"
    },
    {
      "inputs": [
        {
          "internalType": "address[]",
          "name": "subjects",
          "type": "address[]"
        }
      ],
      "name": "lowerFlags",
      "outputs": [],
      "stateMutability": "nonpayable",
      "type": "function"
    },
    {
      "inputs": [],
      "name": "owner",
      "outputs": [
        {
          "internalType": "address",
          "name": "",
          "type": "address"
        }
      ],
      "stateMutability": "view",
      "type": "function"
    },
    {
      "inputs": [
        {
          "internalType": "address",
          "name": "subject",
          "type": "address"
        }
      ],
      "name": "raiseFlag",
      "outputs": [],
      "stateMutability": "nonpayable",
      "type": "function"
    },
    {
      "inputs": [
        {
          "internalType": "address[]",
          "name": "subjects",
          "type": "address[]"
        }
      ],
      "name": "raiseFlags",
      "outputs": [],
      "stateMutability": "nonpayable",
      "type": "function"
    },
    {
      "inputs": [],
      "name": "raisingAccessController",
      "outputs": [
        {
          "internalType": "contract AccessControllerInterface",
          "name": "",
          "type": "address"
        }
      ],
      "stateMutability": "view",
      "type": "function"
    },
    {
      "inputs": [
        {
          "internalType": "address",
          "name": "_user",
          "type": "address"
        }
      ],
      "name": "removeAccess",
      "outputs": [],
      "stateMutability": "nonpayable",
      "type": "function"
    },
    {
      "inputs": [
        {
          "internalType": "address",
          "name": "racAddress",
          "type": "address"
        }
      ],
      "name": "setRaisingAccessController",
      "outputs": [],
      "stateMutability": "nonpayable",
      "type": "function"
    },
    {
      "inputs": [
        {
          "internalType": "address",
          "name": "_to",
          "type": "address"
        }
      ],
      "name": "transferOwnership",
      "outputs": [],
      "stateMutability": "nonpayable",
      "type": "function"
    }
  ],
  "bytecode": "0x608060405234801561001057600080fd5b506040516115a43803806115a48339818101604052602081101561003357600080fd5b5051600080546001600160a01b031916331790556001805460ff60a01b1916600160a01b17905561006c816001600160e01b0361007216565b5061013a565b6000546001600160a01b031633146100d1576040805162461bcd60e51b815260206004820152601660248201527f4f6e6c792063616c6c61626c65206279206f776e657200000000000000000000604482015290519081900360640190fd5b6003546001600160a01b03908116908216811461013657600380546001600160a01b0319166001600160a01b0384811691821790925560405190918316907fbaf9ea078655a4fffefd08f9435677bbc91e457a6d015fe7de1d0e68b8802cac90600090a35b5050565b61145b806101496000396000f3fe608060405234801561001057600080fd5b50600436106101005760003560e01c80637d723cac11610097578063a118f24911610066578063a118f24914610468578063d74af2631461049b578063dc7f0124146104ce578063f2fde38b146104d657610100565b80637d723cac146103655780638038e4a1146104255780638823da6c1461042d5780638da5cb5b1461046057610100565b8063517e89fe116100d3578063517e89fe146101f75780636b14daf81461022a578063760bc82d146102ed57806379ba50971461035d57610100565b80630a75698314610105578063282865961461010f5780632e1d859c1461017f578063357e47fe146101b0575b600080fd5b61010d610509565b005b61010d6004803603602081101561012557600080fd5b81019060208101813564010000000081111561014057600080fd5b82018360208201111561015257600080fd5b8035906020019184602083028401116401000000008311171561017457600080fd5b509092509050610606565b610187610761565b6040805173ffffffffffffffffffffffffffffffffffffffff9092168252519081900360200190f35b6101e3600480360360208110156101c657600080fd5b503573ffffffffffffffffffffffffffffffffffffffff1661077d565b604080519115158252519081900360200190f35b61010d6004803603602081101561020d57600080fd5b503573ffffffffffffffffffffffffffffffffffffffff16610857565b6101e36004803603604081101561024057600080fd5b73ffffffffffffffffffffffffffffffffffffffff823516919081019060408101602082013564010000000081111561027857600080fd5b82018360208201111561028a57600080fd5b803590602001918460018302840111640100000000831117156102ac57600080fd5b91908080601f016020809104026020016040519081016040528093929190818152602001838380828437600092019190915250929550610978945050505050565b61010d6004803603602081101561030357600080fd5b81019060208101813564010000000081111561031e57600080fd5b82018360208201111561033057600080fd5b8035906020019184602083028401116401000000008311171561035257600080fd5b5090925090506109ab565b61010d610a62565b6103d56004803603602081101561037b57600080fd5b81019060208101813564010000000081111561039657600080fd5b8201836020820111156103a857600080fd5b803590602001918460208302840111640100000000831117156103ca57600080fd5b509092509050610b64565b60408051602080825283518183015283519192839290830191858101910280838360005b838110156104115781810151838201526020016103f9565b505050509050019250505060405180910390f35b61010d610d04565b61010d6004803603602081101561044357600080fd5b503573ffffffffffffffffffffffffffffffffffffffff16610e16565b610187610f4e565b61010d6004803603602081101561047e57600080fd5b503573ffffffffffffffffffffffffffffffffffffffff16610f6a565b61010d600480360360208110156104b157600080fd5b503573ffffffffffffffffffffffffffffffffffffffff166110a3565b6101e361111f565b61010d600480360360208110156104ec57600080fd5b503573ffffffffffffffffffffffffffffffffffffffff16611140565b60005473ffffffffffffffffffffffffffffffffffffffff16331461058f57604080517f08c379a000000000000000000000000000000000000000000000000000000000815260206004820152601660248201527f4f6e6c792063616c6c61626c65206279206f776e657200000000000000000000604482015290519081900360640190fd5b60015474010000000000000000000000000000000000000000900460ff161561060457600180547fffffffffffffffffffffff00ffffffffffffffffffffffffffffffffffffffff1690556040517f3be8a977a014527b50ae38adda80b56911c267328965c98ddc385d248f53963890600090a15b565b60005473ffffffffffffffffffffffffffffffffffffffff16331461068c57604080517f08c379a000000000000000000000000000000000000000000000000000000000815260206004820152601660248201527f4f6e6c792063616c6c61626c65206279206f776e657200000000000000000000604482015290519081900360640190fd5b60005b8181101561075c5760008383838181106106a557fe5b6020908102929092013573ffffffffffffffffffffffffffffffffffffffff16600081815260049093526040909220549192505060ff16156107535773ffffffffffffffffffffffffffffffffffffffff811660008181526004602052604080822080547fffffffffffffffffffffffffffffffffffffffffffffffffffffffffffffff00169055517fd86728e2e5cbaa28c1d357b5fbccc9c1ab0add09950eb7cac42df9acb24c4bc89190a25b5060010161068f565b505050565b60035473ffffffffffffffffffffffffffffffffffffffff1681565b60006107c0336000368080601f01602080910402602001604051908101604052809392919081815260200183838082843760009201919091525061097892505050565b61082b57604080517f08c379a000000000000000000000000000000000000000000000000000000000815260206004820152600960248201527f4e6f206163636573730000000000000000000000000000000000000000000000604482015290519081900360640190fd5b5073ffffffffffffffffffffffffffffffffffffffff1660009081526004602052604090205460ff1690565b60005473ffffffffffffffffffffffffffffffffffffffff1633146108dd57604080517f08c379a000000000000000000000000000000000000000000000000000000000815260206004820152601660248201527f4f6e6c792063616c6c61626c65206279206f776e657200000000000000000000604482015290519081900360640190fd5b60035473ffffffffffffffffffffffffffffffffffffffff908116908216811461097457600380547fffffffffffffffffffffffff00000000000000000000000000000000000000001673ffffffffffffffffffffffffffffffffffffffff84811691821790925560405190918316907fbaf9ea078655a4fffefd08f9435677bbc91e457a6d015fe7de1d0e68b8802cac90600090a35b5050565b6000610984838361123c565b806109a4575073ffffffffffffffffffffffffffffffffffffffff831632145b9392505050565b6109b3611291565b610a1e57604080517f08c379a000000000000000000000000000000000000000000000000000000000815260206004820152601a60248201527f4e6f7420616c6c6f77656420746f20726169736520666c616773000000000000604482015290519081900360640190fd5b60005b8181101561075c57610a5a838383818110610a3857fe5b9050602002013573ffffffffffffffffffffffffffffffffffffffff166113aa565b600101610a21565b60015473ffffffffffffffffffffffffffffffffffffffff163314610ae857604080517f08c379a000000000000000000000000000000000000000000000000000000000815260206004820152601660248201527f4d7573742062652070726f706f736564206f776e657200000000000000000000604482015290519081900360640190fd5b60008054337fffffffffffffffffffffffff00000000000000000000000000000000000000008083168217845560018054909116905560405173ffffffffffffffffffffffffffffffffffffffff90921692909183917f8be0079c531659141344cd1fd0a4f28419497f9722a3daafe3b4186f6b6457e091a350565b6060610ba7336000368080601f01602080910402602001604051908101604052809392919081815260200183838082843760009201919091525061097892505050565b610c1257604080517f08c379a000000000000000000000000000000000000000000000000000000000815260206004820152600960248201527f4e6f206163636573730000000000000000000000000000000000000000000000604482015290519081900360640190fd5b60608267ffffffffffffffff81118015610c2b57600080fd5b50604051908082528060200260200182016040528015610c55578160200160208202803683370190505b50905060005b83811015610cfc5760046000868684818110610c7357fe5b9050602002013573ffffffffffffffffffffffffffffffffffffffff1673ffffffffffffffffffffffffffffffffffffffff1673ffffffffffffffffffffffffffffffffffffffff16815260200190815260200160002060009054906101000a900460ff16828281518110610ce457fe5b91151560209283029190910190910152600101610c5b565b509392505050565b60005473ffffffffffffffffffffffffffffffffffffffff163314610d8a57604080517f08c379a000000000000000000000000000000000000000000000000000000000815260206004820152601660248201527f4f6e6c792063616c6c61626c65206279206f776e657200000000000000000000604482015290519081900360640190fd5b60015474010000000000000000000000000000000000000000900460ff1661060457600180547fffffffffffffffffffffff00ffffffffffffffffffffffffffffffffffffffff16740100000000000000000000000000000000000000001790556040517faebf329500988c6488a0074e5a0a9ff304561fc5c6fc877aeb1d59c8282c348090600090a1565b60005473ffffffffffffffffffffffffffffffffffffffff163314610e9c57604080517f08c379a000000000000000000000000000000000000000000000000000000000815260206004820152601660248201527f4f6e6c792063616c6c61626c65206279206f776e657200000000000000000000604482015290519081900360640190fd5b73ffffffffffffffffffffffffffffffffffffffff811660009081526002602052604090205460ff1615610f4b5773ffffffffffffffffffffffffffffffffffffffff811660008181526002602090815260409182902080547fffffffffffffffffffffffffffffffffffffffffffffffffffffffffffffff00169055815192835290517f3d68a6fce901d20453d1a7aa06bf3950302a735948037deb182a8db66df2a0d19281900390910190a15b50565b60005473ffffffffffffffffffffffffffffffffffffffff1681565b60005473ffffffffffffffffffffffffffffffffffffffff163314610ff057604080517f08c379a000000000000000000000000000000000000000000000000000000000815260206004820152601660248201527f4f6e6c792063616c6c61626c65206279206f776e657200000000000000000000604482015290519081900360640190fd5b73ffffffffffffffffffffffffffffffffffffffff811660009081526002602052604090205460ff16610f4b5773ffffffffffffffffffffffffffffffffffffffff811660008181526002602090815260409182902080547fffffffffffffffffffffffffffffffffffffffffffffffffffffffffffffff00166001179055815192835290517f87286ad1f399c8e82bf0c4ef4fcdc570ea2e1e92176e5c848b6413545b885db49281900390910190a150565b6110ab611291565b61111657604080517f08c379a000000000000000000000000000000000000000000000000000000000815260206004820152601a60248201527f4e6f7420616c6c6f77656420746f20726169736520666c616773000000000000604482015290519081900360640190fd5b610f4b816113aa565b60015474010000000000000000000000000000000000000000900460ff1681565b60005473ffffffffffffffffffffffffffffffffffffffff1633146111c657604080517f08c379a000000000000000000000000000000000000000000000000000000000815260206004820152601660248201527f4f6e6c792063616c6c61626c65206279206f776e657200000000000000000000604482015290519081900360640190fd5b600180547fffffffffffffffffffffffff00000000000000000000000000000000000000001673ffffffffffffffffffffffffffffffffffffffff83811691821790925560008054604051929316917fed8889f560326eb138920d842192f0eb3dd22b4f139c87a2c57538e05bae12789190a350565b73ffffffffffffffffffffffffffffffffffffffff821660009081526002602052604081205460ff16806109a457505060015474010000000000000000000000000000000000000000900460ff161592915050565b6000805473ffffffffffffffffffffffffffffffffffffffff163314806113a55750600354604080517f6b14daf8000000000000000000000000000000000000000000000000000000008152336004820181815260248301938452366044840181905273ffffffffffffffffffffffffffffffffffffffff90951694636b14daf894929360009391929190606401848480828437600083820152604051601f9091017fffffffffffffffffffffffffffffffffffffffffffffffffffffffffffffffe016909201965060209550909350505081840390508186803b15801561137857600080fd5b505afa15801561138c573d6000803e3d6000fd5b505050506040513d60208110156113a257600080fd5b50515b905090565b73ffffffffffffffffffffffffffffffffffffffff811660009081526004602052604090205460ff16610f4b5773ffffffffffffffffffffffffffffffffffffffff811660008181526004602052604080822080547fffffffffffffffffffffffffffffffffffffffffffffffffffffffffffffff00166001179055517f881febd4cd194dd4ace637642862aef1fb59a65c7e5551a5d9208f268d11c0069190a25056fea164736f6c6343000606000a",
  "linkReferences": {},
  "deployedLinkReferences": {}
}